:020000040C00EE
:100000000088FE1F0102000891020008910200080A
:10001000910200089102000891020008000000000F
:100020000000000000000000000000009102000835
:10003000910200080000000091020008D14200086F
:100040009102000891020008910200089102000844
:100050009102000891020008910200089102000834
:1000600091020008000000000000000000000000F5
:1000700091020008000000009102000891020008AF
:100080001967000891020008910200089102000817
:1000900091020008910200089102000891020008F4
:1000A00091020008910200089102000891020008E4
:1000B00091020008910200089102000891020008D4
:1000C00091020008910200089102000891020008C4
:1000D00091020008910200089102000891020008B4
:1000E00091020008910200089102000891020008A4
:1000F0009102000891020008910200089102000894
:100100009102000891020008910200089102000883
:100110009102000891020008910200089102000873
:100120009102000891020008910200089102000863
:100130009102000891020008910200089102000853
:100140009102000891020008910200089102000843
:100150009102000891020008910200089102000833
:10016000000000000000000000000000000000008F
:100170009102000891020008910200089102000813
:100180009102000891020008910200089102000803
:1001900091020008910200089102000891020008F3
:1001A00091020008910200089102000891020008E3
:1001B00091020008910200089102000891020008D3
:1001C00091020008910200089102000891020008C3
:1001D000910200089102000891020008000000004E
:1001E0009102000891020008515300089102000892
:1001F00091020008000000009102000800000000C9
:10020000DFF870D01C4880471C4C1D4DAC4209DA09
:1002100021686268A368043BA2BFC858D050FAE7BF
:100220000C34F3E7174B184CA34208DA19685A68E4
:100230000020043AA4BF8850FBE70833F4E71348D2
:10024000804700007412010C0088FE1F9C02000011
:100250007412010C0088FE1F000000009C8AFE1F23
:10026000BC0500000000002000000000000000208D
:10027000000000000088FE1F9502000844020008EC
:100280005C0200085C02000874020008596600085D
:10029000FEE7000098B500AF054A4FF00053144642
:1002A0000FCB84E80F0005F023FF05F08BFF98BD0E
:1002B000C4FF032080B584B000AF2F4BDB6803F48C
:1002C0008033002B3ED02D4BDB6803F00103002B65
:1002D00002D02B4BFB6002E005F06AFFF860274B71
:1002E0001B6803F00403002B20D0244B9B6803F011
:1002F00070631B0E0133BB60204B9B6803F4FE430D
:100300001B0A01337B601D4B9B6803F4FE031B0C2F
:1003100001333B60BB683A6802FB03F3FA68B2FB47
:10032000F3F37A6802FB03F3FB600DE0134B9B6869
:1003300003F07F0301333B60FA683B68B2FBF3F3E1
:10034000FB6001E00E4BFB600B4BDB68DBB2013363
:10035000FA68B2FBF3F3FB60074B1B6903F0010380
:100360000133FA68B2FBF3F3FB60064AFB681360E3
:100370001037BD4680BD00BF0046005010470050FA
:1003800000366E01C0FF032080B485B000AFF86076
:100390000B467A60FB72FB7A9B08DBB21846FB7A4D
:1003A0009B08DBB21A46FB68043253F82220FB7A22
:1003B00003F00303DB001946F8238B40DB4302EA1A
:1003C0000301FB68021D43F82210FB685A6FFB7A99
:1003D0005B00194603238B40DB431A40FB685A67D6
:1003E000FB683A4A934203D0FB68394A93420AD1E8
:1003F000FB681A6EFB7A012101FA03F3DB431A4012
:10040000FB681A6642E07B681B78DBB25BB2002BAC
:100410003CDA7B685A68FB7A9A40FB685A60FB7A40
:10042000DB08DBB21846FB7ADB08DBB21A46FB6856
:10043000103253F82220FB7A03F007039B00194681
:1004400007238B40DB4302EA0301FB6800F1100243
:1004500043F82210FB7ADB08DBB21846FB7ADB0894
:10046000DBB21A46FB68103253F822207B681B7AF5
:100470001946FB7A03F007039B0001FA03F342EAF3
:100480000301FB6800F1100243F82210FB7A9B087D
:10049000DBB21846FB7A9B08DBB21A46FB680432D3
:1004A00053F822207B681B781946FB7A03F003037C
:1004B000DB0001FA03F342EA0301FB68021D43F883
:1004C00022101437BD465DF8047B7047008E024849
:1004D000008F024880B400AF064B5B6803F0010355
:1004E000002B14BF01230023DBB21846BD465DF884
:1004F000047B7047004A005080B400AF034BD3F830
:10050000C4301846BD465DF8047B7047004000507B
:1005100080B582B000AF7860FFF7DCFF034683F060
:100520000103DBB2002B3ED000F076FB034683F0E4
:100530000103DBB2002B01D000F042FB7B681B8A79
:10054000184600F069FE00BFFFF7D6FF034603F42C
:100550000063002BF8D1164A7B681B68136200BF4A
:10056000FFF7CAFF034603F48053002BF8D1104A6B
:100570007B685B68536200BFFFF7BEFF034603F46E
:100580000073002BF8D10A4A7B689B68936100BF17
:10059000FFF7B2FF034603F48063002BF8D1044A4F
:1005A0007B68DB68D361002318460837BD4680BDF1
:1005B000004A005080B582B000AF786000BFFFF7FE
:1005C0009BFF034603F48043002BF8D10449044BFE
:1005D0001A697B6813430B610837BD4680BD00BFB5
:1005E000004A005080B400AF034B1B681846BD465C
:1005F0005DF8047B704700BFC0FF032080B400AFEC
:10060000034BD3F8C4301846BD465DF8047B7047F1
:100610000040005080B584B000AF7860FFF74AFE1C
:100620000B4B1B680B4AA2FB03239A0C7B6802FB53
:1006300003F37B600023FB6003E000BFFB68013332
:10064000FB60FA687B689A42F7D31037BD4680BDDD
:10065000C0FF032083DE1B4380B400AF034B5B6805
:100660001846BD465DF8047B704700BF74400050DB
:1006700080B483B000AF7860034A7B68D3600C37E6
:10068000BD465DF8047B704774400050B0B584B03F
:1006900002AF7860002000F0BFF800F091FA7B68AC
:1006A000DB79002B0AD000F0E7FA00BF00F0D2FAA5
:1006B000034683F00103DBB2002BF7D17B685B7A42
:1006C000184600F023F900BFFFF798FF0346002B00
:1006D000FAD17B681B7A184600F04CFA7B681B7CC9
:1006E000184600F031F97B685B7C184600F054F93D
:1006F0007B689B7C184600F03BF97B68DB7C1846E6
:1007000000F05EF97B689B79002B0AD000F0ECFAD0
:1007100000BF00F011FB034683F00103DBB2002BA6
:10072000F7D17B68DB78002B02D100F029FB14E0C5
:1007300000F016FB7B6899887B68DA787B685B78C9
:100740001D467B681B781C467B689B780093084697
:1007500011462A46234600F023FB7B68DB68B3F58D
:10076000803F03D14FF4803000F056F8FFF7A2FD30
:100770000837BD46B0BD00BF80B485B000AF78601B
:100780007B681B0FFB607B6823F07043BB60FA68DB
:1007900013465B0013449B001A46044B1344BA688B
:1007A0001A601437BD465DF8047B7047144400504E
:1007B00080B485B000AF78607B681B0FFB607B68FE
:1007C00023F07043BB60FA6813465B0013449B0040
:1007D0001A46084B13441A68BB681340002B14BF19
:1007E00001230023DBB218461437BD465DF8047BB5
:1007F000704700BF0C44005080B500AFFFF7F2FE19
:100800000246044B5B6903F0010322FA03F3184626
:1008100080BD00BF0046005080B483B000AF786058
:100820000649064BDB6823F480327B681343CB60B8
:100830000C37BD465DF8047B704700BF0046005092
:1008400080B483B000AF78600649064B9B6923F4FF
:1008500080327B6813438B610C37BD465DF8047BA7
:10086000704700BF0046005080B483B000AF78608E
:100870000649064B5B6A23F440327B6813434B62A4
:100880000C37BD465DF8047B704700BF0046005042
:1008900080B483B000AF0346FB80FB88002B08D1F7
:1008A0000A4A0A4BDB6823F4807323F00103D36008
:1008B00007E0064A054BDB6843F4807343F001030D
:1008C000D3600C37BD465DF8047B7047104700507D
:1008D00080B483B000AF0346FB7100BF094BD3F86F
:1008E000C43003F00803002BF8D10749064BDB683E
:1008F00023F04002FB791343CB600C37BD465DF813
:10090000047B7047004000500043005080B483B027
:1009100000AF0346FB7100BF094BD3F8C43003F0AE
:100920000803002BF8D10749064BDB6823F080024F
:10093000FB791343CB600C37BD465DF8047B7047F1
:10094000004000500043005080B483B000AF786096
:100950000649064BDB6823F0FF027B68013B13432B
:10096000CB600C37BD465DF8047B704700460050F5
:1009700080B483B000AF78600649064B1B6A23F051
:1009800001027B68013B13430B620C37BD465DF8E7
:10099000047B70470046005080B483B000AF78609D
:1009A0000649064B1B6923F001027B68013B134398
:1009B0000B610C37BD465DF8047B70470046005064
:1009C00080B483B000AF78600649064B5B6923F0C2
:1009D00001027B68013B13434B610C37BD465DF858
:1009E000047B70470046005080B483B000AF78604D
:1009F0000649064B9B6923F007027B68013B1343C2
:100A00008B610C37BD465DF8047B70470046005093
:100A100080B483B000AF78600649064BDB6923F0F1
:100A20003F027B68013B1343CB610C37BD465DF849
:100A3000047B70470046005080B483B000AF7860FC
:100A40000649064B5B6A23F0FF027B68013B1343B8
:100A50004B620C37BD465DF8047B70470046005082
:100A600080B483B000AF0346FB71044AFB79536046
:100A70000C37BD465DF8047B704700BF0046005050
:100A800080B485B000AF78607B681B0FFB607B682B
:100A900023F07043BB60FA6813465B0013449B006D
:100AA0001A46044B1344BA681A601437BD465DF801
:100AB000047B70474846005080B485B000AF786032
:100AC0007B681B0FFB607B6823F07043BB60FA6898
:100AD00013465B0013449B001A46084B13441A68E4
:100AE000BB681340002B14BF01230023DBB2184660
:100AF0001437BD465DF8047B704700BF4046005088
:100B000080B483B000AF78603960194A184B5B69D4
:100B100043F001035361164A154B5B6943F0100320
:100B2000536113493B68013B1A027B68013B1B067A
:100B300013434B610E4A0E4B5B6943F04003536114
:100B40000B4A0B4B5B6923F010035361084A084BB7
:100B50005B6943F48023536100BF054B1B6903F0BD
:100B60000403002BF9D00C37BD465DF8047B7047B9
:100B70001047005080B582B000AF0346FB710F4AAA
:100B80000E4B5B6843F480135360FB79012B0ED14D
:100B90000A4A0A4B5B6823F4801353606420FFF712
:100BA00039FD064A054B5B6843F40023536064201B
:100BB000FFF730FD0837BD4680BD00BF104700502D
:100BC00080B400AF124B1B6803F00103002B09D166
:100BD0000F4B01225A6000BF0D4B1B6803F001034D
:100BE000002BF9D00B4B1B6803F40073002B0AD0C9
:100BF000084B4FF400729A6000BF064B1B6803F469
:100C00000073002BF9D1BD465DF8047B704700BF2F
:100C1000004200500044005080B400AF0B4B1B68F2
:100C200003F00103002B07D0094B1B6803F400738A
:100C3000002B01D1012300E0002303F00103DBB20C
:100C40001846BD465DF8047B704700BF0042005067
:100C50000044005080B400AF064B1B6803F008034B
:100C6000002B0CBF01230023DBB21846BD465DF804
:100C7000047B70470043005080B500AF4FF4000084
:100C8000FFF7F6FC174A174BDB6923F03003D361FB
:100C900000BFFFF7E1FC034603F40003002BF8D08C
:100CA0004FF40030FFF7E4FC0E4B08225A6000BFFF
:100CB000FFF7D2FC034603F40033002BF8D04FF4C7
:100CC0000020FFF7D5FC074A064BDB6843F008031A
:100CD000D36000BFFFF7C0FC034603F40023002BE2
:100CE000F8D080BD00430050B0B500AF0F4A0F4BA5
:100CF0005B6823F4803353600D4D0D4B5B6823F428
:100D0000702424F0300405F053FA0246094BA3FB8B
:100D100002231B0D013B1B0423436B60034A034B5F
:100D20005B6823F400335360B0BD00BF1047005030
:100D3000004700506BCA5F6B80B400AF074B1B6865
:100D400003F46073B3F5607F0CBF01230023DBB2B3
:100D50001846BD465DF8047B704700BF1047005041
:100D600080B400AF054A054B5B6823F4803323F061
:100D700002035360BD465DF8047B70471047005086
:100D800080B400AF054A054B5B6843F4803343F001
:100D900002035360BD465DF8047B70471047005066
:100DA00080B586B000AFBA607B600346FB810B461E
:100DB0007B73FB891846FFF76BFD7B7B012B40F0B3
:100DC0008480FB89002B09D105F0F2F902464B4BD8
:100DD000A3FB02239B0C9B057B6102E04FF0C063E9
:100DE0007B617B697A6802FB03F2BB68B2FBF3F3B9
:100DF0007B617B69424AA2FB03231B099B0D3B617C
:100E0000404A404B5B6843F0010353603D4A3D4B11
:100E10005B6843F0100353603A493A4B9A683A4B87
:100E200013407A68013A12021A433B69013B1B04E2
:100E30001A43BB68013B1B0613438B60314A314B9D
:100E40005B6843F0400353602E4A2E4B5B6823F0EF
:100E5000100353602B4A2B4B5B6843F48023536091
:100E600000BF284B1B6803F00403002BF9D0254A70
:100E7000244B5B6823F00103536000BF214B1B68C8
:100E800003F00103002BF9D17B69204AA2FB032365
:100E90005B099B0D3B613A6A3B699A4202D2386911
:100EA00000F038F87B695B08194AA2FB03235B0951
:100EB0009B0D3B613A6A3B699A4202D2386900F065
:100EC00029F8386A00F026F815E00E490D4B9B68AA
:100ED00023F07F023B6A013B13438B60094A094BB5
:100EE0005B6843F00103536000BF064B1B6803F0CF
:100EF0000103002BF9D01837BD4680BD83DE1B43AC
:100F0000ABAAAAAA10470050FF8080F08988888881
:100F1000B7600BB680B582B000AF78600749074B69
:100F20009B6823F4FE027B68013B1B0413438B6028
:100F30003220FFF76FFB0837BD4680BD10470050D9
:100F400080B483B000AF78607B684FF48072DA6061
:100F50000C37BD465DF8047B704700BF80B582B09A
:100F600000AF78607B68104A934203D10420FFF7FA
:100F700003FC16E07B680D4A934203D10820FFF77B
:100F8000FBFB0EE07B680A4A934203D11020FFF777
:100F9000F3FB06E07B68074A934202D10648FFF75D
:100FA000EBFB0837BD4680BD00C00040000001409B
:100FB00000400140004000480100001080B582B0B0
:100FC00000AF78607B68104A934203D10420FFF79A
:100FD00057FD16E07B680D4A934203D10820FFF7C6
:100FE0004FFD0EE07B680A4A934203D11020FFF7C1
:100FF00047FD06E07B68074A934202D10648FFF7A7
:101000003FFD0837BD4680BD00C0004000000140E4
:1010100000400140004000480100001080B582B04F
:1010200000AF78601020FFF71BFD7868FFF7C6FF60
:101030007868FFF793FF0837BD4680BD80B584B060
:1010400000AF78600B46FB707868FFF7E7FF7868C1
:10105000FFF776FF7B681B68FB60FB6823F4404367
:10106000FB60FB789B03FA681343FB607B68FA68BC
:101070001A601037BD4680BD80B483B000AF786081
:1010800039603B681A687B685A613B685B79C3F3D7
:101090004013DBB21A057B685A603B681B79C3F3C7
:1010A0000303DBB21A467B685A623B685B79C3F381
:1010B0000303DBB21A467B681A623B685B79C3F3B1
:1010C0000013DBB21A467B689A613B681B79C3F355
:1010D0000313DBB21A467B68DA620C37BD465DF853
:1010E000047B704780B487B000AF78600B46FB701C
:1010F0001346BB707B68D3F8A830FB60FB78092BE4
:101100002CD801A252F823F0311100083111000847
:101110003B1100083B1100085D1100085D1100083B
:101120005D1100085D11000845110008511100080B
:1011300003233B6100237B6116E00C233B61022308
:101140007B6111E04FF440733B6108237B610BE04E
:101150004FF440633B610A237B6105E04FF4405349
:101160003B610C237B6100BF3B69DB43FA681340A2
:10117000FB60BA787B6902FA03F3FA681343FB60F9
:101180007B68FA68C3F8A8201C37BD465DF8047B6D
:10119000704700BF80B483B000AF78600B46FB702F
:1011A0001346BB707B685A6FFB785B0019460323BC
:1011B0008B40DB431A407B685A677B685A6FBB7869
:1011C000F97849008B401A437B685A670C37BD4653
:1011D0005DF8047B704700BF80B400AF034BD3F8C9
:1011E000C4301846BD465DF8047B7047004000508F
:1011F00080B500AF00BFFFF7EFFF034603F4807335
:10120000002BF8D1034A034B5B6843F001035360A2
:1012100080BD00BF004A005080B582B000AF0346D9
:10122000FB8000BFFFF7D8FF034603F48073002B59
:10123000F8D10549044B5B689AB2FB881B04134341
:101240004B600837BD4680BD004A005080B582B073
:1012500000AF78600448FFF713FC0348FFF78CFAEF
:101260000837BD4680BD00BF4000001080B483B089
:1012700000AF786039603B689AB27B681A863B6839
:101280001B0C9AB27B685A860C37BD465DF8047B0E
:10129000704700BF80B582B000AF78603960786871
:1012A00000F052F83B685B79002B12D13B681B7948
:1012B000002B07D03B681B6878681946022200F0B3
:1012C000FFF806E03B681B6878681946022200F0C8
:1012D00087F87B680E4A5A637B684FF4A2629A6370
:1012E0003B685B79002B07D13B689B7943F00B038C
:1012F000DBB21A467B68DA637B684FF0FF32DA6450
:101300003B681B891A467B681A640837BD4680BD56
:1013100002013F0780B485B000AF78607B68D3F8E6
:101320000C3103F0E063002B03D17B685B6DFB8124
:1013300003E07B68D3F81C31FB81FB891846143726
:10134000BD465DF8047B704780B582B000AF786021
:101350007B681A4A934203D07B68194A934203D1AF
:10136000184800F049F916E07B68174A934203D009
:101370007B68164A934203D1154800F03DF90AE014
:101380007B68144A934203D07B68134A934202D18C
:10139000124800F031F97B680322DA6000BF7B68F5
:1013A000DB6803F00103002BF9D07B681B6C23F092
:1013B0000F027B681A640837BD4680BD00000340F9
:1013C00000020340080003400000024800020248F7
:1013D0000800024800400248004202480840024813
:1013E00080B58EB000AFF860B9607A60BB68632BDF
:1013F00058D97B68002B55D0FFF7FEF902462E4BDB
:10140000A3FB02235B093B62BB682B4AA2FB0323BD
:101410005B09BB600123FB620123BB6240F2FF3327
:101420007B6240F2FF333B6322E03B6A3A6B02FB94
:1014300003F2BB68796801FB03F3B2FBF3F3FB61D2
:10144000FB699B0ABB61FB69C3F309037B61BB6951
:10145000B3F5806F09D27A697B6A9A4205D27B69BB
:101460007B62BB69BB623B6BFB623B6B013B3B63DB
:101470003B6B002BD9D1FB6A43F40042FB681A6135
:10148000FB685A690D4B13407A68013A92021A437D
:10149000BB6A013B1B041A43FB685A61002387F8AF
:1014A000373002E0012387F8373097F83730184695
:1014B0003837BD4680BD00BF1F85EB51EF8000FC73
:1014C00080B58CB000AFF860B9607A60FFF794F92E
:1014D00003463B62BB687A6802FB03F3FB610123AE
:1014E000FB623A6AFB699A425FDD3A6AFB6992FBEA
:1014F000F3F3BB6210E0FB6A0133FB62BB687A68FE
:1015000002FB03F31A46FB6A03FB02F3FB613A6A30
:10151000FB6992FBF3F3BB62BB6A40F2FE3293427B
:10152000E9D83A6A7B68B96A01FB03F3F96A01FBFF
:1015300003F3B2FBF3F3BB613A6ABB6A0133796828
:1015400001FB03F3F96A01FB03F3B2FBF3F37B61E5
:10155000BA687B69D31A83EAE372A2EBE372B968D3
:10156000BB69CB1A002BB8BF5B429A4202DABB6A56
:101570000133BB62BB6AC3F58063BB62BB6A43F4E1
:101580008042FB681A61FB685A690C4B13407A6809
:10159000013A92021A43FB6A013B1B041A43FB689F
:1015A0005A61002387F8273002E0012387F82730AB
:1015B00097F8273018463037BD4680BDEF8000FCD5
:1015C00080B485B000AFF8600B467A60FB72FB68B0
:1015D0009A69FB7A072101FA03F3DB431A40FB7A8D
:1015E000796801FA03F31A43FB689A611437BD4620
:1015F0005DF8047B704700BF80B582B000AF7860B3
:101600007B68284A934218D14FF40060FFF738FAFC
:1016100000BF4FF40060FFF74FFA0346002BF8D1EC
:101620004FF40060FFF7A8F800BF4FF40060FFF729
:10163000BFF80346002BF8D130E07B681A4A93428A
:1016400014D11A48FFF71CFA00BF1848FFF734FA04
:101650000346002BF9D11548FFF78EF800BF134859
:10166000FFF7A6F80346002BF9D117E07B68104A74
:10167000934213D10F48FFF703FA00BF0D48FFF75D
:101680001BFA0346002BF9D10A48FFF775F800BF93
:101690000848FFF78DF80346002BF9D10837BD46FF
:1016A00080BD00BF08000340080002488000001011
:1016B000084002480001001080B485B000AF786097
:1016C00039603B78C3F30203DBB21A467B88C3F36D
:1016D00009039BB21B041343FB607B68FA68C3F8E1
:1016E000F021FB78C3F30013DBB21A07FB78C3F3D6
:1016F0008103DBB29B061A43FB78C3F34013DBB2D2
:101700005B071343FB60FB78C3F38013DBB29B07DB
:10171000FA681343FB607B68D3F8F021FB6813433E
:1017200043F000427B68C3F8F0211437BD465DF8F2
:10173000047B704780B483B000AF78607B68D3F8D7
:10174000843043F080627B68C3F884200C37BD4648
:101750005DF8047B704700BF80B483B000AF786051
:101760007B68D3F8843023F080627B68C3F88420E0
:101770000C37BD465DF8047B704700BF80B500AFF5
:101780000120FFF77DF90120FEF7F6FF80BD00BFC5
:1017900080B582B000AF78603960FFF7EFFF3B683B
:1017A0005A697B681A603B685B6843F400427B6857
:1017B000C3F880203B689A687B68C3F8A0203B6828
:1017C000DA687B68C3F8A4203B681A697B68C3F8B1
:1017D00080223B681A687B68C3F8B8200837BD468A
:1017E00080BD00BF80B485B000AFF860B9603B60D9
:1017F0001346FB71FB79002B09D1BA6840F21F73C5
:101800001340FA683968283142F8213007E0BA6895
:10181000054B1340FA683968283142F821301437F3
:10182000BD465DF8047B704700001F0780B485B09B
:1018300000AF78607B68D3F8803043F000427B686B
:10184000C3F880200023FB7317E0FB7B0F4A52F89C
:101850002330BB60BB68D3F8803003F44033002BE7
:1018600008D000E000BFBB68D3F8803003F080539D
:10187000002BF7D1FB7B0133FB73FB7B032BE4D9FC
:101880001437BD465DF8047B704700BF7CBA000882
:1018900080B485B000AF78600B46FB70FB78032BFB
:1018A00003D9FB78043BFB6001E0FB78FB607B68BD
:1018B000D3F8403123F00F027B68C3F840217B68E6
:1018C000D3F84021FB681A437B68C3F840211437E2
:1018D000BD465DF8047B704780B582B000AF78608C
:1018E00039603B68786859680022002300F028F8C6
:1018F0003B68786859680122002300F021F83B68B2
:10190000786899680022012300F01AF83B6878682B
:1019100099680122012300F013F83B681A697B687B
:10192000C3F880203B68DA687B68C3F8B8203B685E
:1019300078681968FFF7C0FE0837BD4680BD00BF54
:1019400080B48DB000AFF860B9603B601346FB71A6
:10195000FB79002B13D10823FB624FF4E0637B6219
:101960000023BB621F233B623B7AC3F30403DBB259
:10197000FB617B7AC3F30203DBB2FB7613E018232F
:10198000FB624FF0E0637B621023BB624FF4F813FD
:101990003B62BB7AC3F30403DBB2FB61FB7AC3F3A4
:1019A0000203DBB2FB76FB683A68283253F8223038
:1019B0007B617B6ADB437A6913407B61FA7EFB6A59
:1019C00002FA03F37A6913437B613B6ADB437A696A
:1019D00013407B61BB6AFA6902FA03F37A69134325
:1019E0007B61FB683A682832796943F82210343702
:1019F000BD465DF8047B704780B485B000AF786069
:101A00000B46FB707B68D3F88030FB60FB6823F0EB
:101A10000303FB60FB78FA681343FB607B68FA689A
:101A2000C3F880201437BD465DF8047B704700BFC3
:101A300080B586B000AF786039600023FB7509E09F
:101A4000FB7D394A52F823301846FFF785FEFB7DAF
:101A50000133FB75FB7D032BF2D900233B613B680F
:101A60001B7803F00303DBB2002B02D04FF40063BA
:101A70003B610023FB7521E0FB7D2B4A52F82330AC
:101A8000D3F88430FB60FB6823F44073FB603B6851
:101A90001B78C3F38103DBB21B02FA681343FB60BC
:101AA000FA683B691343FB60FB7D1F4A52F8233001
:101AB000FA68C3F88420FB7D0133FB75FB7D032BA3
:101AC000DAD93B685B6843F4000343F400437A6867
:101AD000C2F800323B689B6843F001027B68C3F8A0
:101AE00004223B681B7803F00303DBB2022B07D10F
:101AF0007B68D3F8043243F480327B68C3F8042255
:101B00000023FB7509E0FB7D074A52F82330184695
:101B1000FFF710FEFB7D0133FB75FB7D032BF2D934
:101B20001837BD4680BD00BF7CBA000880B489B0BC
:101B300000AFF860B9607A607B681B7BBB61FB68B3
:101B4000D3F888307B61BB68012202FA03F3DB43E0
:101B50007A6913407B61BB68BA6902FA03F37A6958
:101B600013437B61FB687A69C3F888207B685B7BE1
:101B70005BB2002B29DB0023FB61BB68012B0AD180
:101B80000823FB61FB68D3F8B03023F4F852FB68FC
:101B9000C3F8B0200CE0BB68002B09D10023FB6127
:101BA000FB68D3F8B03023F01F02FB68C3F8B02005
:101BB000FB68D3F8B0307A68527B51B2FA6901FA07
:101BC00002F21A43FB68C3F8B020FB68D3F8C820C0
:101BD0007B685B681A43FB68C3F8C820FB68D3F8CE
:101BE000D0207B689B681A43FB68C3F8D0207B68D1
:101BF0001968FB68BA68803243F822102437BD4662
:101C00005DF8047B704700BF80B584B000AF78609A
:101C1000144B1B68002B02D1124B134A1A60114B54
:101C20001B68FB607B68033323F003037B600D4B71
:101C30001A687B6813440D4A934207D2094B1A680D
:101C40007B681344074A1360FB6806E007F02EF830
:101C500002460C2313604FF0FF3318461037BD4681
:101C600080BD00BF9C8AFE1F00000020C0FF032033
:101C700080B483B000AF78600B46FB70FB78012224
:101C80009A407B685A600C37BD465DF8047B70470C
:101C900080B483B000AF78600B46FB70FB784FF4E4
:101CA00080329A407B685A600C37BD465DF8047BF1
:101CB000704700BF80B483B000AF78607B689B6CD6
:101CC00018460C37BD465DF8047B704780B582B07E
:101CD00000AF78607B681A687B681B7C10461946E9
:101CE000FFF7C6FF0837BD4680BD00BF80B582B094
:101CF00000AF78607B681A687B681B7C10461946C9
:101D0000FFF7C6FF0837BD4680BD00BF80B500AFF6
:101D10000148FFF7EBFF80BDE40C010880B500AF80
:101D20000148FFF7D3FF80BDE40C010880B500AF88
:101D30000148FFF7DBFF80BDF80C010880B500AF5C
:101D40000148FFF7C3FF80BDF80C010880B582B0E1
:101D500000AF0346FB71FB1D09481946012202F042
:101D60005FFD00E000BF064B1B681846FFF7A2FFAF
:101D7000034603F00103002BF4D10837BD4680BDB4
:101D80009C88FE1F80B582B000AF78607B68DBB2B4
:101D90001846FFF7DBFF7B681B0ADBB21846FFF72C
:101DA000D5FF7B681B0CDBB21846FFF7CFFF7B68C3
:101DB0001B0EDBB21846FFF7C9FF0837BD4680BDD2
:101DC00080B582B000AF78607868FFF7DBFF083736
:101DD000BD4680BD80B582B000AF0346FB710A4BA3
:101DE0002A221A7009480849012202F033FD00BF77
:101DF000064B9B68DB7FDBB2002BF9D1024B1B78D3
:101E000018460837BD4680BD248FFE1F9C88FE1FE4
:101E100080B483B000AF78607B681B7818460C37BD
:101E2000BD465DF8047B704780B582B000AF0346C5
:101E30000A46FB711346BB71FFF778FFFB79184622
:101E4000FFF784FFBB791846FFF780FF0020FFF7FC
:101E50007DFFFFF773FF0837BD4680BD80B584B0B6
:101E600000AF7860FFF762FF7B681B0CDBB218469F
:101E7000FFF76CFF7B681B0ADBB21846FFF766FFB3
:101E80007B68DBB21846FFF761FF0020FFF75EFFBB
:101E90000020FFF79FFF0346FB73FFF74FFFFB7B1D
:101EA00018461037BD4680BD80B584B000AF78605D
:101EB0000023FB81FFF73AFF7B681B0CDBB218465F
:101EC000FFF744FF7B681B0ADBB21846FFF73EFFB3
:101ED0007B68DBB21846FFF739FF0020FFF736FFBB
:101EE0000020FFF777FF0346FB810020FFF772FF1A
:101EF00003461B029AB2FB8913439BB2FB81FFF797
:101F00001DFFFB8918461037BD4680BD80B584B0E3
:101F100000AF78600023FB60FFF708FF7B681B0CB5
:101F2000DBB21846FFF712FF7B681B0ADBB21846CC
:101F3000FFF70CFF7B68DBB21846FFF707FF0020B6
:101F4000FFF704FF0020FFF745FF0346FB6000207A
:101F5000FFF740FF03461B02FA681343FB600020B3
:101F6000FFF738FF03461B04FA681343FB600020A9
:101F7000FFF730FF03461B06FA681343FB60FFF7C9
:101F8000DDFEFB6818461037BD4680BD80B582B0C7
:101F900000AF78600B46FB70FFF7C8FE7B681B0C38
:101FA000DBB263F07F03DBB21846FFF7CFFE7B683E
:101FB0001B0ADBB21846FFF7C9FE7B68DBB2184686
:101FC000FFF7C4FEFB781846FFF7C0FEFFF7B6FE2A
:101FD0000837BD4680BD00BF80B582B000AF7860D5
:101FE0000B467B80FFF7A2FE7B681B0CDBB263F025
:101FF0007F03DBB21846FFF7A9FE7B681B0ADBB242
:102000001846FFF7A3FE7B68DBB21846FFF79EFE7B
:102010007B88DBB21846FFF799FE7B881B0A9BB2D0
:10202000DBB21846FFF792FEFFF788FE0837BD4681
:1020300080BD00BF80B582B000AF78603960FFF727
:1020400075FE7B681B0CDBB263F07F03DBB21846C6
:10205000FFF77CFE7B681B0ADBB21846FFF776FEB3
:102060007B68DBB21846FFF771FE3B68DBB21846AF
:10207000FFF76CFE3B681B0ADBB21846FFF766FEF3
:102080003B681B0CDBB21846FFF760FE3B681B0E7B
:10209000DBB21846FFF75AFEFFF750FE0837BD4681
:1020A00080BD00BF80B582B000AF3148FFF7FCFEB5
:1020B0000346FB80FB8803F00303002B4CD02D4824
:1020C00007F0E8FA2C48FFF7EFFE0346BB802B48E9
:1020D0000121FFF75BFF2A480021FFF77DFF294818
:1020E0000021FFF779FF28480021FFF7A3FF2348CD
:1020F0000021FFF74BFFBB881F481946FFF76CFF15
:10210000052004F06FFA214B3B60FFF70FFE3B68A0
:102110001B0CDBB263F07F03DBB21846FFF716FE41
:102120003B681B0ADBB21846FFF710FE3B68DBB2C8
:102130001846FFF70BFE6FF0B600FFF723FE6FF0B7
:10214000B500FFF71FFEFFF7F9FD11480721FFF764
:102150001DFF052004F046FAFB8840F6FC7293420E
:1021600001D0012300E0002318460837BD4680BD9A
:10217000742530008CBA00086291300020203000B5
:10218000F8203000FC20300000213000782530009D
:102190007020300080B584B000AF78600E4BFB60DB
:1021A000FFF7C4FDFB681B0CDBB263F07F03DBB2FF
:1021B0001846FFF7CBFDFB681B0ADBB21846FFF79A
:1021C000C5FDFB68DBB21846FFF7C0FD7868FFF776
:1021D000D9FD1037BD4680BD7825300080B584B06C
:1021E00000AF78600B467B807B88DBB203F0030393
:1021F0007B737B7BC3F104037B737B7B03F0030363
:102200007B730023FB810CE0FB897A68134418463A
:10221000FFF7FEFD03461846FFF798FDFB890133E3
:10222000FB81FA897B889A42EED37B7B9AB27B88CA
:1022300013447B8005E00020FFF788FD7B7B013B9A
:102240007B737B7B002BF6D11037BD4680BD00BF72
:1022500080B586B000AF786039603B687B6134E060
:102260007B69B3F5706F28BF4FF470633B611A4B05
:10227000FB60FFF75BFDFB681B0CDBB263F07F03C9
:10228000DBB21846FFF762FDFB681B0ADBB218469B
:10229000FFF75CFDFB68DBB21846FFF757FD3B69B3
:1022A0009BB278681946FFF799FFFFF747FD7A68F8
:1022B0003B6913447B607A693B69D31A7B6100BF39
:1022C000FFF7F0FE0346002BFAD17B69002BC7D144
:1022D0001837BD4680BD00BF7825300080B584B07A
:1022E00000AFF860B9607A606FF0DD00FFF752FF71
:1022F000F868FFF747FDFFF721FDBB68002B03D00F
:10230000B8687968FFF7A4FF1037BD4680BD00BFED
:1023100080B584B000AFF860B9607A606FF0E20019
:10232000FFF738FFF868FFF72DFDB868FFF72AFDC3
:102330007868FFF727FDFFF701FD00BFFFF7B2FE4A
:102340000346002BFAD11037BD4680BD80B582B060
:1023500000AF0023FB710023BB80FFF7D7FC0620F2
:1023600004F040F9FFF7DAFC152004F03BF94420B3
:102370000021FFF759FD61204621FFF755FD0020A0
:102380000021FFF751FD282004F02CF915E0012071
:1023900004F028F96548FFF761FD0346FB71BB882F
:1023A0000133BB80BB88B3F5C87F06D9FB79604891
:1023B000194607F0F9F80023B4E0FB797C2BE6D14D
:1023C000FB795C48194607F0EFF80023BB800EE06C
:1023D000012004F007F9BB880133BB80BB88B3F54B
:1023E000FA7F04D9544807F055F900239AE053487E
:1023F000FFF734FD034603F00303002BE8D15048F8
:1024000007F048F94F485049FFF714FE4F480021A4
:10241000FFF7BCFD4E484FF4F071FFF7DDFD4D486E
:102420004FF40971FFF7D8FD4B482B21FFF7D4FD7E
:102430004A480021FFF7D0FD49482921FFF7CCFD8C
:1024400048484FF48871FFF7C7FD47484FF4927131
:10245000FFF7C2FD45480C21FFF7BEFD44480021AF
:10246000FFF7BAFD43480A21FFF7B6FD42480021B5
:10247000FFF78CFD41480121FFF788FD404801210D
:10248000FFF784FD3F4807F005F93F480321FFF7B8
:102490007DFD3E484FF49661FFF79EFD3C480021CC
:1024A000FFF774FD3B480021FFF770FD3A484FF4F9
:1024B000C041FFF791FD4FF440104FF00071FFF75E
:1024C000B9FD36483649FFF7B5FD36480021FFF71C
:1024D000B1FD35480221FFF7ADFD344807F0DAF8C9
:1024E00033488021FFF752FD32480721FFF74EFDA8
:1024F00016482021FFF74AFD0023BB8009E0012098
:1025000004F070F8BB880133BB80BB88042B00D972
:1025100004E0FFF7C7FD0346012BF0D0264807F083
:10252000B9F8012318460837BD4680BD00203000A9
:10253000BCBA0008ECBA000814BB00082020300028
:1025400040BB00080C20300000A24A04D420300018
:10255000342030002C203000302030003820300073
:102560003C20300048203000402030004420300023
:102570004C20300050203000642030006C203000AF
:102580006820300064BB00080421300018213000AE
:10259000802030008420300088203000040030008B
:1025A00007000026080030005420300084BB0008DB
:1025B0009420300070203000ACBB000880B582B0A1
:1025C00000AF0F4B2A221A700E4B7B60FFF7AEFB59
:1025D0007B681B0CDBB263F07F03DBB21846FFF7AE
:1025E000B5FB7B681B0ADBB21846FFF7AFFB7B68C5
:1025F000DBB21846FFF7AAFB0837BD4680BD00BF17
:10260000A08AFE1F7825300080B500AF024B002263
:102610001A70FFF793FB80BDA08AFE1F80B584B0BF
:1026200000AF78600E4BFB60FFF780FBFB681B0C74
:10263000DBB263F07F03DBB21846FFF787FBFB6872
:102640001B0ADBB21846FFF781FBFB68DBB21846BA
:10265000FFF77CFB7868FFF795FB1037BD4680BD20
:102660007825300080B586B000AF78600023FB7518
:102670000023BB757B68BB603E4B1B78DBB2002B35
:1026800049D07B683B6115E0BB7D0133BB75BB7DE9
:10269000032B08D90023BB753B691A1D3A611B68DF
:1026A0001846FFF78DFBFB7D0133FB75FB7DF92B96
:1026B00000D905E0FB7DBA6813441B78002BE3D1F9
:1026C0003B691B68FB60BB7D022B0CD0032B02D047
:1026D000012B0FD015E0FB6823F07F43FB60FB7DEF
:1026E0000133FB7513E0FB689BB2FB60FB7D02339B
:1026F000FB750CE0FB68DBB2FB60FB7D0333FB7515
:1027000005E00023FB60FB7D0433FB7500BFF86828
:10271000FFF756FB2AE00DE0FB7DBA6813441B78F7
:102720001846FFF713FBFB7D0133FB75FB7DF92B8F
:1027300000D905E0FB7DBA6813441B78002BEBD170
:10274000FB7D03F00303BB75BB7DC3F10403BB75C5
:10275000FA7DBB7D1344FB7505E00020FFF7F6FA18
:10276000BB7D013BBB75BB7D002BF6D11837BD4649
:1027700080BD00BFA08AFE1F80B582B000AF786028
:10278000064B1B78DBB2002B04D17868FFF746FFBD
:10279000FFF7D4FA0837BD4680BD00BFA08AFE1FF0
:1027A00080B582B000AF78607868FFF709FB083722
:1027B000BD4680BD80B582B000AF786039606FF0F3
:1027C000E100FFF7FDFA7868FFF7FAFA3868FFF7DB
:1027D000F7FA0837BD4680BD80B582B000AF78609B
:1027E000104B1B78DBB2002B19D16FF0F600FFF70E
:1027F00015FF7B68DBB21846FFF7A8FA7B681B0A57
:10280000DBB21846FFF7A2FA7B681B0CDBB2184656
:10281000FFF79CFA0020FFF799FAFFF78FFA0837C5
:10282000BD4680BDA08AFE1F80B582B000AF786033
:102830006FF0F600FFF7C4FA7868FFF7C1FA0837BF
:10284000BD4680BD90B583B000AF04460846114632
:102850001A462346FB800346BB800B467B8013460B
:102860003B806FF0F200FFF7ABFAB7F90620B7F93B
:1028700004301B0413441846FFF7A2FAB7F90220EC
:10288000B7F900301B0413441846FFF799FAB7F95B
:102890001820BB8B1B0413441846FFF791FA386AC3
:1028A000FFF7E0FE0C37BD4690BD00BF80B582B09B
:1028B00000AF78606FF0F500FFF782FA7868FFF7F5
:1028C0007FFA0837BD4680BD80B582B000AF786022
:1028D0006FF0CB00FFF774FA7868FFF771FA0837EA
:1028E000BD4680BD90B583B000AF04460846114692
:1028F0001A462346FB800346BB800B467B8013466B
:102900003B80224B1B78DBB2002B3CD16FF0D10017
:10291000FFF784FEFB88DBB21846FFF717FAB7F91A
:1029200006301B129BB2DBB21846FFF70FFABB88CA
:10293000DBB21846FFF70AFAB7F904301B129BB254
:10294000DBB21846FFF702FA7B88DBB21846FFF7C6
:10295000FDF9B7F902301B129BB2DBB21846FFF744
:10296000F5F93B88DBB21846FFF7F0F93B881B0A04
:102970009BB2DBB21846FFF7E9F9BB691846FFF7CF
:1029800001FAFFF7DBF90C37BD4690BDA08AFE1FA8
:1029900090B583B000AF0446084611461A46234658
:1029A000FB800346BB800B467B8013463B806FF069
:1029B000D100FFF705FAB7F90620B7F904301B0478
:1029C00013441846FFF7FCF9B7F902203B881B04B3
:1029D00013441846FFF7F4F9BB691846FFF7F0F9FE
:1029E0000C37BD4690BD00BF80B584B000AFF86025
:1029F000084611461A4603467B810B463B81134627
:102A0000FB806FF0BC00FFF7DBF9F868FFF7D8F93F
:102A10007A893B891B0413441846FFF7D1F9FB88D8
:102A20001846FFF7CDF91037BD4680BD90B583B08D
:102A300000AF0446084611461A462346FB8003466B
:102A4000BB800B467B8013463B80224B1B78DBB25E
:102A5000002B3BD16FF0F300FFF7E0FDFB88DBB20A
:102A60001846FFF773F9B7F906301B129BB2DBB2B9
:102A70001846FFF76BF9BB88DBB21846FFF766F91B
:102A8000B7F904301B129BB2DBB21846FFF75EF9B0
:102A90007B88DBB21846FFF759F9B7F902301B12F1
:102AA0009BB2DBB21846FFF751F93B88DBB2184600
:102AB000FFF74CF93B881B0A9BB2DBB21846FFF7C5
:102AC00045F9B869FFF7CEFDFFF738F90C37BD4679
:102AD00090BD00BFA08AFE1F90B583B000AF044632
:102AE000084611461A462346FB800346BB800B4628
:102AF0007B8013463B806FF0F300FFF761F9B7F975
:102B00000620B7F904301B0413441846FFF758F9A0
:102B1000B7F902203B881B0413441846FFF750F90D
:102B2000B869FFF79FFD0C37BD4690BD90B58BB0DF
:102B300000AF0446084611461A462346FB8003466A
:102B4000BB800B467B8013463B8007F10803184689
:102B50001049BA6B06F0D0FD6FF0F300FFF730F9C3
:102B6000B7F90620B7F904301B0413441846FFF7E1
:102B700027F9B7F902203B881B0413441846FFF7D6
:102B80001FF907F108031846FFF76CFD2C37BD4607
:102B900090BD00BFC8BB000890B583B000AF04462D
:102BA000084611461A462346FB800346BB800B4667
:102BB0007B8013463B806FF0ED00FFF701F9B7F91A
:102BC0000620B7F904301B0413441846FFF7F8F841
:102BD000B7F90220B7F900301B0413441846FFF779
:102BE000EFF83A8BBB8B1B0413441846FFF7E8F849
:102BF000386AFFF737FD0C37BD4690BDF0B5A3B07E
:102C000002AF0446084611461A462346FB710346A6
:102C1000BB800B467B8013463B80A04A07F13803FC
:102C200092E8030083E803009D4A07F1300392E82D
:102C3000030083E803009B4A07F1280392E803009E
:102C400083E80300052387F86F30092387F86E3087
:102C5000062387F86D30142387F86C30022387F839
:102C60006B30162387F86A30032387F869300A230C
:102C700087F86830072387F86730002387F86630C5
:102C80003B88184605F0BAFC02460B46104619462A
:102C9000D7E92E2305F052FE02460B46C7E916235C
:102CA000B7F89830184605F0A9FC02460B461046C6
:102CB0001946D7E92C2305F041FE02460B46C7E929
:102CC0001423FB799B0007F18002134453F8483C1E
:102CD00075489847FB799B0007F18002134453F82D
:102CE000504CBA88B7F89C3013449AB297F86D30BC
:102CF0009BB213449BB299B27A88B7F89C301344C4
:102D00009AB297F86C309BB2D31A9BB29BB209B2BD
:102D10001AB2664B0093084611461A220023A047B8
:102D2000FB799B0007F18002134453F8504CBA889A
:102D3000B7F89C3013449AB23B8813449AB297F880
:102D40006B309BB213449BB299B27A88B7F89C302F
:102D500013449AB2B7F8983013449AB297F86A308D
:102D60009BB2D31A9BB29BB209B21AB2504B0093DA
:102D7000084611461A220023A047FB799B0007F161
:102D80008002134453F8483C4A489847FB799B001B
:102D900007F18002134453F8483CB988B7F89C20E7
:102DA0000A44C2F30E02D1037A88C2F30E020A4328
:102DB00042F0804210469847FB799B0007F1800261
:102DC000134453F8483CB988B7F89C200A44C2F32E
:102DD0000E02D1037888B7F89C201044B7F89820E9
:102DE0001044B7F89C200244C2F30E020A4342F09A
:102DF000804210469847FB799B0007F180021344FC
:102E000053F8483CBA88C2F30E02D1037888B7F869
:102E10009C201044B7F898200244C2F30E020A43E3
:102E200042F0804210469847FB799B0007F18002F0
:102E3000134453F8483CB988B7F89C2011443A88A9
:102E40001144B7F89C200A44C2F30E02D1037888DB
:102E5000B7F89C201044B7F898200244C2F30E0241
:102E60000A4342F0804210469847FB799B0007F1E5
:102E70008002134453F8483C97F86E2042F0606299
:102E800010469847FB799B0007F18002134453F8E2
:102E9000483C094898470123FB676FE0F4BB0008F2
:102EA000FCBB000804BC00080B1E3B04E4BB00088C
:102EB000E8BB00080300001FE2DAC504FB799B00B1
:102EC00007F18002134453F8484CBA88B7F89C3095
:102ED000D518F86F05F0A2FB02460B4610461946BE
:102EE000D7E9162305F000FC02460B4610461946AA
:102EF00005F0BCFE03469BB22B44C3F30E03DA037A
:102F00007988B7F89C300B44C3F30E03134343F0A6
:102F100080431846A047FB799B0007F180021344C9
:102F200053F8484CBA88B7F89C30D518F86F05F0BC
:102F300075FB02460B4610461946D7E9162305F0E5
:102F4000D3FB02460B461046194605F08FFE03469A
:102F50009BB22B44C3F30E03DA037988B7F89C3095
:102F60001944B7F898300B44C3F30E03134343F0EE
:102F700080431846A047FB6F0133FB67D7E92E015A
:102F800004F0AAF802460B461046194605F046FE24
:102F90000246FB6F9A4291DA0123BB6764E0FB793A
:102FA0009B0007F18002134453F8484CBA88B7F8E5
:102FB0009C301344C3F30E03DD037A88B7F89C30CA
:102FC0001A44B7F89830D618B86F05F027FB0246B8
:102FD0000B4610461946D7E9142305F085FB024637
:102FE0000B461046194605F041FE03469BB2F31A04
:102FF000C3F30E032B4343F080431846A047FB79ED
:103000009B0007F18002134453F8484CBA88B7F884
:103010009C301A443B881344C3F30E03DD037A88C3
:10302000B7F89C301A44B7F89830D618B86F05F046
:10303000F5FA02460B4610461946D7E9142305F067
:1030400053FB02460B461046194605F00FFE034699
:103050009BB2F31AC3F30E032B4343F0804318468D
:10306000A047BB6F0133BB67D7E92C0104F034F8EC
:1030700002460B461046194605F0D0FD0246BB6FCE
:103080009A428CDAFB799B0007F18002134453F8D3
:10309000483C4FF004509847FB799B0007F18002B1
:1030A000134453F8483CA448984701237B67BEE08B
:1030B000D7E92A01D7E92E2305F040FC02460B464A
:1030C00014461D467B6F013B184605F0A7FA0246E1
:1030D0000B462046294605F007FB02460B46C7E98A
:1030E0001223D7E9120105F0C1FD0346184605F089
:1030F00085FA02460B46D7E9120105F041F902466E
:103100000B46104619464FF000024FF0000305F041
:1031100053FD0346002B41D0FB799B0007F1800251
:10312000134453F8584CBA88B7F89C3013449DB2F6
:103130007B6F013B184605F071FA02460B461046BC
:103140001946D7E9162305F0CFFA02460B4610467A
:10315000194605F08BFD03469BB22B449AB297F8B3
:1031600069309BB213449BB29EB27A88B7F898300C
:1031700013449AB297F868309BB213449BB29DB245
:10318000D7E9120105F04AFD014632B22BB2009197
:103190001046194614220023A04745E007F1080312
:1031A00018466649D7E9122306F0A6FAFB799B0078
:1031B00007F18002134453F8504CBA88B7F89C309A
:1031C00013449DB27B6F013B184605F027FA024677
:1031D0000B4610461946D7E9162305F085FA024634
:1031E0000B461046194605F041FD03469BB22B44A1
:1031F0009AB297F869309BB213449BB299B27A881D
:10320000B7F8983013449AB297F868309BB21344D9
:103210009BB29BB209B21AB207F1080300930846A9
:10322000114614220023A0477B6F01337B67D7E947
:103230002E0103F0CDFE02460B461046194605F05E
:10324000EDFC02467B6F9A42BFF632AF01233B672B
:10325000BDE0D7E92801D7E92C2305F06FFB024632
:103260000B4614461D46386F05F0D8F902460B464A
:103270002046294605F038FA02460B46C7E91023D6
:10328000D7E9100105F0F2FC0346184605F0B6F93F
:1032900002460B46D7E9100105F072F802460B46CC
:1032A000104619464FF000024FF0000305F084FC71
:1032B0000346002B44D0FB799B0007F180021344A6
:1032C00053F8584C97F867309BB2BA88D31A9BB220
:1032D0009EB27A88B7F89C3013449AB2B7F8983007
:1032E00013449DB2386F05F099F902460B4610461B
:1032F0001946D7E9142305F0F7F902460B461046A4
:10330000194605F0B3FC03469BB2EB1A9AB297F844
:1033100066309BB213449BB29DB2D7E9100105F011
:103320007DFC014632B22BB20091104619461422A0
:103330000023A04748E000BF0B1E3B04ECBB000885
:1033400007F1080318469C49D7E9102306F0D4F981
:10335000FB799B0007F18002134453F8504C97F817
:1033600067309BB2BA88D31A9BB29EB27A88B7F8FC
:103370009C3013449AB2B7F8983013449DB2386F1A
:1033800005F04CF902460B4610461946D7E91423BE
:1033900005F0AAF902460B461046194605F066FCF0
:1033A00003469BB2EB1A9AB297F866309BB213446D
:1033B0009BB29BB231B21AB207F1080300930846E0
:1033C000114614220023A0473B6F01333B67D7E926
:1033D0002C0103F081FE02460B461046194605F00B
:1033E0001DFC02463B6F9A42BFF633AFFB799B0050
:1033F00007F18002134453F8483C70489847FB7922
:103400009B0007F18002134453F8483CB988B7F891
:103410009C20114497F86F200A44C2F30E02D10396
:10342000788897F86F200244C2F30E020A4342F0F4
:10343000804210469847FB799B0007F180021344B5
:1034400053F8483CB988B7F89C200A44C2F30E02EE
:10345000D1037A88C2F30E020A4342F0804210463A
:103460009847FB799B0007F18002134453F8483CCE
:10347000B988B7F89C20114497F86F208A1AC2F3D4
:103480000E02D103788897F86F200244C2F30E022F
:103490000A4342F0804210469847FB799B0007F1AF
:1034A0008002134453F8483C4FF004509847FB798E
:1034B0009B0007F18002134453F8483C3F4898476B
:1034C000FB799B0007F18002134453F8483CB9880C
:1034D000B7F89C2011443A881144B7F89C20114455
:1034E00097F86F208A1AC2F30E02D1037888B7F8D2
:1034F0009C201044B7F89820104497F86F2002449D
:10350000C2F30E020A4342F0804210469847FB790C
:103510009B0007F18002134453F8483CB988B7F880
:103520009C2011443A881144B7F89C200A44C2F305
:103530000E02D1037888B7F89C201044B7F8982081
:103540000244C2F30E020A4342F0804210469847FA
:10355000FB799B0007F18002134453F8483CB9887B
:10356000B7F89C2011443A881144B7F89C201144C4
:1035700097F86F208A1AC2F30E02D1037888B7F841
:103580009C201044B7F89820104497F86F20821AB6
:10359000C2F30E020A4342F0804210469847FB797C
:1035A0009B0007F18002134453F8483C4FF004504D
:1035B00098478437BD46F0BDECBB00080400001FEF
:1035C0002DE9B04384B000AF0446084611461A46C0
:1035D0002346FB800346BB800B467B8013463B8023
:1035E000BB6C43F080631846FFF7DAF87748FFF7C3
:1035F000D7F897F84430002B46D10023FB603EE01B
:10360000FA883B8D1A44FB681344C3F30E03DC03B2
:10361000BA883B8D1A443B88D518FB685B00BA6BAF
:1036200013441B88184604F0E9FF02460B46104677
:103630001946D7E90C2305F081F902460B4690465E
:1036400099463B88184604F0D9FF02460B4640468F
:10365000494605F049F802460B461046194605F062
:1036600005FB03469BB2EB1AC3F30E03234343F05F
:1036700080431846FFF794F8FB680133FB60BA8F6C
:10368000FB689A42BCDC5BE03B6C1B887B81BB8F98
:10369000013B9BB23B814FE0B7F90A30002B03DAC4
:1036A000BB8F013B9BB27B81FA883B8D1A44B7F9F3
:1036B00008301344C3F30E03DC03BA883B8D1A446D
:1036C0003B88D518B7F90A305B00BA6B13441B88E6
:1036D000184604F093FF02460B4610461946D7E9F8
:1036E0000C2305F02BF902460B46904699463B8881
:1036F000184604F083FF02460B464046494604F054
:10370000F3FF02460B461046194605F0AFFA034692
:103710009BB2EB1AC3F30E03234343F080431846D6
:10372000FFF73EF87B899BB2013B9BB27B813B89D3
:103730009BB2013B9BB23B81B7F90830002BABDA5F
:103740004FF00450FFF72CF897F84430002B38D195
:10375000FB6C43F080631846FFF722F81B48FFF725
:103760001FF8FA883B8D13443A6C12881344C3F354
:103770000E03DA03B9883B8D0B44053BC3F30E03FC
:10378000134343F080431846FFF70AF8FA883B8D4D
:1037900013443A6C12881344C3F30E03DA03B98856
:1037A0003B8D19443B880B440533C3F30E0313438D
:1037B00043F080431846FEF7F3FF4FF00450FEF746
:1037C000EFFF1037BD46BDE8B08300BF0400001F07
:1037D00080B500AF0E4846F2C411FEF72BFC0D4831
:1037E00040F25D21FEF726FC0B480C49FEF722FC57
:1037F0000B486FF06E01FEF71DFC0A4845F66B3171
:10380000FEF718FC08480949FEF714FC80BD00BF0C
:10381000502130005421300058213000B14AF1FFCE
:103820005C2130006021300064213000ABC7FAFF1A
:1038300080B500AFFEF78AFD0346002B2ED0194855
:1038400005F028FF184B01221A7018483021FEF7A6
:103850009DFBFFF7BDFFFEF7B1FE6FF0FF00FEF727
:103860009FFF4FF04070FEF79BFF1148FEF7DCFF13
:103870004FF01C50FEF794FF6FF07D40FEF790FF75
:103880000C48FEF78DFF0020FEF78AFF6FF0FE0068
:10389000FEF786FFFEF7B8FE012300E0002318467E
:1038A00080BD00BF0CBC0008A18AFE1FD4203000E0
:1038B000EEF1F5000700002680B500AF1A4B1B782B
:1038C000002B30D00020194944F60472FEF706FDA3
:1038D000FEF774FE6FF0FF00FEF762FF6FF07D40B1
:1038E000FEF75EFF1248FEF75BFF4FF04070FEF7F9
:1038F00057FF002000214FF49A72FA23FFF774F863
:103900000C48FEF74DFF0C48FEF74AFF4FF00450FD
:10391000FEF746FF0020FEF743FF6FF0FE00FEF7C4
:103920003FFFFEF771FE80BDA18AFE1F40BC00086C
:10393000070000260100001FB000B04280B500AFB4
:103940006FF0FF00FEF718FF2148FEF715FF214832
:10395000FEF742FF4FF01C50FEF70EFF1E48FEF729
:103960000BFF1E48FEF708FF4FF08040FEF704FFF4
:103970001B48FEF701FF4FF00450FEF7FDFE194B08
:103980001B785BB2184A52F82330984700BFFEF705
:1039900089FB0346002BFAD11448FEF785FA03464B
:1039A0001A46134B1A60124B1B684FF47F204FF4DA
:1039B00040111A46FEF7ACFC00BFFEF773FB03464E
:1039C000002BFAD1074B1A780A4B1A7080BD00BF42
:1039D00001000003EEF1F500EEF1F5040900001F0F
:1039E0001001F040A28AFE1F1488FE1F0021300043
:1039F000288FFE1F0088FE1F90B587B002AFFEF72C
:103A000051FB0346002B00D0D9E06E48FEF726FAA2
:103A10000346FB736C48FEF779FAB860BB68FB801D
:103A2000BB681B0CBB80694B1B78002B41D0684BDB
:103A30001B68B3F5004F0AD1664B1B68B3F5004F06
:103A400005D1BB88624A1360FB88624A1360BB8859
:103A50001BB2002B0FDBFB881BB2002B0BDB5C4B7C
:103A60001A68BB88D31A5C4A13605A4B1A68FB88E1
:103A7000D31A5A4A1360FB7B002B05D1584B1B7895
:103A80000133DAB2564B1A70554B1B78042B10D900
:103A9000544B1B78FB734D4B00221A70504B002285
:103AA0001A704B4B4FF400421A604A4B4FF40042DD
:103AB0001A60FB7B002B02D0012B04D06EE04A4B36
:103AC00000221A707BE0414B1B78002B0AD1454B3A
:103AD0001B78002B06D13D4B01221A70414B01226D
:103AE0001A705AE0394B1B78012B26D13D4B1B78BD
:103AF000012B22D1384B1B6883EAE372A2EBE372FD
:103B0000364B1B68002BB8BF5B429A4214DD324B28
:103B10001B68322B03DD354B03221A700CE02E4B51
:103B20001B6813F1320F03DA304B04221A7003E0E2
:103B30002E4B00221A7030E02FE0244B1B78002B14
:103B40002BD1284B1B78012B27D1284B1B78032B1B
:103B50000DD1274B1B78002B09D1254B1B78DBB2ED
:103B6000DBB20133DBB2DAB2214B1A7011E01F4B2A
:103B70001B78042B0DD11E4B1B785BB2002B08DD8C
:103B80001B4B1B78DBB2DBB2013BDBB2DAB2184B6A
:103B90001A70144B00221A7011E010E0144B1B78BD
:103BA0005BB2144A52F82340084B1A78F97B0B4B4E
:103BB0000093084611460B4A074BA04700BF143735
:103BC000BD4690BD2C21300024213000A48AFE1F68
:103BD0001C88FE1F2088FE1FA88AFE1FAC8AFE1FBD
:103BE000B08AFE1FA58AFE1F648EFE1FA38AFE1FD9
:103BF000A28AFE1F0C88FE1F80B500AF1C4B1B78ED
:103C0000002B33D01B4B1A781B4B1B7852B25BB284
:103C10009A4201D0FFF792FE02F066FEFEF7CEFC5C
:103C20006FF0FF00FEF7BCFD6FF07D40FEF7B8FDC2
:103C30001248FEF7B5FD4FF04070FEF7B1FD104B96
:103C40001B684FF47F201946FEF7B4FD0A4B1B7822
:103C50005BB20C4A52F8233098470020FEF7A0FDD3
:103C60006FF0FE00FEF79CFDFEF7CEFC80BD00BFAE
:103C7000A18AFE1F0088FE1FA28AFE1F07000026E1
:103C8000288FFE1F0488FE1F80B483B000AF7860C9
:103C90000B46FB70FB7801229A407B68DA600C3798
:103CA000BD465DF8047B704780B483B000AF786098
:103CB0007B680122DA600C37BD465DF8047B7047F3
:103CC00080B483B000AF78607B6802221A610C3741
:103CD000BD465DF8047B704780B483B000AF786068
:103CE0000B467B807A887B685A630C37BD465DF84B
:103CF000047B704780B483B000AF78600B467B8054
:103D00007A887B68DA630C37BD465DF8047B7047C0
:103D100080B483B000AF786039607B683A681A611C
:103D20000C37BD465DF8047B704700BF80B483B09C
:103D300000AF78600B46FB707B68D3F8A420FB785B
:103D4000012101FA03F31A437B68C3F8A4200C375E
:103D5000BD465DF8047B704780B584B000AF7860E5
:103D60000023FB737B6893F8263083F00103DBB2FA
:103D7000002B09D07B6893F82130002B04D17868A0
:103D800000F008F80346FB73FB7B18461037BD466E
:103D900080BD00BF80B584B000AF78607B681B69D0
:103DA000184602F099F80346FB737B681B699A6812
:103DB0007B681B7E10461946FFF766FF7B685A69D1
:103DC0007B68DB6910461946FDF756F9786800F004
:103DD0002DF87B6893F82530002B0FD07B685A694B
:103DE0007B6893F82030104600211A46FDF77AF9D7
:103DF0007B685B6918460021FFF798FF7B685B6969
:103E00001846FFF75DFF7B68012283F826207B6858
:103E100093F82430002B04D07B685B691846FFF7C9
:103E200043FFFB7B18461037BD4680BD80B582B08E
:103E300000AF78607B685A697B685B8C10461946D6
:103E4000FFF74AFF7B685B6918460021FFF752FFC6
:103E50007B681B699A687B68DB6810461946FFF728
:103E600057FF0837BD4680BD80B400AF044BDB6808
:103E700003F4E0631B0A1846BD465DF8047B7047F7
:103E800000ED00E080B483B000AF03463960FB7101
:103E900097F90730002B0ADB0D4997F907303A688C
:103EA000D2B29200D2B20B4483F800230AE009494F
:103EB000FB7903F00F03043B3A68D2B29200D2B20E
:103EC0000B441A760C37BD465DF8047B704700BF83
:103ED00000E100E000ED00E080B489B000AFF860E0
:103EE000B9607A60FB6803F00703FB61FB69C3F10B
:103EF0000703062B28BF0623BB61FB690633062B8D
:103F000002D9FB69013B00E000237B61BB69012210
:103F100002FA03F35A1EBB681A407B699A407B6918
:103F2000012101FA03F3591E7B680B401343184625
:103F30002437BD465DF8047B704700BF80B582B072
:103F400000AF78607B68013BB3F1807F01D3012330
:103F50000FE00A4A7B68013B53604FF0FF303F217E
:103F6000FFF790FF054B00229A60044B07221A606E
:103F7000002318460837BD4680BD00BF10E000E0B2
:103F800090B486B000AF78600023FB736B497A6809
:103F90001346DB0013449B000B4418331B68BB60C3
:103FA000674B1B68002B09D17A681346DB0013446A
:103FB0009B00624A1344624A1360BBE0604B1B687B
:103FC0007B61BB683B61ABE07B699B691A463B69DF
:103FD0009B1A3B613B69002B7ADC7B695B68002B99
:103FE00026D07B6959687A681346DB0013449B002E
:103FF000524A13440B607B69596850487A681346EB
:10400000DB0013449B00034459604C497A68134613
:10401000DB0013449B000B447A691A607A681346EC
:10402000DB0013449B00454A1A447B695A601CE03C
:10403000434B196841487A681346DB0013449B00E0
:10404000034419603E4B19687A681346DB00134439
:104050009B003A4A13444B607A681346DB001344D2
:104060009B00364A1344364A136034497A68134633
:10407000DB0013449B000B441B689A693B69D11811
:104080002E487A681346DB0013449B000344183320
:1040900019602A497A681346DB0013449B000B44DD
:1040A000196826487A681346DB0013449B000344D2
:1040B0001B689869214C7A681346DB0013449B0007
:1040C000234418331B68C31A8B610123FB7324E05C
:1040D0003B69002B21DD7B691B68002B1DD1174933
:1040E0007A681346DB0013449B000B447A695A60DC
:1040F0007A681346DB0013449B00104A1A447B691C
:104100001A6039690D487A681346DB0013449B0036
:104110000344183319600123FB737B691B687B61BF
:104120007B69002B06D0FB7B83F00103DBB2002B05
:104130007FF44AAF1837BD4690BC7047308FFE1FE2
:10414000B48AFE1F80B485B000AF78607A681346E9
:10415000DB0013449B00294A1344FB60FB685B6847
:10416000002B07D1FB681B68002B03D1244B0022D6
:104170001A603DE0FB685B68002B14D1FB681B688C
:104180001F4A13601E4B1B6800225A601C4B1B68A1
:104190001B4A12689169FA6892690A449A61FB683D
:1041A00000221A6024E0FB681B68002B07D1FB6823
:1041B0005B6800221A60FB6800225A6018E0FB6806
:1041C0005B68FA6812681A60FB681B68FA685268D4
:1041D0005A60FB681B68FA6812689169FA6892690C
:1041E0000A449A61FB6800221A60FB6800225A6048
:1041F0001437BD465DF8047B704700BF308FFE1F4B
:10420000B48AFE1F80B582B000AF2F4B1B687B6065
:1042100050E07B6893F82030002B13D07B685B69FB
:104220001846FFF78FFF7B6800225A737B685B6933
:104230001A4601239340DA43244B1B681340234A58
:10424000136034E07B681B7B002B12D17B685B7BA7
:10425000012B2CD17B685B691846FFF773FF7B68E5
:1042600002225A737B689B687A68126910469847E5
:104270001DE07B681B7B012B18D17B685B7B012BCE
:1042800015D17B685B691846FFF75CFF7B68DA69CC
:104290007B689A617B685B691846FFF771FE7B68F3
:1042A0009B687A6812691046984700E009E0064B5F
:1042B0001B687B607B68002B03D07B689B69002BAD
:1042C000A7D00837BD4680BDB48AFE1FB88AFE1F3E
:1042D00080B582B000AF0E4B1B687B600D4B1B6836
:1042E00001330C4A13607B68002B0ED07B689B69FE
:1042F000012B05D97B689B695A1E7B689A6104E093
:104300007B6800229A61FFF77DFF0837BD4680BDBC
:10431000B48AFE1FBC8AFE1F80B584B000AF7860EF
:104320000023FB737B681B7883F00103DBB2002B57
:1043300020D0134B00221A601248FFF7FFFD0346FE
:10434000FB73FB7B012B15D0FFF78EFD0346184650
:104350003F210022FFF7C0FD03464FF0FF30194612
:10436000FFF790FD084B00221A607B6801221A704B
:104370000023FB73FB7B18461037BD4680BD00BF92
:10438000B48AFE1F80320200B88AFE1F80B489B052
:1043900000AFF8607A603B600B46FB720023FB6164
:1043A0000023BB6100237B61FB68B3F57A7F02D2F7
:1043B0000023FB617BE00023BB6175E0BB69012248
:1043C0009A403E4B1B681340002B6AD1BB69012207
:1043D0009A403A4B1B681343384A13603849BA690C
:1043E0001346DB0013449B000B441033BA695A6038
:1043F0003349BA691346DB0013449B000B4408336E
:10440000FA7A1A712E49BA691346DB0013449B00ED
:104410000B44083302225A71FB682A4AA2FB032389
:104420009B097B617B69591C2548BA691346DB00EF
:1044300013449B000344183319602149BA69134699
:10444000DB0013449B000B4418337A695A601C4903
:10445000BA691346DB0013449B000B4408337A68A7
:104460001A601749BA691346DB0013449B000B44DA
:1044700010333A681A601249BA691346DB001344D4
:104480009B000B4400225A600D49BA691346DB00B9
:1044900013449B000B4400221A60BB690133FB618B
:1044A00005E0BB690133BB61BB69072B86D9FB699A
:1044B00018462437BD465DF8047B7047B88AFE1F56
:1044C000308FFE1FD34D621080B584B000AF78608E
:1044D0000123FB737B685A1E1A491346DB00134401
:1044E0009B000B4408335B79022B26D17B685A1E54
:1044F0007B68591E13480B46DB000B449B000344AA
:1045000018335B68591C0F481346DB0013449B00AB
:104510000344183319607B685A1E0A491346DB00AE
:1045200013449B000B44083301225A717B68013B02
:104530001846FFF725FD0023FB73FB7B1846103759
:10454000BD4680BD308FFE1F80B584B000AF78605F
:104550000023FB737B685A1E16491346DB00134485
:104560009B000B4408335B79002B02D10123FB73C2
:104570001BE07B685A1E0F491346DB0013449B0067
:104580000B4408335B79012B0FD17B685A1E094914
:104590001346DB0013449B000B44083302225A717C
:1045A0007B68013B1846FFF7CDFDFB7B18461037B3
:1045B000BD4680BD308FFE1F80B485B000AF7860EF
:1045C0000023FB737B685A1E20491346DB0013440B
:1045D0009B000B4408335B79002B02D10123FB7352
:1045E0002DE07B685A1E19491346DB0013449B00DB
:1045F0000B4408335B79022B16D17B685A1E134992
:104600001346DB0013449B000B44083300225A710D
:104610007B68013B1A4601239340DA430C4B1B682D
:1046200013400B4A13600AE07B685A1E0749134681
:10463000DB0013449B000B44203301221A70FB7BE8
:1046400018461437BD465DF8047B7047308FFE1F57
:10465000B88AFE1F80B400AF054B1B684FF47A7216
:1046600002FB03F31846BD465DF8047B704700BFAC
:10467000BC8AFE1F80B485B000AFF8600B467A603C
:104680007B817989FB687A68203243F822101437DD
:10469000BD465DF8047B704780B483B000AF78609E
:1046A0007B689B6BDBB223F07F03DBB218460C37D1
:1046B000BD465DF8047B704780B483B000AF78607E
:1046C0007B681B6D03F4C04318460C37BD465DF88C
:1046D000047B704780B485B000AFF8600B467A6009
:1046E0007B817989FB687A68603243F8221014373D
:1046F000BD465DF8047B704780B483B000AF78603E
:104700007B684FF40042C3F818210C37BD465DF8B2
:10471000047B704780B483B000AF78607B68D3F8C7
:10472000143103F48053002B14BF01230023DBB2A8
:1047300018460C37BD465DF8047B704780B483B0E3
:1047400000AF78607B684FF48042C3F818210C37C3
:10475000BD465DF8047B704780B483B000AF7860DD
:104760007B68D3F8143103F00803002B14BF012336
:104770000023DBB218460C37BD465DF8047B70475A
:1047800080B483B000AF786039607B683A68C3F862
:1047900018210C37BD465DF8047B704780B483B0A8
:1047A00000AF78600B46FB707B681B6C23F0C00287
:1047B000FB789B01DBB21A437B681A640C37BD4659
:1047C0005DF8047B704700BF80B483B000AF7860B1
:1047D0007B689B6C18460C37BD465DF8047B7047C0
:1047E00080B483B000AF786039607B68DA6C3B6876
:1047F0001A437B68DA640C37BD465DF8047B70476A
:1048000080B584B000AF78607B685B685B68984770
:104810000346FB73FB7B18461037BD4680BD00BFC7
:1048200080B586B000AFF860B9607A600123FB758F
:10483000FB685B6893F88430022B06D1F868B9688E
:104840007A6800F021F80346FB75FB7D184618379F
:10485000BD4680BD80B586B000AFF860B9607A60B3
:104860000123FB75FB685B6893F88530022B06D14A
:10487000F868B9687A6800F015F90346FB75FB7DA6
:1048800018461837BD4680BD90B589B000AFF860B6
:10489000B9607A600123BB610223FB77FB689B68E8
:1048A0007B610023BB83BB68002B00F0F0807B683A
:1048B000002B00F0EC807B6993F82030DBB283F0B2
:1048C0000103DBB2002B00F0E180FB689B681B68F2
:1048D000082B01D90223BB617B69012283F82020C8
:1048E0007B69BA689A61BB69013B1A467B6803FA27
:1048F00002F27B695A607B6900229A60FB681A6841
:104900007B691B7FDBB210461946FFF747FFFB6848
:104910005B6893F87C30002B4BD0FB681B68184613
:10492000FFF7EAFE3EE000BFFB681B681846FFF792
:10493000F1FE0346002BF7D17B6993F82130DBB2FF
:10494000002B0BD0FB681A687B691B7FDBB210461B
:104950004FF6FF711A46FFF7BDFE1DE0BB69022B43
:1049600007D17B699A697B699B6813441B88BB8369
:1049700006E07B699A697B699B6813441B78BB835B
:10498000FB681A687B691B7FDBB21C46BB8B104639
:1049900019462246FFF79EFE7B699A68BB691A4456
:1049A0007B699A607B699A687B695B689A42BAD333
:1049B00056E000BFFB681B681846FFF76DFE034614
:1049C000802BF7D07B6993F82130DBB2002B0BD022
:1049D000FB681A687B691B7FDBB210464FF6FF71DC
:1049E0001A46FFF747FE1DE0BB69022B07D17B6922
:1049F0009A697B699B6813441B88BB8306E07B69CB
:104A00009A697B699B6813441B78BB83FB681A68AF
:104A10007B691B7FDBB21C46BB8B104619462246C6
:104A2000FFF728FE7B699A68BB691A447B699A6024
:104A300000BFFB681B681846FFF7C6FE034603F479
:104A40008063002BF5D0FB681B6818464FF480612B
:104A5000FFF7C6FE7B699A687B695B689A42A8D3B8
:104A600000BFFB681B681846FFF716FE0346802B45
:104A7000F7D07B69002283F820207B6900225A60EE
:104A80007B6900229A600023FB7702E001E00323A8
:104A9000FB777B69012283F82220FB7F18462437AD
:104AA000BD4690BD80B586B000AFF860B9607A6051
:104AB0000223FB75FB689B683B61BB68002B33D00E
:104AC0007B68002B30D03B69DB7FDBB283F00103D6
:104AD000DBB2002B27D03B6993F82030DBB283F0A8
:104AE0000103DBB2002B1ED03B690122DA773B6960
:104AF000BA685A613B69104A9A613B69012283F89E
:104B000021203B69002283F82220F868796800F0B0
:104B100015F80346FB753B69002283F821203B69A9
:104B20000022DA7702E001E00323FB75FB7D1846E3
:104B30001837BD4680BD00BF5488FE1F90B587B0B2
:104B400000AF7860396001237B617B689B68FB6004
:104B500000237B82FB6800221A61FB6800229A60B6
:104B60007B689B681B68082B01D902237B617B69EA
:104B7000013B1A463B6803FA02F2FB68DA607B6885
:104B80001A68FB681B7FDBB210461946FFF706FE6A
:104B90007B685B6893F87D30002B00F0D6807B68E3
:104BA0001B681846FFF7CAFD7B681B68184600F0B3
:104BB000C5F9FB6893F82130DBB2002B0BD07B6882
:104BC0001A68FB681B7FDBB210464FF6FF711A466E
:104BD000FFF780FD1DE07B69022B07D1FB689A6916
:104BE000FB689B6813441B887B8206E0FB689A691C
:104BF000FB689B6813441B787B827B681A68FB68A0
:104C00001B7FDBB21C467B8A104619462246FFF703
:104C100061FDFB689A687B691A44FB689A6061E0F1
:104C2000FB6893F82130DBB2002B0BD07B681A684D
:104C3000FB681B7FDBB210464FF6FF711A46FFF789
:104C400049FD1DE07B69022B07D1FB689A69FB686F
:104C50009B6813441B887B8206E0FB689A69FB68AB
:104C60009B6813441B787B827B681A68FB681B7FF8
:104C7000DBB21C467B8A104619462246FFF72AFD06
:104C800000BF7B681B681846FFF766FD0346002BD4
:104C9000F7D17B681B681846FCF73CFB03467B8218
:104CA000FB685A69FB681B6913447A8AD2B21A708E
:104CB0007B69022B0AD1FB685A69FB681B690133C7
:104CC00013447A8A120A92B2D2B21A70FB681A6935
:104CD0007B691A44FB681A61FB689A687B691A440D
:104CE000FB689A60FB689A68FB68DB689A4297D316
:104CF00000BF7B681B681846FFF72EFD0346002B9C
:104D0000F7D17B681B681846FCF704FB03467B82DF
:104D1000FB685A69FB681B6913447A8AD2B21A701D
:104D20007B69022B0AD1FB685A69FB681B69013356
:104D300013447A8A120A92B2D2B21A707B681B6844
:104D400018460521FFF71CFDE9E07B681B68184643
:104D500000F0F4F800BF7B681B681846FFF79CFC66
:104D60000346802BF7D0FB6893F82130DBB2002B91
:104D70000BD07B681A68FB681B7FDBB210464FF6CE
:104D8000FF711A46FFF776FC1DE07B69022B07D105
:104D9000FB689A69FB689B6813441B887B8206E06A
:104DA000FB689A69FB689B6813441B787B827B686D
:104DB0001A68FB681B7FDBB21C467B8A10461946CB
:104DC0002246FFF757FCFB689A687B691A44FB6828
:104DD0009A6071E000BF7B681B681846FFF75CFCB7
:104DE0000346802BF7D0FB6893F82130DBB2002B11
:104DF0000BD07B681A68FB681B7FDBB210464FF64E
:104E0000FF711A46FFF736FC1DE07B69022B07D1C4
:104E1000FB689A69FB689B6813441B887B8206E0E9
:104E2000FB689A69FB689B6813441B787B827B68EC
:104E30001A68FB681B7FDBB21C467B8A104619464A
:104E40002246FFF717FC00BF7B681B681846FFF778
:104E500033FC0346002BF7D07B681B681846FCF731
:104E600059FA03467B82FB685A69FB681B69134445
:104E70007A8AD2B21A707B69022B0AD1FB685A690E
:104E8000FB681B69013313447A8A120A92B2D2B2C8
:104E90001A70FB681A697B691A44FB681A61FB681F
:104EA0009A687B691A44FB689A607B681B6818469D
:104EB0004FF44041FFF794FCFB689A68FB68DB689D
:104EC0009A4287D300BF7B681B681846FFF7F4FB44
:104ED0000346002BF7D07B681B681846FCF71AFACC
:104EE00003467B82FB685A69FB681B6913447A8A14
:104EF000D2B21A707B69022B0AD1FB685A69FB682F
:104F00001B69013313447A8A120A92B2D2B21A7020
:104F10007B681B6818464FF44041FFF761FCFB6853
:104F20000022DA60FB6800221A61FB6800229A60A6
:104F3000002318461C37BD4690BD00BF80B582B027
:104F400000AF78607868FCF7E5F97868FCF7E2F97B
:104F50000837BD4680BD00BF80B483B000AF786025
:104F60000B46FB701346BB70F878FB787A68063303
:104F70009B0013445B6823F00702BB781A437968EF
:104F8000831D9B000B445A600C37BD465DF8047BC3
:104F9000704700BF80B483B000AF78600B46FB70F1
:104FA0007B685B6B23F07062FB78013B1B061A4346
:104FB0007B685A630C37BD465DF8047B704700BFC1
:104FC00080B483B000AF78600B46FB707B685B6B8E
:104FD00023F47C12FB78013B1B041A437B685A6361
:104FE0000C37BD465DF8047B704700BF80B485B0C8
:104FF00000AFF860B9607A60FB685B6923F05042EB
:10500000BB681A437B681A43FB685A611437BD4674
:105010005DF8047B704700BF80B483B000AF786058
:105020000B46FB707B681B6C23F00F02FB781A4366
:105030007B681A640C37BD465DF8047B704700BF7F
:1050400080B582B000AF786078680121FFF7E4FF97
:105050000837BD4680BD00BF80B483B000AF786024
:105060007B685B6B43F001027B685A630C37BD467B
:105070005DF8047B704700BF80B483B000AF7860F8
:1050800039607B685B6923F4FE423B68013B9B020D
:10509000134343F480727B685A610C37BD465DF858
:1050A000047B704780B483B000AF78607B68DB6BB3
:1050B00023F008027B68DA630C37BD465DF8047B99
:1050C000704700BF80B584B000AFF860B9607A6007
:1050D000F868B9687A68FFF789FF1037BD4680BD68
:1050E00080B582B000AF78600B46FB70FB787868C3
:1050F0001946FFF74FFF0837BD4680BD80B582B027
:1051000000AF78600B46FB70FB7878681946FFF7B4
:1051100057FF0837BD4680BD80B582B000AF7860CC
:105120000B46FB701346BB70F878FB787A68063341
:105130009B0013445B6823F0500343F0100279682E
:10514000831D9B000B445A60FA78BB78786811463F
:105150001A46FFF701FF0837BD4680BD80B582B013
:1051600000AF0023FB711E481E49FCF793F81C4852
:10517000FFF798FF1A48FFF76FFF19480821FFF75C
:10518000AFFF17481821FFF7B9FF15484FF000414E
:105190000022FFF797FF12480221FFF76DFF124828
:1051A0000121124AFBF7F0F80D4800210022FFF719
:1051B000B3FF0B48FFF744FF0B4800210C4AFBF7F5
:1051C000E3F8094802210B4AFBF7DEF804481021F6
:1051D0000022FCF7F5F9FB7918460837BD4680BD7B
:1051E000004002486C88FE1F00850248C48AFE1FEA
:1051F0005888FE1F5C0B010880B584B000AF786052
:105200000023FB730023BB737B685B7B002B02D006
:105210000023FB731BE07B685B68002B02D07B687C
:105220005B6898477B681B7B002B04D1786800F093
:1052300093FD0346BB73BB7B002B05D00123FB739F
:105240007B6800225A7302E07B6801225A73FB7B61
:1052500018461037BD4680BD80B483B000AF78607B
:1052600039600649054B1B6823F480323B681343C1
:105270000B600C37BD465DF8047B7047B4400050AE
:1052800080B483B000AF786039600649054B1B6875
:1052900023F480123B6813430B600C37BD465DF866
:1052A000047B7047B440005080B483B000AF786096
:1052B0000B46FB700649064B1B6823F00102FB7886
:1052C00013430B600C37BD465DF8047B704700BF8D
:1052D000B440005080B483B000AF78600B46FB70E0
:1052E0000649064B1B6823F01002FB7813430B6042
:1052F0000C37BD465DF8047B704700BFB4400050DA
:1053000080B400AF054A054BD3F89C3043F001034D
:10531000C2F89C30BD465DF8047B704700400050E9
:1053200080B483B000AF0346FB710849074BD3F844
:105330009C3023F0F003FA7912011343C1F89C303A
:105340000C37BD465DF8047B704700BF004000503D
:1053500080B500AF154B1B681B681B8E9AB2144BAF
:105360001A80124B1B681B685B8E9AB2114B1A8015
:105370000F4B1B889BB29BB21BB2002B06DA0D4B66
:105380001B889BB20948194600F0D4FA084B1B88C9
:105390009BB2C3F30E03002B06D0054B1B889BB2B8
:1053A0000248194600F05AFA80BD00BF0889FE1F66
:1053B0005090FE1F5290FE1F98B500AFFFF7A0FF60
:1053C0000820FFF7ADFF3F4A05233F490C46104632
:1053D00019462246FAF7D8FF3A4905223A4B1B7B79
:1053E000084611461A46FBF7D5FE364A06233749CA
:1053F0000C46104619462246FAF7C6FF31490622E6
:10540000324B1B7B084611461A46FBF7C3FE304A57
:10541000002330490C46104619462246FAF7B4FFDD
:105420002B4900222B4B1B7B084611461A46FBF7E3
:10543000B1FE294A062329490C4610461946224640
:10544000FAF7A2FF24490622244B1B7B084611468B
:105450001A46FBF79FFE204A072321490C461046B7
:1054600019462246FAF790FF1B4907221C4B1B7B6B
:10547000084611461A46FBF78DFE154A01231949C5
:105480000C46104619462246FAF77EFF10490122C3
:10549000144B1B7B084611461A46FBF77BFE12484D
:1054A0004FF48031FFF7D8FE0F484FF48011FFF71B
:1054B000E7FE0D480121FFF7F7FE0B480021FFF73B
:1054C00009FF98BD008302483C0C01084C0C010800
:1054D00000840248FC0B0108008102480C0C010802
:1054E0001C0C01082C0C010800C0014880B400AF5E
:1054F000044BDB6803F4E0631B0A1846BD465DF805
:10550000047B704700ED00E080B483B000AF034639
:10551000FB7197F90730002B0BDB084997F907302F
:105520005B09FA7902F01F02012000FA02F241F849
:1055300023200C37BD465DF8047B704700E100E096
:1055400080B483B000AF0346FB7197F90730002B9E
:105550000CDB094997F907305B09FA7902F01F0261
:10556000012000FA02F2603341F823200C37BD46D7
:105570005DF8047B704700BF00E100E080B483B0B9
:1055800000AF03463960FB7197F90730002B0ADB47
:105590000D4997F907303A68D2B29200D2B20B4463
:1055A00083F800230AE00949FB7903F00F03043B69
:1055B0003A68D2B29200D2B20B441A760C37BD468A
:1055C0005DF8047B704700BF00E100E000ED00E003
:1055D00080B489B000AFF860B9607A60FB6803F00E
:1055E0000703FB61FB69C3F10703062B28BF0623F2
:1055F000BB61FB690633062B02D9FB69013B00E066
:1056000000237B61BB69012202FA03F35A1EBB68C7
:105610001A407B699A407B69012101FA03F3591E04
:105620007B680B40134318462437BD465DF8047B66
:10563000704700BF80B483B000AF78607B689B8DFB
:105640009BB243F001039AB27B689A850C37BD4642
:105650005DF8047B704700BF80B483B000AF786012
:105660007B689B8D9BB223F001039AB27B689A857D
:105670000C37BD465DF8047B704700BF80B483B033
:1056800000AF78607B689B8D9BB223F004039AB2D5
:105690007B689A850C37BD465DF8047B704700BF78
:1056A00080B483B000AF786039607B6893F82F30A6
:1056B000DAB23B68DBB21343DAB27B6883F82F209F
:1056C0000C37BD465DF8047B704700BF80B483B0E3
:1056D00000AF78607B6893F82F30DBB218460C3748
:1056E000BD465DF8047B704780B483B000AF78603E
:1056F0000B46FB707B689B8D9BB2DBB29AB2FB784A
:105700009BB21B029BB213439AB27B689A850C37FB
:10571000BD465DF8047B704780B483B000AF78600D
:105720000B46FB707B6893F82930DBB223F00E0345
:10573000DAB2FB785B00DBB21343DAB27B6883F842
:1057400029200C37BD465DF8047B704780B483B0D8
:1057500000AF78600B46FB707B6893F82E30DBB2AD
:1057600023F00F03DAB2FB781343DAB27B6883F8D5
:105770002E200C37BD465DF8047B704780B584B0A1
:1057800000AF786039600023FB737B681B681B687F
:1057900018463968FFF784FF7868174900F0D6F992
:1057A0007B681B685B6D002B20D07B681B6893F8BF
:1057B0005C30DBB283F00103DBB2002B02D02E237E
:1057C000FB730AE07B681B681B681846FFF77EFFC7
:1057D00002463B681340002BE7D1786800F0F0F9EF
:1057E0007B681B685B6D1846FEF7E6FEFB7B184680
:1057F0001037BD4680BD00BF20A1070080B582B034
:1058000000AF78607B681B68203318460021302287
:1058100003F05DFA7B6800225A727B681B680022E5
:1058200083F850207B681B6801225A767B681B68CE
:1058300001221A767B681B6801221A777B681B6835
:1058400001229A767B6800221A727B681B681B68AB
:105850001846FFF713FF0837BD4680BD80B584B0FA
:1058600000AF78600B467B800023FB737B8803F0DE
:105870002003002B0ED07B681B681E221A767B68E3
:105880001B681B6818462021FBF7F0FC7B681B682F
:105890000122DA717B8803F01003002B0ED07B68A5
:1058A0001B681E221A767B681B681B68184610212D
:1058B000FBF7DCFC7B681B680122DA717B8803F054
:1058C0000203002B15D07B681B681F229A767B6829
:1058D0001B681B6818460221FBF7C8FC7B681B7A13
:1058E00023F02003DAB27B681A727B681B680122FE
:1058F0001A727B8803F00103002B15D07B681B68AC
:105900001C225A767B681B681B6818460121FBF72E
:10591000ADFC7B681B7A23F01003DAB27B681A7245
:105920007B681B6801229A71FB7B18461037BD46C5
:1059300080BD00BF80B584B000AF78600B467B802F
:105940000123FB737B681B687A889A807B8803F04D
:105950000103002B16D07B681B6802225A767B68F5
:105960001B7A23F01003DAB27B681A727B681B681B
:105970001B6818464FF48031FBF778FC7B681B6886
:1059800001229A717B8803F00203002B16D07B68FA
:105990001B6803225A767B681B7A23F01003DAB265
:1059A0007B681A727B681B681B6818464FF40031CD
:1059B000FBF75CFC7B681B6801229A717B8803F013
:1059C0000403002B16D07B681B6804225A767B6880
:1059D0001B7A23F01003DAB27B681A727B681B68AB
:1059E0001B6818464FF48021FBF740FC7B681B685E
:1059F00001229A717B8803F00803002B16D07B6884
:105A00001B6805225A767B681B7A23F01003DAB2F2
:105A10007B681A727B681B681B6818464FF400216C
:105A2000FBF724FC7B681B6801229A717B8803F0DA
:105A30001003002B16D07B681B6806221A767B6841
:105A40001B7A23F02003DAB27B681A727B681B682A
:105A50001B6818464FF48011FBF708FC7B681B6835
:105A60000122DA717B8803F02003002B16D07B68BB
:105A70001B6807221A767B681B7A23F02003DAB2B0
:105A80007B681A727B681B681B6818464FF400110C
:105A9000FBF7ECFB7B681B680122DA717B8803F063
:105AA0004003002B16D07B681B6808221A767B689F
:105AB0001B7A23F02003DAB27B681A727B681B68BA
:105AC0001B6818464FF48001FBF7D0FB7B681B680E
:105AD0000122DA717B8803F48073002B1DD07B6870
