:020000040C00EE
:100000000088FE1F0102000891020008910200080A
:10001000910200089102000891020008000000000F
:100020000000000000000000000000009102000835
:10003000910200080000000091020008B554000879
:100040009102000891020008910200089102000844
:100050009102000891020008910200089102000834
:1000600091020008000000000000000000000000F5
:1000700091020008000000009102000891020008AF
:10008000B156000891020008910200089102000890
:1000900091020008910200089102000891020008F4
:1000A00091020008910200089102000891020008E4
:1000B00091020008910200089102000891020008D4
:1000C00091020008910200089102000891020008C4
:1000D00091020008910200089102000891020008B4
:1000E00091020008910200089102000891020008A4
:1000F0009102000891020008910200089102000894
:100100009102000891020008910200089102000883
:100110009102000891020008910200089102000873
:100120009102000891020008910200089102000863
:100130009102000891020008910200089102000853
:100140009102000891020008910200089102000843
:100150009102000891020008910200089102000833
:10016000000000000000000000000000000000008F
:100170009102000891020008910200089102000813
:100180009102000891020008910200089102000803
:1001900091020008910200089102000891020008F3
:1001A00091020008910200089102000891020008E3
:1001B00091020008910200089102000891020008D3
:1001C00091020008910200089102000891020008C3
:1001D000910200089102000891020008000000004E
:1001E00091020008910200089102000891020008A3
:1001F00091020008000000009102000800000000C9
:10020000DFF870D01C4880471C4C1D4DAC4209DA09
:1002100021686268A368043BA2BFC858D050FAE7BF
:100220000C34F3E7174B184CA34208DA19685A68E4
:100230000020043AA4BF8850FBE70833F4E71348D2
:10024000804700005CFA000C0088FE1F14020000CA
:100250005CFA000C0088FE1F00000000148AFE1FDC
:1002600088040000000000200000000000000020C2
:10027000000000000088FE1F9502000844020008EC
:100280005C0200085C02000874020008D9550008EE
:10029000FEE7000098B500AF054A4FF00053144642
:1002A0000FCB84E80F0004F095FE04F0FDFE98BD2E
:1002B000C4FF032080B584B000AF2F4BDB6803F48C
:1002C0008033002B3ED02D4BDB6803F00103002B65
:1002D00002D02B4BFB6002E004F0DCFEF860274B01
:1002E0001B6803F00403002B20D0244B9B6803F011
:1002F00070631B0E0133BB60204B9B6803F4FE430D
:100300001B0A01337B601D4B9B6803F4FE031B0C2F
:1003100001333B60BB683A6802FB03F3FA68B2FB47
:10032000F3F37A6802FB03F3FB600DE0134B9B6869
:1003300003F07F0301333B60FA683B68B2FBF3F3E1
:10034000FB6001E00E4BFB600B4BDB68DBB2013363
:10035000FA68B2FBF3F3FB60074B1B6903F0010380
:100360000133FA68B2FBF3F3FB60064AFB681360E3
:100370001037BD4680BD00BF0046005010470050FA
:1003800000366E01C0FF032080B485B000AFF86076
:100390000B467A60FB72FB7A9B08DBB21846FB7A4D
:1003A0009B08DBB21A46FB68043253F82220FB7A22
:1003B00003F00303DB001946F8238B40DB4302EA1A
:1003C0000301FB68021D43F82210FB685A6FFB7A99
:1003D0005B00194603238B40DB431A40FB685A67D6
:1003E000FB683A4A934203D0FB68394A93420AD1E8
:1003F000FB681A6EFB7A012101FA03F3DB431A4012
:10040000FB681A6642E07B681B78DBB25BB2002BAC
:100410003CDA7B685A68FB7A9A40FB685A60FB7A40
:10042000DB08DBB21846FB7ADB08DBB21A46FB6856
:10043000103253F82220FB7A03F007039B00194681
:1004400007238B40DB4302EA0301FB6800F1100243
:1004500043F82210FB7ADB08DBB21846FB7ADB0894
:10046000DBB21A46FB68103253F822207B681B7AF5
:100470001946FB7A03F007039B0001FA03F342EAF3
:100480000301FB6800F1100243F82210FB7A9B087D
:10049000DBB21846FB7A9B08DBB21A46FB680432D3
:1004A00053F822207B681B781946FB7A03F003037C
:1004B000DB0001FA03F342EA0301FB68021D43F883
:1004C00022101437BD465DF8047B7047008E024849
:1004D000008F024880B400AF034B1B681846BD462E
:1004E0005DF8047B704700BFC0FF032080B400AFFD
:1004F000034BD3F8C4301846BD465DF8047B704703
:100500000040005080B584B000AF7860FFF7D2FEA5
:100510000B4B1B680B4AA2FB03239A0C7B6802FB64
:1005200003F37B600023FB6003E000BFFB68013343
:10053000FB60FA687B689A42F7D31037BD4680BDEE
:10054000C0FF032083DE1B4380B400AF034B5B6816
:100550001846BD465DF8047B704700BF74400050EC
:1005600080B483B000AF7860034A7B68D3600C37F7
:10057000BD465DF8047B704774400050B0B584B050
:1005800002AF7860002000F0BFF800F091FA7B68BD
:10059000DB79002B0AD000F0C9FA00BF00F0B4FAF2
:1005A000034683F00103DBB2002BF7D17B685B7A53
:1005B000184600F023F900BFFFF798FF0346002B11
:1005C000FAD17B681B7A184600F04CFA7B681B7CDA
:1005D000184600F031F97B685B7C184600F054F94E
:1005E0007B689B7C184600F03BF97B68DB7C1846F7
:1005F00000F05EF97B689B79002B0AD000F0CEFA00
:1006000000BF00F0F3FA034683F00103DBB2002BD6
:10061000F7D17B68DB78002B02D100F00BFB14E0F4
:1006200000F0F8FA7B6899887B68DA787B685B78F9
:100630001D467B681B781C467B689B7800930846A8
:1006400011462A46234600F005FB7B68DB68B3F5BC
:10065000803F03D14FF4803000F056F8FFF72AFEB8
:100660000837BD46B0BD00BF80B485B000AF78602C
:100670007B681B0FFB607B6823F07043BB60FA68EC
:1006800013465B0013449B001A46044B1344BA689C
:100690001A601437BD465DF8047B7047144400505F
:1006A00080B485B000AF78607B681B0FFB607B680F
:1006B00023F07043BB60FA6813465B0013449B0051
:1006C0001A46084B13441A68BB681340002B14BF2A
:1006D00001230023DBB218461437BD465DF8047BC6
:1006E000704700BF0C44005080B500AFFFF7F2FE2A
:1006F0000246044B5B6903F0010322FA03F3184638
:1007000080BD00BF0046005080B483B000AF786069
:100710000649064BDB6823F480327B681343CB60C9
:100720000C37BD465DF8047B704700BF00460050A3
:1007300080B483B000AF78600649064B9B6923F410
:1007400080327B6813438B610C37BD465DF8047BB8
:10075000704700BF0046005080B483B000AF78609F
:100760000649064B5B6A23F440327B6813434B62B5
:100770000C37BD465DF8047B704700BF0046005053
:1007800080B483B000AF0346FB80FB88002B08D108
:100790000A4A0A4BDB6823F4807323F00103D36019
:1007A00007E0064A054BDB6843F4807343F001031E
:1007B000D3600C37BD465DF8047B7047104700508E
:1007C00080B483B000AF0346FB7100BF094BD3F880
:1007D000C43003F00803002BF8D10749064BDB684F
:1007E00023F04002FB791343CB600C37BD465DF824
:1007F000047B7047004000500043005080B483B039
:1008000000AF0346FB7100BF094BD3F8C43003F0BF
:100810000803002BF8D10749064BDB6823F0800260
:10082000FB791343CB600C37BD465DF8047B704702
:10083000004000500043005080B483B000AF7860A7
:100840000649064BDB6823F0FF027B68013B13433C
:10085000CB600C37BD465DF8047B70470046005006
:1008600080B483B000AF78600649064B1B6A23F062
:1008700001027B68013B13430B620C37BD465DF8F8
:10088000047B70470046005080B483B000AF7860AE
:100890000649064B1B6923F001027B68013B1343A9
:1008A0000B610C37BD465DF8047B70470046005075
:1008B00080B483B000AF78600649064B5B6923F0D3
:1008C00001027B68013B13434B610C37BD465DF869
:1008D000047B70470046005080B483B000AF78605E
:1008E0000649064B9B6923F007027B68013B1343D3
:1008F0008B610C37BD465DF8047B704700460050A5
:1009000080B483B000AF78600649064BDB6923F002
:100910003F027B68013B1343CB610C37BD465DF85A
:10092000047B70470046005080B483B000AF78600D
:100930000649064B5B6A23F0FF027B68013B1343C9
:100940004B620C37BD465DF8047B70470046005093
:1009500080B483B000AF0346FB71044AFB79536057
:100960000C37BD465DF8047B704700BF0046005061
:1009700080B485B000AF78607B681B0FFB607B683C
:1009800023F07043BB60FA6813465B0013449B007E
:100990001A46044B1344BA681A601437BD465DF812
:1009A000047B70474846005080B485B000AF786043
:1009B0007B681B0FFB607B6823F07043BB60FA68A9
:1009C00013465B0013449B001A46084B13441A68F5
:1009D000BB681340002B14BF01230023DBB2184671
:1009E0001437BD465DF8047B704700BF4046005099
:1009F00080B483B000AF78603960194A184B5B69E6
:100A000043F001035361164A154B5B6943F0100331
:100A1000536113493B68013B1A027B68013B1B068B
:100A200013434B610E4A0E4B5B6943F04003536125
:100A30000B4A0B4B5B6923F010035361084A084BC8
:100A40005B6943F48023536100BF054B1B6903F0CE
:100A50000403002BF9D00C37BD465DF8047B7047CA
:100A60001047005080B582B000AF0346FB710F4ABB
:100A70000E4B5B6843F480135360FB79012B0ED15E
:100A80000A4A0A4B5B6823F4801353606420FFF723
:100A900039FD064A054B5B6843F40023536064202C
:100AA000FFF730FD0837BD4680BD00BF104700503E
:100AB00080B400AF124B1B6803F00103002B09D177
:100AC0000F4B01225A6000BF0D4B1B6803F001035E
:100AD000002BF9D00B4B1B6803F40073002B0AD0DA
:100AE000084B4FF400729A6000BF064B1B6803F47A
:100AF0000073002BF9D1BD465DF8047B704700BF41
:100B0000004200500044005080B400AF064B1B6808
:100B100003F00803002B0CBF01230023DBB21846AF
:100B2000BD465DF8047B70470043005080B500AFC0
:100B30004FF40000FFF714FD174A174BDB6923F051
:100B40003003D36100BFFFF7FFFC034603F400034B
:100B5000002BF8D04FF40030FFF702FD0E4B0822B7
:100B60005A6000BFFFF7F0FC034603F40033002B8C
:100B7000F8D04FF40020FFF7F3FC074A064BDB6880
:100B800043F00803D36000BFFFF7DEFC034603F425
:100B90000023002BF8D080BD00430050B0B500AF5B
:100BA0000F4A0F4B5B6823F4803353600D4D0D4BA0
:100BB0005B6823F4702424F0300404F06BFA0246DE
:100BC000094BA3FB02231B0D013B1B0423436B605A
:100BD000034A034B5B6823F400335360B0BD00BF8E
:100BE00010470050004700506BCA5F6B80B400AFE5
:100BF000074B1B6803F46073B3F5607F0CBF0123E0
:100C00000023DBB21846BD465DF8047B704700BF89
:100C10001047005080B400AF054A054B5B6823F4D1
:100C2000803323F002035360BD465DF8047B7047B8
:100C30001047005080B400AF054A054B5B6843F491
:100C4000803343F002035360BD465DF8047B704778
:100C50001047005080B586B000AFBA607B60034695
:100C6000FB810B467B73FB891846FFF789FD7B7B75
:100C7000012B40F08480FB89002B09D104F00AFA93
:100C800002464B4BA3FB02239B0C9B057B6102E0BE
:100C90004FF0C0637B617B697A6802FB03F2BB683B
:100CA000B2FBF3F37B617B69424AA2FB03231B097E
:100CB0009B0D3B61404A404B5B6843F0010353602E
:100CC0003D4A3D4B5B6843F0100353603A493A4B51
:100CD0009A683A4B13407A68013A12021A433B6908
:100CE000013B1B041A43BB68013B1B0613438B608B
:100CF000314A314B5B6843F0400353602E4A2E4B20
:100D00005B6823F0100353602B4A2B4B5B6843F462
:100D10008023536000BF284B1B6803F00403002BA3
:100D2000F9D0254A244B5B6823F00103536000BFD0
:100D3000214B1B6803F00103002BF9D17B69204A8A
:100D4000A2FB03235B099B0D3B613A6A3B699A4214
:100D500002D2386900F038F87B695B08194AA2FBB7
:100D600003235B099B0D3B613A6A3B699A4202D2BD
:100D7000386900F029F8386A00F026F815E00E49C5
:100D80000D4B9B6823F07F023B6A013B13438B6052
:100D9000094A094B5B6843F00103536000BF064BEF
:100DA0001B6803F00103002BF9D01837BD4680BD46
:100DB00083DE1B43ABAAAAAA10470050FF8080F035
:100DC00089888888B7600BB680B582B000AF78603C
:100DD0000749074B9B6823F4FE027B68013B1B0419
:100DE00013438B603220FFF78DFB0837BD4680BD73
:100DF0001047005080B483B000AF78607B684FF438
:100E00008072DA600C37BD465DF8047B704700BF26
:100E100080B582B000AF78607B68104A934203D1FE
:100E20000420FFF721FC16E07B680D4A934203D1B2
:100E30000820FFF719FC0EE07B680A4A934203D1B1
:100E40001020FFF711FC06E07B68074A934202D1AD
:100E50000648FFF709FC0837BD4680BD00C00040CA
:100E60000000014000400140004000480100001027
:100E700080B582B000AF78607B68104A934203D19E
:100E80000420FFF775FD16E07B680D4A934203D1FD
:100E90000820FFF76DFD0EE07B680A4A934203D1FC
:100EA0001020FFF765FD06E07B68074A934202D1F8
:100EB0000648FFF75DFD0837BD4680BD00C0004015
:100EC00000000140004001400040004801000010C7
:100ED00080B582B000AF78601020FFF739FD7868E8
:100EE000FFF7C6FF7868FFF793FF0837BD4680BD60
:100EF00080B584B000AF78600B46FB707868FFF770
:100F0000E7FF7868FFF776FF7B681B68FB60FB688C
:100F100023F44043FB60FB789B03FA681343FB60B8
:100F20007B68FA681A601037BD4680BD80B483B014
:100F300000AF786039603B681A687B685A613B682B
:100F40005B79C3F34013DBB21A057B685A603B68D8
:100F50001B79C3F30303DBB21A467B685A623B6812
:100F60005B79C3F30303DBB21A467B681A623B6802
:100F70005B79C3F30013DBB21A467B689A613B6866
:100F80001B79C3F30313DBB21A467B68DA620C37B2
:100F9000BD465DF8047B704780B487B000AF7860D1
:100FA0000B46FB701346BB707B68D3F8A830FB6020
:100FB000FB78092B2CD801A252F823F0E50F00088A
:100FC000E50F0008EF0F0008EF0F000811100008F0
:100FD000111000081110000811100008F90F000886
:100FE0000510000803233B6100237B6116E00C23FE
:100FF0003B6102237B6111E04FF440733B610823A6
:101000007B610BE04FF440633B610A237B6105E0A9
:101010004FF440533B610C237B6100BF3B69DB43D2
:10102000FA681340FB60BA787B6902FA03F3FA6846
:101030001343FB607B68FA68C3F8A8201C37BD46E1
:101040005DF8047B704700BF80B483B000AF786068
:101050000B46FB701346BB707B685A6FFB785B00D6
:10106000194603238B40DB431A407B685A677B6831
:101070005A6FBB78F97849008B401A437B685A67EE
:101080000C37BD465DF8047B704700BF80B582B069
:1010900000AF78603960786800F052F83B685B799F
:1010A000002B12D13B681B79002B07D03B681B68D3
:1010B00078681946022200F0FFF806E03B681B68DA
:1010C00078681946022200F087F87B680E4A5A6356
:1010D0007B684FF4A2629A633B685B79002B07D16F
:1010E0003B689B7943F00B03DBB21A467B68DA63FB
:1010F0007B684FF0FF32DA643B681B891A467B68D5
:101100001A640837BD4680BD02013F0780B485B030
:1011100000AF78607B68D3F80C3103F0E063002BFC
:1011200003D17B685B6DFB8103E07B68D3F81C31E6
:10113000FB81FB8918461437BD465DF8047B704778
:1011400080B582B000AF78607B681A4A934203D0C2
:101150007B68194A934203D1184800F049F916E018
:101160007B68174A934203D07B68164A934203D1A7
:10117000154800F03DF90AE07B68144A934203D019
:101180007B68134A934202D1124800F031F97B6820
:101190000322DA6000BF7B68DB6803F00103002BE9
:1011A000F9D07B681B6C23F00F027B681A64083748
:1011B000BD4680BD0000034000020340080003401C
:1011C00000000248000202480800024800400248AD
:1011D000004202480840024880B58EB000AFF86077
:1011E000B9607A60BB68632B58D97B68002B55D0F7
:1011F000FFF77AFA02462E4BA3FB02235B093B6200
:10120000BB682B4AA2FB03235B09BB600123FB6283
:101210000123BB6240F2FF337B6240F2FF333B634A
:1012200022E03B6A3A6B02FB03F2BB68796801FB80
:1012300003F3B2FBF3F3FB61FB699B0ABB61FB6940
:10124000C3F309037B61BB69B3F5806F09D27A6987
:101250007B6A9A4205D27B697B62BB69BB623B6B4E
:10126000FB623B6B013B3B633B6B002BD9D1FB6AC1
:1012700043F40042FB681A61FB685A690D4B134046
:101280007A68013A92021A43BB6A013B1B041A4373
:10129000FB685A61002387F8373002E0012387F8A2
:1012A000373097F8373018463837BD4680BD00BF15
:1012B0001F85EB51EF8000FC80B58CB000AFF8606B
:1012C000B9607A60FFF710FA03463B62BB687A6840
:1012D00002FB03F3FB610123FB623A6AFB699A425A
:1012E0005FDD3A6AFB6992FBF3F3BB6210E0FB6AD5
:1012F0000133FB62BB687A6802FB03F31A46FB6AA0
:1013000003FB02F3FB613A6AFB6992FBF3F3BB62F6
:10131000BB6A40F2FE329342E9D83A6A7B68B96A06
:1013200001FB03F3F96A01FB03F3B2FBF3F3BB61C7
:101330003A6ABB6A0133796801FB03F3F96A01FB7E
:1013400003F3B2FBF3F37B61BA687B69D31A83EAD8
:10135000E372A2EBE372B968BB69CB1A002BB8BF8A
:101360005B429A4202DABB6A0133BB62BB6AC3F5D5
:101370008063BB62BB6A43F48042FB681A61FB680E
:101380005A690C4B13407A68013A92021A43FB6A7D
:10139000013B1B041A43FB685A61002387F827307E
:1013A00002E0012387F8273097F8273018463037B6
:1013B000BD4680BDEF8000FC80B485B000AFF86012
:1013C0000B467A60FB72FB689A69FB7A072101FA87
:1013D00003F3DB431A40FB7A796801FA03F31A43FB
:1013E000FB689A611437BD465DF8047B704700BF07
:1013F00080B582B000AF78607B68284A934218D1EC
:101400004FF40060FFF7B4FA00BF4FF40060FFF73D
:10141000CBFA0346002BF8D14FF40060FFF724F914
:1014200000BF4FF40060FFF73BF90346002BF8D1F3
:1014300030E07B681A4A934214D11A48FFF798FAB1
:1014400000BF1848FFF7B0FA0346002BF9D1154842
:10145000FFF70AF900BF1348FFF722F90346002BF4
:10146000F9D117E07B68104A934213D10F48FFF778
:101470007FFA00BF0D48FFF797FA0346002BF9D11A
:101480000A48FFF7F1F800BF0848FFF709F90346DB
:10149000002BF9D10837BD4680BD00BF08000340CE
:1014A00008000248800000100840024800010010B7
:1014B00080B485B000AF786039603B78C3F3020335
:1014C000DBB21A467B88C3F309039BB21B041343A8
:1014D000FB607B68FA68C3F8F021FB78C3F3001364
:1014E000DBB21A07FB78C3F38103DBB29B061A4316
:1014F000FB78C3F34013DBB25B071343FB60FB785D
:10150000C3F38013DBB29B07FA681343FB607B686D
:10151000D3F8F021FB68134343F000427B68C3F823
:10152000F0211437BD465DF8047B704780B483B06A
:1015300000AF78607B68D3F8843043F080627B68CA
:10154000C3F884200C37BD465DF8047B704700BFAC
:1015500080B483B000AF78607B68D3F8843023F028
:1015600080627B68C3F884200C37BD465DF8047B3D
:10157000704700BF80B500AF0120FFF7F9F90120E7
:10158000FFF772F880BD00BF80B582B000AF786011
:101590003960FFF7EFFF3B685A697B681A603B6868
:1015A0005B6843F400427B68C3F880203B689A681C
:1015B0007B68C3F8A0203B68DA687B68C3F8A42086
:1015C0003B681A697B68C3F880223B681A687B68AD
:1015D000C3F8B8200837BD4680BD00BF80B485B0D1
:1015E00000AFF860B9603B601346FB71FB79002BDC
:1015F00009D1BA6840F21F731340FA68396828317C
:1016000042F8213007E0BA68054B1340FA683968A0
:10161000283142F821301437BD465DF8047B70470D
:1016200000001F0780B485B000AF78607B68D3F8F6
:10163000803043F000427B68C3F880200023FB73B6
:1016400017E0FB7B0F4A52F82330BB60BB68D3F82E
:10165000803003F44033002B08D000E000BFBB68AB
:10166000D3F8803003F08053002BF7D1FB7B01339C
:10167000FB73FB7B032BE4D91437BD465DF8047B79
:10168000704700BF2CA3000880B485B000AF78601D
:101690000B46FB70FB78032B03D9FB78043BFB6004
:1016A00001E0FB78FB607B68D3F8403123F00F0248
:1016B0007B68C3F840217B68D3F84021FB681A435C
:1016C0007B68C3F840211437BD465DF8047B704742
:1016D00080B582B000AF786039603B68786859683F
:1016E0000022002300F028F83B687868596801223E
:1016F000002300F021F83B687868996800220123F4
:1017000000F01AF83B68786899680122012300F01C
:1017100013F83B681A697B68C3F880203B68DA6875
:101720007B68C3F8B8203B6878681968FFF7C0FE8B
:101730000837BD4680BD00BF80B48DB000AFF860F3
:10174000B9603B601346FB71FB79002B13D1082372
:10175000FB624FF4E0637B620023BB621F233B62AA
:101760003B7AC3F30403DBB2FB617B7AC3F302036E
:10177000DBB2FB7613E01823FB624FF0E0637B6281
:101780001023BB624FF4F8133B62BB7AC3F304032C
:10179000DBB2FB61FB7AC3F30203DBB2FB76FB68CF
:1017A0003A68283253F822307B617B6ADB437A69DE
:1017B00013407B61FA7EFB6A02FA03F37A691343F2
:1017C0007B613B6ADB437A6913407B61BB6AFA69E0
:1017D00002FA03F37A6913437B61FB683A682832A3
:1017E000796943F822103437BD465DF8047B7047B1
:1017F00080B485B000AF78600B46FB707B68D3F88F
:101800008030FB60FB6823F00303FB60FB78FA6821
:101810001343FB607B68FA68C3F880201437BD4629
:101820005DF8047B704700BF80B586B000AF78607C
:1018300039600023FB7509E0FB7D394A52F82330FB
:101840001846FFF785FEFB7D0133FB75FB7D032BFF
:10185000F2D900233B613B681B7803F00303DBB242
:10186000002B02D04FF400633B610023FB7521E0A5
:10187000FB7D2B4A52F82330D3F88430FB60FB68A1
:1018800023F44073FB603B681B78C3F38103DBB236
:101890001B02FA681343FB60FA683B691343FB6061
:1018A000FB7D1F4A52F82330FA68C3F88420FB7D81
:1018B0000133FB75FB7D032BDAD93B685B6843F48E
:1018C000000343F400437A68C2F800323B689B6827
:1018D00043F001027B68C3F804223B681B7803F0E5
:1018E0000303DBB2022B07D17B68D3F8043243F445
:1018F00080327B68C3F804220023FB7509E0FB7D7E
:10190000074A52F823301846FFF710FEFB7D0133DB
:10191000FB75FB7D032BF2D91837BD4680BD00BF98
:101920002CA3000880B489B000AFF860B9607A6079
:101930007B681B7BBB61FB68D3F888307B61BB682D
:10194000012202FA03F3DB437A6913407B61BB682F
:10195000BA6902FA03F37A6913437B61FB687A6917
:10196000C3F888207B685B7B5BB2002B29DB0023FC
:10197000FB61BB68012B0AD10823FB61FB68D3F82C
:10198000B03023F4F852FB68C3F8B0200CE0BB6819
:10199000002B09D10023FB61FB68D3F8B03023F0A2
:1019A0001F02FB68C3F8B020FB68D3F8B0307A6838
:1019B000527B51B2FA6901FA02F21A43FB68C3F88A
:1019C000B020FB68D3F8C8207B685B681A43FB68CB
:1019D000C3F8C820FB68D3F8D0207B689B681A4303
:1019E000FB68C3F8D0207B681968FB68BA6880324E
:1019F00043F822102437BD465DF8047B704700BFD2
:101A000080B584B000AF7860144B1B68002B02D106
:101A1000124B134A1A60114B1B68FB607B6803333F
:101A200023F003037B600D4B1A687B6813440D4A57
:101A3000934207D2094B1A687B681344074A136024
:101A4000FB6806E005F08AFD02460C2313604FF0A8
:101A5000FF3318461037BD4680BD00BF148AFE1FF5
:101A600000000020C0FF032080B483B000AF786086
:101A70000B46FB70FB7801229A407B685A600C375A
:101A8000BD465DF8047B704780B483B000AF7860DA
:101A90000B46FB70FB784FF480329A407B685A60AB
:101AA0000C37BD465DF8047B704700BF80B483B03F
:101AB00000AF78607B689B6C18460C37BD465DF8BC
:101AC000047B704780B582B000AF78607B681A688D
:101AD0007B681B7C10461946FFF7C6FF0837BD46DA
:101AE00080BD00BF80B582B000AF78607B681A68A7
:101AF0007B681B7C10461946FFF7C6FF0837BD46BA
:101B000080BD00BF80B500AF0148FFF7EBFF80BD8F
:101B1000BCF5000880B500AF0148FFF7D3FF80BDDA
:101B2000BCF5000880B500AF0148FFF7DBFF80BDC2
:101B3000D0F5000880B500AF0148FFF7C3FF80BDB6
:101B4000D0F5000880B582B000AF0346FB71FB1DE5
:101B500009481946012202F071FC00E000BF064B63
:101B60001B681846FFF7A2FF034603F00103002B92
:101B7000F4D10837BD4680BDCC88FE1F80B582B049
:101B800000AF78607B68DBB21846FFF7DBFF7B684D
:101B90001B0ADBB21846FFF7D5FF7B681B0CDBB2D4
:101BA0001846FFF7CFFF7B681B0EDBB21846FFF726
:101BB000C9FF0837BD4680BD80B582B000AF7860F0
:101BC0007868FFF7DBFF0837BD4680BD80B582B07F
:101BD00000AF0346FB710A4B2A221A7009480849D4
:101BE000012202F045FC00BF064B9B68DB7FDBB2A5
:101BF000002BF9D1024B1B7818460837BD4680BD33
:101C0000908EFE1FCC88FE1F80B483B000AF78603A
:101C10007B681B7818460C37BD465DF8047B70471F
:101C200080B582B000AF03460A46FB711346BB7114
:101C3000FFF778FFFB791846FFF784FFBB7918465A
:101C4000FFF780FF0020FFF77DFFFFF773FF0837E6
:101C5000BD4680BD80B584B000AF7860FFF762FFFD
:101C60007B681B0CDBB21846FFF76CFF7B681B0A16
:101C7000DBB21846FFF766FF7B68DBB21846FFF75A
:101C800061FF0020FFF75EFF0020FFF79FFF034684
:101C9000FB73FFF74FFFFB7B18461037BD4680BD37
:101CA00080B584B000AF78600023FB81FFF73AFF76
:101CB0007B681B0CDBB21846FFF744FF7B681B0AEE
:101CC000DBB21846FFF73EFF7B68DBB21846FFF732
:101CD00039FF0020FFF736FF0020FFF777FF0346AC
:101CE000FB810020FFF772FF03461B029AB2FB89BB
:101CF00013439BB2FB81FFF71DFFFB89184610378A
:101D0000BD4680BD80B584B000AF78600023FB6025
:101D1000FFF708FF7B681B0CDBB21846FFF712FFCA
:101D20007B681B0ADBB21846FFF70CFF7B68DBB24F
:101D30001846FFF707FF0020FFF704FF0020FFF71A
:101D400045FF0346FB600020FFF740FF03461B02F0
:101D5000FA681343FB600020FFF738FF03461B04BB
:101D6000FA681343FB600020FFF730FF03461B06B1
:101D7000FA681343FB60FFF7DDFEFB681846103777
:101D8000BD4680BD80B582B000AF78600B46FB7069
:101D9000FFF7C8FE7B681B0CDBB263F07F03DBB28E
:101DA0001846FFF7CFFE7B681B0ADBB21846FFF729
:101DB000C9FE7B68DBB21846FFF7C4FEFB78184605
:101DC000FFF7C0FEFFF7B6FE0837BD4680BD00BF77
:101DD00080B582B000AF78600B467B80FFF7A2FE33
:101DE0007B681B0CDBB263F07F03DBB21846FFF7A6
:101DF000A9FE7B681B0ADBB21846FFF7A3FE7B68CF
:101E0000DBB21846FFF79EFE7B88DBB21846FFF771
:101E100099FE7B881B0A9BB2DBB21846FFF792FE45
:101E2000FFF788FE0837BD4680BD00BF80B582B091
:101E300000AF78603960FFF775FE7B681B0CDBB282
:101E400063F07F03DBB21846FFF77CFE7B681B0A5A
:101E5000DBB21846FFF776FE7B68DBB21846FFF769
:101E600071FE3B68DBB21846FFF76CFE3B681B0A4D
:101E7000DBB21846FFF766FE3B681B0CDBB2184668
:101E8000FFF760FE3B681B0EDBB21846FFF75AFEF9
:101E9000FFF750FE0837BD4680BD00BF80B582B059
:101EA00000AF3148FFF7FCFE0346FB80FB8803F0E0
:101EB0000303002B4CD02D4806F044F82C48FFF7C4
:101EC000EFFE0346BB802B480121FFF75BFF2A484A
:101ED0000021FFF77DFF29480021FFF779FF2848FF
:101EE0000021FFF7A3FF23480021FFF74BFFBB882A
:101EF0001F481946FFF76CFF052003F0E9FA214B54
:101F00003B60FFF70FFE3B681B0CDBB263F07F0307
:101F1000DBB21846FFF716FE3B681B0ADBB2184619
:101F2000FFF710FE3B68DBB21846FFF70BFE6FF0C1
:101F3000B600FFF723FE6FF0B500FFF71FFEFFF7B7
:101F4000F9FD11480721FFF71DFF052003F0C0FA36
:101F5000FB8840F6FC72934201D0012300E000238D
:101F600018460837BD4680BD742530003CA30008E4
:101F70006291300020203000F8203000FC2030003A
:101F800000213000782530007020300080B584B00A
:101F900000AF78600E4BFB60FFF7C4FDFB681B0CC5
:101FA000DBB263F07F03DBB21846FFF7CBFDFB68C3
:101FB0001B0ADBB21846FFF7C5FDFB68DBB218460B
:101FC000FFF7C0FD7868FFF7D9FD1037BD4680BD2B
:101FD0007825300080B584B000AF78600B467B80F8
:101FE0007B88DBB203F003037B737B7BC3F10403C9
:101FF0007B737B7B03F003037B730023FB810CE08B
:10200000FB897A6813441846FFF7FEFD034618461D
:10201000FFF798FDFB890133FB81FA897B889A429F
:10202000EED37B7B9AB27B8813447B8005E0002053
:10203000FFF788FD7B7B013B7B737B7B002BF6D11D
:102040001037BD4680BD00BF80B586B000AF786058
:1020500039603B687B6134E07B69B3F5706F28BF02
:102060004FF470633B611A4BFB60FFF75BFDFB684D
:102070001B0CDBB263F07F03DBB21846FFF762FD97
:10208000FB681B0ADBB21846FFF75CFDFB68DBB29E
:102090001846FFF757FD3B699BB278681946FFF772
:1020A00099FFFFF747FD7A683B6913447B607A69C3
:1020B0003B69D31A7B6100BFFFF7F0FE0346002B9C
:1020C000FAD17B69002BC7D11837BD4680BD00BF50
:1020D0007825300080B584B000AFF860B9607A60D0
:1020E0006FF0DD00FFF752FFF868FFF747FDFFF7DD
:1020F00021FDBB68002B03D0B8687968FFF7A4FF07
:102100001037BD4680BD00BF80B584B000AFF86019
:10211000B9607A606FF0E200FFF738FFF868FFF708
:102120002DFDB868FFF72AFD7868FFF727FDFFF758
:1021300001FD00BFFFF7B2FE0346002BFAD11037B6
:10214000BD4680BD80B582B000AF0023FB71002387
:10215000BB80FFF7D7FC062003F0BAF9FFF7DAFCE3
:10216000152003F0B5F944200021FFF759FD612047
:102170004621FFF755FD00200021FFF751FD2820E3
:1021800003F0A6F915E0012003F0A2F96548FFF776
:1021900061FD0346FB71BB880133BB80BB88B3F58F
:1021A000C87F06D9FB796048194605F055FE002323
:1021B000B4E0FB797C2BE6D1FB795C48194605F04D
:1021C0004BFE0023BB800EE0012003F081F9BB88A9
:1021D0000133BB80BB88B3F5FA7F04D9544805F0BE
:1021E000B1FE00239AE05348FFF734FD034603F0A5
:1021F0000303002BE8D1504805F0A4FE4F48504996
:10220000FFF714FE4F480021FFF7BCFD4E484FF486
:10221000F071FFF7DDFD4D484FF40971FFF7D8FD70
:102220004B482B21FFF7D4FD4A480021FFF7D0FD92
:1022300049482921FFF7CCFD48484FF48871FFF742
:10224000C7FD47484FF49271FFF7C2FD45480C2186
:10225000FFF7BEFD44480021FFF7BAFD43480A21BD
:10226000FFF7B6FD42480021FFF78CFD41480121F0
:10227000FFF788FD40480121FFF784FD3F4805F046
:1022800061FE3F480321FFF77DFD3E484FF4966114
:10229000FFF79EFD3C480021FFF774FD3B480021FD
:1022A000FFF770FD3A484FF4C041FFF791FD4FF43E
:1022B00040104FF00071FFF7B9FD36483649FFF77F
:1022C000B5FD36480021FFF7B1FD35480221FFF783
:1022D000ADFD344805F036FE33488021FFF752FD4E
:1022E00032480721FFF74EFD16482021FFF74AFD2F
:1022F0000023BB8009E0012003F0EAF8BB8801332A
:10230000BB80BB88042B00D904E0FFF7C7FD034660
:10231000012BF0D0264805F015FE0123184608379A
:10232000BD4680BD002030006CA300089CA30008BF
:10233000C4A3000820203000F0A300080C203000C7
:1023400000A24A04D4203000342030002C20300079
:1023500030203000382030003C2030004820300051
:1023600040203000442030004C203000502030000D
:10237000642030006C2030006820300014A4000875
:1023800004213000182130008020300084203000EB
:1023900088203000040030000700002608003000CC
:1023A0005420300034A40008942030007020300005
:1023B0005CA4000880B582B000AF0F4B2A221A70CF
:1023C0000E4B7B60FFF7AEFB7B681B0CDBB263F050
:1023D0007F03DBB21846FFF7B5FB7B681B0ADBB255
:1023E0001846FFF7AFFB7B68DBB21846FFF7AAFB86
:1023F0000837BD4680BD00BF188AFE1F7825300013
:1024000080B500AF024B00221A70FFF793FB80BD2E
:10241000188AFE1F80B584B000AF78600E4BFB6059
:10242000FFF780FBFB681B0CDBB263F07F03DBB2C2
:102430001846FFF787FBFB681B0ADBB21846FFF75D
:1024400081FBFB68DBB21846FFF77CFB7868FFF77F
:1024500095FB1037BD4680BD7825300080B586B02D
:1024600000AF78600023FB750023BB757B68BB6001
:102470003E4B1B78DBB2002B49D07B683B6115E0FB
:10248000BB7D0133BB75BB7D032B08D90023BB7516
:102490003B691A1D3A611B681846FFF78DFBFB7DEF
:1024A0000133FB75FB7DF92B00D905E0FB7DBA6894
:1024B00013441B78002BE3D13B691B68FB60BB7D99
:1024C000022B0CD0032B02D0012B0FD015E0FB68A0
:1024D00023F07F43FB60FB7D0133FB7513E0FB685A
:1024E0009BB2FB60FB7D0233FB750CE0FB68DBB24B
:1024F000FB60FB7D0333FB7505E00023FB60FB7D88
:102500000433FB7500BFF868FFF756FB2AE00DE0C7
:10251000FB7DBA6813441B781846FFF713FBFB7D5D
:102520000133FB75FB7DF92B00D905E0FB7DBA6813
:1025300013441B78002BEBD1FB7D03F00303BB7529
:10254000BB7DC3F10403BB75FA7DBB7D1344FB75F2
:1025500005E00020FFF7F6FABB7D013BBB75BB7DB4
:10256000002BF6D11837BD4680BD00BF188AFE1F6C
:1025700080B582B000AF7860064B1B78DBB2002BD1
:1025800004D17868FFF746FFFFF7D4FA0837BD4655
:1025900080BD00BF188AFE1F80B582B000AF786092
:1025A0007868FFF709FB0837BD4680BD80B582B06B
:1025B00000AF786039606FF0E100FFF7FDFA7868EE
:1025C000FFF7FAFA3868FFF7F7FA0837BD4680BD1B
:1025D00080B582B000AF7860104B1B78DBB2002B67
:1025E00019D16FF0F600FFF715FF7B68DBB21846D4
:1025F000FFF7A8FA7B681B0ADBB21846FFF7A2FABE
:102600007B681B0CDBB21846FFF79CFA0020FFF733
:1026100099FAFFF78FFA0837BD4680BD188AFE1F6A
:1026200080B582B000AF78606FF0F600FFF7C4FAB3
:102630007868FFF7C1FA0837BD4680BD90B583B012
:1026400000AF0446084611461A462346FB8003465F
:10265000BB800B467B8013463B806FF0F200FFF798
:10266000ABFAB7F90620B7F904301B041344184637
:10267000FFF7A2FAB7F90220B7F900301B041344A0
:102680001846FFF799FAB7F91820BB8B1B041344BF
:102690001846FFF791FA386AFFF7E0FE0C37BD469F
:1026A00090BD00BF80B582B000AF78606FF0F500DC
:1026B000FFF782FA7868FFF77FFA0837BD4680BDDA
:1026C00080B582B000AF78606FF0CB00FFF774FA8E
:1026D0007868FFF771FA0837BD4680BD90B583B0C2
:1026E00000AF0446084611461A462346FB800346BF
:1026F000BB800B467B8013463B80224B1B78DBB2B2
:10270000002B3CD16FF0D100FFF784FEFB88DBB2D9
:102710001846FFF717FAB7F906301B129BB2DBB267
:102720001846FFF70FFABB88DBB21846FFF70AFA24
:10273000B7F904301B129BB2DBB21846FFF702FA5E
:102740007B88DBB21846FFF7FDF9B7F902301B12A0
:102750009BB2DBB21846FFF7F5F93B88DBB21846AF
:10276000FFF7F0F93B881B0A9BB2DBB21846FFF774
:10277000E9F9BB691846FFF701FAFFF7DBF90C37F7
:10278000BD4690BD188AFE1F90B583B000AF0446C9
:10279000084611461A462346FB800346BB800B467B
:1027A0007B8013463B806FF0D100FFF705FAB7F945
:1027B0000620B7F904301B0413441846FFF7FCF950
:1027C000B7F902203B881B0413441846FFF7F4F9BD
:1027D000BB691846FFF7F0F90C37BD4690BD00BF46
:1027E00080B584B000AFF860084611461A4603462B
:1027F0007B810B463B811346FB806FF0BC00FFF7EB
:10280000DBF9F868FFF7D8F97A893B891B04134490
:102810001846FFF7D1F9FB881846FFF7CDF91037B6
:10282000BD4680BD90B583B000AF04460846114652
:102830001A462346FB800346BB800B467B8013462B
:102840003B80224B1B78DBB2002B3BD16FF0F300B7
:10285000FFF7E0FDFB88DBB21846FFF773F9B7F925
:1028600006301B129BB2DBB21846FFF76BF9BB8830
:10287000DBB21846FFF766F9B7F904301B129BB2BA
:10288000DBB21846FFF75EF97B88DBB21846FFF72C
:1028900059F9B7F902301B129BB2DBB21846FFF7A9
:1028A00051F93B88DBB21846FFF74CF93B881B0A0D
:1028B0009BB2DBB21846FFF745F9B869FFF7CEFDCA
:1028C000FFF738F90C37BD4690BD00BF188AFE1FD0
:1028D00090B583B000AF0446084611461A46234619
:1028E000FB800346BB800B467B8013463B806FF02A
:1028F000F300FFF761F9B7F90620B7F904301B04BC
:1029000013441846FFF758F9B7F902203B881B0417
:1029100013441846FFF750F9B869FFF79FFD0C37CD
:10292000BD4690BD90B583B000AF04460846114641
:102930001A462346FB800346BB800B467B8013462A
:102940003B806FF0ED00FFF737F9B7F90620B7F9D4
:1029500004301B0413441846FFF72EF9B7F9022080
:10296000B7F900301B0413441846FFF725F93A8BDA
:10297000BB8B1B0413441846FFF71EF9386AFFF798
:102980006DFD0C37BD4690BDF0B5A3B002AF044657
:10299000084611461A462346FB710346BB800B4688
:1029A0007B8013463B80A04A07F1380392E803007E
:1029B00083E803009D4A07F1300392E8030083E8AF
:1029C00003009B4A07F1280392E8030083E8030011
:1029D000052387F86F30092387F86E30062387F8C0
:1029E0006D30142387F86C30022387F86B30162380
:1029F00087F86A30032387F869300A2387F868303C
:102A0000072387F86730002387F866303B8818462D
:102A100004F04CFA02460B4610461946D7E92E231D
:102A200004F0E4FB02460B46C7E91623B7F89830DA
:102A3000184604F03BFA02460B4610461946D7E901
:102A40002C2304F0D3FB02460B46C7E91423FB7981
:102A50009B0007F18002134453F8483C754898479F
:102A6000FB799B0007F18002134453F8504CBA885D
:102A7000B7F89C3013449AB297F86D309BB2134468
:102A80009BB299B27A88B7F89C3013449AB297F8FF
:102A90006C309BB2D31A9BB29BB209B21AB2664B8E
:102AA0000093084611461A220023A047FB799B0099
:102AB00007F18002134453F8504CBA88B7F89C30A1
:102AC00013449AB23B8813449AB297F86B309BB286
:102AD00013449BB299B27A88B7F89C3013449AB2E7
:102AE000B7F8983013449AB297F86A309BB2D31A69
:102AF0009BB29BB209B21AB2504B009308461146E2
:102B00001A220023A047FB799B0007F1800213449F
:102B100053F8483C4A489847FB799B0007F18002EC
:102B2000134453F8483CB988B7F89C200A44C2F3D0
:102B30000E02D1037A88C2F30E020A4342F08042A9
:102B400010469847FB799B0007F18002134453F825
:102B5000483CB988B7F89C200A44C2F30E02D1035E
:102B60007888B7F89C201044B7F898201044B7F83C
:102B70009C200244C2F30E020A4342F080421046F7
:102B80009847FB799B0007F18002134453F8483CB7
:102B9000BA88C2F30E02D1037888B7F89C2010449B
:102BA000B7F898200244C2F30E020A4342F0804272
:102BB00010469847FB799B0007F18002134453F8B5
:102BC000483CB988B7F89C2011443A881144B7F8BA
:102BD0009C200A44C2F30E02D1037888B7F89C20E7
:102BE0001044B7F898200244C2F30E020A4342F0A0
:102BF000804210469847FB799B0007F180021344FE
:102C000053F8483C97F86E2042F0606210469847AF
:102C1000FB799B0007F18002134453F8483C0948B4
:102C200098470123FB676FE098A40008A0A4000860
:102C3000A8A400080B1E3B0488A400088CA400086C
:102C40000300001FE2DAC504FB799B0007F1800254
:102C5000134453F8484CBA88B7F89C30D518F86F2D
:102C600004F034F902460B4610461946D7E91623FC
:102C700004F092F902460B461046194604F04EFC49
:102C800003469BB22B44C3F30E03DA037988B7F8EB
:102C90009C300B44C3F30E03134343F080431846A8
:102CA000A047FB799B0007F18002134453F8484C7E
:102CB000BA88B7F89C30D518F86F04F007F90246C7
:102CC0000B4610461946D7E9162304F065F902466B
:102CD0000B461046194604F021FC03469BB22B44D8
:102CE000C3F30E03DA037988B7F89C301944B7F8B8
:102CF00098300B44C3F30E03134343F0804318464C
:102D0000A047FB6F0133FB67D7E92E0102F03CFEC1
:102D100002460B461046194604F0D8FB0246FB6FEC
:102D20009A4291DA0123BB6764E0FB799B0007F1CB
:102D30008002134453F8484CBA88B7F89C301344C7
:102D4000C3F30E03DD037A88B7F89C301A44B7F852
:102D50009830D618B86F04F0B9F802460B46104602
:102D60001946D7E9142304F017F902460B4610461A
:102D7000194604F0D3FB03469BB2F31AC3F30E03C8
:102D80002B4343F080431846A047FB799B0007F193
:102D90008002134453F8484CBA88B7F89C301A4460
:102DA0003B881344C3F30E03DD037A88B7F89C30E5
:102DB0001A44B7F89830D618B86F04F087F802466E
:102DC0000B4610461946D7E9142304F0E5F80246ED
:102DD0000B461046194604F0A1FB03469BB2F31ABA
:102DE000C3F30E032B4343F080431846A047BB6F49
:102DF0000133BB67D7E92C0102F0C6FD02460B4642
:102E00001046194604F062FB0246BB6F9A428CDA08
:102E1000FB799B0007F18002134453F8483C4FF0C4
:102E200004509847FB799B0007F18002134453F844
:102E3000483CA448984701237B67BEE0D7E92A01B4
:102E4000D7E92E2304F0D2F902460B4614461D465C
:102E50007B6F013B184604F039F802460B462046CA
:102E6000294604F099F802460B46C7E91223D7E930
:102E7000120104F053FB0346184604F017F802460B
:102E80000B46D7E9120103F0D3FE02460B4610466B
:102E900019464FF000024FF0000304F0E5FA034634
:102EA000002B41D0FB799B0007F18002134453F8BB
:102EB000584CBA88B7F89C3013449DB27B6F013BE5
:102EC000184604F003F802460B4610461946D7E9A7
:102ED000162304F061F802460B461046194604F02A
:102EE0001DFB03469BB22B449AB297F869309BB204
:102EF00013449BB29EB27A88B7F8983013449AB2C2
:102F000097F868309BB213449BB29DB2D7E9120187
:102F100004F0DCFA014632B22BB200911046194699
:102F200014220023A04745E007F10803184666492C
:102F3000D7E9122305F038F8FB799B0007F18002EE
:102F4000134453F8504CBA88B7F89C3013449DB2E0
:102F50007B6F013B184603F0B9FF02460B46104653
:102F60001946D7E9162304F017F802460B46104617
:102F7000194604F0D3FA03469BB22B449AB297F851
:102F800069309BB213449BB299B27A88B7F89830F3
:102F900013449AB297F868309BB213449BB29BB229
:102FA00009B21AB207F10803009308461146142229
:102FB0000023A0477B6F01337B67D7E92E0102F026
:102FC0005FFC02460B461046194604F07FFA0246A3
:102FD0007B6F9A42BFF632AF01233B67BDE0D7E972
:102FE0002801D7E92C2304F001F902460B461446C8
:102FF0001D46386F03F06AFF02460B4620462946FD
:1030000003F0CAFF02460B46C7E91023D7E91001B7
:1030100004F084FA0346184603F048FF02460B46C4
:10302000D7E9100103F004FE02460B46104619468C
:103030004FF000024FF0000304F016FA0346002B95
:1030400044D0FB799B0007F18002134453F8584C9D
:1030500097F867309BB2BA88D31A9BB29EB27A882F
:10306000B7F89C3013449AB2B7F8983013449DB225
:10307000386F03F02BFF02460B4610461946D7E97E
:10308000142303F089FF02460B461046194604F04C
:1030900045FA03469BB2EB1A9AB297F866309BB298
:1030A00013449BB29DB2D7E9100104F00FFA014618
:1030B00032B22BB200911046194614220023A047C9
:1030C00048E000BF0B1E3B0490A4000807F1080372
:1030D00018469C49D7E9102304F066FFFB799B0052
:1030E00007F18002134453F8504C97F867309BB2B5
:1030F000BA88D31A9BB29EB27A88B7F89C30134430
:103100009AB2B7F8983013449DB2386F03F0DEFEE0
:1031100002460B4610461946D7E9142303F03CFF3C
:1031200002460B461046194604F0F8F903469BB2D6
:10313000EB1A9AB297F866309BB213449BB29BB2DB
:1031400031B21AB207F1080300930846114614225F
:103150000023A0473B6F01333B67D7E92C0102F006
:1031600013FC02460B461046194604F0AFF902461E
:103170003B6F9A42BFF633AFFB799B0007F18002A9
:10318000134453F8483C70489847FB799B0007F17B
:103190008002134453F8483CB988B7F89C20114486
:1031A00097F86F200A44C2F30E02D103788897F88B
:1031B0006F200244C2F30E020A4342F080421046DE
:1031C0009847FB799B0007F18002134453F8483C71
:1031D000B988B7F89C200A44C2F30E02D1037A885A
:1031E000C2F30E020A4342F0804210469847FB7930
:1031F0009B0007F18002134453F8483CB988B7F8A4
:103200009C20114497F86F208A1AC2F30E02D10352
:10321000788897F86F200244C2F30E020A4342F006
:10322000804210469847FB799B0007F180021344C7
:1032300053F8483C4FF004509847FB799B0007F146
:103240008002134453F8483C3F489847FB799B0061
:1032500007F18002134453F8483CB988B7F89C2022
:1032600011443A881144B7F89C20114497F86F2014
:103270008A1AC2F30E02D1037888B7F89C20104452
:10328000B7F89820104497F86F200244C2F30E025A
:103290000A4342F0804210469847FB799B0007F1B1
:1032A0008002134453F8483CB988B7F89C20114475
:1032B0003A881144B7F89C200A44C2F30E02D103A5
:1032C0007888B7F89C201044B7F898200244C2F3DD
:1032D0000E020A4342F0804210469847FB799B0059
:1032E00007F18002134453F8483CB988B7F89C2092
:1032F00011443A881144B7F89C20114497F86F2084
:103300008A1AC2F30E02D1037888B7F89C201044C1
:10331000B7F89820104497F86F20821AC2F30E0273
:103320000A4342F0804210469847FB799B0007F120
:103330008002134453F8483C4FF0045098478437B8
:10334000BD46F0BD90A400080400001F2DE9B04365
:1033500084B000AF0446084611461A462346FB8057
:103360000346BB800B467B8013463B80BB6C43F01F
:1033700080631846FFF710F97748FFF70DF997F8C3
:103380004430002B46D10023FB603EE0FA883B8DA1
:103390001A44FB681344C3F30E03DC03BA883B8D65
:1033A0001A443B88D518FB685B00BA6B13441B8832
:1033B000184603F07BFD02460B4610461946D7E936
:1033C0000C2303F013FF02460B46904699463B88B8
:1033D000184603F06BFD02460B464046494603F093
:1033E000DBFD02460B461046194604F097F80346EB
:1033F0009BB2EB1AC3F30E03234343F080431846FA
:10340000FFF7CAF8FB680133FB60BA8FFB689A428A
:10341000BCDC5BE03B6C1B887B81BB8F013B9BB2C0
:103420003B814FE0B7F90A30002B03DABB8F013B39
:103430009BB27B81FA883B8D1A44B7F9083013445C
:10344000C3F30E03DC03BA883B8D1A443B88D518BE
:10345000B7F90A305B00BA6B13441B88184603F0B7
:1034600025FD02460B4610461946D7E90C2303F00A
:10347000BDFE02460B46904699463B88184603F02F
:1034800015FD02460B464046494603F085FD0246BF
:103490000B461046194604F041F803469BB2EB1A5E
:1034A000C3F30E03234343F080431846FFF774F839
:1034B0007B899BB2013B9BB27B813B899BB2013BE9
:1034C0009BB23B81B7F90830002BABDA4FF00450C8
:1034D000FFF762F897F84430002B38D1FB6C43F0CB
:1034E00080631846FFF758F81B48FFF755F8FA882D
:1034F0003B8D13443A6C12881344C3F30E03DA0372
:10350000B9883B8D0B44053BC3F30E03134343F0D3
:1035100080431846FFF740F8FA883B8D13443A6C15
:1035200012881344C3F30E03DA03B9883B8D1944A0
:103530003B880B440533C3F30E03134343F080432E
:103540001846FFF729F84FF00450FFF725F8103719
:10355000BD46BDE8B08300BF0400001F80B500AFCA
:103560000E4846F2C411FEF761FC0D4840F25D21A1
:10357000FEF75CFC0B480C49FEF758FC0B486FF05B
:103580006E01FEF753FC0A4845F66B31FEF74EFC20
:1035900008480949FEF74AFC80BD00BF50213000B1
:1035A0005421300058213000B14AF1FF5C21300035
:1035B0006021300064213000ABC7FAFF80B500AF56
:1035C0001A4B1B78002B30D00020194944F60472A6
:1035D000FEF780FDFEF7EEFE6FF0FF00FEF7DCFF6A
:1035E0006FF07D40FEF7D8FF1248FEF7D5FF4FF091
:1035F0004070FEF7D1FF002000214FF49A72FA23A9
:10360000FFF7EEF80C48FEF7C7FF0C48FEF7C4FFC3
:103610004FF00450FEF7C0FF0020FEF7BDFF6FF033
:10362000FE00FEF7B9FFFEF7EBFE80BD198AFE1F14
:1036300098A50008070000260100001FB000B04256
:1036400080B500AFFEF77EFD0346002B2ED0194853
:1036500004F078FC184B01221A7018483021FEF74C
:1036600091FBFFF77BFFFEF7A5FE6FF0FF00FEF773
:1036700093FF4FF04070FEF78FFF1148FEF7D0FF29
:103680004FF01C50FEF788FF6FF07D40FEF784FF7F
:103690000C48FEF781FF0020FEF77EFF6FF0FE0072
:1036A000FEF77AFFFEF7ACFE012300E00023184688
:1036B00080BD00BFB0A40008198AFE1FD4203000CE
:1036C000EEF1F5000700002680B500AF6FF0FF00B7
:1036D000FEF74EFF2148FEF74BFF2148FEF778FF2B
:1036E0004FF01C50FEF744FF1E48FEF741FF1E48F6
:1036F000FEF73EFF4FF08040FEF73AFF1B48FEF713
:1037000037FF4FF00450FEF733FF194B1B785BB2C5
:10371000184A52F82330984700BFFEF7BFFB034614
:10372000002BFAD11448FEF7BBFA03461A46134B96
:103730001A60124B1B684FF47F204FF440111A4659
:10374000FEF7E2FC00BFFEF7A9FB0346002BFAD10F
:10375000074B1A780A4B1A7080BD00BF01000003A6
:10376000EEF1F500EEF1F5040900001F1001F04044
:103770001A8AFE1F4488FE1F00213000948EFE1F0F
:103780003088FE1F80B584B000AFFEF787FB03468C
:10379000002B00D0D2E06B48FEF75CFA0346FB73C7
:1037A0006948FEF7AFFAB860BB68FB80BB681B0CCA
:1037B000BB80664B1B78002B41D0654B1B68B3F573
:1037C000004F0AD1634B1B68B3F5004F05D1BB888E
:1037D0005F4A1360FB885F4A1360BB881BB2002BF3
:1037E0000FDBFB881BB2002B0BDB594B1A68BB8825
:1037F000D31A594A1360574B1A68FB88D31A574A91
:103800001360FB7B002B05D1554B1B780133DAB2DB
:10381000534B1A70524B1B78042B10D9514B1B7809
:10382000FB734A4B00221A704D4B00221A70484B12
:103830004FF400421A60474B4FF400421A60FB7B82
:10384000002B02D0012B04D06EE0474B00221A70EF
:1038500074E03E4B1B78002B0AD1424B1B78002BA7
:1038600006D13A4B01221A703E4B01221A705AE0DF
:10387000364B1B78012B26D13A4B1B78012B22D1DA
:10388000354B1B6883EAE372A2EBE372334B1B6890
:10389000002BB8BF5B429A4214DD2F4B1B68322BC2
:1038A00003DD324B03221A700CE02B4B1B6813F123
:1038B000320F03DA2D4B04221A7003E02B4B002247
:1038C0001A7030E02FE0214B1B78002B2BD1254BB9
:1038D0001B78012B27D1254B1B78032B0DD1244BB3
:1038E0001B78002B09D1224B1B78DBB2DBB20133F2
:1038F000DBB2DAB21E4B1A7011E01C4B1B78042BA2
:103900000DD11B4B1B785BB2002B08DD184B1B78CD
:10391000DBB2DBB2013BDBB2DAB2154B1A70114BF2
:1039200000221A700AE009E0114B1B785BB2114AC1
:1039300052F82330FA7B1046984700BF1037BD4637
:1039400080BD00BF2C21300024213000258AFE1FBD
:103950004C88FE1F5088FE1F288AFE1F2C8AFE1FDF
:10396000308AFE1F268AFE1F318AFE1F248AFE1F10
:103970001A8AFE1F3C88FE1F80B500AF214B1B78C2
:10398000002B3ED0204B1A78204B1B7852B25BB2F2
:103990009A4201D0FFF798FE1D48FEF781F90346D1
:1039A0001A461C4B1A801C48FEF7ACF902461B4B0A
:1039B0001A60FEF7FFFC6FF0FF00FEF7EDFD6FF001
:1039C0007D40FEF7E9FD1648FEF7E6FD4FF040703A
:1039D000FEF7E2FD134B1B684FF47F201946FEF7FC
:1039E000E5FD0A4B1B785BB20F4A52F8233098472B
:1039F0000020FEF7D1FD6FF0FE00FEF7CDFDFEF7D3
:103A0000FFFC80BD198AFE1F3088FE1F1A8AFE1F28
:103A1000002130001C8AFE1F00903000208AFE1F0B
:103A200007000026948EFE1F3488FE1F2DE9F04704
:103A30008AB00AAF3A48FEF79BFD3A48FEF798FD78
:103A40003948FEF795FD3948FEF792FD3848FEF7F4
:103A50008FFD3848FEF78CFD3748FEF789FD374863
:103A6000FEF786FD4FF00450FEF782FD3448FEF766
:103A70007FFD3448FEF77CFD2D48FEF779FD2D488B
:103A8000FEF776FD2C48FEF773FD2C48FEF770FD1F
:103A90004FF00450FEF76CFD4FF04070FEF768FDEC
:103AA0002748FEF765FD284B00934FF4B4700A21B8
:103AB0001A220023FEF7B6FE244B00934FF4B47095
:103AC00019211A220023FEF7ADFE214BB3F800A006
:103AD000204BB3F800C0204BB3F800E01F4B1E880A
:103AE0001F4BD3E900891F4BD3E900451E4BD3E997
:103AF00000011E4BD3E9002300960A260196CDE96A
:103B00000289CDE90445CDE90601CDE9082300206D
:103B1000514662467346FEF737FFBD46BDE8F08763
:103B2000010000031000000E4B5864040700001F42
:103B30004200004042008C403200A0403200F04081
:103B400029CDF3040400001FE4A40008F0A4000839
:103B50000088FE1F0288FE1F0488FE1F0688FE1FC5
:103B60000888FE1F1088FE1F2088FE1F2888FE1F61
:103B700080B582B002AF2648FEF7FAFC2548FEF772
:103B8000F7FC2548FEF7F4FC2448FEF7F1FC244836
:103B9000FEF7EEFC2348FEF7EBFC2348FEF7E8FCBB
:103BA0002248FEF7E5FC4FF00450FEF7E1FC204808
:103BB000FEF7DEFC1F48FEF7DBFC1948FEF7D8FCD9
:103BC0001848FEF7D5FC1848FEF7D2FC1748FEF758
:103BD000CFFC4FF00450FEF7CBFC4FF04070FEF7E7
:103BE000C7FC1348FEF7C4FC134B00934FF4B470AA
:103BF0000A211A220023FEF715FE104B00934FF402
:103C0000B47019211A220023FEF70CFEBD4680BDB8
:103C1000010000031000000E4B5864040700001F51
:103C20004200004042008C403200A0403200F04090
:103C300029CDF3040400001FF8A40008FCA4000828
:103C4000F0B593B00AAF7C48FEF73AFD7B48FEF72B
:103C5000A3FC7B48FEF726FD7A48FEF7E1FC7A4894
:103C6000FEF79AFC794B1B78DBB2002B0CD11B239F
:103C7000009300230193764B029314200F215022CE
:103C80001E23FEF7DBFC2FE0704B1B78DBB2012B11
:103C90000CD11B230093002301936E4B029314203D
:103CA0000F2150221E23FEF7C9FC1DE0674B1B7835
:103CB000DBB2022B0CD11B23009300230193664B34
:103CC000029314200F2150221E23FEF7B7FC0BE0B5
:103CD0001B23009300230193604B029314200F21B8
:103CE00050221E23FEF7AAFC5D48FEF755FC5D4BF3
:103CF0001B88002B0DD0002300934FF6FF73019318
:103D0000594B0293782018213E221B23FEF70AFE0E
:103D10000BE00023009300230193544B029378207F
:103D200018213E221B23FEF7FDFD5148FEF734FC0F
:103D3000504B1B881B22009201934F4B0293CD20C6
:103D40000F2150221E23FEF779FC4FF04070FEF742
:103D500023FC4A4B1B8800934FF4EB700A211A2274
:103D60004FF40063FEF710FD454BD3E90001454BCE
:103D7000D3E9002303F03AFA02460B4614461D46E7
:103D8000414B1B881A46414B33F81230184603F05A
:103D90009DF802460B462046294603F0FDF80246F0
:103DA0000B4614461D463B461846394922462B46CB
:103DB00004F0FAF83B46184604F01AF903461A468E
:103DC0003B461344334A1188927819809A703B46D7
:103DD00000934FF4EB7019211A224FF40063FEF7A1
:103DE00077FD2D4BB3F800E02C4B1E882C4B1D8823
:103DF0002C4B1C88234BD3E900231A490988C9B2EC
:103E00000A200090CDE90223204B04934FF4DC7389
:103E100005931D4B0693079143F69E7308934FF449
:103E20007F030993704631462A462346FFF78EFAF0
:103E30002437BD46F0BD00BF124B8C00EEF8FF04E6
:103E40002BA9EA006696AD000D0000037489FE1FE1
:103E500000A5000808A500080CA5000810A500088A
:103E60000C000003328AFE1F18A5000820A50008D8
:103E70000A000003348AFE1F28A500081C8AFE1FC2
:103E80000888FE1F1888FE1F608AFE1F648AFE1FB6
:103E900030A5000838A500080088FE1F0288FE1F14
:103EA0000488FE1F0688FE1F80B584B004AF264834
:103EB000FEF706FC2548FEF76FFB2548FEF7F2FBF0
:103EC0002448FEF7ADFB2448FEF766FB234B1B8816
:103ED000002B0DD0002300934FF6FF730193204B6E
:103EE0000293782018213E221B23FEF71BFD0BE0D6
:103EF00000230093002301931A4B0293782018218A
:103F00003E221B23FEF70EFD4FF04070FEF744FBF0
:103F10001548FEF7C7FB154B1B6800934FF4EB7079
:103F20000A211A224FF40063FEF72EFC104B1B6887
:103F300000934FF4EB7019211A224FF40063FEF73F
:103F400023FCBD4680BD00BF124B8C00EEF8FF0481
:103F50002BA9EA006696AD000C000003328AFE1F12
:103F60003CA5000840A5000829CDF300288AFE1FC3
:103F70002C8AFE1F80B582B000AF0346FB71FB792F
:103F80000C2B23D00D2B38D00A2B50D1294B1B786A
:103F9000002B1AD1284803F0D5FF264B2A221A708D
:103FA000264B1B88002B08D1244B4FF480721A80BB
:103FB00023480121FDF7E6FE07E0204B00221A808E
:103FC0001F488021FDF7DEFE31E030E0194B1B7801
:103FD000002B11D11B4803F0B5FF164B2A221A7093
:103FE000194B1B88002B03D1174B01221A8003E0C9
:103FF000154B00221A801AE019E00E4B1B78002B9B
:1040000014D1124803F09EFF0A4B2A221A70104B5B
:104010001B78DBB20133DAB20D4B1A700C4B1B78F4
:10402000DBB2032B02D90A4B00221A7000BF0837FB
:10403000BD4680BD318AFE1F44A50008348AFE1F9C
:10404000D42030005CA50008328AFE1F70A500084D
:104050007489FE1F80B582B000AF0346FB71FB7907
:10406000002B02D00C2B04D019E00E4B00221A704A
:1040700015E00C4B1B78002B10D10B4803F062FFAE
:10408000084B2A221A70094B1B88002B03D1074BBF
:1040900001221A8002E0054B00221A8000BF083777
:1040A000BD4680BD318AFE1F80A50008328AFE1FF2
:1040B00080B483B000AF78600B46FB70FB780122C0
:1040C0009A407B68DA600C37BD465DF8047B704728
:1040D00080B483B000AF78607B680122DA600C376F
:1040E000BD465DF8047B704780B483B000AF786054
:1040F0007B6802221A610C37BD465DF8047B70476D
:1041000080B483B000AF78600B467B807A887B6890
:104110005A630C37BD465DF8047B704780B483B0AA
:1041200000AF78600B467B807A887B68DA630C3757
:10413000BD465DF8047B704780B483B000AF786003
:1041400039607B683A681A610C37BD465DF8047BBC
:10415000704700BF80B483B000AF78600B46FB703F
:104160007B68D3F8A420FB78012101FA03F31A43FA
:104170007B68C3F8A4200C37BD465DF8047B70470C
:1041800080B584B000AF78600023FB737B6893F840
:10419000263083F00103DBB2002B09D07B6893F853
:1041A0002130002B04D1786800F008F80346FB7337
:1041B000FB7B18461037BD4680BD00BF80B584B07C
:1041C00000AF78607B681B69184600F031FE03463B
:1041D000FB737B681B699A687B681B7E10461946D7
:1041E000FFF766FF7B685A697B68DB6910461946F2
:1041F000FCF79CFE786800F02DF87B6893F825307A
:10420000002B0FD07B685A697B6893F820301046EA
:1042100000211A46FCF7C0FE7B685B691846002146
:10422000FFF798FF7B685B691846FFF75DFF7B68C7
:10423000012283F826207B6893F82430002B04D0D9
:104240007B685B691846FFF743FFFB7B1846103716
:10425000BD4680BD80B582B000AF78607B685A698A
:104260007B685B8C10461946FFF74AFF7B685B69E9
:1042700018460021FFF752FF7B681B699A687B682C
:10428000DB6810461946FFF757FF0837BD4680BD6B
:1042900080B485B000AFF8600B467A607B81798985
:1042A000FB687A68203243F822101437BD465DF867
:1042B000047B704780B483B000AF78607B689B6BF1
:1042C000DBB223F07F03DBB218460C37BD465DF846
:1042D000047B704780B483B000AF78607B681B6D4F
:1042E00003F4C04318460C37BD465DF8047B7047A5
:1042F00080B485B000AFF8600B467A607B81798925
:10430000FB687A68603243F822101437BD465DF8C6
:10431000047B704780B483B000AF78607B684FF453
:104320000042C3F818210C37BD465DF8047B704786
:1043300080B483B000AF78607B68D3F8143103F4A5
:104340008053002B14BF01230023DBB218460C3727
:10435000BD465DF8047B704780B483B000AF7860E1
:104360007B684FF48042C3F818210C37BD465DF8D6
:10437000047B704780B483B000AF78607B68D3F86B
:10438000143103F00803002B14BF01230023DBB218
:1043900018460C37BD465DF8047B704780B483B087
:1043A00000AF786039607B683A68C3F818210C3731
:1043B000BD465DF8047B704780B483B000AF786081
:1043C0000B46FB707B681B6C23F0C002FB789B01E3
:1043D000DBB21A437B681A640C37BD465DF8047B78
:1043E000704700BF80B483B000AF78607B689B6C7F
:1043F00018460C37BD465DF8047B704780B483B027
:1044000000AF786039607B68DA6C3B681A437B6880
:10441000DA640C37BD465DF8047B704780B584B024
:1044200000AF78607B685B685B6898470346FB7306
:10443000FB7B18461037BD4680BD00BF80B586B0F7
:1044400000AFF860B9607A600123FB75FB685B68B8
:1044500093F88430022B06D1F868B9687A6800F0C6
:1044600021F80346FB75FB7D18461837BD4680BD15
:1044700080B586B000AFF860B9607A600123FB7543
:10448000FB685B6893F88530022B06D1F868B96841
:104490007A6800F015F90346FB75FB7D184618375E
:1044A000BD4680BD90B589B000AFF860B9607A6054
:1044B0000123BB610223FB77FB689B687B610023C0
:1044C000BB83BB68002B00F0F0807B68002B00F002
:1044D000EC807B6993F82030DBB283F00103DBB220
:1044E000002B00F0E180FB689B681B68082B01D95A
:1044F0000223BB617B69012283F820207B69BA68B3
:104500009A61BB69013B1A467B6803FA02F27B6938
:104510005A607B6900229A60FB681A687B691B7F7E
:10452000DBB210461946FFF747FFFB685B6893F85C
:104530007C30002B4BD0FB681B681846FFF7EAFE67
:104540003EE000BFFB681B681846FFF7F1FE03461C
:10455000002BF7D17B6993F82130DBB2002B0BD015
:10456000FB681A687B691B7FDBB210464FF6FF7150
:104570001A46FFF7BDFE1DE0BB69022B07D17B6920
:104580009A697B699B6813441B88BB8306E07B693F
:104590009A697B699B6813441B78BB83FB681A6824
:1045A0007B691B7FDBB21C46BB8B1046194622463B
:1045B000FFF79EFE7B699A68BB691A447B699A6023
:1045C0007B699A687B695B689A42BAD356E000BF00
:1045D000FB681B681846FFF76DFE0346802BF7D07B
:1045E0007B6993F82130DBB2002B0BD0FB681A6893
:1045F0007B691B7FDBB210464FF6FF711A46FFF74F
:1046000047FE1DE0BB69022B07D17B699A697B6974
:104610009B6813441B88BB8306E07B699A697B69AE
:104620009B6813441B78BB83FB681A687B691B7FFC
:10463000DBB21C46BB8B104619462246FFF728FE0C
:104640007B699A68BB691A447B699A6000BFFB6802
:104650001B681846FFF7C6FE034603F48063002B71
:10466000F5D0FB681B6818464FF48061FFF7C6FE63
:104670007B699A687B695B689A42A8D300BFFB6834
:104680001B681846FFF716FE0346802BF7D07B69A0
:10469000002283F820207B6900225A607B69002277
:1046A0009A600023FB7702E001E00323FB777B693C
:1046B000012283F82220FB7F18462437BD4690BD97
:1046C00080B586B000AFF860B9607A600223FB75F0
:1046D000FB689B683B61BB68002B33D07B68002B79
:1046E00030D03B69DB7FDBB283F00103DBB2002B10
:1046F00027D03B6993F82030DBB283F00103DBB2B3
:10470000002B1ED03B690122DA773B69BA685A61F7
:104710003B69104A9A613B69012283F821203B6979
:10472000002283F82220F868796800F015F8034623
:10473000FB753B69002283F821203B690022DA7770
:1047400002E001E00323FB75FB7D18461837BD46E8
:1047500080BD00BF8488FE1F90B587B000AF786031
:10476000396001237B617B689B68FB6000237B824F
:10477000FB6800221A61FB6800229A607B689B68D4
:104780001B68082B01D902237B617B69013B1A4618
:104790003B6803FA02F2FB68DA607B681A68FB6820
:1047A0001B7FDBB210461946FFF706FE7B685B688D
:1047B00093F87D30002B00F0D6807B681B6818468C
:1047C000FFF7CAFD7B681B68184600F0C5F9FB6857
:1047D00093F82130DBB2002B0BD07B681A68FB68A2
:1047E0001B7FDBB210464FF6FF711A46FFF780FDC4
:1047F0001DE07B69022B07D1FB689A69FB689B6807
:1048000013441B887B8206E0FB689A69FB689B68FF
:1048100013441B787B827B681A68FB681B7FDBB2C2
:104820001C467B8A104619462246FFF761FDFB684D
:104830009A687B691A44FB689A6061E0FB6893F8A8
:104840002130DBB2002B0BD07B681A68FB681B7F22
:10485000DBB210464FF6FF711A46FFF749FD1DE027
:104860007B69022B07D1FB689A69FB689B6813443C
:104870001B887B8206E0FB689A69FB689B6813448F
:104880001B787B827B681A68FB681B7FDBB21C4647
:104890007B8A104619462246FFF72AFD00BF7B6837
:1048A0001B681846FFF766FD0346002BF7D17B68AF
:1048B0001B681846FCF72AFC03467B82FB685A6992
:1048C000FB681B6913447A8AD2B21A707B69022B87
:1048D0000AD1FB685A69FB681B69013313447A8A61
:1048E000120A92B2D2B21A70FB681A697B691A4432
:1048F000FB681A61FB689A687B691A44FB689A60D6
:10490000FB689A68FB68DB689A4297D300BF7B68B4
:104910001B681846FFF72EFD0346002BF7D17B6876
:104920001B681846FCF7F2FB03467B82FB685A695A
:10493000FB681B6913447A8AD2B21A707B69022B16
:104940000AD1FB685A69FB681B69013313447A8AF0
:10495000120A92B2D2B21A707B681B6818460521FF
:10496000FFF71CFDE9E07B681B68184600F0F4F8CF
:1049700000BF7B681B681846FFF79CFC0346802B32
:10498000F7D0FB6893F82130DBB2002B0BD07B68AB
:104990001A68FB681B7FDBB210464FF6FF711A46A0
:1049A000FFF776FC1DE07B69022B07D1FB689A6953
:1049B000FB689B6813441B887B8206E0FB689A694E
:1049C000FB689B6813441B787B827B681A68FB68D2
:1049D0001B7FDBB21C467B8A104619462246FFF736
:1049E00057FCFB689A687B691A44FB689A6071E01F
:1049F00000BF7B681B681846FFF75CFC0346802BF2
:104A0000F7D0FB6893F82130DBB2002B0BD07B682A
:104A10001A68FB681B7FDBB210464FF6FF711A461F
:104A2000FFF736FC1DE07B69022B07D1FB689A6912
:104A3000FB689B6813441B887B8206E0FB689A69CD
:104A4000FB689B6813441B787B827B681A68FB6851
:104A50001B7FDBB21C467B8A104619462246FFF7B5
:104A600017FC00BF7B681B681846FFF733FC034642
:104A7000002BF7D07B681B681846FCF747FB034602
:104A80007B82FB685A69FB681B6913447A8AD2B23D
:104A90001A707B69022B0AD1FB685A69FB681B6993
:104AA000013313447A8A120A92B2D2B21A70FB68A6
:104AB0001A697B691A44FB681A61FB689A687B690A
:104AC0001A44FB689A607B681B6818464FF44041A3
:104AD000FFF794FCFB689A68FB68DB689A4287D30F
:104AE00000BF7B681B681846FFF7F4FB0346002BEA
:104AF000F7D07B681B681846FCF708FB03467B82EF
:104B0000FB685A69FB681B6913447A8AD2B21A702F
:104B10007B69022B0AD1FB685A69FB681B69013368
:104B200013447A8A120A92B2D2B21A707B681B6856
:104B300018464FF44041FFF761FCFB680022DA6041
:104B4000FB6800221A61FB6800229A600023184665
:104B50001C37BD4690BD00BF80B582B000AF786005
:104B60007868FCF7D3FA7868FCF7D0FA0837BD46C6
:104B700080BD00BF80B483B000AF78600B46FB708F
:104B80001346BB70F878FB787A6806339B001344B1
:104B90005B6823F00702BB781A437968831D9B008A
:104BA0000B445A600C37BD465DF8047B704700BF6C
:104BB00080B483B000AF78600B46FB707B685B6BA2
:104BC00023F07062FB78013B1B061A437B685A6333
:104BD0000C37BD465DF8047B704700BF80B483B0DE
:104BE00000AF78600B46FB707B685B6B23F47C1234
:104BF000FB78013B1B041A437B685A630C37BD46A4
:104C00005DF8047B704700BF80B485B000AFF860EA
:104C1000B9607A60FB685B6923F05042BB681A4355
:104C20007B681A43FB685A611437BD465DF8047B04
:104C3000704700BF80B483B000AF78600B46FB7054
:104C40007B681B6C23F00F02FB781A437B681A64A5
:104C50000C37BD465DF8047B704700BF80B582B05D
:104C600000AF786078680121FFF7E4FF0837BD46A0
:104C700080BD00BF80B483B000AF78607B685B6BA1
:104C800043F001027B685A630C37BD465DF8047B34
:104C9000704700BF80B483B000AF786039607B6834
:104CA0005B6923F4FE423B68013B9B02134343F4E0
:104CB00080727B685A610C37BD465DF8047B704793
:104CC00080B483B000AF78607B68DB6B23F00802B0
:104CD0007B68DA630C37BD465DF8047B704700BF24
:104CE00080B584B000AFF860B9607A60F868B968E0
:104CF0007A68FFF789FF1037BD4680BD80B582B066
:104D000000AF78600B46FB70FB7878681946FFF7B8
:104D10004FFF0837BD4680BD80B582B000AF7860D8
:104D20000B46FB70FB7878681946FFF757FF08378A
:104D3000BD4680BD80B582B000AF78600B46FB7089
:104D40001346BB70F878FB787A6806339B001344EF
:104D50005B6823F0500343F010027968831D9B00C9
:104D60000B445A60FA78BB78786811461A46FFF708
:104D700001FF0837BD4680BD80B582B000AF00237B
:104D8000FB711E481E49FCF781F91C48FFF798FF8C
:104D90001A48FFF76FFF19480821FFF7AFFF1748C0
:104DA0001821FFF7B9FF15484FF000410022FFF727
:104DB00097FF12480221FFF76DFF12480121124AA6
:104DC000FBF7E2FA0D4800210022FFF7B3FF0B4882
:104DD000FFF744FF0B4800210C4AFBF7D5FA0948BE
:104DE00002210B4AFBF7D0FA044810210022FCF7FD
:104DF000E3FAFB7918460837BD4680BD00400248FB
:104E00009C88FE1F00850248388AFE1F8888FE1F86
:104E1000B4F4000880B483B000AF78607B684FF4CE
:104E20008072DA600C37BD465DF8047B704700BFC6
:104E300080B582B000AF78607B685B7B83F0010354
:104E4000DBB2002B0FD07B689A687B681B7B104617
:104E50001946FCF74DF87B689B681846FFF7DAFFA8
:104E60007B6801225A73002318460837BD4680BD6F
:104E700080B483B000AF786039607B68D3F880205D
:104E80003B681033194601238B401A437B68C3F8F3
:104E900080200C37BD465DF8047B704780B584B038
:104EA00000AF78607B681B7E022B49D17B685A6912
:104EB0007B681B6910461946FCF766FB0023FB6004
:104EC0002FE07B68FA6853F8223019687B68FA682B
:104ED00053F822305B6808461946FCF7F9FB7B68FB
:104EE000FA6853F822301B6818460321FCF780FC4F
:104EF0007B68FA6853F822301B7A83F00103DBB237
:104F0000002B05D07B685B691846F968FFF7B0FF96
:104F10007B68FA6853F8223000225A72FB6801332A
:104F2000FB60FB68032BCCD97B685B7E002B04D035
:104F30007B685B691846FCF775FB7B6800221A7674
:104F40007B681B7E18461037BD4680BD80B582B099
:104F500000AF78607B6819687B681A7C7B680433D3
:104F6000084611461A46FBF70FFA7B6819687B68FA
:104F70001A7C7B685B7C084611461A46FCF764F88D
:104F8000002318460837BD4680BD00BF80B485B0F9
:104F900000AF78607B6803F00703FB600C4BDB68B5
:104FA000BB60BA684FF6FF031340BB60FB681A0290
:104FB000BB68134343F0BF6343F40033BB60044A50
:104FC000BB68D3601437BD465DF8047B704700BFF3
:104FD00000ED00E080B582B000AF0120FFF7D6FF02
:104FE00072B6214B214A9A60BFF34F8F62B61E4AB8
:104FF0001D4BD3F8883043F47003C2F888301C4B43
:1050000003F5805314331B687B607B6823F00F0328
:105010007B607B6843F004037B60154B03F5805392
:1050200014337A681A60104A0F4B5B6923F010033F
:1050300053610D4A0C4B5B6923F0080353610A4A24
:10504000094B5B6A23F480335362074A064B5B6A61
:1050500023F400335362044A034B5B6A23F4802336
:1050600053620837BD4680BD00ED00E00000000837
:105070000010005880B485B000AF78600023FB7347
:105080007B6801221A70FB7B18461437BD465DF819
:10509000047B704780B400AF024B1846BD465DF8F4
:1050A000047B7047001BB700B0B586B000AF124B51
:1050B0003C1D1D460FCD0FC42B6823603B1D1846B9
:1050C000FBF75CFA0020FBF77BFB0020FBF730FBD3
:1050D0000420FBF701FC01202021FBF789FC0020C4
:1050E000FBF73AFB0120FBF71FFC0120FBF708FC54
:1050F0001837BD46B0BD00BFE4F5000880B400AF6E
:10510000044BDB6803F4E0631B0A1846BD465DF8F8
:10511000047B704700ED00E080B483B000AF03462D
:10512000FB7197F90730002B0BDB084997F9073023
:105130005B09FA7902F01F02012000FA02F241F83D
:1051400023200C37BD465DF8047B704700E100E08A
:1051500080B483B000AF03463960FB7197F9073024
:10516000002B0ADB0D4997F907303A68D2B292005A
:10517000D2B20B4483F800230AE00949FB7903F01B
:105180000F03043B3A68D2B29200D2B20B441A76B3
:105190000C37BD465DF8047B704700BF00E100E0BE
:1051A00000ED00E080B489B000AFF860B9607A60CB
:1051B000FB6803F00703FB61FB69C3F10703062BE0
:1051C00028BF0623BB61FB690633062B02D9FB69A6
:1051D000013B00E000237B61BB69012202FA03F37B
:1051E0005A1EBB681A407B699A407B69012101FA0B
:1051F00003F3591E7B680B40134318462437BD4602
:105200005DF8047B704700BF80B483B000AF786066
:105210007B68D3F8043243F400727B68C3F804223D
:105220000C37BD465DF8047B704700BF80B485B085
:1052300000AFF860B9607A60FB68BA68603253F812
:1052400022207B68012101FA03F342EA0301FB6893
:10525000BA68603243F822101437BD465DF8047B0B
:10526000704700BF80B485B000AFF860B9607A6065
:105270007B681968FB68BA68A03243F822101437BB
:10528000BD465DF8047B704780B483B000AF7860A2
:1052900039607B683A68C03253F822309BB21846B6
:1052A0000C37BD465DF8047B704700BF90B585B0F4
:1052B00000AF78607B681B7E022B40F099807B6892
:1052C000DB681846FFF7EAFD0346BB737B68DB68C3
:1052D0005A697B689B681046196800220023FCF716
:1052E0007DF97B68DB685A697B685B681046194604
:1052F000FCF79AFA0023FB732EE07B681B68FA7BAD
:1053000053F82230BB60BB689A68BB685B7B194668
:10531000BB681B6810461A46FCF704FBBB689A681A
:10532000BB681B689B78C3F30303DBB21946BB68F9
:105330005B6810461A46FFF795FF7B68DB685A6981
:10534000BB681B7B1946BB685B7B10461A46FFF7A0
:105350006DFFFB7B0133FB73FB7B002BCDD07B68A8
:105360005B681B7A03F00803DBB2002B2CD07B6850
:105370001B69002B28D07B681B691B68DCB2FFF718
:10538000BDFE01467B681B695A687B681B699B6888
:10539000084611461A46FFF705FF024663B2184653
:1053A0001146FFF7D5FE7B68DB685A697B685B7E38
:1053B00010461946FCF768F97B681B691B68DBB26D
:1053C0005BB21846FFF7A8FE7B685B69002B02D032
:1053D0007B685B6998477B689B7E002B05D07B6868
:1053E000DB685B691846FFF70FFF7B68BA7B1A76AC
:1053F0007B681B7E18461437BD4690BD80B584B0CF
:1054000000AF78607B689A687B681B689B78C3F301
:105410000303DBB210461946FFF736FF0346FB8154
:10542000FB8918461037BD4680BD00BF80B582B0ED
:1054300000AF0023FB711948FFF71CFE0346FB7108
:10544000FB79002B04D11648FEF7E8FF0346FB71F9
:10545000FB79002B04D11348FFF778FD0346FB715D
:10546000FB79002B04D11048FFF770FD0346FB7158
:10547000FB79002B04D10D48FFF718FF0346FB71A1
:10548000FB79002B04D10A48FEF77AFE0346FB7134
:10549000FB7918460837BD4680BD00BF4C8AFE1F09
:1054A000CC88FE1FBCF50008D0F500085889FE1F07
:1054B0005C88FE1F80B400AF044B1B680133034AB5
:1054C0001360BD465DF8047B704700BF548AFE1F21
:1054D00080B485B000AF7860084B1B68FB6000E0CB
:1054E00000BFFA687B681A44044B1B689A42F7D8DD
:1054F0001437BD465DF8047B704700BF548AFE1F19
:1055000080B483B000AF03463960FB7197F9073070
:10551000002B0ADB0D4997F907303A68D2B29200A6
:10552000D2B20B4483F800230AE00949FB7903F067
:105530000F03043B3A68D2B29200D2B20B441A76FF
:105540000C37BD465DF8047B704700BF00E100E00A
:1055500000ED00E080B582B000AF78607B68013B71
:10556000B3F1807F01D301230FE00A4A7B68013B3E
:1055700053604FF0FF303F21FFF7C2FF054B002281
:105580009A60044B07221A60002318460837BD466C
:1055900080BD00BF10E000E080B483B000AF786051
:1055A0000B46FB70FB7801229A407B685A600C37EF
:1055B000BD465DF8047B704780B582B000AF78606F
:1055C0007B681A687B681B7C10461946FFF7E4FF6E
:1055D0000837BD4680BD00BF80B582B000AF04F083
:1055E0003BFDFFF723FF0346BB71BB79002B03D0C4
:1055F000234802F0A7FCFEE7224802F0A3FC224B5E
:105600001B68224AA2FB03235B091846FFF7A2FF8F
:105610000023FB711E48FFF7CFFFFEF711F803468A
:10562000002B03D01B4802F08DFC02E01A4802F068
:1056300089FCFDF7C3FF194B00221A6000E000BF90
:10564000164B1B68632BFAD9154802F07BFC154BEF
:105650001B78DBB2002B11D0124B00221A70FEF720
:1056600091F8FB790133FB710F4B1B6803F00303C7
:10567000002B03D10023FB71FEF77EF9E7E700BFA3
:1056800014F6000834F60008C0FF0320398EE33812
:10569000D0F5000858F6000868F60008548AFE1F86
:1056A0007CF60008588AFE1F5C8AFE1F000000007E
:1056B00098B500AF664B1B8801339AB2644B1A80D1
:1056C000634B1B88B3F5DC7F05D3624B01221A7054
:1056D0005F4B00221A80604B1B78DBB2032B00F279
:1056E0009F8001A252F823F0F956000811570008D4
:1056F0004D57000893570008554B1B881C465748C8
:10570000FFF77CFE03461A46554B23F8142087E02A
:105710004F4B1B88534AA2FB03129209582101FBED
:1057200002F29B1A9BB2002B07D0494B1B881A46EA
:105730004B4B002123F8121072E0454B1B881A4690
:10574000474B40F6FF7123F8121069E0464B1B6887
:1057500040F6FE7293420BD83D4B1B881A46424BD3
:105760001B689BB20E3399B23D4B23F8121006E032
:10577000374B1B881A463A4B002123F81210344B42
:105780001B881A46364B33F812301A46364B1A60CD
:1057900046E02F4B1B881C46344B1B68184601F013
:1057A00085FB02460B461046194623A3D3E9002386
:1057B00001F01CFD02460B461046194620A3D3E912
:1057C000002301F0E9FB02460B461046194600F0A3
:1057D00063F902460B46104619464FF00002244B6F
:1057E00001F028FA02460B46104619464FF0000217
:1057F000204B01F0D1FB02460B461046194612A37E
:10580000D3E9002301F0C8FB02460B4610461946B7
:1058100001F084FE03469AB2114B23F8142000BF16
:10582000154B2A221A70114B1B6801330F4A136063
:1058300098BD00BFAFF30080000000000070A740DB
:10584000A5C226FAE66A52400000000000FEAF4002
:10585000608AFE1FD48DFE1F7489FE1F4489FE1FBF
:10586000648AFE1FA38B2EBAD88DFE1F5C8AFE1F92
:105870000000F03F0000E03F588AFE1FAFF30080B9
:105880002DE9F843C1F30A57A7F2FF35132D02465D
:105890000B460C468646884606461FDC002D4EDB2E
:1058A000374F2F4107EA010C5CEA0E0E1BD032A3E2
:1058B000D3E9002301F0BEF90022002301F0FCFD32
:1058C00040B1002C03DD4FF480132B41984428EAAB
:1058D0000704002621463046BDE8F883332D06DD57
:1058E000B5F5806F3DD010461946BDE8F883A7F2A4
:1058F000134E4FF0FF3929FA0EF919EA000FF2D0D2
:105900001DA3D3E9002301F095F90022002301F043
:10591000D3FD0028DED0002C0ADD142D06D0C7F5FB
:10592000866703370124BC40A61901D308F101089A
:10593000444626EA090621463046BDE8F8830EA310
:10594000D3E9002301F076F90022002301F0B4FD31
:105950000028BFD0002C0ADB264306D0094C0026C5
:10596000B8E701F067F9BDE8F8833446B2E70026EE
:105970004FF00044AEE700BF9C7500883CE4377EE2
:10598000FFFF0F000000F03F2DE9F843C1F30A5874
:10599000A8F2FF35132D02460B460C4607468946F2
:1059A00006461DDC002D40DBDFF8E88048FA05F8EC
:1059B00008EA010E5EEA070717D034A3D3E90023F3
:1059C00001F038F90022002301F076FD20B1002C0F
:1059D0003FDB29EA0804002621463046BDE8F8836B
:1059E000332D06DDB5F5806F2FD010461946BDE882
:1059F000F883A8F2134E4FF0FF3727FA0EF707424D
:105A0000F3D022A3D3E9002301F014F900220023EC
:105A100001F052FD0028DFD0002C1FDB4C4626EAA7
:105A2000070621463046BDE8F88318A3D3E90023D2
:105A300001F000F90022002301F03EFD0028CBD048
:105A4000002C19DB00263446C6E701F0F3F8BDE868
:105A5000F8834FF480132B419944BAE7142D08D0F2
:105A6000C8F5866808F10308012303FA08F39E19B4
:105A7000D4D309F10109D1E724F00042024B3A43A3
:105A800018BF1C460026A7E70000F0BF9C750088E1
:105A90003CE4377EFFFF0F0030B5224A21F000437F
:105AA000934287B01CDD204A934205DD02460B4637
:105AB00001F0BEF807B030BD02AA00F039F800F0DE
:105AC000030001281DD0022812D008B3DDE902012D
:105AD000DDE9042300F04CFA01F1004107B030BDCC
