:020000040C00EE
:100000000088FE1F0102000891020008910200080A
:10001000910200089102000891020008000000000F
:100020000000000000000000000000009102000835
:1000300091020008000000009102000881520008AF
:100040009102000891020008910200089102000844
:100050009102000891020008910200089102000834
:1000600091020008000000000000000000000000F5
:1000700091020008000000009102000891020008AF
:10008000B150000891020008910200089102000896
:1000900091020008910200089102000891020008F4
:1000A00091020008910200089102000891020008E4
:1000B00091020008910200089102000891020008D4
:1000C00091020008910200089102000891020008C4
:1000D00091020008910200089102000891020008B4
:1000E00091020008910200089102000891020008A4
:1000F0009102000891020008910200089102000894
:100100009102000891020008910200089102000883
:100110009102000891020008910200089102000873
:100120009102000891020008910200089102000863
:100130009102000891020008910200089102000853
:100140009102000891020008910200089102000843
:100150009102000891020008910200089102000833
:10016000000000000000000000000000000000008F
:100170009102000891020008910200089102000813
:100180009102000891020008910200089102000803
:1001900091020008910200089102000891020008F3
:1001A00091020008910200089102000891020008E3
:1001B00091020008910200089102000891020008D3
:1001C00091020008910200089102000891020008C3
:1001D000910200089102000891020008000000004E
:1001E00091020008910200089102000891020008A3
:1001F00091020008000000009102000800000000C9
:10020000DFF870D01C4880471C4C1D4DAC4209DA09
:1002100021686268A368043BA2BFC858D050FAE7BF
:100220000C34F3E7174B184CA34208DA19685A68E4
:100230000020043AA4BF8850FBE70833F4E71348D2
:1002400080470000B0F3000C0088FE1FF0010000A2
:10025000B0F3000C0088FE1F00000000F089FE1FB4
:1002600064040000000000200000000000000020E6
:10027000000000000088FE1F9502000844020008EC
:100280005C0200085C02000874020008CD520008FD
:10029000FEE7000098B500AF054A4FF00053144642
:1002A0000FCB84E80F0004F027FC04F08FFC98BD0E
:1002B000C4FF032080B584B000AF2F4BDB6803F48C
:1002C0008033002B3ED02D4BDB6803F00103002B65
:1002D00002D02B4BFB6002E004F06EFCF860274B71
:1002E0001B6803F00403002B20D0244B9B6803F011
:1002F00070631B0E0133BB60204B9B6803F4FE430D
:100300001B0A01337B601D4B9B6803F4FE031B0C2F
:1003100001333B60BB683A6802FB03F3FA68B2FB47
:10032000F3F37A6802FB03F3FB600DE0134B9B6869
:1003300003F07F0301333B60FA683B68B2FBF3F3E1
:10034000FB6001E00E4BFB600B4BDB68DBB2013363
:10035000FA68B2FBF3F3FB60074B1B6903F0010380
:100360000133FA68B2FBF3F3FB60064AFB681360E3
:100370001037BD4680BD00BF0046005010470050FA
:1003800000366E01C0FF032080B485B000AFF86076
:100390000B467A60FB72FB7A9B08DBB21846FB7A4D
:1003A0009B08DBB21A46FB68043253F82220FB7A22
:1003B00003F00303DB001946F8238B40DB4302EA1A
:1003C0000301FB68021D43F82210FB685A6FFB7A99
:1003D0005B00194603238B40DB431A40FB685A67D6
:1003E000FB683A4A934203D0FB68394A93420AD1E8
:1003F000FB681A6EFB7A012101FA03F3DB431A4012
:10040000FB681A6642E07B681B78DBB25BB2002BAC
:100410003CDA7B685A68FB7A9A40FB685A60FB7A40
:10042000DB08DBB21846FB7ADB08DBB21A46FB6856
:10043000103253F82220FB7A03F007039B00194681
:1004400007238B40DB4302EA0301FB6800F1100243
:1004500043F82210FB7ADB08DBB21846FB7ADB0894
:10046000DBB21A46FB68103253F822207B681B7AF5
:100470001946FB7A03F007039B0001FA03F342EAF3
:100480000301FB6800F1100243F82210FB7A9B087D
:10049000DBB21846FB7A9B08DBB21A46FB680432D3
:1004A00053F822207B681B781946FB7A03F003037C
:1004B000DB0001FA03F342EA0301FB68021D43F883
:1004C00022101437BD465DF8047B7047008E024849
:1004D000008F024880B400AF034B1B681846BD462E
:1004E0005DF8047B704700BFC0FF032080B400AFFD
:1004F000034BD3F8C4301846BD465DF8047B704703
:100500000040005080B584B000AF7860FFF7D2FEA5
:100510000B4B1B680B4AA2FB03239A0C7B6802FB64
:1005200003F37B600023FB6003E000BFFB68013343
:10053000FB60FA687B689A42F7D31037BD4680BDEE
:10054000C0FF032083DE1B4380B400AF034B5B6816
:100550001846BD465DF8047B704700BF74400050EC
:1005600080B483B000AF7860034A7B68D3600C37F7
:10057000BD465DF8047B704774400050B0B584B050
:1005800002AF7860002000F0BFF800F091FA7B68BD
:10059000DB79002B0AD000F0C9FA00BF00F0B4FAF2
:1005A000034683F00103DBB2002BF7D17B685B7A53
:1005B000184600F023F900BFFFF798FF0346002B11
:1005C000FAD17B681B7A184600F04CFA7B681B7CDA
:1005D000184600F031F97B685B7C184600F054F94E
:1005E0007B689B7C184600F03BF97B68DB7C1846F7
:1005F00000F05EF97B689B79002B0AD000F0CEFA00
:1006000000BF00F0F3FA034683F00103DBB2002BD6
:10061000F7D17B68DB78002B02D100F00BFB14E0F4
:1006200000F0F8FA7B6899887B68DA787B685B78F9
:100630001D467B681B781C467B689B7800930846A8
:1006400011462A46234600F005FB7B68DB68B3F5BC
:10065000803F03D14FF4803000F056F8FFF72AFEB8
:100660000837BD46B0BD00BF80B485B000AF78602C
:100670007B681B0FFB607B6823F07043BB60FA68EC
:1006800013465B0013449B001A46044B1344BA689C
:100690001A601437BD465DF8047B7047144400505F
:1006A00080B485B000AF78607B681B0FFB607B680F
:1006B00023F07043BB60FA6813465B0013449B0051
:1006C0001A46084B13441A68BB681340002B14BF2A
:1006D00001230023DBB218461437BD465DF8047BC6
:1006E000704700BF0C44005080B500AFFFF7F2FE2A
:1006F0000246044B5B6903F0010322FA03F3184638
:1007000080BD00BF0046005080B483B000AF786069
:100710000649064BDB6823F480327B681343CB60C9
:100720000C37BD465DF8047B704700BF00460050A3
:1007300080B483B000AF78600649064B9B6923F410
:1007400080327B6813438B610C37BD465DF8047BB8
:10075000704700BF0046005080B483B000AF78609F
:100760000649064B5B6A23F440327B6813434B62B5
:100770000C37BD465DF8047B704700BF0046005053
:1007800080B483B000AF0346FB80FB88002B08D108
:100790000A4A0A4BDB6823F4807323F00103D36019
:1007A00007E0064A054BDB6843F4807343F001031E
:1007B000D3600C37BD465DF8047B7047104700508E
:1007C00080B483B000AF0346FB7100BF094BD3F880
:1007D000C43003F00803002BF8D10749064BDB684F
:1007E00023F04002FB791343CB600C37BD465DF824
:1007F000047B7047004000500043005080B483B039
:1008000000AF0346FB7100BF094BD3F8C43003F0BF
:100810000803002BF8D10749064BDB6823F0800260
:10082000FB791343CB600C37BD465DF8047B704702
:10083000004000500043005080B483B000AF7860A7
:100840000649064BDB6823F0FF027B68013B13433C
:10085000CB600C37BD465DF8047B70470046005006
:1008600080B483B000AF78600649064B1B6A23F062
:1008700001027B68013B13430B620C37BD465DF8F8
:10088000047B70470046005080B483B000AF7860AE
:100890000649064B1B6923F001027B68013B1343A9
:1008A0000B610C37BD465DF8047B70470046005075
:1008B00080B483B000AF78600649064B5B6923F0D3
:1008C00001027B68013B13434B610C37BD465DF869
:1008D000047B70470046005080B483B000AF78605E
:1008E0000649064B9B6923F007027B68013B1343D3
:1008F0008B610C37BD465DF8047B704700460050A5
:1009000080B483B000AF78600649064BDB6923F002
:100910003F027B68013B1343CB610C37BD465DF85A
:10092000047B70470046005080B483B000AF78600D
:100930000649064B5B6A23F0FF027B68013B1343C9
:100940004B620C37BD465DF8047B70470046005093
:1009500080B483B000AF0346FB71044AFB79536057
:100960000C37BD465DF8047B704700BF0046005061
:1009700080B485B000AF78607B681B0FFB607B683C
:1009800023F07043BB60FA6813465B0013449B007E
:100990001A46044B1344BA681A601437BD465DF812
:1009A000047B70474846005080B485B000AF786043
:1009B0007B681B0FFB607B6823F07043BB60FA68A9
:1009C00013465B0013449B001A46084B13441A68F5
:1009D000BB681340002B14BF01230023DBB2184671
:1009E0001437BD465DF8047B704700BF4046005099
:1009F00080B483B000AF78603960194A184B5B69E6
:100A000043F001035361164A154B5B6943F0100331
:100A1000536113493B68013B1A027B68013B1B068B
:100A200013434B610E4A0E4B5B6943F04003536125
:100A30000B4A0B4B5B6923F010035361084A084BC8
:100A40005B6943F48023536100BF054B1B6903F0CE
:100A50000403002BF9D00C37BD465DF8047B7047CA
:100A60001047005080B582B000AF0346FB710F4ABB
:100A70000E4B5B6843F480135360FB79012B0ED15E
:100A80000A4A0A4B5B6823F4801353606420FFF723
:100A900039FD064A054B5B6843F40023536064202C
:100AA000FFF730FD0837BD4680BD00BF104700503E
:100AB00080B400AF124B1B6803F00103002B09D177
:100AC0000F4B01225A6000BF0D4B1B6803F001035E
:100AD000002BF9D00B4B1B6803F40073002B0AD0DA
:100AE000084B4FF400729A6000BF064B1B6803F47A
:100AF0000073002BF9D1BD465DF8047B704700BF41
:100B0000004200500044005080B400AF064B1B6808
:100B100003F00803002B0CBF01230023DBB21846AF
:100B2000BD465DF8047B70470043005080B500AFC0
:100B30004FF40000FFF714FD174A174BDB6923F051
:100B40003003D36100BFFFF7FFFC034603F400034B
:100B5000002BF8D04FF40030FFF702FD0E4B0822B7
:100B60005A6000BFFFF7F0FC034603F40033002B8C
:100B7000F8D04FF40020FFF7F3FC074A064BDB6880
:100B800043F00803D36000BFFFF7DEFC034603F425
:100B90000023002BF8D080BD00430050B0B500AF5B
:100BA0000F4A0F4B5B6823F4803353600D4D0D4BA0
:100BB0005B6823F4702424F0300403F0FDFF024648
:100BC000094BA3FB02231B0D013B1B0423436B605A
:100BD000034A034B5B6823F400335360B0BD00BF8E
:100BE00010470050004700506BCA5F6B80B400AFE5
:100BF000074B1B6803F46073B3F5607F0CBF0123E0
:100C00000023DBB21846BD465DF8047B704700BF89
:100C10001047005080B400AF054A054B5B6823F4D1
:100C2000803323F002035360BD465DF8047B7047B8
:100C30001047005080B400AF054A054B5B6843F491
:100C4000803343F002035360BD465DF8047B704778
:100C50001047005080B586B000AFBA607B60034695
:100C6000FB810B467B73FB891846FFF789FD7B7B75
:100C7000012B40F08480FB89002B09D103F09CFFFD
:100C800002464B4BA3FB02239B0C9B057B6102E0BE
:100C90004FF0C0637B617B697A6802FB03F2BB683B
:100CA000B2FBF3F37B617B69424AA2FB03231B097E
:100CB0009B0D3B61404A404B5B6843F0010353602E
:100CC0003D4A3D4B5B6843F0100353603A493A4B51
:100CD0009A683A4B13407A68013A12021A433B6908
:100CE000013B1B041A43BB68013B1B0613438B608B
:100CF000314A314B5B6843F0400353602E4A2E4B20
:100D00005B6823F0100353602B4A2B4B5B6843F462
:100D10008023536000BF284B1B6803F00403002BA3
:100D2000F9D0254A244B5B6823F00103536000BFD0
:100D3000214B1B6803F00103002BF9D17B69204A8A
:100D4000A2FB03235B099B0D3B613A6A3B699A4214
:100D500002D2386900F038F87B695B08194AA2FBB7
:100D600003235B099B0D3B613A6A3B699A4202D2BD
:100D7000386900F029F8386A00F026F815E00E49C5
:100D80000D4B9B6823F07F023B6A013B13438B6052
:100D9000094A094B5B6843F00103536000BF064BEF
:100DA0001B6803F00103002BF9D01837BD4680BD46
:100DB00083DE1B43ABAAAAAA10470050FF8080F035
:100DC00089888888B7600BB680B582B000AF78603C
:100DD0000749074B9B6823F4FE027B68013B1B0419
:100DE00013438B603220FFF78DFB0837BD4680BD73
:100DF0001047005080B483B000AF78607B684FF438
:100E00008072DA600C37BD465DF8047B704700BF26
:100E100080B582B000AF78607B68104A934203D1FE
:100E20000420FFF721FC16E07B680D4A934203D1B2
:100E30000820FFF719FC0EE07B680A4A934203D1B1
:100E40001020FFF711FC06E07B68074A934202D1AD
:100E50000648FFF709FC0837BD4680BD00C00040CA
:100E60000000014000400140004000480100001027
:100E700080B582B000AF78607B68104A934203D19E
:100E80000420FFF775FD16E07B680D4A934203D1FD
:100E90000820FFF76DFD0EE07B680A4A934203D1FC
:100EA0001020FFF765FD06E07B68074A934202D1F8
:100EB0000648FFF75DFD0837BD4680BD00C0004015
:100EC00000000140004001400040004801000010C7
:100ED00080B582B000AF78601020FFF739FD7868E8
:100EE000FFF7C6FF7868FFF793FF0837BD4680BD60
:100EF00080B584B000AF78600B46FB707868FFF770
:100F0000E7FF7868FFF776FF7B681B68FB60FB688C
:100F100023F44043FB60FB789B03FA681343FB60B8
:100F20007B68FA681A601037BD4680BD80B483B014
:100F300000AF786039603B681A687B685A613B682B
:100F40005B79C3F34013DBB21A057B685A603B68D8
:100F50001B79C3F30303DBB21A467B685A623B6812
:100F60005B79C3F30303DBB21A467B681A623B6802
:100F70005B79C3F30013DBB21A467B689A613B6866
:100F80001B79C3F30313DBB21A467B68DA620C37B2
:100F9000BD465DF8047B704780B487B000AF7860D1
:100FA0000B46FB701346BB707B68D3F8A830FB6020
:100FB000FB78092B2CD801A252F823F0E50F00088A
:100FC000E50F0008EF0F0008EF0F000811100008F0
:100FD000111000081110000811100008F90F000886
:100FE0000510000803233B6100237B6116E00C23FE
:100FF0003B6102237B6111E04FF440733B610823A6
:101000007B610BE04FF440633B610A237B6105E0A9
:101010004FF440533B610C237B6100BF3B69DB43D2
:10102000FA681340FB60BA787B6902FA03F3FA6846
:101030001343FB607B68FA68C3F8A8201C37BD46E1
:101040005DF8047B704700BF80B483B000AF786068
:101050000B46FB701346BB707B685A6FFB785B00D6
:10106000194603238B40DB431A407B685A677B6831
:101070005A6FBB78F97849008B401A437B685A67EE
:101080000C37BD465DF8047B704700BF80B582B069
:1010900000AF78603960786800F052F83B685B799F
:1010A000002B12D13B681B79002B07D03B681B68D3
:1010B00078681946022200F0FFF806E03B681B68DA
:1010C00078681946022200F087F87B680E4A5A6356
:1010D0007B684FF4A2629A633B685B79002B07D16F
:1010E0003B689B7943F00B03DBB21A467B68DA63FB
:1010F0007B684FF0FF32DA643B681B891A467B68D5
:101100001A640837BD4680BD02013F0780B485B030
:1011100000AF78607B68D3F80C3103F0E063002BFC
:1011200003D17B685B6DFB8103E07B68D3F81C31E6
:10113000FB81FB8918461437BD465DF8047B704778
:1011400080B582B000AF78607B681A4A934203D0C2
:101150007B68194A934203D1184800F049F916E018
:101160007B68174A934203D07B68164A934203D1A7
:10117000154800F03DF90AE07B68144A934203D019
:101180007B68134A934202D1124800F031F97B6820
:101190000322DA6000BF7B68DB6803F00103002BE9
:1011A000F9D07B681B6C23F00F027B681A64083748
:1011B000BD4680BD0000034000020340080003401C
:1011C00000000248000202480800024800400248AD
:1011D000004202480840024880B58EB000AFF86077
:1011E000B9607A60BB68632B58D97B68002B55D0F7
:1011F000FFF77AFA02462E4BA3FB02235B093B6200
:10120000BB682B4AA2FB03235B09BB600123FB6283
:101210000123BB6240F2FF337B6240F2FF333B634A
:1012200022E03B6A3A6B02FB03F2BB68796801FB80
:1012300003F3B2FBF3F3FB61FB699B0ABB61FB6940
:10124000C3F309037B61BB69B3F5806F09D27A6987
:101250007B6A9A4205D27B697B62BB69BB623B6B4E
:10126000FB623B6B013B3B633B6B002BD9D1FB6AC1
:1012700043F40042FB681A61FB685A690D4B134046
:101280007A68013A92021A43BB6A013B1B041A4373
:10129000FB685A61002387F8373002E0012387F8A2
:1012A000373097F8373018463837BD4680BD00BF15
:1012B0001F85EB51EF8000FC80B58CB000AFF8606B
:1012C000B9607A60FFF710FA03463B62BB687A6840
:1012D00002FB03F3FB610123FB623A6AFB699A425A
:1012E0005FDD3A6AFB6992FBF3F3BB6210E0FB6AD5
:1012F0000133FB62BB687A6802FB03F31A46FB6AA0
:1013000003FB02F3FB613A6AFB6992FBF3F3BB62F6
:10131000BB6A40F2FE329342E9D83A6A7B68B96A06
:1013200001FB03F3F96A01FB03F3B2FBF3F3BB61C7
:101330003A6ABB6A0133796801FB03F3F96A01FB7E
:1013400003F3B2FBF3F37B61BA687B69D31A83EAD8
:10135000E372A2EBE372B968BB69CB1A002BB8BF8A
:101360005B429A4202DABB6A0133BB62BB6AC3F5D5
:101370008063BB62BB6A43F48042FB681A61FB680E
:101380005A690C4B13407A68013A92021A43FB6A7D
:10139000013B1B041A43FB685A61002387F827307E
:1013A00002E0012387F8273097F8273018463037B6
:1013B000BD4680BDEF8000FC80B485B000AFF86012
:1013C0000B467A60FB72FB689A69FB7A072101FA87
:1013D00003F3DB431A40FB7A796801FA03F31A43FB
:1013E000FB689A611437BD465DF8047B704700BF07
:1013F00080B582B000AF78607B68284A934218D1EC
:101400004FF40060FFF7B4FA00BF4FF40060FFF73D
:10141000CBFA0346002BF8D14FF40060FFF724F914
:1014200000BF4FF40060FFF73BF90346002BF8D1F3
:1014300030E07B681A4A934214D11A48FFF798FAB1
:1014400000BF1848FFF7B0FA0346002BF9D1154842
:10145000FFF70AF900BF1348FFF722F90346002BF4
:10146000F9D117E07B68104A934213D10F48FFF778
:101470007FFA00BF0D48FFF797FA0346002BF9D11A
:101480000A48FFF7F1F800BF0848FFF709F90346DB
:10149000002BF9D10837BD4680BD00BF08000340CE
:1014A00008000248800000100840024800010010B7
:1014B00080B485B000AF786039603B78C3F3020335
:1014C000DBB21A467B88C3F309039BB21B041343A8
:1014D000FB607B68FA68C3F8F021FB78C3F3001364
:1014E000DBB21A07FB78C3F38103DBB29B061A4316
:1014F000FB78C3F34013DBB25B071343FB60FB785D
:10150000C3F38013DBB29B07FA681343FB607B686D
:10151000D3F8F021FB68134343F000427B68C3F823
:10152000F0211437BD465DF8047B704780B483B06A
:1015300000AF78607B68D3F8843043F080627B68CA
:10154000C3F884200C37BD465DF8047B704700BFAC
:1015500080B483B000AF78607B68D3F8843023F028
:1015600080627B68C3F884200C37BD465DF8047B3D
:10157000704700BF80B500AF0120FFF7F9F90120E7
:10158000FFF772F880BD00BF80B582B000AF786011
:101590003960FFF7EFFF3B685A697B681A603B6868
:1015A0005B6843F400427B68C3F880203B689A681C
:1015B0007B68C3F8A0203B68DA687B68C3F8A42086
:1015C0003B681A697B68C3F880223B681A687B68AD
:1015D000C3F8B8200837BD4680BD00BF80B485B0D1
:1015E00000AFF860B9603B601346FB71FB79002BDC
:1015F00009D1BA6840F21F731340FA68396828317C
:1016000042F8213007E0BA68054B1340FA683968A0
:10161000283142F821301437BD465DF8047B70470D
:1016200000001F0780B485B000AF78607B68D3F8F6
:10163000803043F000427B68C3F880200023FB73B6
:1016400017E0FB7B0F4A52F82330BB60BB68D3F82E
:10165000803003F44033002B08D000E000BFBB68AB
:10166000D3F8803003F08053002BF7D1FB7B01339C
:10167000FB73FB7B032BE4D91437BD465DF8047B79
:10168000704700BF809D000880B485B000AF7860CF
:101690000B46FB70FB78032B03D9FB78043BFB6004
:1016A00001E0FB78FB607B68D3F8403123F00F0248
:1016B0007B68C3F840217B68D3F84021FB681A435C
:1016C0007B68C3F840211437BD465DF8047B704742
:1016D00080B582B000AF786039603B68786859683F
:1016E0000022002300F028F83B687868596801223E
:1016F000002300F021F83B687868996800220123F4
:1017000000F01AF83B68786899680122012300F01C
:1017100013F83B681A697B68C3F880203B68DA6875
:101720007B68C3F8B8203B6878681968FFF7C0FE8B
:101730000837BD4680BD00BF80B48DB000AFF860F3
:10174000B9603B601346FB71FB79002B13D1082372
:10175000FB624FF4E0637B620023BB621F233B62AA
:101760003B7AC3F30403DBB2FB617B7AC3F302036E
:10177000DBB2FB7613E01823FB624FF0E0637B6281
:101780001023BB624FF4F8133B62BB7AC3F304032C
:10179000DBB2FB61FB7AC3F30203DBB2FB76FB68CF
:1017A0003A68283253F822307B617B6ADB437A69DE
:1017B00013407B61FA7EFB6A02FA03F37A691343F2
:1017C0007B613B6ADB437A6913407B61BB6AFA69E0
:1017D00002FA03F37A6913437B61FB683A682832A3
:1017E000796943F822103437BD465DF8047B7047B1
:1017F00080B485B000AF78600B46FB707B68D3F88F
:101800008030FB60FB6823F00303FB60FB78FA6821
:101810001343FB607B68FA68C3F880201437BD4629
:101820005DF8047B704700BF80B586B000AF78607C
:1018300039600023FB7509E0FB7D394A52F82330FB
:101840001846FFF785FEFB7D0133FB75FB7D032BFF
:10185000F2D900233B613B681B7803F00303DBB242
:10186000002B02D04FF400633B610023FB7521E0A5
:10187000FB7D2B4A52F82330D3F88430FB60FB68A1
:1018800023F44073FB603B681B78C3F38103DBB236
:101890001B02FA681343FB60FA683B691343FB6061
:1018A000FB7D1F4A52F82330FA68C3F88420FB7D81
:1018B0000133FB75FB7D032BDAD93B685B6843F48E
:1018C000000343F400437A68C2F800323B689B6827
:1018D00043F001027B68C3F804223B681B7803F0E5
:1018E0000303DBB2022B07D17B68D3F8043243F445
:1018F00080327B68C3F804220023FB7509E0FB7D7E
:10190000074A52F823301846FFF710FEFB7D0133DB
:10191000FB75FB7D032BF2D91837BD4680BD00BF98
:10192000809D000880B489B000AFF860B9607A602B
:101930007B681B7BBB61FB68D3F888307B61BB682D
:10194000012202FA03F3DB437A6913407B61BB682F
:10195000BA6902FA03F37A6913437B61FB687A6917
:10196000C3F888207B685B7B5BB2002B29DB0023FC
:10197000FB61BB68012B0AD10823FB61FB68D3F82C
:10198000B03023F4F852FB68C3F8B0200CE0BB6819
:10199000002B09D10023FB61FB68D3F8B03023F0A2
:1019A0001F02FB68C3F8B020FB68D3F8B0307A6838
:1019B000527B51B2FA6901FA02F21A43FB68C3F88A
:1019C000B020FB68D3F8C8207B685B681A43FB68CB
:1019D000C3F8C820FB68D3F8D0207B689B681A4303
:1019E000FB68C3F8D0207B681968FB68BA6880324E
:1019F00043F822102437BD465DF8047B704700BFD2
:101A000080B584B000AF7860144B1B68002B02D106
:101A1000124B134A1A60114B1B68FB607B6803333F
:101A200023F003037B600D4B1A687B6813440D4A57
:101A3000934207D2094B1A687B681344074A136024
:101A4000FB6806E005F006FB02460C2313604FF02E
:101A5000FF3318461037BD4680BD00BFF089FE1F1A
:101A600000000020C0FF032080B483B000AF786086
:101A70000B46FB70FB7801229A407B685A600C375A
:101A8000BD465DF8047B704780B483B000AF7860DA
:101A90000B46FB70FB784FF480329A407B685A60AB
:101AA0000C37BD465DF8047B704700BF80B483B03F
:101AB00000AF78607B689B6C18460C37BD465DF8BC
:101AC000047B704780B582B000AF78607B681A688D
:101AD0007B681B7C10461946FFF7C6FF0837BD46DA
:101AE00080BD00BF80B582B000AF78607B681A68A7
:101AF0007B681B7C10461946FFF7C6FF0837BD46BA
:101B000080BD00BF80B500AF0148FFF7EBFF80BD8F
:101B1000B4EF000880B500AF0148FFF7D3FF80BDE8
:101B2000B4EF000880B500AF0148FFF7DBFF80BDD0
:101B3000C8EF000880B500AF0148FFF7C3FF80BDC4
:101B4000C8EF000880B582B000AF0346FB71FB1DF3
:101B500009481946012202F003FA00E000BF064BD3
:101B60001B681846FFF7A2FF034603F00103002B92
:101B7000F4D10837BD4680BDAC88FE1F80B582B069
:101B800000AF78607B68DBB21846FFF7DBFF7B684D
:101B90001B0ADBB21846FFF7D5FF7B681B0CDBB2D4
:101BA0001846FFF7CFFF7B681B0EDBB21846FFF726
:101BB000C9FF0837BD4680BD80B582B000AF7860F0
:101BC0007868FFF7DBFF0837BD4680BD80B582B07F
:101BD00000AF0346FB710A4B2A221A7009480849D4
:101BE000012202F0D7F900BF064B9B68DB7FDBB216
:101BF000002BF9D1024B1B7818460837BD4680BD33
:101C0000488EFE1FAC88FE1F80B483B000AF7860A2
:101C10007B681B7818460C37BD465DF8047B70471F
:101C200080B582B000AF03460A46FB711346BB7114
:101C3000FFF778FFFB791846FFF784FFBB7918465A
:101C4000FFF780FF0020FFF77DFFFFF773FF0837E6
:101C5000BD4680BD80B584B000AF7860FFF762FFFD
:101C60007B681B0CDBB21846FFF76CFF7B681B0A16
:101C7000DBB21846FFF766FF7B68DBB21846FFF75A
:101C800061FF0020FFF75EFF0020FFF79FFF034684
:101C9000FB73FFF74FFFFB7B18461037BD4680BD37
:101CA00080B584B000AF78600023FB81FFF73AFF76
:101CB0007B681B0CDBB21846FFF744FF7B681B0AEE
:101CC000DBB21846FFF73EFF7B68DBB21846FFF732
:101CD00039FF0020FFF736FF0020FFF777FF0346AC
:101CE000FB810020FFF772FF03461B029AB2FB89BB
:101CF00013439BB2FB81FFF71DFFFB89184610378A
:101D0000BD4680BD80B582B000AF78600B46FB70E9
:101D1000FFF708FF7B681B0CDBB263F07F03DBB2CD
:101D20001846FFF70FFF7B681B0ADBB21846FFF768
:101D300009FF7B68DBB21846FFF704FFFB78184603
:101D4000FFF700FFFFF7F6FE0837BD4680BD00BF76
:101D500080B582B000AF78600B467B80FFF7E2FE73
:101D60007B681B0CDBB263F07F03DBB21846FFF726
:101D7000E9FE7B681B0ADBB21846FFF7E3FE7B68CF
:101D8000DBB21846FFF7DEFE7B88DBB21846FFF7B2
:101D9000D9FE7B881B0A9BB2DBB21846FFF7D2FE46
:101DA000FFF7C8FE0837BD4680BD00BF80B582B0D2
:101DB00000AF78603960FFF7B5FE7B681B0CDBB2C3
:101DC00063F07F03DBB21846FFF7BCFE7B681B0A9B
:101DD000DBB21846FFF7B6FE7B68DBB21846FFF7AA
:101DE000B1FE3B68DBB21846FFF7ACFE3B681B0A4E
:101DF000DBB21846FFF7A6FE3B681B0CDBB21846A9
:101E0000FFF7A0FE3B681B0EDBB21846FFF79AFEF9
:101E1000FFF790FE0837BD4680BD00BF80B582B099
:101E200000AF3148FFF73CFF0346FB80FB8803F01F
:101E30000303002B4CD02D4805F000FE2C48FFF783
:101E40002FFF0346BB802B480121FFF75BFF2A4889
:101E50000021FFF77DFF29480021FFF779FF28487F
:101E60000021FFF7A3FF23480021FFF74BFFBB88AA
:101E70001F481946FFF76CFF052003F00FFA214BAE
:101E80003B60FFF74FFE3B681B0CDBB263F07F0348
:101E9000DBB21846FFF756FE3B681B0ADBB218465A
:101EA000FFF750FE3B68DBB21846FFF74BFE6FF0C2
:101EB000B600FFF763FE6FF0B500FFF75FFEFFF7B8
:101EC00039FE11480721FFF71DFF052003F0E6F951
:101ED000FB8840F6FC72934201D0012300E000230E
:101EE00018460837BD4680BD74253000909D000817
:101EF0006291300020203000F8203000FC203000BB
:101F000000213000782530007020300080B584B08A
:101F100000AF78600E4BFB60FFF704FEFB681B0C04
:101F2000DBB263F07F03DBB21846FFF70BFEFB6802
:101F30001B0ADBB21846FFF705FEFB68DBB218464A
:101F4000FFF700FE7868FFF719FE1037BD4680BD29
:101F50007825300080B584B000AF78600B467B8078
:101F60007B88DBB203F003037B737B7BC3F1040349
:101F70007B737B7B03F003037B730023FB810CE00B
:101F8000FB897A6813441846FFF73EFE034618465D
:101F9000FFF7D8FDFB890133FB81FA897B889A42E0
:101FA000EED37B7B9AB27B8813447B8005E00020D4
:101FB000FFF7C8FD7B7B013B7B737B7B002BF6D15E
:101FC0001037BD4680BD00BF80B586B000AF7860D9
:101FD00039603B687B6134E07B69B3F5706F28BF83
:101FE0004FF470633B611A4BFB60FFF79BFDFB688E
:101FF0001B0CDBB263F07F03DBB21846FFF7A2FDD8
:10200000FB681B0ADBB21846FFF79CFDFB68DBB2DE
:102010001846FFF797FD3B699BB278681946FFF7B2
:1020200099FFFFF787FD7A683B6913447B607A6903
:102030003B69D31A7B6100BFFFF7F0FE0346002B1C
:10204000FAD17B69002BC7D11837BD4680BD00BFD0
:102050007825300080B584B000AFF860B9607A6050
:102060006FF0DD00FFF752FFF868FFF787FDFFF71D
:1020700061FDBB68002B03D0B8687968FFF7A4FF47
:102080001037BD4680BD00BF80B584B000AFF8609A
:10209000B9607A606FF0E200FFF738FFF868FFF789
:1020A0006DFDB868FFF76AFD7868FFF767FDFFF719
:1020B00041FD00BFFFF7B2FE0346002BFAD11037F7
:1020C000BD4680BD80B582B000AF0023FB71002308
:1020D000BB80FFF717FD062003F0E0F8FFF71AFDBD
:1020E000152003F0DBF844200021FFF799FD612063
:1020F0004621FFF795FD00200021FFF791FD2820E4
:1021000003F0CCF815E0012003F0C8F86548FFF7AC
:10211000A1FD0346FB71BB880133BB80BB88B3F5CF
:10212000C87F06D9FB796048194605F011FC0023E9
:10213000B4E0FB797C2BE6D1FB795C48194605F0CD
:1021400007FC0023BB800EE0012003F0A7F8BB884A
:102150000133BB80BB88B3F5FA7F04D9544805F03E
:102160006DFC00239AE05348FFF774FD034603F02B
:102170000303002BE8D1504805F060FC4F4850495C
:10218000FFF714FE4F480021FFF7BCFD4E484FF407
:10219000F071FFF7DDFD4D484FF40971FFF7D8FDF1
:1021A0004B482B21FFF7D4FD4A480021FFF7D0FD13
:1021B00049482921FFF7CCFD48484FF48871FFF7C3
:1021C000C7FD47484FF49271FFF7C2FD45480C2107
:1021D000FFF7BEFD44480021FFF7BAFD43480A213E
:1021E000FFF7B6FD42480021FFF78CFD4148012171
:1021F000FFF788FD40480121FFF784FD3F4805F0C7
:102200001DFC3F480321FFF77DFD3E484FF49661DA
:10221000FFF79EFD3C480021FFF774FD3B4800217D
:10222000FFF770FD3A484FF4C041FFF791FD4FF4BE
:1022300040104FF00071FFF7B9FD36483649FFF7FF
:10224000B5FD36480021FFF7B1FD35480221FFF703
:10225000ADFD344805F0F2FB33488021FFF752FD15
:1022600032480721FFF74EFD16482021FFF74AFDAF
:102270000023BB8009E0012003F010F8BB88013384
:10228000BB80BB88042B00D904E0FFF7C7FD0346E1
:10229000012BF0D0264805F0D1FB01231846083762
:1022A000BD4680BD00203000C09D0008F09D0008A4
:1022B000189E000820203000449E00080C203000AA
:1022C00000A24A04D4203000342030002C203000FA
:1022D00030203000382030003C20300048203000D2
:1022E00040203000442030004C203000502030008E
:1022F000642030006C20300068203000689E0008A8
:10230000042130001821300080203000842030006B
:10231000882030000400300007000026080030004C
:1023200054203000889E0008942030007020300037
:10233000B09E000880B582B000AF0F4B2A221A7001
:102340000E4B7B60FFF7EEFB7B681B0CDBB263F090
:102350007F03DBB21846FFF7F5FB7B681B0ADBB295
:102360001846FFF7EFFB7B68DBB21846FFF7EAFB86
:102370000837BD4680BD00BFF489FE1F78253000B8
:1023800080B500AF024B00221A70FFF7D3FB80BD6F
:10239000F489FE1F80B584B000AF78600E4BFB60FF
:1023A000FFF7C0FBFB681B0CDBB263F07F03DBB203
:1023B0001846FFF7C7FBFB681B0ADBB21846FFF79E
:1023C000C1FBFB68DBB21846FFF7BCFB7868FFF780
:1023D000D5FB1037BD4680BD7825300080B586B06E
:1023E00000AF78600023FB750023BB757B68BB6082
:1023F0003E4B1B78DBB2002B49D07B683B6115E07C
:10240000BB7D0133BB75BB7D032B08D90023BB7596
:102410003B691A1D3A611B681846FFF7CDFBFB7D2F
:102420000133FB75FB7DF92B00D905E0FB7DBA6814
:1024300013441B78002BE3D13B691B68FB60BB7D19
:10244000022B0CD0032B02D0012B0FD015E0FB6820
:1024500023F07F43FB60FB7D0133FB7513E0FB68DA
:102460009BB2FB60FB7D0233FB750CE0FB68DBB2CB
:10247000FB60FB7D0333FB7505E00023FB60FB7D08
:102480000433FB7500BFF868FFF796FB2AE00DE008
:10249000FB7DBA6813441B781846FFF753FBFB7D9E
:1024A0000133FB75FB7DF92B00D905E0FB7DBA6894
:1024B00013441B78002BEBD1FB7D03F00303BB75AA
:1024C000BB7DC3F10403BB75FA7DBB7D1344FB7573
:1024D00005E00020FFF736FBBB7D013BBB75BB7DF4
:1024E000002BF6D11837BD4680BD00BFF489FE1F12
:1024F00080B582B000AF7860064B1B78DBB2002B52
:1025000004D17868FFF746FFFFF714FB0837BD4694
:1025100080BD00BFF489FE1F80B582B000AF786037
:102520007868FFF749FB0837BD4680BD80B582B0AB
:1025300000AF786039606FF0E100FFF73DFB78682D
:10254000FFF73AFB3868FFF737FB0837BD4680BD19
:1025500080B582B000AF7860104B1B78DBB2002BE7
:1025600019D16FF0F600FFF715FF7B68DBB2184654
:10257000FFF7E8FA7B681B0ADBB21846FFF7E2FABE
:102580007B681B0CDBB21846FFF7DCFA0020FFF774
:10259000D9FAFFF7CFFA0837BD4680BDF489FE1F90
:1025A00080B582B000AF78606FF0F600FFF704FBF3
:1025B0007868FFF701FB0837BD4680BD90B583B052
:1025C00000AF0446084611461A462346FB800346E0
:1025D000BB800B467B8013463B806FF0F200FFF719
:1025E000EBFAB7F90620B7F904301B041344184678
:1025F000FFF7E2FAB7F90220B7F900301B041344E1
:102600001846FFF7D9FAB7F91820BB8B1B041344FF
:102610001846FFF7D1FA386AFFF7E0FE0C37BD46DF
:1026200090BD00BF80B582B000AF78606FF0F5005C
:10263000FFF7C2FA7868FFF7BFFA0837BD4680BDDA
:1026400080B582B000AF78606FF0CB00FFF7B4FACE
:102650007868FFF7B1FA0837BD4680BD90B583B002
:1026600000AF0446084611461A462346FB8003463F
:10267000BB800B467B8013463B80224B1B78DBB232
:10268000002B3CD16FF0D100FFF784FEFB88DBB25A
:102690001846FFF757FAB7F906301B129BB2DBB2A8
:1026A0001846FFF74FFABB88DBB21846FFF74AFA25
:1026B000B7F904301B129BB2DBB21846FFF742FA9F
:1026C0007B88DBB21846FFF73DFAB7F902301B12E0
:1026D0009BB2DBB21846FFF735FA3B88DBB21846EF
:1026E000FFF730FA3B881B0A9BB2DBB21846FFF7B4
:1026F00029FABB691846FFF741FAFFF71BFA0C37B6
:10270000BD4690BDF489FE1F90B583B000AF04466E
:10271000084611461A462346FB800346BB800B46FB
:102720007B8013463B806FF0D100FFF745FAB7F985
:102730000620B7F904301B0413441846FFF73CFA8F
:10274000B7F902203B881B0413441846FFF734FAFC
:10275000BB691846FFF730FA0C37BD4690BD00BF85
:1027600080B584B000AFF860084611461A460346AB
:102770007B810B463B811346FB806FF0BC00FFF76B
:102780001BFAF868FFF718FA7A893B891B0413448F
:102790001846FFF711FAFB881846FFF70DFA1037B5
:1027A000BD4680BD90B583B000AF044608461146D3
:1027B0001A462346FB800346BB800B467B801346AC
:1027C0003B80224B1B78DBB2002B3BD16FF0F30038
:1027D000FFF7E0FDFB88DBB21846FFF7B3F9B7F966
:1027E00006301B129BB2DBB21846FFF7ABF9BB8871
:1027F000DBB21846FFF7A6F9B7F904301B129BB2FB
:10280000DBB21846FFF79EF97B88DBB21846FFF76C
:1028100099F9B7F902301B129BB2DBB21846FFF7E9
:1028200091F93B88DBB21846FFF78CF93B881B0A0D
:102830009BB2DBB21846FFF785F9B869FFF7CEFD0A
:10284000FFF778F90C37BD4690BD00BFF489FE1F35
:1028500090B583B000AF0446084611461A46234699
:10286000FB800346BB800B467B8013463B806FF0AA
:10287000F300FFF7A1F9B7F90620B7F904301B04FC
:1028800013441846FFF798F9B7F902203B881B0458
:1028900013441846FFF790F9B869FFF79FFD0C370E
:1028A000BD4690BD90B583B000AF044608461146C2
:1028B0001A462346FB800346BB800B467B801346AB
:1028C0003B806FF0ED00FFF777F9B7F90620B7F915
:1028D00004301B0413441846FFF76EF9B7F90220C1
:1028E000B7F900301B0413441846FFF765F93A8B1B
:1028F000BB8B1B0413441846FFF75EF9386AFFF7D9
:102900006DFD0C37BD4690BDF0B5A3B002AF0446D7
:10291000084611461A462346FB710346BB800B4608
:102920007B8013463B80A04A07F1380392E80300FE
:1029300083E803009D4A07F1300392E8030083E82F
:1029400003009B4A07F1280392E8030083E8030091
:10295000052387F86F30092387F86E30062387F840
:102960006D30142387F86C30022387F86B30162300
:1029700087F86A30032387F869300A2387F86830BC
:10298000072387F86730002387F866303B881846AE
:1029900004F008F802460B4610461946D7E92E23E4
:1029A00004F0A0F902460B46C7E91623B7F89830A1
:1029B000184603F0F7FF02460B4610461946D7E9C2
:1029C0002C2304F08FF902460B46C7E91423FB7948
:1029D0009B0007F18002134453F8483C7548984720
:1029E000FB799B0007F18002134453F8504CBA88DE
:1029F000B7F89C3013449AB297F86D309BB21344E9
:102A00009BB299B27A88B7F89C3013449AB297F87F
:102A10006C309BB2D31A9BB29BB209B21AB2664B0E
:102A20000093084611461A220023A047FB799B0019
:102A300007F18002134453F8504CBA88B7F89C3021
:102A400013449AB23B8813449AB297F86B309BB206
:102A500013449BB299B27A88B7F89C3013449AB267
:102A6000B7F8983013449AB297F86A309BB2D31AE9
:102A70009BB29BB209B21AB2504B00930846114662
:102A80001A220023A047FB799B0007F18002134420
:102A900053F8483C4A489847FB799B0007F180026D
:102AA000134453F8483CB988B7F89C200A44C2F351
:102AB0000E02D1037A88C2F30E020A4342F080422A
:102AC00010469847FB799B0007F18002134453F8A6
:102AD000483CB988B7F89C200A44C2F30E02D103DF
:102AE0007888B7F89C201044B7F898201044B7F8BD
:102AF0009C200244C2F30E020A4342F08042104678
:102B00009847FB799B0007F18002134453F8483C37
:102B1000BA88C2F30E02D1037888B7F89C2010441B
:102B2000B7F898200244C2F30E020A4342F08042F2
:102B300010469847FB799B0007F18002134453F835
:102B4000483CB988B7F89C2011443A881144B7F83A
:102B50009C200A44C2F30E02D1037888B7F89C2067
:102B60001044B7F898200244C2F30E020A4342F020
:102B7000804210469847FB799B0007F1800213447E
:102B800053F8483C97F86E2042F060621046984730
:102B9000FB799B0007F18002134453F8483C094835
:102BA00098470123FB676FE0EC9E0008F49E000845
:102BB000FC9E00080B1E3B04DC9E0008E09E000803
:102BC0000300001FE2DAC504FB799B0007F18002D5
:102BD000134453F8484CBA88B7F89C30D518F86FAE
:102BE00003F0F0FE02460B4610461946D7E91623BD
:102BF00003F04EFF02460B461046194604F00AFA4F
:102C000003469BB22B44C3F30E03DA037988B7F86B
:102C10009C300B44C3F30E03134343F08043184628
:102C2000A047FB799B0007F18002134453F8484CFE
:102C3000BA88B7F89C30D518F86F03F0C3FE024687
:102C40000B4610461946D7E9162303F021FF02462A
:102C50000B461046194604F0DDF903469BB22B449F
:102C6000C3F30E03DA037988B7F89C301944B7F838
:102C700098300B44C3F30E03134343F080431846CC
:102C8000A047FB6F0133FB67D7E92E0102F0F8FB89
:102C900002460B461046194604F094F90246FB6FB3
:102CA0009A4291DA0123BB6764E0FB799B0007F14C
:102CB0008002134453F8484CBA88B7F89C30134448
:102CC000C3F30E03DD037A88B7F89C301A44B7F8D3
:102CD0009830D618B86F03F075FE02460B461046C2
:102CE0001946D7E9142303F0D3FE02460B461046DB
:102CF000194604F08FF903469BB2F31AC3F30E038F
:102D00002B4343F080431846A047FB799B0007F113
:102D10008002134453F8484CBA88B7F89C301A44E0
:102D20003B881344C3F30E03DD037A88B7F89C3065
:102D30001A44B7F89830D618B86F03F043FE02462D
:102D40000B4610461946D7E9142303F0A1FE0246AC
:102D50000B461046194604F05DF903469BB2F31A80
:102D6000C3F30E032B4343F080431846A047BB6FC9
:102D70000133BB67D7E92C0102F082FB02460B4608
:102D80001046194604F01EF90246BB6F9A428CDACF
:102D9000FB799B0007F18002134453F8483C4FF045
:102DA00004509847FB799B0007F18002134453F8C5
:102DB000483CA448984701237B67BEE0D7E92A0135
:102DC000D7E92E2303F08EFF02460B4614461D461C
:102DD0007B6F013B184603F0F5FD02460B4620468B
:102DE000294603F055FE02460B46C7E91223D7E9F0
:102DF000120104F00FF90346184603F0D3FD024612
:102E00000B46D7E9120103F08FFC02460B46104631
:102E100019464FF000024FF0000304F0A1F80346FA
:102E2000002B41D0FB799B0007F18002134453F83B
:102E3000584CBA88B7F89C3013449DB27B6F013B65
:102E4000184603F0BFFD02460B4610461946D7E967
:102E5000162303F01DFE02460B461046194604F0E9
:102E6000D9F803469BB22B449AB297F869309BB2CB
:102E700013449BB29EB27A88B7F8983013449AB242
:102E800097F868309BB213449BB29DB2D7E9120108
:102E900004F098F8014632B22BB200911046194660
:102EA00014220023A04745E007F1080318466649AD
:102EB000D7E9122304F0F4FDFB799B0007F18002AF
:102EC000134453F8504CBA88B7F89C3013449DB261
:102ED0007B6F013B184603F075FD02460B4610461A
:102EE0001946D7E9162303F0D3FD02460B461046D8
:102EF000194604F08FF803469BB22B449AB297F818
:102F000069309BB213449BB299B27A88B7F8983073
:102F100013449AB297F868309BB213449BB29BB2A9
:102F200009B21AB207F108030093084611461422A9
:102F30000023A0477B6F01337B67D7E92E0102F0A6
:102F40001BFA02460B461046194604F03BF80246AF
:102F50007B6F9A42BFF632AF01233B67BDE0D7E9F2
:102F60002801D7E92C2303F0BDFE02460B46144688
:102F70001D46386F03F026FD02460B4620462946C3
:102F800003F086FD02460B46C7E91023D7E910017E
:102F900004F040F80346184603F004FD02460B46D1
:102FA000D7E9100103F0C0FB02460B461046194654
:102FB0004FF000024FF0000303F0D2FF0346002B56
:102FC00044D0FB799B0007F18002134453F8584C1E
:102FD00097F867309BB2BA88D31A9BB29EB27A88B0
:102FE000B7F89C3013449AB2B7F8983013449DB2A6
:102FF000386F03F0E7FC02460B4610461946D7E946
:10300000142303F045FD02460B461046194604F012
:1030100001F803469BB2EB1A9AB297F866309BB25E
:1030200013449BB29DB2D7E9100103F0CBFF0146D8
:1030300032B22BB200911046194614220023A04749
:1030400048E000BF0B1E3B04E49E000807F10803A4
:1030500018469C49D7E9102304F022FDFB799B0018
:1030600007F18002134453F8504C97F867309BB235
:10307000BA88D31A9BB29EB27A88B7F89C301344B0
:103080009AB2B7F8983013449DB2386F03F09AFCA7
:1030900002460B4610461946D7E9142303F0F8FC04
:1030A00002460B461046194603F0B4FF03469BB296
:1030B000EB1A9AB297F866309BB213449BB29BB25C
:1030C00031B21AB207F108030093084611461422E0
:1030D0000023A0473B6F01333B67D7E92C0102F087
:1030E000CFF902460B461046194603F06BFF024625
:1030F0003B6F9A42BFF633AFFB799B0007F180022A
:10310000134453F8483C70489847FB799B0007F1FB
:103110008002134453F8483CB988B7F89C20114406
:1031200097F86F200A44C2F30E02D103788897F80B
:103130006F200244C2F30E020A4342F0804210465E
:103140009847FB799B0007F18002134453F8483CF1
:10315000B988B7F89C200A44C2F30E02D1037A88DA
:10316000C2F30E020A4342F0804210469847FB79B0
:103170009B0007F18002134453F8483CB988B7F824
:103180009C20114497F86F208A1AC2F30E02D103D3
:10319000788897F86F200244C2F30E020A4342F087
:1031A000804210469847FB799B0007F18002134448
:1031B00053F8483C4FF004509847FB799B0007F1C7
:1031C0008002134453F8483C3F489847FB799B00E2
:1031D00007F18002134453F8483CB988B7F89C20A3
:1031E00011443A881144B7F89C20114497F86F2095
:1031F0008A1AC2F30E02D1037888B7F89C201044D3
:10320000B7F89820104497F86F200244C2F30E02DA
:103210000A4342F0804210469847FB799B0007F131
:103220008002134453F8483CB988B7F89C201144F5
:103230003A881144B7F89C200A44C2F30E02D10325
:103240007888B7F89C201044B7F898200244C2F35D
:103250000E020A4342F0804210469847FB799B00D9
:1032600007F18002134453F8483CB988B7F89C2012
:1032700011443A881144B7F89C20114497F86F2004
:103280008A1AC2F30E02D1037888B7F89C20104442
:10329000B7F89820104497F86F20821AC2F30E02F4
:1032A0000A4342F0804210469847FB799B0007F1A1
:1032B0008002134453F8483C4FF004509847843739
:1032C000BD46F0BDE49E00080400001F2DE9B04398
:1032D00084B000AF0446084611461A462346FB80D8
:1032E0000346BB800B467B8013463B80BB6C43F0A0
:1032F00080631846FFF710F97748FFF70DF997F844
:103300004430002B46D10023FB603EE0FA883B8D21
:103310001A44FB681344C3F30E03DC03BA883B8DE5
:103320001A443B88D518FB685B00BA6B13441B88B2
:10333000184603F037FB02460B4610461946D7E9FC
:103340000C2303F0CFFC02460B46904699463B887F
:10335000184603F027FB02460B464046494603F059
:1033600097FB02460B461046194603F053FE0346F0
:103370009BB2EB1AC3F30E03234343F0804318467A
:10338000FFF7CAF8FB680133FB60BA8FFB689A420B
:10339000BCDC5BE03B6C1B887B81BB8F013B9BB241
:1033A0003B814FE0B7F90A30002B03DABB8F013BBA
:1033B0009BB27B81FA883B8D1A44B7F908301344DD
:1033C000C3F30E03DC03BA883B8D1A443B88D5183F
:1033D000B7F90A305B00BA6B13441B88184603F038
:1033E000E1FA02460B4610461946D7E90C2303F0D2
:1033F00079FC02460B46904699463B88184603F0F6
:10340000D1FA02460B464046494603F041FB0246CC
:103410000B461046194603F0FDFD03469BB2EB1A1E
:10342000C3F30E03234343F080431846FFF774F8B9
:103430007B899BB2013B9BB27B813B899BB2013B69
:103440009BB23B81B7F90830002BABDA4FF0045048
:10345000FFF762F897F84430002B38D1FB6C43F04B
:1034600080631846FFF758F81B48FFF755F8FA88AD
:103470003B8D13443A6C12881344C3F30E03DA03F2
:10348000B9883B8D0B44053BC3F30E03134343F054
:1034900080431846FFF740F8FA883B8D13443A6C96
:1034A00012881344C3F30E03DA03B9883B8D194421
:1034B0003B880B440533C3F30E03134343F08043AF
:1034C0001846FFF729F84FF00450FFF725F810379A
:1034D000BD46BDE8B08300BF0400001F80B500AF4B
:1034E0000E4846F2C411FEF761FC0D4840F25D2122
:1034F000FEF75CFC0B480C49FEF758FC0B486FF0DC
:103500006E01FEF753FC0A4845F66B31FEF74EFCA0
:1035100008480949FEF74AFC80BD00BF5021300031
:103520005421300058213000B14AF1FF5C213000B5
:103530006021300064213000ABC7FAFF80B500AFD6
:103540001A4B1B78002B30D00020194944F6047226
:10355000FEF780FDFEF7EEFE6FF0FF00FEF7DCFFEA
:103560006FF07D40FEF7D8FF1248FEF7D5FF4FF011
:103570004070FEF7D1FF002000214FF49A72FA2329
:10358000FFF7EEF80C48FEF7C7FF0C48FEF7C4FF44
:103590004FF00450FEF7C0FF0020FEF7BDFF6FF0B4
:1035A000FE00FEF7B9FFFEF7EBFE80BDF589FE1FBA
:1035B000909F0008070000260100001FB000B042E5
:1035C0002DE9F0478AB00AAF6FF0FF00FEF790FFD9
:1035D0004FF04070FEF78CFF4848FEF7B9FF4FF000
:1035E0001C50FEF785FF4648FEF782FF4548FEF770
:1035F0007FFF4548FEF77CFF4448FEF779FF4448CB
:10360000FEF776FF4348FEF773FF4348FEF770FF6F
:103610004FF00450FEF76CFF4048FEF769FF40484A
:10362000FEF766FF3948FEF763FF3948FEF760FF93
:103630003848FEF75DFF3848FEF75AFF4FF0045058
:10364000FEF756FF3548FEF753FF364B00934FF415
:10365000B4700A211A220023FFF7A4F8324B00931A
:103660004FF4B47019211A220023FFF79BF82F4B57
:10367000B3F800A02E4BB3F800C02E4BB3F800E017
:103680002D4B1E882D4BD3E900892D4BD3E90045E6
:103690002C4BD3E900012C4BD3E9002300960A26DA
:1036A0000196CDE90289CDE90445CDE90601CDE9D0
:1036B00008230020514662467346FFF725F900BFF4
:1036C000FEF7ACFB0346002BFAD12048FEF7E8FAE0
:1036D00003461A461E4B1A601D4B1B684FF47F2091
:1036E0004FF440111A46FEF7CFFC00BFFEF796FBE1
:1036F0000346002BFAD1BD46BDE8F087EEF1F50098
:103700001000000E4B5864040700001F42000040E8
:1037100042008C403200A0403200F04029CDF3043A
:103720000400001F049F0008109F00080088FE1F6F
:103730000288FE1F0488FE1F0688FE1F0888FE1FE1
:103740001088FE1F2088FE1F2888FE1F00213000E1
:103750004C8EFE1F80B500AFFEF7B4FC0346002B75
:103760002BD0174B01221A7016483021FEF7CAFAE7
:10377000FFF7B4FEFEF7DEFD6FF0FF00FEF7CCFEB4
:103780004FF04070FEF7C8FE0F48FEF709FF4FF0FC
:103790001C50FEF7C1FE6FF07D40FEF7BDFE0B48EA
:1037A000FEF7BAFE0020FEF7B7FE6FF0FE00FEF750
:1037B000B3FEFEF7E5FD012300E00023184680BDBF
:1037C000F589FE1FD4203000EEF1F5000700002639
:1037D00080B582B000AFFEF721FB0346002B00D07E
:1037E0007BE03F48FEF736FA0346FB71FB790D2B71
:1037F00073D801A252F823F031380008DB380008F2
:10380000DB380008DB380008DB380008DB3800084C
:10381000DB380008DB380008DB380008DB3800083C
:1038200039380008DB38000879380008A738000864
:103830002C4B00221A7050E02A4B1B78002B1AD117
:10384000294804F0FBF8274B2A221A70274B1B88C3
:10385000002B08D1254B4FF480721A802448012197
:10386000FEF750FA07E0214B00221A802048802101
:10387000FEF748FA31E030E01A4B1B78002B11D1EB
:103880001C4804F0DBF8174B2A221A701A4B1B88CD
:10389000002B03D1184B01221A8003E0164B0022A3
:1038A0001A801AE019E00F4B1B78002B14D1134833
:1038B00004F0C4F80B4B2A221A70114B1B78DBB2B0
:1038C0000133DAB20E4B1A700D4B1B78DBB2032BAF
:1038D00002D90B4B00221A7000BF0837BD4680BDCD
:1038E0002C213000FC89FE1F189F0008FA89FE1F5A
:1038F000D4203000309F0008F889FE1F449F000844
:103900003088FE1FF0B599B00AAFF8600B467A60B8
:103910007B810023FB86924B1B78002B00F01D81DE
:103920009048FEF7BDF90346FB86FEF703FD6FF0F6
:10393000FF00FEF7F1FD6FF07D40FEF7EDFD8A48D8
:10394000FEF7EAFD4FF04070FEF7E6FD874B1B687F
:103950004FF47F201946FEF7E9FD8548FEF770FE1B
:103960008448FEF7D9FD8448FEF75CFE8348FEF7E5
:1039700017FE8348FEF7D0FD824B1B78DBB2002B8D
:103980000CD11B230093002301937F4B029314203F
:103990000F2150221E23FEF711FE2FE0794B1B78DA
:1039A000DBB2012B0CD11B23009300230193774B37
:1039B000029314200F2150221E23FEF7FFFD1DE06D
:1039C000704B1B78DBB2022B0CD11B23009300231E
:1039D00001936F4B029314200F2150221E23FEF7F8
:1039E000EDFD0BE01B23009300230193694B029331
:1039F00014200F2150221E23FEF7E0FD6648FEF73B
:103A00008BFD664B1B88002B0DD0002300934FF6D7
:103A1000FF730193624B0293782018213E221B23EF
:103A2000FEF740FF0BE000230093002301935D4B62
:103A30000293782018213E221B23FEF733FF5A48B9
:103A4000FEF76AFD594B1B881B2200920193584BCD
:103A50000293CD200F2150221E23FEF7AFFD4FF021
:103A60004070FEF759FDFB8E00934FF4EB700A2176
:103A70001A224FF40063FEF747FE4E4BD3E90001D4
:103A80004D4BD3E9002303F02DF902460B461446B3
:103A90001D467B681B885B00FA6813441B88184628
:103AA00002F090FF02460B462046294602F0F0FF46
:103AB00002460B4614461D4607F1140318463F49BB
:103AC00022462B4603F0ECFF07F11403184604F0DE
:103AD0000BF803461A4607F114031344384A1188B9
:103AE000927819809A7007F1140300934FF4EB70E9
:103AF00019211A224FF40063FEF7AAFE314BB3F8E6
:103B000000E0314B1E88314B1D88314B1C882A4BFD
:103B1000D3E9002321490988C9B20A200090CDE9E0
:103B20000223FB6804937B8905937B6806930791C6
:103B300043F69E7308934FF47F0309937046314612
:103B40002A462346FFF7C2FB0020FEF7E5FC6FF094
:103B5000FE00FEF7E1FCFEF713FC3C37BD46F0BD6E
:103B6000F589FE1F00213000070000264C8EFE1F45
:103B7000124B8C00EEF8FF042BA9EA006696AD000C
:103B80000D0000033088FE1F549F00085C9F000852
:103B9000609F0008649F00080C000003F889FE1F66
:103BA0006C9F0008749F00080A000003FA89FE1F3A
:103BB0007C9F00080888FE1F1888FE1F849F00084D
:103BC0008C9F00080088FE1F0288FE1F0488FE1FCD
:103BD0000688FE1F80B483B000AF78600B46FB7090
:103BE000FB7801229A407B68DA600C37BD465DF8AD
:103BF000047B704780B483B000AF78607B6801229B
:103C0000DA600C37BD465DF8047B704780B483B042
:103C100000AF78607B6802221A610C37BD465DF800
:103C2000047B704780B483B000AF78600B467B8024
:103C30007A887B685A630C37BD465DF8047B704711
:103C400080B483B000AF78600B467B807A887B6855
:103C5000DA630C37BD465DF8047B704780B483B0EF
:103C600000AF786039607B683A681A610C37BD46EE
:103C70005DF8047B704700BF80B483B000AF78600C
:103C80000B46FB707B68D3F8A420FB78012101FA76
:103C900003F31A437B68C3F8A4200C37BD465DF8D4
:103CA000047B704780B584B000AF78600023FB735D
:103CB0007B6893F8263083F00103DBB2002B09D038
:103CC0007B6893F82130002B04D1786800F008F865
:103CD0000346FB73FB7B18461037BD4680BD00BF13
:103CE00080B584B000AF78607B681B69184600F02F
:103CF00031FE0346FB737B681B699A687B681B7EF9
:103D000010461946FFF766FF7B685A697B68DB69D6
:103D100010461946FDF70AF9786800F02DF87B681F
:103D200093F82530002B0FD07B685A697B6893F895
:103D30002030104600211A46FDF72EF97B685B699A
:103D400018460021FFF798FF7B685B691846FFF76C
:103D50005DFF7B68012283F826207B6893F824307E
:103D6000002B04D07B685B691846FFF743FFFB7BA1
:103D700018461037BD4680BD80B582B000AF786070
:103D80007B685A697B685B8C10461946FFF74AFFCF
:103D90007B685B6918460021FFF752FF7B681B694F
:103DA0009A687B68DB6810461946FFF757FF0837AB
:103DB000BD4680BD80B485B000AFF8600B467A6028
:103DC0007B817989FB687A68203243F822101437A6
:103DD000BD465DF8047B704780B483B000AF786067
:103DE0007B689B6BDBB223F07F03DBB218460C379A
:103DF000BD465DF8047B704780B483B000AF786047
:103E00007B681B6D03F4C04318460C37BD465DF854
:103E1000047B704780B485B000AFF8600B467A60D1
:103E20007B817989FB687A68603243F82210143705
:103E3000BD465DF8047B704780B483B000AF786006
:103E40007B684FF40042C3F818210C37BD465DF87B
:103E5000047B704780B483B000AF78607B68D3F890
:103E6000143103F48053002B14BF01230023DBB271
:103E700018460C37BD465DF8047B704780B483B0AC
:103E800000AF78607B684FF48042C3F818210C378C
:103E9000BD465DF8047B704780B483B000AF7860A6
:103EA0007B68D3F8143103F00803002B14BF0123FF
:103EB0000023DBB218460C37BD465DF8047B704723
:103EC00080B483B000AF786039607B683A68C3F82B
:103ED00018210C37BD465DF8047B704780B483B071
:103EE00000AF78600B46FB707B681B6C23F0C00250
:103EF000FB789B01DBB21A437B681A640C37BD4622
:103F00005DF8047B704700BF80B483B000AF786079
:103F10007B689B6C18460C37BD465DF8047B704788
:103F200080B483B000AF786039607B68DA6C3B683E
:103F30001A437B68DA640C37BD465DF8047B704732
:103F400080B584B000AF78607B685B685B68984739
:103F50000346FB73FB7B18461037BD4680BD00BF90
:103F600080B586B000AFF860B9607A600123FB7558
:103F7000FB685B6893F88430022B06D1F868B96857
:103F80007A6800F021F80346FB75FB7D1846183768
:103F9000BD4680BD80B586B000AFF860B9607A607C
:103FA0000123FB75FB685B6893F88530022B06D113
:103FB000F868B9687A6800F015F90346FB75FB7D6F
:103FC00018461837BD4680BD90B589B000AFF8607F
:103FD000B9607A600123BB610223FB77FB689B68B1
:103FE0007B610023BB83BB68002B00F0F0807B6803
:103FF000002B00F0EC807B6993F82030DBB283F07B
:104000000103DBB2002B00F0E180FB689B681B68BA
:10401000082B01D90223BB617B69012283F8202090
:104020007B69BA689A61BB69013B1A467B6803FAEF
:1040300002F27B695A607B6900229A60FB681A6809
:104040007B691B7FDBB210461946FFF747FFFB6811
:104050005B6893F87C30002B4BD0FB681B681846DC
:10406000FFF7EAFE3EE000BFFB681B681846FFF75B
:10407000F1FE0346002BF7D17B6993F82130DBB2C8
:10408000002B0BD0FB681A687B691B7FDBB21046E4
:104090004FF6FF711A46FFF7BDFE1DE0BB69022B0C
:1040A00007D17B699A697B699B6813441B88BB8332
:1040B00006E07B699A697B699B6813441B78BB8324
:1040C000FB681A687B691B7FDBB21C46BB8B104602
:1040D00019462246FFF79EFE7B699A68BB691A441F
:1040E0007B699A607B699A687B695B689A42BAD3FC
:1040F00056E000BFFB681B681846FFF76DFE0346DD
:10410000802BF7D07B6993F82130DBB2002B0BD0EA
:10411000FB681A687B691B7FDBB210464FF6FF71A4
:104120001A46FFF747FE1DE0BB69022B07D17B69EA
:104130009A697B699B6813441B88BB8306E07B6993
:104140009A697B699B6813441B78BB83FB681A6878
:104150007B691B7FDBB21C46BB8B1046194622468F
:10416000FFF728FE7B699A68BB691A447B699A60ED
:1041700000BFFB681B681846FFF7C6FE034603F442
:104180008063002BF5D0FB681B6818464FF48061F4
:10419000FFF7C6FE7B699A687B695B689A42A8D381
:1041A00000BFFB681B681846FFF716FE0346802B0E
:1041B000F7D07B69002283F820207B6900225A60B7
:1041C0007B6900229A600023FB7702E001E0032371
:1041D000FB777B69012283F82220FB7F1846243776
:1041E000BD4690BD80B586B000AFF860B9607A601A
:1041F0000223FB75FB689B683B61BB68002B33D0D7
:104200007B68002B30D03B69DB7FDBB283F001039E
:10421000DBB2002B27D03B6993F82030DBB283F070
:104220000103DBB2002B1ED03B690122DA773B6928
:10423000BA685A613B69104A9A613B69012283F866
:1042400021203B69002283F82220F868796800F079
:1042500015F80346FB753B69002283F821203B6972
:104260000022DA7702E001E00323FB75FB7D1846AC
:104270001837BD4680BD00BF6488FE1F90B587B06B
:1042800000AF7860396001237B617B689B68FB60CD
:1042900000237B82FB6800221A61FB6800229A607F
:1042A0007B689B681B68082B01D902237B617B69B3
:1042B000013B1A463B6803FA02F2FB68DA607B684E
:1042C0001A68FB681B7FDBB210461946FFF706FE33
:1042D0007B685B6893F87D30002B00F0D6807B68AC
:1042E0001B681846FFF7CAFD7B681B68184600F07C
:1042F000C5F9FB6893F82130DBB2002B0BD07B684B
:104300001A68FB681B7FDBB210464FF6FF711A4636
:10431000FFF780FD1DE07B69022B07D1FB689A69DE
:10432000FB689B6813441B887B8206E0FB689A69E4
:10433000FB689B6813441B787B827B681A68FB6868
:104340001B7FDBB21C467B8A104619462246FFF7CC
:1043500061FDFB689A687B691A44FB689A6061E0BA
:10436000FB6893F82130DBB2002B0BD07B681A6816
:10437000FB681B7FDBB210464FF6FF711A46FFF752
:1043800049FD1DE07B69022B07D1FB689A69FB6838
:104390009B6813441B887B8206E0FB689A69FB6874
:1043A0009B6813441B787B827B681A68FB681B7FC1
:1043B000DBB21C467B8A104619462246FFF72AFDCF
:1043C00000BF7B681B681846FFF766FD0346002B9D
:1043D000F7D17B681B681846FCF798FE03467B8282
:1043E000FB685A69FB681B6913447A8AD2B21A7057
:1043F0007B69022B0AD1FB685A69FB681B69013390
:1044000013447A8A120A92B2D2B21A70FB681A69FD
:104410007B691A44FB681A61FB689A687B691A44D5
:10442000FB689A60FB689A68FB68DB689A4297D3DE
:1044300000BF7B681B681846FFF72EFD0346002B64
:10444000F7D17B681B681846FCF760FE03467B8249
:10445000FB685A69FB681B6913447A8AD2B21A70E6
:104460007B69022B0AD1FB685A69FB681B6901331F
:1044700013447A8A120A92B2D2B21A707B681B680D
:1044800018460521FFF71CFDE9E07B681B6818460C
:1044900000F0F4F800BF7B681B681846FFF79CFC2F
:1044A0000346802BF7D0FB6893F82130DBB2002B5A
:1044B0000BD07B681A68FB681B7FDBB210464FF697
:1044C000FF711A46FFF776FC1DE07B69022B07D1CE
:1044D000FB689A69FB689B6813441B887B8206E033
:1044E000FB689A69FB689B6813441B787B827B6836
:1044F0001A68FB681B7FDBB21C467B8A1046194694
:104500002246FFF757FCFB689A687B691A44FB68F0
:104510009A6071E000BF7B681B681846FFF75CFC7F
:104520000346802BF7D0FB6893F82130DBB2002BD9
:104530000BD07B681A68FB681B7FDBB210464FF616
:10454000FF711A46FFF736FC1DE07B69022B07D18D
:10455000FB689A69FB689B6813441B887B8206E0B2
:10456000FB689A69FB689B6813441B787B827B68B5
:104570001A68FB681B7FDBB21C467B8A1046194613
:104580002246FFF717FC00BF7B681B681846FFF741
:1045900033FC0346002BF7D07B681B681846FCF7FA
:1045A000B5FD03467B82FB685A69FB681B691344AF
:1045B0007A8AD2B21A707B69022B0AD1FB685A69D7
:1045C000FB681B69013313447A8A120A92B2D2B291
:1045D0001A70FB681A697B691A44FB681A61FB68E8
:1045E0009A687B691A44FB689A607B681B68184666
:1045F0004FF44041FFF794FCFB689A68FB68DB6866
:104600009A4287D300BF7B681B681846FFF7F4FB0C
:104610000346002BF7D07B681B681846FCF776FD35
:1046200003467B82FB685A69FB681B6913447A8ADC
:10463000D2B21A707B69022B0AD1FB685A69FB68F7
:104640001B69013313447A8A120A92B2D2B21A70E9
:104650007B681B6818464FF44041FFF761FCFB681C
:104660000022DA60FB6800221A61FB6800229A606F
:10467000002318461C37BD4690BD00BF80B582B0F0
:1046800000AF78607868FCF741FD7868FCF73EFD84
:104690000837BD4680BD00BF80B483B000AF7860EE
:1046A0000B46FB701346BB70F878FB787A680633CC
:1046B0009B0013445B6823F00702BB781A437968B8
:1046C000831D9B000B445A600C37BD465DF8047B8C
:1046D000704700BF80B483B000AF78600B46FB70BA
:1046E0007B685B6B23F07062FB78013B1B061A430F
:1046F0007B685A630C37BD465DF8047B704700BF8A
:1047000080B483B000AF78600B46FB707B685B6B56
:1047100023F47C12FB78013B1B041A437B685A6329
:104720000C37BD465DF8047B704700BF80B485B090
:1047300000AFF860B9607A60FB685B6923F05042B3
:10474000BB681A437B681A43FB685A611437BD463D
:104750005DF8047B704700BF80B483B000AF786021
:104760000B46FB707B681B6C23F00F02FB781A432F
:104770007B681A640C37BD465DF8047B704700BF48
:1047800080B582B000AF786078680121FFF7E4FF60
:104790000837BD4680BD00BF80B483B000AF7860ED
:1047A0007B685B6B43F001027B685A630C37BD4644
:1047B0005DF8047B704700BF80B483B000AF7860C1
:1047C00039607B685B6923F4FE423B68013B9B02D6
:1047D000134343F480727B685A610C37BD465DF821
:1047E000047B704780B483B000AF78607B68DB6B7C
:1047F00023F008027B68DA630C37BD465DF8047B62
:10480000704700BF80B584B000AFF860B9607A60CF
:10481000F868B9687A68FFF789FF1037BD4680BD30
:1048200080B582B000AF78600B46FB70FB7878688B
:104830001946FFF74FFF0837BD4680BD80B582B0EF
:1048400000AF78600B46FB70FB7878681946FFF77D
:1048500057FF0837BD4680BD80B582B000AF786095
:104860000B46FB701346BB70F878FB787A6806330A
:104870009B0013445B6823F0500343F010027968F7
:10488000831D9B000B445A60FA78BB787868114608
:104890001A46FFF701FF0837BD4680BD80B582B0DC
:1048A00000AF0023FB711E481E49FCF7EFFB1C48BC
:1048B000FFF798FF1A48FFF76FFF19480821FFF725
:1048C000AFFF17481821FFF7B9FF15484FF0004117
:1048D0000022FFF797FF12480221FFF76DFF1248F1
:1048E0000121124AFBF750FD0D4800210022FFF77D
:1048F000B3FF0B48FFF744FF0B4800210C4AFBF7BE
:1049000043FD094802210B4AFBF73EFD04481021F4
:104910000022FCF751FDFB7918460837BD4680BDE3
:10492000004002487C88FE1F00850248008AFE1F66
:104930006888FE1FACEE000880B483B000AF7860DA
:104940007B684FF48072DA600C37BD465DF8047BFB
:10495000704700BF80B582B000AF78607B685B7B3A
:1049600083F00103DBB2002B0FD07B689A687B6871
:104970001B7B10461946FCF7BBFA7B689B68184600
:10498000FFF7DAFF7B6801225A73002318460837C5
:10499000BD4680BD80B483B000AF786039607B686D
:1049A000D3F880203B681033194601238B401A430B
:1049B0007B68C3F880200C37BD465DF8047B7047E8
:1049C00080B584B000AF78607B681B7E022B49D134
:1049D0007B685A697B681B6910461946FCF7D4FD51
:1049E0000023FB602FE07B68FA6853F822301968D7
:1049F0007B68FA6853F822305B6808461946FCF772
:104A000067FE7B68FA6853F822301B68184603215A
:104A1000FCF7EEFE7B68FA6853F822301B7A83F0CD
:104A20000103DBB2002B05D07B685B691846F9688F
:104A3000FFF7B0FF7B68FA6853F8223000225A7201
:104A4000FB680133FB60FB68032BCCD97B685B7E82
:104A5000002B04D07B685B691846FCF7E3FD7B689C
:104A600000221A767B681B7E18461037BD4680BD33
:104A700080B582B000AF78607B6819687B681A7C6B
:104A80007B680433084611461A46FBF77DFC7B68B9
:104A900019687B681A7C7B685B7C084611461A465D
:104AA000FCF7D2FA002318460837BD4680BD00BF88
:104AB00080B485B000AF78607B6803F00703FB60CB
:104AC0000C4BDB68BB60BA684FF6FF031340BB605A
:104AD000FB681A02BB68134343F0BF6343F400331F
:104AE000BB60044ABB68D3601437BD465DF8047BE5
:104AF000704700BF00ED00E080B582B000AF01203C
:104B0000FFF7D6FF72B6214B214A9A60BFF34F8F51
:104B100062B61E4A1D4BD3F8883043F47003C2F8C6
:104B200088301C4B03F5805314331B687B607B6813
:104B300023F00F037B607B6843F004037B60154B1D
:104B400003F5805314337A681A60104A0F4B5B697F
:104B500023F0100353610D4A0C4B5B6923F00803EB
:104B600053610A4A094B5B6A23F480335362074A54
:104B7000064B5B6A23F400335362044A034B5B6ABF
:104B800023F4802353620837BD4680BD00ED00E06A
:104B9000000000080010005880B485B000AF7860B5
:104BA0000023FB737B6801221A70FB7B18461437C5
:104BB000BD465DF8047B704780B400AF024B1846D9
:104BC000BD465DF8047B7047001BB700B0B586B0EA
:104BD00000AF124B3C1D1D460FCD0FC42B68236048
:104BE0003B1D1846FBF7CAFC0020FBF7E9FD00203F
:104BF000FBF79EFD0420FBF76FFE01202021FBF751
:104C0000F7FE0020FBF7A8FD0120FBF78DFE012039
:104C1000FBF776FE1837BD46B0BD00BFDCEF0008DD
:104C200080B400AF044BDB6803F4E0631B0A184652
:104C3000BD465DF8047B704700ED00E080B483B0B2
:104C400000AF0346FB7197F90730002B0BDB0849D7
:104C500097F907305B09FA7902F01F02012000FA88
:104C600002F241F823200C37BD465DF8047B704703
:104C700000E100E080B483B000AF03463960FB710F
:104C800097F90730002B0ADB0D4997F907303A688E
:104C9000D2B29200D2B20B4483F800230AE0094951
:104CA000FB7903F00F03043B3A68D2B29200D2B210
:104CB0000B441A760C37BD465DF8047B704700BF85
:104CC00000E100E000ED00E080B489B000AFF860E2
:104CD000B9607A60FB6803F00703FB61FB69C3F10D
:104CE0000703062B28BF0623BB61FB690633062B8F
:104CF00002D9FB69013B00E000237B61BB69012213
:104D000002FA03F35A1EBB681A407B699A407B691A
:104D1000012101FA03F3591E7B680B401343184627
:104D20002437BD465DF8047B704700BF80B483B074
:104D300000AF78607B68D3F8043243F400727B687C
:104D4000C3F804220C37BD465DF8047B704700BFF2
:104D500080B485B000AFF860B9607A60FB68BA686B
:104D6000603253F822207B68012101FA03F342EA02
:104D70000301FB68BA68603243F822101437BD465D
:104D80005DF8047B704700BF80B485B000AFF86069
:104D9000B9607A607B681968FB68BA68A03243F82A
:104DA00022101437BD465DF8047B704780B483B091
:104DB00000AF786039607B683A68C03253F82230BF
:104DC0009BB218460C37BD465DF8047B704700BFA8
:104DD00090B585B000AF78607B681B7E022B40F0F9
:104DE00099807B68DB681846FFF7EAFD0346BB73D2
:104DF0007B68DB685A697B689B68104619680022EB
:104E00000023FCF7EBFB7B68DB685A697B685B6817
:104E100010461946FCF708FD0023FB732EE07B6863
:104E20001B68FA7B53F82230BB60BB689A68BB688A
:104E30005B7B1946BB681B6810461A46FCF772FD7F
:104E4000BB689A68BB681B689B78C3F30303DBB23B
:104E50001946BB685B6810461A46FFF795FF7B68EA
:104E6000DB685A69BB681B7B1946BB685B7B1046D5
:104E70001A46FFF76DFFFB7B0133FB73FB7B002BB7
:104E8000CDD07B685B681B7A03F00803DBB2002B94
:104E90002CD07B681B69002B28D07B681B691B68A2
:104EA000DCB2FFF7BDFE01467B681B695A687B6870
:104EB0001B699B68084611461A46FFF705FF024624
:104EC00063B218461146FFF7D5FE7B68DB685A6966
:104ED0007B685B7E10461946FCF7D6FB7B681B6936
:104EE0001B68DBB25BB21846FFF7A8FE7B685B6904
:104EF000002B02D07B685B6998477B689B7E002B08
:104F000005D07B68DB685B691846FFF70FFF7B689D
:104F1000BA7B1A767B681B7E18461437BD4690BD57
:104F200080B584B000AF78607B689A687B681B6846
:104F30009B78C3F30303DBB210461946FFF736FF35
:104F40000346FB81FB8918461037BD4680BD00BF74
:104F500080B582B000AF0023FB711948FFF71CFE3B
:104F60000346FB71FB79002B04D11648FEF7E8FFDE
:104F70000346FB71FB79002B04D11348FFF778FD42
:104F80000346FB71FB79002B04D11048FFF770FD3D
:104F90000346FB71FB79002B04D10D48FFF718FF86
:104FA0000346FB71FB79002B04D10A48FEF77AFE19
:104FB0000346FB71FB7918460837BD4680BD00BF2C
:104FC000148AFE1FAC88FE1FB4EF0008C8EF00086B
:104FD0003889FE1F3C88FE1F80B483B000AF0346B3
:104FE0003960FB7197F90730002B0ADB0D4997F9FF
:104FF00007303A68D2B29200D2B20B4483F8002351
:105000000AE00949FB7903F00F03043B3A68D2B286
:105010009200D2B20B441A760C37BD465DF8047B81
:10502000704700BF00E100E000ED00E080B582B015
:1050300000AF78607B68013BB3F1807F01D301232F
:105040000FE00A4A7B68013B53604FF0FF303F217D
:10505000FFF7C2FF054B00229A60044B07221A603B
:10506000002318460837BD4680BD00BF10E000E0B1
:1050700080B483B000AF78600B46FB70FB780122F0
:105080009A407B685A600C37BD465DF8047B7047D8
:1050900080B582B000AF78607B681A687B681B7C43
:1050A00010461946FFF7E4FF0837BD4680BD00BF34
:1050B00098B500AF664B1B8801339AB2644B1A80D7
:1050C000634B1B88B3F5DC7F05D3624B01221A705A
:1050D0005F4B00221A80604B1B78DBB2032B00F27F
:1050E0009F8001A252F823F0F950000811510008E6
:1050F0004D51000893510008554B1B881C465748DA
:10510000FFF70EFF03461A46554B23F8142087E09D
:105110004F4B1B88534AA2FB03129209582101FBF3
:1051200002F29B1A9BB2002B07D0494B1B881A46F0
:105130004B4B002123F8121072E0454B1B881A4696
:10514000474B40F6FF7123F8121069E0464B1B688D
:1051500040F6FE7293420BD83D4B1B881A46424BD9
:105160001B689BB20E3399B23D4B23F8121006E038
:10517000374B1B881A463A4B002123F81210344B48
:105180001B881A46364B33F812301A46364B1A60D3
:1051900046E02F4B1B881C46344B1B68184601F019
:1051A00001FC02460B461046194623A3D3E900230F
:1051B00001F098FD02460B461046194620A3D3E99C
:1051C000002301F065FC02460B461046194600F02C
:1051D000DFF902460B46104619464FF00002244BF9
:1051E00001F0A4FA02460B46104619464FF00002A1
:1051F000204B01F04DFC02460B461046194612A307
:10520000D3E9002301F044FC02460B461046194640
:1052100001F000FF03469AB2114B23F8142000BF9F
:10522000154B2A221A70114B1B6801330F4A136069
:1052300098BD00BFAFF30080000000000070A740E1
:10524000A5C226FAE66A52400000000000FEAF4008
:105250001C8AFE1FF689FE1F3088FE1F2489FE1F50
:10526000208AFE1FA38B2EBA9C8DFE1F988DFE1FD9
:105270000000F03F0000E03F908DFE1FAFF3008084
:1052800080B400AF044B1B680133034A1360BD4672
:105290005DF8047B704700BF948DFE1F80B485B01D
:1052A00000AF7860084B1B68FB6000E000BFFA6845
:1052B0007B681A44044B1B689A42F7D81437BD46E2
:1052C0005DF8047B704700BF948DFE1F80B582B0EF
:1052D00000AFFFF73DFE0346BB71BB79002B00D04A
:1052E000FEE71D4B1B681D4AA2FB03235B09184602
:1052F000FFF79CFE0023FB711948FFF7C9FEFEF77C
:1053000029FAFEF71BF9174B00221A6000E000BFD4
:10531000144B1B68B3F5167FF9D3FEF751F9124B06
:105320001B78DBB2002B15D00F4B00221A70FEF752
:105330004FFAFB790133FB710C4B1B6803F003033D
:10534000002B07D10023FB7109484FF4DC71094A97
:10535000FEF7D8FAE3E700BFC0FF0320398EE33839
:10536000C8EF0008948DFE1F908DFE1F988DFE1FC4
:10537000208AFE1F1C8AFE1F2DE9F843C1F30A573D
:10538000A7F2FF35132D02460B460C46864688468B
:1053900006461FDC002D4EDB374F2F4107EA010C7C
:1053A0005CEA0E0E1BD032A3D3E9002301F0BEF954
:1053B0000022002301F0FCFD40B1002C03DD4FF47E
:1053C00080132B41984428EA0704002621463046E2
:1053D000BDE8F883332D06DDB5F5806F3DD010466E
:1053E0001946BDE8F883A7F2134E4FF0FF3929FAAA
:1053F0000EF919EA000FF2D01DA3D3E9002301F042
:1054000095F90022002301F0D3FD0028DED0002C06
:105410000ADD142D06D0C7F5866703370124BC408A
:10542000A61901D308F10108444626EA09062146D7
:105430003046BDE8F8830EA3D3E9002301F076F9E6
:105440000022002301F0B4FD0028BFD0002C0ADBAD
:10545000264306D0094C0026B8E701F067F9BDE8FD
:10546000F8833446B2E700264FF00044AEE700BFB1
:105470009C7500883CE4377EFFFF0F000000F03F82
:105480002DE9F843C1F30A58A8F2FF35132D02465F
:105490000B460C460746894606461DDC002D40DBC0
:1054A000DFF8E88048FA05F808EA010E5EEA070727
:1054B00017D034A3D3E9002301F038F900220023E8
:1054C00001F076FD20B1002C3FDB29EA080400261C
:1054D00021463046BDE8F883332D06DDB5F5806FF3
:1054E0002FD010461946BDE8F883A8F2134E4FF0AE
:1054F000FF3727FA0EF70742F3D022A3D3E90023A0
:1055000001F014F90022002301F052FD0028DFD041
:10551000002C1FDB4C4626EA070621463046BDE834
:10552000F88318A3D3E9002301F000F90022002337
:1055300001F03EFD0028CBD0002C19DB00263446BC
:10554000C6E701F0F3F8BDE8F8834FF480132B4170
:105550009944BAE7142D08D0C8F5866808F1030805
:10556000012303FA08F39E19D4D309F10109D1E705
:1055700024F00042024B3A4318BF1C460026A7E71E
:105580000000F0BF9C7500883CE4377EFFFF0F00F1
:1055900030B5224A21F00043934287B01CDD204AF7
:1055A000934205DD02460B4601F0BEF807B030BD60
:1055B00002AA00F039F800F0030001281DD00228EB
:1055C00012D008B3DDE90201DDE9042300F04CFA52
:1055D00001F1004107B030BD0023009300220023F9
:1055E00000F056FF07B030BD0124DDE90201DDE91E
:1055F0000423009400F04CFFEAE7DDE90201DDE955
:10560000042300F031FAD1E70124DDE90201DDE9EC
:105610000423009400F03CFFC8E700BFFB21E93FF2
:10562000FFFFEF7F000000002DE9F04F984B21F0C5
:1056300000449C428FB006460F468A46154640F30A
:105640008280944B9C4227DC002987A3D3E9002366
:1056500040F3A48101F068F88F4B9C4206460F4648
:1056600000F0888082A3D3E9002301F05DF80246B0
:105670000B46C5E900233046394601F055F87CA3B6
:10568000D3E9002301F050F84FF0010BC5E9020106
:1056900058460FB0BDE8F08F804B9C4240F38880A5
:1056A0007F4B9C425BDC4FEA245BABF2164BA4EBD6
:1056B0000B518946804601F085FC01F083F90646CE
:1056C0000F4632463B4640464946CDE9086701F061
:1056D0002BF80022734B01F0DBF98946804601F07C
:1056E00071FC01F06FF906460F4632463B464046D4
:1056F0004946CDE90A6701F017F80022694B01F02D
:10570000C7F900220023CDE90C0101F029FC002893
:1057100000F06D81002330463946002201F020FC64
:10572000002814BF0123022302225F490092019145
:105730005A4608A8294600F0BFFABAF1000FC0F295
:105740004B81834607E000220023C5E90067C5E9D5
:1057500002234FF0000B58460FB0BDE8F08F024611
:105760000B4600F0E1FF4FF0000BC5E90201C5E96F
:105770000001F0E740A3D3E9002300F0D5FF40A3E8
:10578000D3E9002306460F4600F0CEFF02460B4643
:10579000C5E900233046394600F0C6FF38A3D3E9F7
:1057A000002300F0C1FF4FF0010BC5E90201D2E771
:1057B00000F026FF34A3D3E9002306460F4601F08C
:1057C00067F90022394B00F0B1FF01F0FBFB834683
:1057D00001F0F8F824A3D3E90023CDE9040101F096
:1057E00057F902460B463046394600F09DFF20A38C
:1057F000D3E9002306460F46DDE9040101F048F92C
:10580000BBF11F0FCDE902013046394652DC284B6F
:105810000BF1FF3253F82230A3424BD0DDE90223D3
:1058200000F082FF80468946C5E9008942464B4622
:105830003046394600F078FFDDE9022300F074FFBE
:10584000BAF1000FC5E9020185DA09F1004401F15E
:105850000043CBF1000BC5F800806C60A860EB60E2
:1058600079E700BFAFF3008000004054FB21F93F0F
:105870003163621A61B4D03D0000601A61B4D03D5A
:105880007370032E8A19A33B83C8C96D305FE43F50
:10589000FB21E93F7BD90240FB21F93FFB21394144
:1058A000FFFFEF7F000070418CF000080000E03F38
:1058B0000CF00008DDE9022300F036FF2415C1F3E7
:1058C0000A53E31A80468946102BC5E90089ADDDED
:1058D0005BA3D3E90023DDE9040101F0D9F8804698
:1058E000894642464B463046394600F01DFFCDE919
:1058F0000601DDE906233046394600F015FF424631
:105900004B4600F011FF50A3D3E9002306460F4693
:10591000DDE9040101F0BCF832463B4600F004FF2B
:10592000CDE90201DDE90223DDE9060100F0FCFE1C
:10593000C1F30A53E41A80468946312CC5E900892F
:1059400075DD44A3D3E90023DDE9040101F0A0F8EB
:105950008046894642464B46DDE9060100F0E4FEFA
:1059600006460F4632463B46DDE9060100F0DCFE06
:1059700042464B4600F0D8FE38A3D3E900238046C8
:105980008946DDE9040101F083F842464B4600F008
:10599000CBFECDE90201304639463FE700F0C6FEB6
:1059A0002B4B9C4206460F4623D023A3D3E900236A
:1059B00000F0BCFE02460B46C5E9002330463946DE
:1059C00000F0B2FE1CA3D3E9002300F0AFFE4FF0BD
:1059D000FF3BC5E90201BEE66A68EB6802F10042DE
:1059E00003F10043C0F1000B6A60EB60B3E60323F0
:1059F0009AE613A3D3E9002300F098FE12A3D3E99B
:105A0000002306460F4600F091FE02460B46C5E90C
:105A100000233046394600F087FE0BA3D3E900236C
:105A200000F084FE4FF0FF3BC5E9020193E6DDE99B
:105A30000667FBE6AFF300803163621A61B4D03DC4
:105A40000000601A61B4D03D7370032E8A19A33B25
:105A5000FB21F93F0000002E8A19A33BC1492025F4
:105A60009A837B39AFF300802DE9F04F21F0004994
:105A7000B9F1795F85B006460F4692469B466BDAD0
:105A800001F0A0FA002800F0EA8032463B4630469A
:105A9000394600F0FDFF74A3D3E9002304460D4608
:105AA00000F0F6FF72A3D3E9002300F03FFE224688
:105AB0002B4600F0EDFF70A3D3E9002300F034FE85
:105AC00022462B4600F0E4FF6DA3D3E9002300F04B
:105AD0002DFE22462B4600F0DBFF6BA3D3E900230B
