:020000040C00EE
:100000000088FE1F010200089902000899020008FA
:1000100099020008990200089902000800000000F7
:10002000000000000000000000000000990200082D
:10003000990200080000000099020008E940000849
:100040009902000899020008990200089902000824
:100050009902000899020008990200089902000814
:1000600099020008000000000000000000000000ED
:100070009902000800000000990200089902000897
:10008000817A000899020008990200089902000884
:1000900099020008990200089902000899020008D4
:1000A00099020008990200089902000899020008C4
:1000B00099020008990200089902000899020008B4
:1000C00099020008990200089902000899020008A4
:1000D0009902000899020008990200089902000894
:1000E0009902000899020008990200089902000884
:1000F0009902000899020008990200089902000874
:100100009902000899020008990200089902000863
:100110009902000899020008990200089902000853
:100120009902000899020008990200089902000843
:100130009902000899020008990200089902000833
:100140009902000899020008990200089902000823
:100150009902000899020008990200089902000813
:10016000000000000000000000000000000000008F
:1001700099020008990200089902000899020008F3
:1001800099020008990200089902000899020008E3
:1001900099020008990200089902000899020008D3
:1001A00099020008990200089902000899020008C3
:1001B00099020008990200089902000899020008B3
:1001C00099020008990200089902000899020008A3
:1001D0009902000899020008990200080000000036
:1001E0009902000899020008714A00089902000863
:1001F00099020008000000009902000800000000B9
:10020000DFF874D01D4880471D4C1E4DAC4209DA02
:1002100021686268A368043BA2BFC858D050FAE7BF
:100220000C34F3E7184B194CA34208DA19685A68E2
:100230000020043AA4BF8850FBE70833F4E71448D1
:100240008047144880470000884D010C0088FE1F3D
:10025000D8070000884D010C0088FE1F0000000038
:10026000D88FFE1F081100000000002000000000D1
:1002700000000020000000000088FE1F2503000889
:1002800048020008600200086002000878020008C6
:1002900051B20008217A0008FEE700001D4BDB6820
:1002A000D90310B525D51C4BDA6812F0010F1C4696
:1002B00002D107F083FA00E018482268164B520773
:1002C00010D59A6899689B68C2F30362C3F3064429
:1002D000531C04FB0333B0FBF3F0C1F3062303FB11
:1002E000000007E09B6803F07F030133B0FBF3F0ED
:1002F00000E00A48074AD368DBB20133B0FBF3F0F1
:10030000136903F001030133B0FBF3F0044B1860F1
:1003100010BD00BF004600501047005000366E016F
:10032000C0FF032038B5094A094D4FF00054234659
:1003300003CBAB42106051601C4602F10802F6D1BB
:1003400007F0FCF907F03EFA38BD00BFC4FF0320F8
:1003500010000020000000002DE9F04FADF5457DB4
:100360001746044630220E460EA800211D460AF00C
:10037000B0FF002168221AA80AF0ABFF34A80021C0
:100380004FF410720AF0A5FFAF4240F22E81052D06
:1003900000F22B8104EB87030793A046079B984547
:1003A0002FD058F8040B0AF0C3FBCDE9020156F830
:1003B000040B0AF0BDFB9FED907BCDE904018DEDB0
:1003C000007B0DF1380A4FF000096B1C9945E5D20E
:1003D000DDE90023DDE904010AF0FEFB02460B46DD
:1003E000DAE900010AF046FADDE90223EAE802014F
:1003F000DDE900010AF0F0FB09F10109CDE9000196
:10040000E3E738460AF072FB6B1CCDE91A01009352
:100410005B00029303F1010B079B9C421FD054F831
:10042000040B0AF085FBCDE904011CAE8046894629
:100430004FF0010A42464B46D6E900010AF01AFA8B
:10044000DDE90423E6E80201404649460AF0C4FB20
:100450000AF1010ADA4580468946EBD3DCE7009BC6
:100460004FEA031AEB000493049A34AB9A18049BE6
:10047000002008330AF1080607930146009B9942C1
:1004800018D2CF0000231C1834AD2C440DF1680E97
:10049000DD197544D5E90089C4E90089079C083352
:1004A000A342F0D1564D0024C2E902450131324445
:1004B0005044E3E74FEACB03029A08936FF0070337
:1004C000002453430993A346254634AB5B44D3E948
:1004D000008900224046494600230AF0E5FD002835
:1004E00040F0838034AB1F190646D7E900014B4624
:1004F00042460AF09BFC029B01369E42E7E802015D
:10050000F3D1EB00002634AF0C93B046A84508D1D8
:10051000099B1E44009B08F1010898455744F5D3F8
:1005200023E00C9BFB1893ED007B8DED0A7BB94615
:100530004FF0000C09EB06032344D3E90023DDE967
:100540000A01CDF834C00AF047FB0B460246D9E950
:1005500000010AF08DF9DDF834C0029B0CF1010CAA
:100560009C45E9E80201E5D3D2E7089B9B44009B48
:1005700001359D425444A8D3029BDDF838A3DB002B
:1005800000250293AB46049B03F108072F44002685
:1005900000244FF000084FF00009E21934AB1A4470
:1005A0000EAB2344D2E90001D3E900230AF014FB87
:1005B0000B460246494640460AF05CF9079B083460
:1005C0009C4280468946E8D10AF0E8FD009B01364E
:1005D0009E42DDD3029B4AF8040B1D44009B0BF1A5
:1005E000010B9B45CFD3002000E0FF200DF5457D9A
:1005F000BDE8F08FAFF30080000000000000F03F86
:100600000000F03FAFF3008001F0FC030344F0B5BD
:1006100001F003041E69E400F825A54026EA05055B
:100620001D61466F4F000325BD4026EA050545675D
:10063000164DA84203D005F58075A84207D1056E76
:10064000012606FA01F125EA0101016618E092F996
:100650000050002D14DA55688D404560CD0800EB40
:10066000850001F00701066C890007258D4026EA08
:1006700005050564167A056C06FA01F12943016443
:1006800012781969A2400A431A61F0BD008E02482F
:10069000184B5B68DB0710B5044629D400F080F9DD
:1006A00008B900F063F9208A00F05AFB124BD3F826
:1006B000C42012F4006F1A46F8D103F520632168B4
:1006C0001962D2F8C410C804FBD462685A620A4B9B
:1006D000D3F8C42012F4007F1A46F8D103F5206342
:1006E000A1689961D2F8C4104905FBD4E268DA61C7
:1006F000002010BD004A005000400050044BD3F8C9
:10070000C4305B04FAD4034A13691843106170477C
:1007100000400050004A005010B50446FFF7BEFDEF
:10072000064B07481B68B3FBF0F303FB04F0002300
:10073000834202D000BF0133FAE710BDC0FF03209F
:1007400040420F00020F0C235343024A20F0704036
:10075000985070471444005020F070420C23000F52
:10076000584303F1A04303F58843C3581A4214BF0A
:100770000120002070470000034B044A5B691068A9
:1007800003F00103D840704700460050C0FF03202B
:10079000034AD36823F480331843D060704700BF06
:1007A00000460050034A936923F480331843906154
:1007B000704700BF00460050034A536A23F4403399
:1007C00018435062704700BF00460050064AD36885
:1007D00020B923F4807323F0010303E043F4807312
:1007E00043F00103D360704710470050054BD3F826
:1007F000C4301B07FAD4044AD36823F040031843DB
:10080000D06070470040005000430050054BD3F8C3
:10081000C4301B07FAD4044AD36823F0800318437A
:10082000D06070470040005000430050034AD36836
:10083000013823F0FF030343D360704700460050A4
:10084000034A136A013823F001030343136270471C
:1008500000460050034A1369013823F001030343A3
:100860001361704700460050034A5369013823F072
:10087000010303435361704700460050034A9369E4
:10088000013823F00703034393617047004600508B
:10089000034AD369013823F03F030343D361704710
:1008A00000460050034A536A013823F0FF03034314
:1008B0005362704700460050014B5860704700BFBC
:1008C00000460050020F0C235343024A20F07040B0
:1008D000985070474846005020F070420C23000F9B
:1008E0005843034BC3581A4214BF012000207047DD
:1008F000404600500F4B5A6942F001025A615A6952
:1009000001380139000642F0100240EA01215A6123
:1009100059615A6942F040025A615A6922F0100244
:100920005A615A6942F480225A611A695207FCD509
:10093000704700BF1047005010B50B4C636801288A
:1009400043F4801363600AD1636823F48013636007
:100950006420FFF7E1FE636843F4002363606420D2
:10096000BDE81040FFF7D8BE104700500A4B1A6888
:10097000D20704D5094B1A68900506D470470122A6
:100980005A601A68D107FCD5F4E74FF400729A60F8
:100990001A689205FCD47047004200500044005091
:1009A000054B186810F001001EBFD3F8000280F458
:1009B0000070C0F34020704700420050034B18689D
:1009C00080F00800C0F3C000704700BF0043005033
:1009D000104B4FF40002DA600F4AD16921F0300168
:1009E000D16159680802FCD50A494FF40030C8604B
:1009F000082151605A689103FCD5064A4FF4002142
:100A0000D1600549CA6842F00802CA605A681203F8
:100A1000FCD57047744000500043005070B50C4D39
:100A20000C4E6B6823F480336B60746806F0C6FE6E
:100A3000094BB0FBF3F024F47023013823F03003AA
:100A400043EA004373606B6823F400336B6070BD4E
:100A50001047005000470050A0252600044B18689E
:100A600000F46070A0F5607358425841704700BFB1
:100A700010470050034A536823F4803323F00203E5
:100A80005360704710470050034A536843F4803363
:100A900043F002035360704710470050054A9368C3
:100AA000013823F4FE0343EA004393603220FFF74A
:100AB00033BE00BF104700502DE9F0410C460546FB
:100AC00090461F46069EFFF781FE012C314C52D105
:100AD00035B906F073FE304DB0FBF5F0800501E04E
:100AE0004FF0C060636843F001036360636843F0E4
:100AF00010036360A168294B08F1FF320B4043EA01
:100B000002637A1E43EA022278431823B0FBF8F509
:100B1000B5FBF3F39B0D013B42EA0343A36063681B
:100B200043F040036360636823F01003636063680D
:100B300043F4802363602368164A5907FBD5536842
:100B400023F0010353602368DA07FCD43C20B5FB93
:100B5000F0F0800D864201D2FFF7A0FF5A20B5FBCE
:100B6000F0F0800D864201D2FFF798FF3046BDE8D5
:100B7000F041FFF793BFA368013E23F07F031E43BC
:100B8000A660636843F0010363602368DB07FCD55C
:100B9000BDE8F0811047005040420F00FF8080F018
:100BA00037B504460020FFF7F3FDFFF7DFFEE379DA
:100BB0001BB9607AFFF72AFE06E0FFF709FFFFF78F
:100BC000FDFE0028FBD0F4E71B4BD3F8C430002B0C
:100BD000FAD1207AFFF7B0FE207CFFF727FE607C79
:100BE000FFF738FEA07CFFF72BFEE07CFFF73CFE12
:100BF000A37923B9E3784BB9FFF746FF10E0FFF77D
:100C00000DFFFFF72BFF0028FBD0F3E7FFF732FFC4
:100C1000A578A088E178627823780095FFF74CFFEB
:100C2000E068B0F5803F01D1FFF7B2FD03B0BDE849
:100C30003040FFF733BB00BF0040005010B5044602
:100C40001020FFF739FE124B9C4204D10420FFF71D
:100C500039FE042016E00F4B9C4204D10820FFF718
:100C600031FE08200EE00C4B9C4204D11020FFF70F
:100C700029FE102006E0094B9C4207D10848FFF7E7
:100C800021FE0748BDE81040FFF75CBD10BD00BF66
:100C900000C000400000014000400140004000480A
:100CA0000100001038B504460D46FFF7C7FF4FF4AA
:100CB0008073E360236823F4404343EA8531216075
:100CC00038BD0B6843614B79C3F340131B05436088
:100CD0000B7903F00F0343624B7903F00F030362B8
:100CE0004B79C3F3001383610B791B09C36270470F
:100CF000092930B59CBF094C094DD0F8A83099BFDF
:100D0000645C35F811104FF440510C2423EA0103C0
:100D1000A2401A43C0F8A82030BD00BF24F3000849
:100D20002EF30008436F490010B503248C4023EADA
:100D300004034367436F8A401343436710BD0000B9
:100D4000054BD3F8C430DB05FAD4044A536843F0AA
:100D500001035360704700BF00400050004A00503C
:100D6000054BD3F8C430DB05FAD4044A53689BB270
:100D700043EA00405060704700400050004A005075
:100D8000024B1A6A02605B6A43607047004A005077
:100D900010B5044C2046FFF795FD2046BDE81040F5
:100DA000FFF7D0BC40000010838E0B439BB28386BC
:100DB000C38E9BB243EA1141C186704738B50446E1
:100DC0000D46FFF7F1FF238F2B439BB22387618FE3
:100DD00089B241EA1541618738BD038F9BB223EA8E
:100DE00001030387438F9BB223EA11414187704778
:100DF0008BB2090C038641867047B1F5803F03D260
:100E0000038E9BB20B4202E0438E13EA114314BFE0
:100E10000120002070470B888260C381002070474A
:100E20000B8883808B88C38083890A7A9BB223F0E6
:100E30002003134383812AB9838923F002031B040F
:100E40001B0C838183894A7A9BB223F00C0343EA0B
:100E5000820383817047000038B50D46044600F0D8
:100E600009F96B794BB92B7929682046022213B115
:100E700000F072F801E000F031F8084B63634FF4C2
:100E8000A263A3636B791BB9AB7943F00B03E363F4
:100E90004FF0FF33E3642B89236438BD02013F0721
:100EA000D0F80C3113F0E06F0CBF406DD0F81C018E
:100EB00080B2704708B50848FFF704FD0648FFF701
:100EC0000BFD0028FAD10448FFF73CFC0248FFF76D
:100ED00043FC0028FAD108BD8000001063292DE9E9
:100EE000F04105460C46164630D97AB3FFF744FC6C
:100EF000642140F2FF3CB0FBF1FEB4FBF1F40121B0
:100F00007443CEEB8E270A466046B7FBF4F34FEAF4
:100F10009328B8F5806F06D2C3F3090363453EBF3B
:100F20009C46414602460138CEEB0707EDD142F41C
:100F300000422A616A69074B013E134043EA862357
:100F4000013943EA01436B61BDE8F0810120BDE84E
:100F5000F08100BFEF8000FC2DE9F0410F46904684
:100F60000546FFF709FC08FB07F2904237DD90FBCE
:100F7000F2F35100012640F2FE34A34204D990FB63
:100F8000F1F301361144F6E75A1C08FB06F406FBA0
:100F900003F15443B0FBF4F43C1B002C08FB01F1BB
:100FA000B0FBF1F0A7EB0007B8BF6442002FB8BF59
:100FB0007F42BC42B8BF1346C3F5806343F480430D
:100FC0002B616A69074B08F1FF38134043EA882315
:100FD000013E43EA06436B610020BDE8F081012039
:100FE000BDE8F081EF8000FC10B5072384698B40D9
:100FF00024EA03038A401A43826110BD08B5194BE5
:10100000984214D14FF40060FFF75CFC4FF400608D
:10101000FFF762FC0028F9D14FF40060FFF792FB64
:101020004FF40060FFF798FB0028F9D108BD0E4B84
:10103000984203D1BDE80840FFF73CBF0B4B9842F4
:101040000FD10B48FFF73EFC0948FFF745FC00288D
:10105000FAD10748FFF776FB0548FFF77DFB00282C
:10106000FAD108BD080003400800024808400248C1
:1010700000010010144B984210B5044603D003F54C
:101080000073984201D1114811E0114B984203D0EE
:1010900003F50073984202D1FFF70CFF09E00D4BF6
:1010A000984203D003F50073984202D10A48FFF733
:1010B000A5FF0323E360E368DB07FCD5236C23F083
:1010C0000F03236410BD00BF00000340080003406D
:1010D00000000248004002480840024808B50120CC
:1010E000FFF7F0FB0120BDE80840FFF72BBB38B548
:1010F0000D460446FFF7F2FF6B6923606B6843F40B
:101100000043C4F88030AB68C4F8A030EB68C4F882
:10111000A4302B69C4F880322B68C4F8B83038BDCD
:10112000283312B940F21F7200E0024A0A4040F828
:101130002320704700001F07D0F8803043F00043A1
:10114000C0F880300023094A52F82320D2F88010DA
:1011500011F4403F05D0D2F88010C90001D500BF7E
:10116000F9E70133042BEED1704700BF44F30008C8
:10117000D0F8403123F00F03C0F840310329D0F8F4
:10118000403188BF04391943C0F840117047F0B5A9
:1011900042B901F01F051F26C1F302214FF4E06E92
:1011A000082709E0C1F304454FF4F816C1F30261C2
:1011B0004FF0E06E1022182700EB8303B940D3F8FC
:1011C000A04024EA0E04214321EA06019540294368
:1011D000C3F8A010F0BDF8B500220C460546134632
:1011E0004968FFF7D4FF2846616801220023FFF712
:1011F000CEFF2846A16800220123FFF7C8FF012285
:1012000013462846A168FFF7C2FF2369E178C5F8B5
:101210008030E368C5F8B830C1F30012C1F3810330
:10122000C1F34017C1F380106188C1F3090621782A
:1012300001F0070141EA0641C5F8F011D5F8F011B7
:1012400041F0004141EA027242EA836242EA477396
:1012500043EA8073C5F8F031F8BDD0F8803023F050
:1012600003031943C0F8801070470000304AD2F8D9
:10127000843023F08063F0B5C2F88430D2F884342F
:1012800023F08063C2F88434D2F8843823F080637A
:10129000C2F88438D2F8843C23F08063C2F8843CDE
:1012A0000B7813F00305C3F381030CBF00274FF441
:1012B00000671A0200241F4B53F82460D6F88430CC
:1012C00023F44073134301343B43042CC6F88430A9
:1012D000F1D14B68164A43F4000343F40043C0F8CD
:1012E00000328B6843F00103C0F80432022D02BFC4
:1012F000D0F8043243F48033C0F80432D2F884309A
:1013000043F08063C2F88430D2F8843443F08063C1
:10131000C2F88434D2F8843843F08063C2F8843849
:10132000D2F8843C43F08063C2F8843CF0BD00BF37
:101330000044004044F3000830B50123D0F8885041
:101340008B4025EA0304137B8B402343C0F888308D
:1013500092F90D30002B19DB012907D1D0F8B030FC
:1013600023F4F853C0F8B030082507E029B9D0F8C5
:10137000B03023F01F03C0F8B030002592F90D30D3
:10138000D0F8B040AB402343C0F8B030D0F8C840EC
:1013900053682343C0F8C830D0F8D0409368234343
:1013A000C0F8D0308031136840F8213030BD0000E3
:1013B00008B50C4B1A680AB90B4A1A601A680B492F
:1013C000C31C23F0030313448B4203D20549104688
:1013D0000B6008BD09F036FF0C2303604FF0FF30AF
:1013E00008BD00BFD88FFE1F00000020C0FF0320F3
:1013F00070470000034B197C1A684FF480338B4010
:10140000536070477047010813B5084C02A90122C8
:1014100001F8010D204603F065F82268936CDB07A4
:1014200001D500BFFAE702B010BD00BF5488FE1F0F
:1014300010B50446C0B2FFF7E7FFC4F30720FFF77B
:10144000E3FFC4F30740FFF7DFFF200EBDE81040C5
:10145000FFF7DABF38B5074C074D2A23012228468B
:101460002146237003F0C0F8AA68D37F002BFCD17B
:10147000207838BD449BFE1F5488FE1F034B197C07
:101480001A6801238B405360704700BF7047010802
:1014900038B505460C46FFF7ADFF2846FFF7B4FF09
:1014A0002046FFF7B1FF0020FFF7AEFFBDE8384050
:1014B000FFF7E4BF10B50446FFF79CFFC4F30740F5
:1014C000FFF7A2FFC4F30720FFF79EFFE0B2FFF78C
:1014D0009BFF0020FFF798FFFFF7BCFF0446FFF7D4
:1014E000CDFF204610BD38B50446FFF783FFC4F397
:1014F0000740FFF789FFC4F30720FFF785FFE0B23D
:10150000FFF782FF0020FFF77FFFFFF7A3FF0446EE
:10151000FFF7A0FF0546FFF7B1FF44EA052080B2C0
:1015200038BD38B50446FFF765FFC4F30740FFF741
:101530006BFFC4F30720FFF767FFE0B2FFF764FF1C
:101540000020FFF761FFFFF785FF0546FFF782FFE9
:101550000446FFF77FFF000440EA0424FFF77AFF08
:101560002C4344EA0064FFF789FF204638BD38B5B4
:1015700004460D46FFF73EFFC4F3064040F08000EE
:10158000FFF742FFC4F30720FFF73EFFE0B2FFF78B
:101590003BFF2846FFF738FFBDE83840FFF76EBF36
:1015A00038B504460D46FFF725FFC4F3064040F06A
:1015B0008000FFF729FFC4F30720FFF725FFE0B203
:1015C000FFF722FFE8B2FFF71FFF280AFFF71CFF13
:1015D000BDE83840FFF752BF38B505460C46FFF767
:1015E00009FFC5F3064040F08000FFF70DFFC5F38B
:1015F0000720FFF709FFE8B2FFF706FFE0B2FFF7A9
:1016000003FFC4F30720FFF7FFFEC4F30740FFF713
:10161000FBFE200EFFF7F8FEBDE83840FFF72EBFB7
:1016200038B52548FFF75FFF830704463DD02348C0
:101630000AF0CCFB2248FFF756FF0121054621485E
:10164000FFF795FF20480021FFF7AAFF1F48002160
:10165000FFF7A6FF1E480021FFF7BEFF1948002133
:10166000FFF785FF29461648FFF79AFF052006F089
:101670009FF9FFF7BFFEB020FFF7C6FE2520FFF75A
:10168000C3FE7820FFF7C0FE6FF0B600FFF7D0FE74
:101690006FF0B500FFF7CCFEFFF7F0FE0D48072115
:1016A000FFF765FF052006F083F940F6FC70201A6D
:1016B00018BF012038BD00BF7425300054F3000866
:1016C0006291300020203000F8203000FC203000F3
:1016D000002130007020300008B5FFF7A1FF00287E
:1016E000FBD108BD10B50446FFF784FEB020FFF71C
:1016F0008BFE2520FFF788FE7820FFF785FE204629
:10170000BDE81040FFF794BE70B54C42013904F0BB
:101710000304461E4518AE4204D016F8010FFFF729
:1017200073FEF8E72CB10020013CFFF76DFEE4B238
:10173000F8E770BD70B505460C46ECB1B4F5706FB6
:10174000264628BF4FF47066FFF754FEB020FFF71F
:101750005BFE2520FFF758FE7820FFF755FE284650
:10176000B1B2FFF7D1FFFFF789FE3544A41BFFF7A5
:1017700057FF0028FBD1E0E770BD70B506466FF05B
:10178000DD000C461546FFF7ADFF3046FFF750FE73
:10179000FFF774FE2CB120462946BDE87040FFF7E4
:1017A000C9BF70BD70B506466FF0E2000D46144625
:1017B000FFF798FF3046FFF73BFE2846FFF738FE5D
:1017C0002046FFF735FEFFF759FEFFF729FF0028F7
:1017D000FBD170BD38B56A4B1D7C1C684FF480335B
:1017E000AB406360062006F0E3F80123AB40636082
:1017F000152006F0DDF844200021FFF749FE6120A6
:101800004621FFF745FE00200146FFF741FE282054
:1018100006F0CEF840F29114012006F0C9F85948BC
:10182000FFF748FE013CA4B201461CB956480AF035
:1018300057FA16E07C28EFD154480AF051FA40F2EA
:10184000F5145348FFF736FE10F003050BD0013CAA
:101850000120A4B206F0ACF8002CF2D14D480AF0F9
:10186000B5FA204638BD4C480AF0B0FA4B484C490E
:10187000FFF7B2FE4B482946FFF779FE4A484FF47E
:10188000F071FFF78DFE49484FF40971FFF788FEAC
:1018900047482B21FFF784FE46482946FFF780FE84
:1018A00045482921FFF77CFE44484FF48871FFF733
:1018B00077FE43484FF49271FFF772FE41480C21C6
:1018C000FFF76EFE40482946FFF76AFE3F480A21AF
:1018D000FFF766FE3E482946FFF749FE3D480121D5
:1018E000FFF745FE01213C48FFF741FE3B480AF067
:1018F0006DFA3B480321FFF73AFE3A484FF49661F0
:10190000FFF74EFE38482946FFF731FE3748294693
:10191000FFF72DFE36484FF4C041FFF741FE4FF46C
:1019200040104FF00071FFF757FE32483249FFF781
:1019300053FE32482946FFF74FFE02213048FFF799
:101940004BFE30480AF042FA2F488021FFF70FFE85
:101950002E480721FFF70BFE12482021FFF707FE54
:101960000524FFF75DFE012805D1013CA4B206F075
:101970001FF8002CF5D126480AF028FA012038BDBE
:101980005C4701080020300082F30008AFF3000834
:1019900020203000D5F3000800F400080C203000AF
:1019A00000A24A04D4203000342030002C20300023
:1019B00030203000382030003C20300048203000FB
:1019C00040203000442030004C20300050203000B7
:1019D000642030006C2030006820300022F40008C1
:1019E0000421300018213000802030008420300095
:1019F0008820300004003000070000260800300076
:101A00005420300042F40008942030007020300050
:101A100069F4000808B5084B2A221A70FFF7EAFC9F
:101A2000B020FFF7F1FC2520FFF7EEFC7820BDE8A1
:101A30000840FFF7E9BC00BFDC8FFE1F024B00220D
:101A40001A70FFF71BBD00BFDC8FFE1F10B50446E8
:101A5000FFF7D0FCB020FFF7D7FC2520FFF7D4FC20
:101A60007820FFF7D1FC2046BDE81040FFF7E0BC2E
:101A7000F8B5224B1B7805461BB900F1FA0706465C
:101A800025E0441E00F1F906002314F8012F5AB195
:101A90000133DBB2032B05D928682F1DFFF7C8FCE3
:101AA0003D460023B442F0D1022B286808D0032B16
:101AB00003D0012B06D1C0B205E020F07F4002E048
:101AC00080B200E00020BDE8F840FFF7B1BC741B15
:101AD00016F8010BE4B220B1FFF796FCBE42F6D136
:101AE000FA2404F00304C4F10404E4B20020013C2D
:101AF000FFF78AFC14F0FF04F8D1F8BDDC8FFE1F5D
:101B00002DE9F7431D46204B9DF82C901B7880460D
:101B10000F46164603F0FF0493BB6FF0F300FFF788
:101B200095FF5FFA88F0FFF76FFCC8F30720FFF717
:101B30006BFCF8B2FFF768FCC7F30720FFF764FC03
:101B4000F0B2FFF761FCC6F30720FFF75DFCE8B2D7
:101B5000FFF75AFC280AFFF757FC0A98FFF788FF9F
:101B6000EB040BD50CAB01934C4507D0019B1A1D20
:101B7000186801920134FFF75BFCF5E7FFF77EFC84
:101B800003B0BDE8F08300BFDC8FFE1F2DE9F341F9
:101B9000884607466FF0F3001C4616469DF8245011
:101BA000FFF746FC07EB0840FFF742FC06EB04405A
:101BB000FFF73EFC0898FFF75BFFE3040CD50AAB88
:101BC00001930024AC4207D0019B1A1D18680192B2
:101BD0000134FFF72DFCF5E702B0BDE8F08100000D
:101BE00008B5054B1B782BB9FFF730FFBDE808405F
:101BF000FFF744BC08BD00BFDC8FFE1FFFF718BC19
:101C000038B505466FF0E1000C46FFF711FC284699
:101C1000FFF70EFC2046BDE83840FFF709BC000086
:101C200038B50E4B1B78044603F0FF05ABB96FF0D7
:101C3000F600FFF70BFFE0B2FFF7E6FBC4F3072067
:101C4000FFF7E2FBC4F30740FFF7DEFB2846FFF790
:101C5000DBFBBDE83840FFF711BC38BDDC8FFE1F51
:101C600010B504466FF0F600FFF7E2FB2046BDE832
:101C70001040FFF7DDBB2DE9F0478A4681466FF043
:101C8000F20017469846BDF92050BDF824600A9C22
:101C9000FFF7CEFB09EB0A40FFF7CAFB07EB084052
:101CA000FFF7C6FB05EB0640FFF7C2FB2046BDE889
:101CB000F047FFF7DDBE000010B5084B1B7803F0BE
:101CC000FF0453B96FF0EA00FFF7C0FE2046FFF7AC
:101CD000AFFBBDE81040FFF7D1BB10BDDC8FFE1F8E
:101CE00038B50E4B1B78044603F0FF05ABB96FF017
:101CF000F500FFF7ABFEE0B2FFF786FBC4F3072069
:101D0000FFF782FBC4F30740FFF77EFB2846FFF78F
:101D10007BFBBDE83840FFF7B1BB38BDDC8FFE1F51
:101D200010B504466FF0F500FFF782FB2046BDE8D2
:101D30001040FFF77DBB000038B50E4B1B78044602
:101D400003F0FF05ABB96FF0CB00FFF77FFEE0B209
:101D5000FFF75AFBC4F30720FFF756FBC4F3074015
:101D6000FFF752FB2846FFF74FFBBDE83840FFF76F
:101D700085BB38BDDC8FFE1F10B504466FF0CB006D
:101D8000FFF756FB2046BDE81040FFF751BB2DE999
:101D9000F0478A4681466FF0F10017469846BDF934
:101DA0002050BDF824600A9CFFF742FB09EB0A4073
:101DB000FFF73EFB07EB0840FFF73AFB05EB064059
:101DC000FFF736FB2046BDE8F047FFF751BE0000A5
:101DD0002DE9F0411C46184BDDF818801B780746AA
:101DE0000E4615462BBB6FF0D100FFF72FFEF8B261
:101DF000FFF70AFBC7F30720FFF706FBF0B2FFF778
:101E000003FBC6F30720FFF7FFFAE8B2FFF7FCFA7F
:101E1000C5F30720FFF7F8FAE0B2FFF7F5FA200A5A
:101E2000FFF7F2FA4046FFF703FBBDE8F041FFF78A
:101E300025BBBDE8F08100BFDC8FFE1F2DE9F0411E
:101E4000884607466FF0D10015461E46069CFFF7F0
:101E5000EFFA07EB0840FFF7EBFA05EB0640FFF758
:101E6000E7FA2046BDE8F041FFF7E2BA10B5084BAB
:101E70001B78044653B96FF0C700FFF7E7FD204613
:101E8000FFF7D6FABDE81040FFF7F8BA10BD00BF63
:101E9000DC8FFE1FF8B507466FF0BC000D461646F6
:101EA0001C46FFF7C5FA3846FFF7C2FA05EB0640B5
:101EB000FFF7BEFA2046BDE8F840FFF7B9BA0000C8
:101EC0002DE9F0411C46184BDDF818801B780746B9
:101ED0000E4615462BBB6FF0F300FFF7B7FDF8B2C7
:101EE000FFF792FAC7F30720FFF78EFAF0B2FFF779
:101EF0008BFAC6F30720FFF787FAE8B2FFF784FAF8
:101F0000C5F30720FFF780FAE0B2FFF77DFA200A59
:101F1000FFF77AFA4046FFF7ABFDBDE8F041FFF767
:101F2000ADBABDE8F08100BFDC8FFE1F2DE9F041A6
:101F3000884607466FF0F30015461E46069CFFF7DD
:101F400077FA07EB0840FFF773FA05EB0640FFF757
:101F50006FFA2046BDE8F041FFF78ABD2DE9F04752
:101F60008A4681466FF0ED0017469846BDF820502E
:101F7000BDF824600A9CFFF75BFA09EB0A40FFF703
:101F800057FA07EB0840FFF753FA05EB0640FFF757
:101F90004FFA2046BDE8F047FFF76ABD054A1378BF
:101FA0003BB901231370044A1070044A1170044AAB
:101FB00013707047F28FFE1F6790FE1FF68FFE1F93
:101FC000F48FFE1F044A00231370044A1370044A5E
:101FD0001370044A13707047F28FFE1F6790FE1F44
:101FE000F68FFE1FE88FFE1F2DE9F0410C4C0646D0
:101FF0001D460F46904631461A46204609F066FFB8
:10200000681C7119204409F051FF3046214604F83C
:10201000058009F04BFF3B7801333B70BDE8F08150
:102020000290FE1F08B50D4B01221A700C4B0028C0
:10203000A8BF187093F900200A4B93F900309A4218
:102040000AD0094B53F820301A89084B1A80FFF741
:10205000B9FF074B00221A8008BD00BFF38FFE1F97
:10206000F58FFE1F0988FE1F248DFE1F6890FE1F3E
:10207000F88FFE1F70B5049C16461D46B0B10029AE
:1020800003DB41F08060FFF7B9FD002E02DB304634
:10209000FFF746FE002D02DB2846FFF7E1FD002C8E
:1020A0001BDB2046BDE87040FFF766BE002903DB5E
:1020B00041F08060FFF794FD002E02DB3046FFF711
:1020C0000FFE002D02DB2846FFF7AAFD002C04DBE3
:1020D0002046BDE87040FFF72FBE70BD3C4B73B586
:1020E0000D4653F8204006463A48A0473A48A047D4
:1020F000A86940F08060A0473848A0476889C0F3CD
:102100000E0040F08040A0476B89A889C3F30E03FE
:1021100043F08043C0F30E0043EAC030A047EB8990
:10212000288AC3F30E0343F08043C0F30E0043EA52
:10213000C030A047E889C0F30E0040F0814040F471
:10214000E000A0474FF00450A047E86940F08060ED
:10215000A0472348A0476889C0F30E0040F08040A4
:10216000A0476B89A889C3F30E0343F08043C0F3F3
:102170000E0043EAC030A047EB89288AC3F30E0360
:1021800043F08043C0F30E0043EAC030A047E88923
:10219000C0F30E0040F0814040F4E000A0474FF053
:1021A0000450A047286A40F08060A0476B68009305
:1021B0000C4B142053F826500F211E220023A84751
:1021C0004FF04070234602B0BDE87040184700BF92
:1021D000B0F40008010000031000000E0700001F0B
:1021E0000400001FA4F400082DE9F0472DED028B38
:1021F0004B7E4D8886B006460C466BB9644B1988F9
:10220000644B6D1AB3F90030ADB29D4240F3BB8010
:10221000B5F5887F80F0B7805F4B4FF0407053F882
:1022200026309847227B002A00F0A180012A1CD189
:10223000E388D4F814E0B4F90000584F29B2A56837
:102240002469009543F480530192BEF1000F01D13F
:10225000228803E0BEF8002034F81220029257F8DA
:1022600026401A229BB2A0478DE0022A40F08B80C4
:102270006269236912B1128803EB8203186805A909
:1022800006F014FC454BDDED057A53F82670E68820
:10229000B4F80080D4F808A0F5EEC07A46F4805671
:1022A000F1EE10FA08EE100AADB2B6B217EE900ACF
:1022B00006DB08F03DFC0022394B08F0DBFA05E0B4
:1022C00008F036FC0022364B08F0D2FA08F01EFF68
:1022D0000FFA80F9207E07EE900AF8EE677A17EE83
:1022E000900A06F00FFC07EE900A68EE277A237E2C
:1022F000F0EEE77AF5EEC07A07EE903AF8EE677AFC
:10230000F1EE10FA17EE900A10DB06F0FBFB07EE79
:10231000900A28EE278AF0EEC87A17EE900A08F0A5
:1023200007FC00221E4B08F0A5FA0FE006F0EAFBBE
:1023300007EE900A28EE278AF0EEC87A17EE900A88
:1023400008F0F6FB0022164B08F092FA08F0DEFEC9
:10235000022300B201930390CDF800A0CDF80890BD
:102360000FFA88F029B21A223346B8470BE0A16869
:10237000B4F90000B4F90420E3880091094951F848
:10238000264029B2A04706B0BDEC028BBDE8F0871D
:10239000F88FFE1F6890FE1FB0F400089CF4000840
:1023A0000000E03FA4F400087FB5C37D45880446E3
:1023B0005BB9204B1988204B6D1AB3F90030ADB2D0
:1023C0009D4235DDB5F5887F32D2207B40F04070EC
:1023D000FFF714FCA37D8BB1012B22D16189009101
:1023E000A18A019121690291B4F90000B4F9042095
:1023F000B4F9083029B2FFF7B1FD12E0B4F90810C2
:102400000091A68A6189B4F90000B4F90420B4F9F6
:102410000630314389B201912169029129B2FFF757
:102420002AFC4FF0407004B0BDE87040FFF7E6BBF7
:1024300004B070BDF88FFE1F6890FE1F394A4B88AC
:102440002DE9F34715885D1B374BB3F90030ADB26A
:102450009D4281460C4661DDB5F5887F5ED2A3685A
:10246000B1F900000093314BDFF8D0A053F8296098
:1024700005F10801002309B21A22B047E688238833
:10248000A788207B5AF829401E44B6B2374405F18C
:102490001F08BFB21FFA88F820B94FF04070A0475C
:1024A000234804E040F04070A0476FF07B40C6F343
:1024B0000E06F60345F08045C7F30E07A047FF035D
:1024C0005AF829401B4845EA060A48F08049A047C7
:1024D00049EA07095046A0474846A0474FF0045034
:1024E000A0474FF08060A0471348A0475046A04740
:1024F00046EA080040F08040A0474846A04747EA27
:102500000500A0475046A0474FF00450A0474FF0A9
:102510004070234602B0BDE8F047184702B0BDE85E
:10252000F08700BFF88FFE1F6890FE1FA4F400081C
:10253000CCCCCC040900001F0400001FB0F400083C
:102540002DE9F041874B45881988874B08352DEDDB
:10255000028B6D1AB3F90030ADB29D4286B00446CD
:1025600040F3FB80B5F5887F80F0F780007B40F07A
:102570004070FFF743FB4FF08060FFF73FFB7B4B62
:102580001B78002B37D07A4B1A7894F90C309A428A
:1025900031D1784EDFF8EC8101F0AAFE336803F503
:1025A000062303F58E6398420AD901F0A1FE98F83C
:1025B000003030607C2B0CBF20237C2388F8003057
:1025C0006D4B6E4E1F7821693A46304609F07EFC0D
:1025D00098F80030F3552169781C3944304409F0EB
:1025E00065FCE388208800961844073000B229B2C1
:1025F0001A220023A6E094F82830002B00F09980DE
:10260000012B17D12088E288266B29B21044256A55
:10261000E46A0095073001930EB9238802E03388FD
:1026200034F81330029300B21A224FF48053FFF7AC
:10263000ADFA89E0022B40F08780226BE36A12B189
:10264000128803EB8203186805A906F02FFADDED66
:10265000057A2688E388D4F820801E44F5EEC07AF7
:102660000736F1EE10FA08EE100AB6B2ADB217EE68
:10267000900A06DB08F05CFA0022414B08F0FAF8F9
:1026800005E008F055FA00223D4B08F0F1F808F09B
:102690003DFD07B294F8240007EE900AF8EE677A41
:1026A00017EE900A06F02EFA07EE900A68EE277AE7
:1026B00094F82430F0EEE77AF5EEC07A07EE903A1F
:1026C000F8EE677AF1EE10FA17EE900A10DB06F0DA
:1026D00019FA07EE900A28EE278AF0EEC87A17EE6C
:1026E000900A08F025FA0022254B08F0C3F80FE005
:1026F00006F008FA07EE900A28EE278AF0EEC87A6C
:1027000017EE900A08F014FA00221D4B08F0B0F8FA
:1027100008F0FCFC022300B201930390CDF8008086
:10272000029730B229B21A224FF48053FFF72EFAE3
:102730000AE0E2882088104407302269009200B243
:1027400029B21A22FFF7F2FB4FF0407006B0BDEC41
:10275000028BBDE8F041FFF751BA06B0BDEC028B29
:10276000BDE8F081F88FFE1F6890FE1FF28FFE1FFC
:102770006790FE1FFC8FFE1FFA8FFE1F0290FE1F48
:102780000000E03F0888FE1F2DE9F0412DED028B8F
:10279000012982B00446154640F0A98090F91C300A
:1027A000002B40F0A08090F82830012B0ED1026B56
:1027B000C36A1AB90069216A1A8804E0128800699C
:1027C000216A33F8122009F04DFB6FE0022B72D121
:1027D000026BC36A12B1128803EB8203186801A965
:1027E00006F064F9DDED017AD4F81080276AF5EE81
:1027F000C07AF1EE10FA08EE100A17EE900A06DB26
:1028000008F096F90022744B08F034F805E008F05F
:102810008FF90022704B08F02BF808F077FC06B215
:1028200094F8240007EE900AF8EE677A17EE900A03
:1028300006F068F907EE900A68EE277A94F82430DB
:10284000F0EEE77AF5EEC07A07EE903AF8EE677AA6
:10285000F1EE10FA17EE900A10DB06F053F907EECE
:10286000900A28EE278AF0EEC87A17EE900A08F050
:102870005FF90022584B07F0FDFF0FE006F042F928
:1028800007EE900A28EE278AF0EEC87A17EE900A33
:1028900008F04EF90022504B07F0EAFF08F036FC32
:1028A000394603B23246404609F0DCFA2069A6698F
:1028B00009F004FB30706388484A94F83410207B98
:1028C000483B138001232377FFF768FB691CA3694A
:1028D00003D11A78424B1A7005E093F90030AB42ED
:1028E00001DB3F4B1D7094F91C30012B61D094F833
:1028F0002830012B46D1236BE56A03BB206908F021
:102900009DFC07EE900AF5EEC07AF1EE10FA206910
:1029100008DB08F093FC08F00BF900222E4B07F0BF
:10292000A9FF07E008F08AFC08F002F900222A4B10
:1029300007F09EFF08F0EAFB80B228802EE02069B5
:102940001E8808F07BFC07EE900AF5EEC07AF1EEE7
:1029500010FA206908DB08F071FC08F0E9F80022A1
:102960001D4B07F087FF07E008F068FC08F0E0F86F
:102970000022194B07F07CFF08F0C8FB80B225F855
:1029800016000BE0022B09D1236BE56A13B11B88FB
:1029900005EB8305206908F051FC28600F4A0023ED
:1029A0001380237702B0BDEC028BBDE8F041FFF746
:1029B00009BB6A1CA36903D11A78094B1A7005E098
:1029C00093F90030AB4201DB054B1D7002B0BDEC4A
:1029D000028BBDE8F08100BF0000E03FF88FFE1FD2
:1029E000FA8FFE1FF8B52D4B1B780446002B54D0F0
:1029F0002B4B1A7890F90C309A424ED1294E3378ED
:102A0000002B4AD0284D2A78A2F12003602B44D80D
:102A1000802A04D100210A46FFF7B6FE3AE07F2A59
:102A200015D1224F3B78002B34D0826992F90020D7
:102A300093422FDC0169581E0844194409F036FA04
:102A4000A2691378013B13703B78013B21E03C2ADB
:102A500004D1164A1378EBB1013B09E03E2A8169A3
:102A600008D1124A91F9001013788B4212DA01331F
:102A700013700FE094F9143091F90000013B984273
:102A800008DA0A4F206997F90030FFF7ADFA3B7872
:102A900001333B70002333702B70F8BDF28FFE1FA3
:102AA0006790FE1FE88FFE1FE98FFE1FFA8FFE1F43
:102AB000B34A4B88D1ED0A7A2DE9F04F1588DFF83B
:102AC000DCA2DFF8DC825AF820705D1B8B882DEDCC
:102AD000048B09EE103ACB88B8EE499A08EE903A8A
:102AE0000C4689EE279A8DB00646A648ADB24FF047
:102AF000010BD1ED097AF8EE688AC8EEA78AB847CB
:102B000021896388208858F82690084419440630A3
:102B100023690093143900B209B21A220023C8476E
:102B2000218922886388A0880A440B44E188023204
:102B3000163B10441944E368009309B21A224FF47B
:102B4000006300B2C8479048B84723892088C5F37E
:102B50000E09184449F08049C0F30E0049EAC0301C
:102B6000B84720892388E2880344C3F30E0305EBAA
:102B700040001044DB0343F08043C0F30E001843D1
:102B8000B84723882089E288C3F30E032844104401
:102B9000DB0343F08043C0F30E001843B84723899A
:102BA0002088A28800EB43001044E2882B441344A1
:102BB000C3F30E03C0F30E0043EAC03040F0804080
:102BC000B8477248B8477248B847A06A07F0B0FFE4
:102BD00005F09AFE08F09AFA83452EDC07EE90BACB
:102BE000F8EEE77A2289218869EE277AA818FCEEA8
:102BF000E77A0A44CDED037ABDF80C3003931A440A
:102C0000C0F30E00C2F30E0240F0804040EAC23032
:102C1000B8472189E288039B681802442088084449
:102C20001844C2F30E0242F08042C0F30E0042EAA2
:102C3000C030B8470BF1010BC7E74FF0010B606ADA
:102C400007F076FF05F060FE08F060FA834532DC9D
:102C500007EE90BAF8EEE77A20892388E18868EEDB
:102C6000A77A0344FCEEE77A2844CDED037ABDF859
:102C70000C2003920844C3F30E03801ADB0343F0D5
:102C80008043C0F30E001843B84720892388A188E9
:102C9000039A03440B44E18828440844C3F30E0319
:102CA000801ADB0343F08043C0F30E001843B8479B
:102CB0000BF1010BC3E74FF00450B8473148B84758
:102CC0004FF0010BD4ED0A9A19EE900A07F030FF8D
:102CD00005F096FD08F01AFA834563DCD4ED087A16
:102CE000C7EEA97A0BF1FF3308EE103AB8EEC88AA6
:102CF00067EE887A29EE088ABCEEE77AB8EE477A62
:102D000037EEC77AB5EE407AF1EE10FA14D1238986
:102D10002088E188BCEEC88A184418EE103A0330C7
:102D200003441846FDEEE77A1A4BCDED007A0A31DE
:102D3000294453F826701AE017EE900A07F0F8FEBF
:102D400004AF0B4602461449384609F08BF8238934
:102D50002088E1880097BCEEC88A184418EE103A23
:102D6000033003440A3158F826701846294400B24B
:102D700009B214220023B8470BF1010BA2E700BFF0
:102D8000F88FFE1F0B1E3B040300001F0900000EFE
:102D9000E2DAC5049CF500087BF40008B0F40008F2
:102DA000A4F400084FF0010B94ED098A18EE100A04
:102DB00007F0BEFE05F0A8FD08F0A8F983454ADC3F
:102DC000D4ED067AC7EE887A07EE10BAB8EEC78A55
:102DD00067EE887A28EE888ABCEEE77AB8EE477A02
:102DE00037EEC77AB5EE407AF1EE10FA12D12389A8
:102DF000E1882088BCEEC88A194418EE103A2944AC
:102E0000C91AFDEEE77A4A4BCDED007A073853F840
:102E1000267018E017EE900A07F08AFE04AF0B4602
:102E200002464449384609F01DF82389E188208884
:102E30000097BCEEC88A194418EE103A294458F895
:102E400026700738C91A00B209B214220023B84705
:102E50000BF1010BA8E75AF826603748B0472389E1
:102E6000208818446F1D0530C7F30E07C0F30E000D
:102E700047EAC03040F08040B0472389208818449A
:102E8000C0F30E0049EAC030B047238920881844B7
:102E90000538C0F30E0047EAC03040F08040B0472C
:102EA0004FF00450B0472448B04723892088A288B7
:102EB00000EB43001044E2882B44134405380533EB
:102EC000C3F30E03C0F30E0043EAC03040F080406D
:102ED000B04723892088A28800EB43001044E28891
:102EE0002B441344C3F30E03C0F30E0043EAC03077
:102EF00040F08040B04722892088A38800EB420040
:102F00001844E38815441D440538053DC5F30E05F6
:102F1000C0F30E0045EAC03040F08040B0474FF0AB
:102F20000450B0470DB0BDEC048BBDE8F08F00BF7E
:102F30009CF500087BF400080400001F2DE9F04711
:102F400091465F4A04461E4643880898158840F01B
:102F500080605D1B0F46FEF751FE5A48FEF74EFE9D
:102F600094F82C30ADB2002B65D19846C8452ADACA
:102F700022892388D4ED057AB4F806E0A818134412
:102F800037F8182007EE102AB8EE477A00EB0E014A
:102F900087EE277A4344C3F30E03DB0343F08043F9
:102FA00008F1010807EE90EAF8EE677A67EE277AF3
:102FB000FCEEE77A17EE900A081AC0F30E001843E9
:102FC000FEF71CFED2E74FF00450FEF717FE94F810
:102FD0002C30002B71D13C48FEF710FE3948FEF72B
:102FE0000DFE22892088AB1810443288053B10441E
:102FF000C3F30E0343F08043C0F30E0043EAC03036
:10300000FEF7FCFD22892088338810441844E388A9
:1030100015441D440535C5F30E05C0F30E0045EA01
:10302000C03040F08040FEF7E9FD4FF00450BDE8AD
:10303000F047FEF7E3BD09F1FF391FFA89F9B6F849
:103040000080CA460FFA8AF2002ABCDB2389208856
:10305000B4F806E0D4ED057A18F4004F18BFC8465E
:1030600018442B4403EB0E010FFA88F3024437F89F
:10307000133007EE103AB8EE477AC2F30E0287EE2D
:10308000277AD20342F0804208F1FF380AF1FF3A72
:103090001FFA88F81FFA8AFA07EE90EAF8EE677AC4
:1030A00067EE277AFCEEE77A17EE903ACB1AC3F375
:1030B0000E001043FEF7A2FDC4E7BDE8F08700BF95
:1030C000F88FFE1F0400001F0000FF042DE9F047E9
:1030D00016465B4A04461F4643880898158840F008
:1030E00080605D1B8846FEF789FD5648FEF786FD29
:1030F00094F82C30ADB2002B61D19946B14526DA57
:10310000D4ED057AB8EC017AB4F806E02289238878
:1031100087EE277AA818134400EB0E014B44C3F343
:103120000E03DB0343F0804309F1010907EE90EA47
:10313000F8EE677A67EE277AFCEEE77A17EE900AE8
:10314000081AC0F30E001843FEF758FDD6E74FF0FB
:103150000450FEF753FD94F82C30002B6DD13A4803
:10316000FEF74CFD3748FEF749FD22892088AB1851
:1031700010443A88053B1044C3F30E0343F08043E8
:10318000C0F30E0043EAC030FEF738FD22892088E4
:103190003B8810441844E38815441D440535C5F3A5
:1031A0000E05C0F30E0045EAC03040F08040FEF747
:1031B00025FD4FF00450BDE8F047FEF71FBD013E6E
:1031C000B6B2B7F80090B2460FFA8AF2002ABEDB18
:1031D00023892188B4F806E0D4ED057A19F4004F6C
:1031E00018BFB14619442B44114403EB0E020FFAE9
:1031F00089F308EB830393ED007A87EE277AC1F316
:103200000E01C90341F0804109F1FF390AF1FF3A8B
:103210001FFA89F91FFA8AFA07EE90EAF8EE677A40
:1032200067EE277AFCEEE77A17EE903AD31AC3F3EB
:103230000E000843FEF7E2FCC6E7BDE8F08700BFDA
:10324000F88FFE1F0400001F0000FF042DE9F04F5F
:103250002DED028B85B01646824A0393109B029394
:103260000446438810889DF84470181A83B2129857
:10327000019340F080608946FEF7C0FC17B1012F32
:1032800008D002E07848FEF7B9FCCB46B2464FF0D2
:10329000000859E07548FEF7B1FC7548F3E7A388CC
:1032A000D4ED086ABAEC016A07EE903AB8EE677A94
:1032B000D4ED077A76EEE77AC7EE277A67EE867A5C
:1032C000F5EEC07AF1EE10FA17EE900A40DB07F047
:1032D0002FFC0022674B07F0CDFA07F017FF94EDA3
:1032E000057AFBEC017AE388C7EE877A85B208EEAF
:1032F000103AB8EE487A67EE877AF5EEC07AF1EECA
:1033000010FA17EE900A2ADB07F012FC0022594B44
:1033100007F0B0FA07F0FAFE238922881A44154410
:10332000019A134418EE102A80B2101AC5F30E0544
:1033300013FA80F0ED0345F08045C0F30E002843FA
:10334000FEF75CFC08F10108039B9845A7DB0DE044
:1033500007F0EEFB0022474B07F08AFABDE707F0C3
:10336000E7FB0022434B07F083FAD3E7012F6FD12D
:10337000029BB3F9003001336AD03F48FEF73EFCB0
:103380003E48FEF73BFC029BD4ED076AB3F90070A0
:10339000A38807EE903AB8EE677AD4ED087A77EE14
:1033A000E67ABF00C7EE277A3E4496ED007A67EED4
:1033B000877AF5EEC07AF1EE10FA17EE900A06DB86
:1033C00007F0B6FB00222B4B07F054FA05E007F09C
:1033D000AFFB0022274B07F04BFAB94407F096FEEB
:1033E00094ED057AD9ED007AE688C7EE877A85B242
:1033F00007EE106AB8EE477A67EE877AF5EEC07A84
:10340000F1EE10FA17EE900A06DB07F091FB0022AE
:10341000184B07F02FFA05E007F08AFB0022154B46
:1034200007F026FA07F072FE238922881A44154411
:10343000019A80B2C5F30E051A44361AED0312FA4A
:1034400086F045F08045C0F30E002843FEF7D6FB1A
:103450004FF0045005B0BDEC028BBDE8F04FFEF715
:10346000CDBB00BFF88FFE1F0400001F3000000D11
:103470000200001F0000E03F0000FF044000000DBC
:103480002DE9F04F89465E4992460F884288D71B46
:103490008288B2FBF3F307EE903A2DED048BB8EE81
:1034A000E79AD0ED079AD0ED087A77EEE99A07EE21
:1034B000902AF8EEE77A83B0C7EE897A044611982D
:1034C0009DF8406040F08060BFB2C9EE899AFCEE82
:1034D000E77ACDED017ABDF80450FEF78FFB16B107
:1034E000012E06D002E04748FEF788FB0026B046D2
:1034F00047E04548FEF782FB4448F5E7E388D4ED12
:10350000057A08EE103AB8EEC88A69EEA88A88EE05
:10351000278A4946524618EE900A04F059FAB4F840
:1035200006B007EE900A28EE278A07EE90BAB5EEAD
:10353000C08AF8EEE77A94ED058AF1EE10FA87EE8C
:10354000888A4946524618EE900A28DB04F040FA71
:1035500007EE900A68EE277A17EE900A07F0E8FA6D
:1035600000222B4B07F086F907F0D0FD80B2C0EBAC
:103570000B0080B22288218900BB2E4408F101088B
:10358000B6B207EE908AF8EEE78AF7EE007A79EEA7
:10359000277AF4EEE78AF1EE10FAAFD427E004F0D0
:1035A00017FA07EE900A68EE277A17EE900A07F0EE
:1035B000BFFA0022164B07F05BF9D5E7E388834298
:1035C000DBD97B1803441348B0F900009BB2834257
:1035D000D3DDB3F5887FD0D288183044C0F30E0015
:1035E00043EAC03040F08040FEF708FBC5E74FF0EB
:1035F000045003B0BDEC048BBDE8F04FFEF7FEBAFB
:10360000F88FFE1F0400001F5000000D0200001F75
:103610000000E03F6890FE1F2DE9F743044646F2A4
:10362000C4116D48FDF7D8FF6C4840F25D21FDF7ED
:10363000D3FF6B486B49FDF7CFFF6B486FF06E010E
:10364000FDF7CAFF694845F66B31FDF7C5FF6848CD
:103650006849FDF7C1FF002C00F0BB806FF0FF0050
:10366000FEF7BEFA4FF00070FEF7BAFA6248FEF7B6
:10367000B7FA624B009332211A224FF4C063F02054
:10368000FEF71EFCFEF718FB0020FEF7A9FA6FF00C
:10369000FE00FEF7A5FAFEF71FF84F48FDF741FFC1
:1036A00081464E48FDF73DFF80464D48FDF739FF06
:1036B00007464D48FDF735FF06464C48FDF731FFFC
:1036C00005464B48FDF72DFF04466FF0FF00FEF75F
:1036D00087FA4FF00070FEF783FA4748FEF780FA4A
:1036E0004FF04070FEF77CFA454B009305200F2108
:1036F0001A220023FEF7E4FB424B009305201E2113
:103700001A220023FEF7DCFB3F4B009305202D21FE
:103710001A220023FEF7D4FB3C4B009305203C21EA
:103720001A220023FEF7CCFB394B009305204B21D6
:103730001A220023FEF7C4FB364B00935A211A22AB
:1037400000230520FEF7BCFB1020FEF78FFB4FF493
:103750009B700F211A2240F60803CDF80090FEF767
:1037600037FB4FF49B701E211A2240F60803CDF858
:103770000080FEF72DFB4FF49B702D211A2240F69E
:1037800008030097FEF724FB4FF49B703C211A229C
:1037900040F608030096FEF71BFB4FF49B704B218D
:1037A0001A2240F608030095FEF712FB5A211A224E
:1037B00040F608034FF49B700094FEF709FB0020CD
:1037C000FEF70EFA6FF0FE00FEF70AFAFDF784FF2F
:1037D000FEE703B0BDE8F0835021300054213000F3
:1037E00058213000B14AF1FF5C21300060213000E7
:1037F00064213000ABC7FAFF0700002685F40008FB
:10380000B8F40008CBF40008DEF40008F1F4000876
:1038100004F5000817F5000810B5FDF7DBFF58B3F5
:10382000164B1748302101241C70FDF7A0FE002024
:10383000FFF7F2FEFEF7EEF86FF0FF00FEF7DEF99D
:103840004FF04070FEF7DAF90E48FEF709FA4FF034
:103850001C50FEF7D3F96FF07D40FEF7CFF90A4810
:10386000FEF7CCF90020FEF7C9F96FF0FE00FEF775
:10387000C5F9FEF7E3F8204610BD00BFF08FFE1F2C
:10388000D4203000F6F9FD000700002608B51B4BD8
:103890001B7893B31A4944F604720020FDF76DFFBC
:1038A000FEF7B8F86FF0FF00FEF7A8F96FF07D4063
:1038B000FEF7A4F91348FEF7A1F94FF04070FEF7A8
:1038C0009DF900200146FA234FF49A72FEF7E2FABE
:1038D0000D48FEF793F90D48FEF790F94FF00450AC
:1038E000FEF78CF90020FEF789F96FF0FE00FEF775
:1038F00085F9BDE80840FEF7A1B808BDF08FFE1FAE
:10390000A4F50008070000260100001FB000B04227
:1039100010B5FEF77FF86FF0FF00FEF76FF9214852
:10392000214CFEF76BF92148FEF79AF94FF01C5035
:10393000FEF764F91E48FEF761F91E48FEF75EF9CE
:103940004FF08040FEF75AF91B48FEF757F94FF049
:103950000450FEF753F994F90020184B53F8223025
:103960009847FEF76BF8FDF75BFE0028FBD1144883
:10397000FDF7B9FD134B024618604FF440114FF4A8
:103980007F20FDF70FFFFDF74BFE0028FBD10E4B0C
:1039900022781A700D4B1A880D4B1A800D4B187037
:1039A00010BD00BF01000003F58FFE1FF6F9FD00FA
:1039B000F6F9FD040900001F1001F040CC8AFE1F3B
:1039C00000213000E08FFE1F0988FE1FF88FFE1FC8
:1039D000EA8FFE1FF38FFE1F73B5FDF721FE00284F
:1039E00040F0C3806248634DFDF764FD04466248C1
:1039F000FDF797FD2B78002B2ED0604B1A68B2F59F
:103A0000004F4FEA104107D15D4A1668B6F5004FE6
:103A100002BF86B2196016600E040BD4020409D4EA
:103A20001A68521A57490A60554A126880B2101A29
:103A3000554A106084B955490A780132D2B2042A35
:103A40000A7009D9524A147800222A700A704FF479
:103A500000421A604A4B1A604E4B1B7843B34E4BE0
:103A60001B782BBBCCB94D490878B0B14C4A1378C0
:103A70000133DBB2042B13701ED95E2809BF494AFB
:103A8000494B1378B3FA83F311BF01215B0913701B
:103A90000C701CBF197014700EE0A4F12003DBB28F
:103AA000602B05D83E4B00221A703C4B1C7003E083
:103AB00014B1012C05D045E03C4B00241C70364B62
:103AC0000CE03B4B93F9000002283CDC2B783BB91F
:103AD0002F4B1A781E460ABB264A14701C7032E01F
:103AE000012B30D12A4B1B78012B2CD1254B1A6886
:103AF000254B1B6882EAE271002BA1EBE271B8BF93
:103B00005B4299421FDD322A2A4B01DD032203E08A
:103B10003232B4BF042200221A7014E0012A12D1FA
:103B2000244B1B78032B03D1022808D0013004E07A
:103B3000042B04D1002802DD0138FEF773FA0023BC
:103B4000337000E002D8184B1B7873B1184B2A78F9
:103B500093F900100B4B00930B4B0193164B20462F
:103B600053F8215011490A4BA84702B070BD00BF5D
:103B70002C2130000190FE1F242130000488FE1FFC
:103B80000088FE1FEC8FFE1FE48FFE1F6B90FE1F50
:103B90006690FE1FF28FFE1FF48FFE1FE98FFE1F3F
:103BA000DD8FFE1F6A90FE1FE88FFE1FF18FFE1F44
:103BB000F58FFE1F0090FE1FFC8CFE1FF0B5794BA9
:103BC0001B7885B0002B00F0BD81774B774C93F9C3
:103BD000003073B9764B93F9002094F900309A4283
:103BE00007D1744BB3F90020734BB3F900309A42FC
:103BF00001D0FFF78DFE04F051FAFDF70BFF6FF0D7
:103C0000FF00FDF7FBFF6FF07D40FDF7F7FF6B480E
:103C1000FDF7F4FF4FF04070FDF7F0FF684B4FF4F5
:103C20007F201968FDF7ECFF94F90020654B53F8ED
:103C300022309847644B1B78002B00F07781634853
:103C4000634CFDF7DBFF6348FDF7D8FF6248FDF7E3
:103C5000D5FF6248FDF7D2FF4FF00450FDF7CEFFCD
:103C60004FF04070FDF7CAFF5D4B1D78012D59D014
:103C70005C4B022D1B7840F0CF804BBB1A25009582
:103C800023780193584B0293022071214FF4D37291
:103C90001D23FEF77CF8009523780193534B029384
:103CA000022091214FF4EE721D23FEF770F800956B
:103CB000237801934E4B029302201D23B1214FF430
:103CC000EE72FEF764F8009523780193494BCFE03C
:103CD0001A26009623780193434B029328467121BC
:103CE0004FF4D3721D23FEF752F800962378019308
:103CF000414B0293284691214FF4EE721D23FEF7AB
:103D000046F80096237801933C4B029328461D23E6
:103D1000B1214FF4EE72FEF73AF800962378019342
:103D2000374BA5E01A25009523780193354B029374
:103D3000022071214FF4D3721D23FEF728F800955D
:103D400023780193304B0293022091214FF4D372D8
:103D50001D23FEF71CF80095237801932B4B02934B
:103D60000220B1214FF4D3721D23FEF710F8009505
:103D700023780193264B02930220D1214FF48C72B9
:103D80001D23FEF704F8009523780193214B02933D
:103D900040F21D10D1218B221D23FDF7F8FF0025D5
:103DA0006FE000BFF08FFE1FF38FFE1FF58FFE1F29
:103DB0000988FE1FEA8FFE1FF88FFE1F07000026EE
:103DC000E08FFE1F108FFE1FF28FFE1F22222204A3
:103DD000E98FFE1F0900001F6F0000401001F04036
:103DE000F68FFE1F6A90FE1F2AF5000835F50008C1
:103DF00040F500084AF5000854F500085FF5000892
:103E000069F5000873F5000877F500087BF50008F0
:103E1000714801089AF40008002B3FF42FAF1A25CF
:103E2000009523780193484B0293022071214FF4AF
:103E3000D3721D23FDF7ABFF009523780193434B0D
:103E40000293022091214FF4EE721D23FDF79FFF94
:103E50000095237801933E4B029302201D23B1214C
:103E60004FF4EE72FDF793FF009523780193394BE1
:103E700002933820D1214FF4D3721D23FDF787FF21
:103E800001253548354FFDF74BFF1A263448FDF71D
:103E9000E7FE009623780193324B02930220F12132
:103EA0005A221D23FDF773FFB5B100963B780193AD
:103EB0002D4B02936020F1214FF490721D23FDF7EA
:103EC00066FF00963B780193284B02930220D12194
:103ED00032221D23FDF75BFF2548FDF78FFE237877
:103EE00013227F2B0092234B05BF02934FF4807265
:103EF000002201920FBF4FF4D770019202934FF44A
:103F0000D670712132221D23FDF7B5FE1A48FDF748
:103F100075FE142200238DE80C00184B02934FF419
:103F2000C270F1215A221D23FDF7A5FE0020FDF7E6
:103F300065FE6FF0FE00FDF761FE05B0BDE8F040E4
:103F4000FDF77CBD05B0F0BD7FF5000854F5000815
:103F50005FF500088AF500086696AD00E98FFE1F40
:103F60002BA9EA0094F50008FD48010897F5000820
:103F70007F000003ACF400088000000399F50008FE
:103F80004369428C5A630022DA630369C2689B6802
:103F90001A61704738B50446006902F032F82369A7
:103FA000217E9A6801238B40D360E16905466069F0
:103FB000FCF787FE2046FFF7E3FF94F8253063B156
:103FC00094F8202060690021FCF792FE6269D2F823
:103FD000A43043F00103C2F8A430636994F82410BC
:103FE00002221A61012284F8262001B1DA602846F3
:103FF00038BD90F8262022B990F821300BB9FFF790
:10400000C9BF002070470000F0B52249224C24228D
:1040100002FB00122368956926460BB92260F0BDA9
:104020001C469A69AD1A002D22DCD3F804E0242244
:104030004243BEF1000F08D08F18CEF800708B50AD
:10404000C7F804E022465F6002E08C500A446260D8
:10405000242444430F1951F804E0DEF818402C449E
:10406000BC61DEF818703C1BCEF81840144607E01F
:104070001A683AB9242202FB001253601A60956153
:10408000012200E000221B680BB1002AC9D0346075
:10409000F0BD00BF489BFE1F7490FE1F104B2422F2
:1040A000504330B51C181958626852B90D4D29603B
:1040B00001B930BD8D69A4694A602C448C611A50E5
:1040C00030BD116009B9616030BD19584A60195896
:1040D000A2698D692A448A6100221A50626030BD4B
:1040E000489BFE1F7490FE1F214A70B5214D136836
:1040F0002C6801331360002C39D0A369012B02D93D
:10410000013BA36170BD0023A361A669002E2ED1DF
:1041100094F820306BB16069FFF7C0FF16496269FF
:104120006673012303FA02F20B6823EA02030B60B1
:104130001AE0237B43B9637B012B15D16069FFF73C
:10414000ADFF022363730CE0012B10D1637B012BC5
:104150000AD16069FFF7A2FFE369A3616069FFF715
:1041600053FFA368206998472C68002CCDD170BDFF
:104170006C90FE1F7490FE1F7090FE1F027810B5A9
:1041800032BB144B14491A60144B59601449FC2477
:1041900081F823409A6007221A60CB68C3F3022398
:1041A0000BB1591E00E01946C3F10703062B4FF06F
:1041B000010228BF062302FA03F3013B8B409B0058
:1041C0000749DBB281F82330064B002119600270E9
:1041D000002010BD7490FE1F7F32020010E000E04E
:1041E00000ED00E07090FE1FB0F57A7FF0B529D3A6
:1041F000154D2C680026AE460127B74017EA040C7F
:1042000006F101051BD13C43CEF800402427DFF81E
:104210003CE077430EEB07044EF807C02173022100
:1042200061734FF47A71B0FBF1F0411CE06166619B
:10423000A161A2602361C4F804C02846F0BD082D26
:104240002E46D9D10020F0BD7090FE1F489BFE1F66
:104250000A4A08B50138242303FB002303F10801AF
:104260005A7B022A08D1DA6901329A6101234B7123
:10427000FFF7CAFE002008BD012008BD489BFE1FB5
:10428000094A08B50138242303FB002308335A796F
:1042900032B1012A06D102225A71FFF7FFFE01E076
:1042A000012008BD002008BD489BFE1F0E4A2423A4
:1042B00010B5441E03FB042202F10801507B0123C8
:1042C00078B102280CBF094982F820304FF0000075
:1042D00001BF50730A68A34022EA030308BF0B60C2
:1042E00010BD184610BD00BF489BFE1F7090FE1FFA
:1042F000024B1B684FF47A70584370476C90FE1F56
:10430000F8B58468076800232361A3602368227FCF
:10431000092B34BF012502256B1E99403B6CE160DF
:104320009201D2B223F0C00313433B64436893F875
:104330007D300646002B61D04FF48043C7F818311A
:104340003846FCF7ADFD3846FCF7AAFD94F821305D
:10435000326823B1237F4FF6FF71603307E0A36912
:10436000A168022D0CBF595A595C237F603342F873
:104370002310A36830682B44A360A268E3689A42C4
:1043800026D294F8213023B1237F4FF6FF72603399
:1043900007E0A369A268022D0CBF9A5A9A5C237F9A
:1043A000603340F82320D0F814311F07FBD4FCF70A
:1043B00077FD23696269D054022D01BF23696269C8
:1043C0009B18000A08BF587023692B442361D0E76B
:1043D000D0F814311907FBD4FCF762FD2369626938
:1043E000D054022D01BF236962699B18000A08BFDF
:1043F000587033680522C3F818216BE03846FCF783
:104400004FFD3846FCF74CFD33689A6B1206FCD41E
:1044100094F8212022B1227F4FF6FF71203207E06D
:10442000A269A168022D0CBF515A515C227F203233
:1044300043F82210A3682B44A360A268E3683068A5
:104440009A4231D2836B1B06FCD494F8213023B1FD
:10445000237F4FF6FF72203307E0A369A268022D85
:104460000CBF9A5A9A5C237F203340F82320036DB7
:1044700013F4C04FFBD0FCF713FD23696269D054DD
:10448000022D01BF236962699B18000A08BF58709A
:10449000236932682B442361A3682B44A360D36C47
:1044A00043F44043D364C8E7036D13F4C04FFBD01B
:1044B000FCF7F6FC23696269D054022D01BF236921
:1044C00062699B18000A08BF58703268D36C43F4C5
:1044D0004043D36400202061E060A060F8BD4368E1
:1044E0005B681847F0B5476897F88440022C78D18C
:1044F000836800296ED0002A6CD093F8205005F014
:10450000FF06002D68D11C6800689961092C4FF0E6
:10451000010583F8205038BF01249E6028BF022483
:104520001E7F651EAA40056C5A60B601F6B225F0E2
:10453000C0053543056497F87C50002D35D04FF405
:104540000045C0F818519D6895423AD2D0F81451F0
:10455000EF04FBD493F8215025B11D7F4FF6FF7671
:10456000603506E09D68022C0CBF4E5B4E5D1D7FE2
:10457000603540F825609D6825449D60E3E793F829
:104580002150B5B11D7F4FF6FF76203540F82560EC
:104590009D6825449D60856C6D05FCD5C56C45F412
:1045A0008065C5649D6895420BD2856B2E06FCD450
:1045B000E5E79D68022C0CBF4E5B4E5D1D7F2035EC
:1045C000E4E7826B1206FCD4002083F820005860D8
:1045D000986002E0032000E02046012283F82220B8
:1045E000F0BD0120F0BD0000436893F88530022B38
:1045F00070B519D18468C9B1C2B1E57FC5B994F865
:10460000206006F0FF059EB9012361610949E37747
:10461000A16184F82130114684F82250FFF770FE22
:1046200084F82150E57770BD012070BD032070BD76
:10463000184670BD3C88FE1F38B5264C2649274DCC
:104640002046FCF709FCE36B254A23F00803E363EB
:10465000636B43F001036363636B23F0706343F0A8
:10466000E0636363636B23F47C1343F4B813636305
:10467000636923F0504343F000436361636923F4AB
:10468000FE4343F4A063636128460121FBF7BCFFAE
:10469000E369144A23F0500343F01003E361E36934
:1046A00023F00703E361236C23F00F0343F00103BE
:1046B000236428460021FBF7A7FF284602210A4A67
:1046C000FBF7A2FF204610210022FCF78DFC002002
:1046D00038BD00BF004002486088FE1F00850248C8
:1046E0007C90FE1F4088FE1FB844010838B5437B0C
:1046F00004466BB9436803B19847257B35B920461A
:1047000001F038FB10B16573012038BD01236373DC
:10471000002038BD08B5037B2BB900F0EBFF00305B
:1047200018BF012008BD002008BD10B5047B1CB9CE
:10473000BDE8104001F03ABB002010BD10B5047B6D
:104740001CB9BDE8104001F09FBB002010BD037BE9
:104750000BB900F0F3BE00207047F0B504468BB0F3
:104760000E46154601A82222002106F0B2FD237A4A
:10477000DA070CD42046FFF7EAFF03070BD516F043
:10478000FB0F06D0A6F10D03012B04D801E0032096
:10479000FEE00520FCE0252E00F2F980DFE816F0AF
:1047A000F5002F00260042003800F700F700E40073
:1047B000F700F7004B0054005D0066006F00F70043
:1047C000F700F700F700F700F700F700F700F70031
:1047D000F700F700F700F700F700F700F7007800A0
:1047E00085008700A200B100D300DA00237B002BF4
:1047F00040F0CB802046294600F02BFFB9E0237B18
:10480000002B40F0C2802046294600F0E1FEB0E0D7
:10481000237B002B40F0B980204695E8060001F08C
:1048200095F9A6E0237B002B40F0AF802046294677
:1048300000F014FF9DE0237B002B40F0A680204673
:10484000294600F07FFE94E0237B002B40F09D8002
:104850002046294600F0ABFE8BE0237B002B40F086
:1048600094802046294600F071FE82E0237B002BD5
:1048700040F08B802046294600F094FE79E0237BAF
:10488000002B40F082802046294600F003FF70E0B4
:1048900095F820200423102A8DF8043077D88DF85D
:1048A00005200DF10600294645E000231BE095F8A0
:1048B00020600123102E8DF8043068D895F82170FF
:1048C000102F64D8BB19294632460DF106008DF829
:1048D000053006F0F3FC01AB9819023005F1100128
:1048E0003A460BE0022395F820208DF80430102A78
:1048F0004DD88DF805200DF10600294606F0DEFCA6
:104900002BE095F820600523102E8DF804303ED85A
:1049100095F82170102F3AD8BB19294632460DF16F
:1049200006008DF8053006F0C9FC01AB981902307D
:1049300005F110013A4606F0C1FC237B2BBB204653
:1049400001A901220DE0237BFBB92046294600F096
:1049500071FD0EE008238DF80430227BAAB92046B1
:1049600001A900F08BFD04E0237B73B9204601F020
:104970005DF968B10F2806D00A2808D033280CBF8B
:104980000420012004E0022002E0002000E00420D6
:104990000BB0F0BD2C4A38B5D2F89C302B4C2C4DC6
:1049A00043F00103C2F89C30D2F89C3023F0F003AE
:1049B00043F08003C2F89C3020460521254AFBF7CE
:1049C00023FE204605210122FCF7ACF920460621F2
:1049D000214AFBF719FE2046062104F580740122C6
:1049E000FCF7A0F9204600211C4AFBF70DFE2046EB
:1049F00000210122FCF796F928460621184AFBF708
:104A000003FE284606210122FCF78CF928460721DF
:104A1000144AFBF7F9FD284607210122FCF782F929
:104A200020460121104AFBF7EFFD01210A462046EE
:104A3000FCF778F90D4A136823F0111343F4881337
:104A400043F00103136038BD00400050008302486A
:104A500000810248B04501089045010880450108E1
:104A600060450108A045010870450108B4400050A8
:104A700010B51048036819680F4B0A8E92B21A805D
:104A80004A8E0E4992B20A801A8812B2002A1C4637
:104A900003DA098889B200F036FC2388C3F30E03D9
:104AA0003BB1054B03481988BDE8104089B200F0BE
:104AB000E9BB10BDF088FE1F689CFE1F6A9CFE1FAC
:104AC00018B10368002283F85C20704738B503688A
:104AD0000446012283F85C2008460D4A0021234643
:104AE000FFF782FB012805460CD0FFF7B1FB30B180
:104AF0002846FFF7DBFB236800225A653120236834
:104B00005D6538BD236800225A652F2038BD00BF7F
:104B1000C14A000810B50446006800213022203048
:104B200006F0D7FB23680022627283F850202168C8
:104B300001234B7621680B7621680B7721688B76F1
:104B4000236822721A68938D23F004031B041B0C44
:104B5000938510BD38B503685D6D04462846FFF7A0
:104B60008FFB30B12846FFF7A1FB236800225A656E
:104B7000322038BD70B503681A6892F82F300B43A5
:104B8000DBB2054682F82F300E460C49FFF79EFF38
:104B90002B685C6D84B193F85C202AB11A6892F896
:104BA0002F403440F7D100E02E242846FFF7D2FFF3
:104BB0002B68586DFFF77AFB204670BD20A10700D7
:104BC00038B5036812490122044683F85C20FFF7D8
:104BD0007DFF23685A6D92B193F85C2022B11A7A56
:104BE000002AF9D0002500E02E2500221A72204666
:104BF000FFF7B0FF2368586DFFF758FB00E0312541
:104C000023689A7E1F2A18BF1D7E284638BD00BF24
:104C100040420F0003685A0054BFD80F012013F020
:104C2000005F18BF012013F0806F18BF012013F040
:104C3000805F18BF012013F0006F18BF012013F42C
:104C4000004F18BF012013F4001F18BF012013F4F8
:104C5000801F18BF012013F4002F18BF012013F08C
:104C6000807F18BF012013F4803F18BF012013F08C
:104C7000080F18BF0120704770B50368404904460B
:104C80001868FCF7AAF823689A88110703D11B68F3
:104C90005B6ADA0705D520460221FFF76BFF054660
:104CA00000E025252268938803F070031BB9136880
:104CB0005B6A9B0704D520460421FFF75BFF05468E
:104CC000236830491868FCF793F8236893F851601B
:104CD000012E40D118682C490022FCF79CF823686B
:104CE0002A4983F85C602046FFF7F0FE054690B144
:104CF000236893F85C206AB19A79012A0BD0DA799B
:104D0000012A08D018684FF40041FCF776F8002813
:104D1000EED100E02E252046FFF71CFF2368586DDA
:104D2000FFF7C4FA2268002393712268D3718DB90A
:104D300023681868438E9BB263B12946FCF758F884
:104D4000236810491868FCF753F820460621FFF73E
:104D500011FF252523681A68538E9BB233B9536A15
:104D6000C3F303530F2B0CBF2425252523680849C3
:104D70001868FCF723F8236828461D7770BD00BF2C
:104D80000000FF100080FF00FA45010840420F00BC
:104D90000080FF102DE9F743984603680A9F91466B
:104DA000002283F8512002680123537602680546E9
:104DB00013760E466E49FFF789FE2B685A6D04463E
:104DC00092B193F85C203AB11A68516A8907F8D415
:104DD000526AD207F5D400E02E242846FFF7BAFE27
:104DE0002B68586DFFF762FA2A681068436ADB0780
:104DF0001ED4337803F0200101F0FF0449B9717823
:104E000001F03F010D2904D003F00301032940F014
:104E1000A480416A89070AD424B903F00303032B51
:104E200040F09B802B7A43F020032B7295E01B24EB
:104E3000E4B2A4F11A03012B40F2958010683146C8
:104E40004A46FBF7E8FF28464949FFF73FFE00289E
:104E500040F089802B6893F85C207AB94FF0000904
:104E600083F806902846FFF775FE2B68586DFFF70C
:104E70001DFA2A68547E1C2C5DD103E09A79002A21
:104E8000E9D0EBE77378CDF8009013F03F01CDF84F
:104E900004904ED00F294CD012681669009616F077
:104EA000007F03F03F022B7A04D0032A02D043F0A4
:104EB000080301E023F008032B72B8F1060F05D8B0
:104EC000DFE808F037060B142B2D2B0001244AE0F5
:104ED0003E606846FFF79EFE3DE03E606846FFF795
:104EE00099FE30B32846FFF76BFE34E0214B1A6978
:104EF00012023A601A695969120E42EA01227A6076
:104F00005A699969120E42EA0122BA609A69D9690E
:104F1000130E43EA0123BB600BE03E6009E002A8E8
:104F2000B3B240F8043DFFF775FE360C04463E6010
:104F300019E0002417E0022C04D1737803F03F033A
:104F4000082B10D033789B0644BF012382F85130E0
:104F50002846FFF791FE044605E02B7A43F0100344
:104F60002B72002464E7204603B0BDE8F08300BF45
:104F700040420F0000C001487FB504AD002345F852
:104F8000043D03680C49B3F84C40009524042246C4
:104F900001230646FFF7FEFE60B9039B03F4E853C6
:104FA0005B0A042B06D000953046044922460223B2
:104FB000FFF7F0FE04B070BDFC450108F2450108A2
:104FC0002DE9FF41984600230393437A04461807CE
:104FD0000D4603AE58BF4D021746009658BF570204
:104FE00020462A461B490123FFF7D4FE054660BB35
:104FF0000096204618493A460123FFF7CBFE0546A6
:1050000018BB2A460223154900962046FFF7C2FE28
:105010001349204601FB08F1FFF758FD23685A6D3C
:10502000054692B193F85C203AB11A68516A890733
:10503000F8D4526AD207F5D400E02E252046FFF7B7
:1050400089FD2368586DFFF731F9284604B0BDE8A3
:10505000F08100BF124601081446010816460108F7
:1050600040420F002DE9F0410E461E490446174606
:105070009846FFF72BFD054600282FD1236893F8AB
:105080005C2012B1DA79002AF9D02046FFF762FDE0
:105090002368586DFFF70AF922680023D37122684C
:1050A000117E1E2912D1434518D0012F05D1226847
:1050B0001268126A46F8232006E0022F01BF226818
:1050C00056F82310126811620133ECE7012382F8CD
:1050D00051302046BDE8F041FFF7CEBD2846BDE87F
:1050E000F08100BF40420F002DE9F04F9B4603685E
:1050F00087B0164601229A7600230293437ADDF8A0
:1051000040809DF8449004960D46190758BF2A68C0
:105110004FF400735CBF52022A60039322238DF880
:1051200014300368044603AF18684FF0010A39468B
:105130008DF815A0FBF774FE23684FF08071186896
:10514000FBF73CFE02AB00932A68204659465346C3
:10515000FFF720FE054600283DD166B120464146B6
:105160004A468023FFF77EFF0546002833D1013EE3
:1051700008F50078F1E72046FFF722FD054650BB11
:105180002368DA7E092A26D11A680396928FD207FD
:105190000BD51B7F242B1ED1009720461049324689
:1051A0000123FFF7F7FD60B915E020460221FFF764
:1051B000E1FC80B90097204609492A460123FFF700
:1051C000E9FD252807D020460421FFF7D3FC10B9BC
:1051D00023681B689B8F284607B0BDE8F08F00BF8F
:1051E000FA450108F0B587B01E46002302938DF8FA
:1051F00014308DF815300368039604460F4618687E
:1052000003A91546FBF70CFE02AB00932A46204685
:1052100039460123FFF7BEFD054668BBF31C204657
:105220000C999DF834209B08FFF71CFF054618BB1E
:1052300020461349FFF74AFC0546E0B9236893F876
:105240005C2012B11A7A002AF9D02046FFF782FCBE
:105250002368586DFFF72AF8236800221A72236822
:105260009A7E1F2A08D0012283F851202046FFF79A
:1052700003FD054600E02E25284607B0F0BD00BF1F
:1052800040420F0038B5044688060D460AD523680B
:105290001E221A76236820211868FBF7A9FD2368CF
:1052A0000122DA71E9060AD523681E221A762368DC
:1052B00010211868FBF79CFD23680122DA71AA0708
:1052C0000ED523681F229A76236802211868FBF7FF
:1052D0008FFD237A23F020032372236801221A72A0
:1052E000EB070ED523681C225A7623680121186823
:1052F000FBF77EFD237A23F010032372236801223B
:105300009A71002038BD38B503680446C8070D46B9
:1053100099800FD5236802225A76237A23F010034E
:10532000237223684FF480311868FBF761FD23680E
:1053300001229A71A9070FD5236803225A76237A8E
:1053400023F01003237223684FF400311868FBF731
:105350004FFD236801229A716A070FD52368042242
:105360005A76237A23F01003237223684FF48021A6
:105370001868FBF73DFD236801229A712B070FD5B2
:10538000236805225A76237A23F0100323722368B8
:105390004FF400211868FBF72BFD236801229A7156
:1053A000E8060FD5236806221A76237A23F0200315
:1053B000237223684FF480111868FBF719FD2368E6
:1053C0000122DA71A9060FD5236807221A76237AFB
:1053D00023F02003237223684FF400111868FBF7B1
:1053E00007FD23680122DA716A060FD523680822B7
:1053F0001A76237A23F02003237223684FF4800166
:105400001868FBF7F5FC23680122DA71EB050FD56C
:1054100023680922DA76237A23F030032372236883
:105420004FF080711868FBF7E3FC236801229A7142
:10543000012038BD30B585B004AB002243F8042DFF
:105440000268B2F84C2000930D4612040A49012369
:105450000446FFF79FFC68B9039B9B0145BF0123EE
:105460002B702870237A56BF237A43F0080323F069
:105470000803237205B030BDFC4501082DE9FF414A
:10548000164680460F46FFF777FD024600284DD1AD
:10549000D8F8003027491A68938923F010031B04B9
:1054A0001B0C93817C78013424F00104023403AD99
:1054B0002246009540460123FFF76CFC0246002877
:1054C00034D10221A3B20191009740461A49FFF757
:1054D00089FED8F800301A68536A9C07FCD44FF450
:1054E00000720123009540461249FFF753FCD8F89B
:1054F00000301B680246596A8807FCD4596AC907FC
:10550000F9D49AB940460DF10B01FFF793FF02461B
:1055100060B99DF80B30012B01D1012E01E023B9B8
:10552000002E0CBF0022102200E01022104604B012
:10553000BDE8F0810046010818460108007A00F035
:105540000F007047437A0B600020704703685B6A66
:10555000C3F30B030B800268D38C926A43EA0243C5
:105560004B6003685B8D0B72036893F82F304B72AE
:105570000368DB8D8B720368DB6A1B0ACB720368DE
:10558000DB6A0B73036893F82B304B7303681B6B58
:105590001B0A8B7303681B6BCB7303685B8E0B74E6
:1055A0000020704703681B6A0B6000207047026888
:1055B000013102F13403403253F8040B41F8040B7B
:1055C0009342F9D11A880A809B788B70002070472B
:1055D00030B5437A87B003F0040305460C4601A8B2
:1055E00003F0FF016BB10021142205F072FE284682
:1055F00001A9FFF7DCFFC8B9039B9B0203F5806399
:1056000013E0142205F065FE284601A9FFF7CFFF3D
:1056100060B9029BC3F3C2339A1C01239340BDF8C7
:105620000C20C2F30B0202FB0333236007B030BD32
:1056300037B50D4602A9002341F8043D1446FFF793
:10564000C7FF20B9019B2C449C4288BF332003B084
:1056500030BD4FF400730B800020704730B5437AA3
:1056600087B003F0040305460C4601A803F0FF01D0
:1056700003B10021142205F02CFE284601A9FFF7F2
:1056800096FFBDF80830C3F3C6130133236007B09B
:1056900030BD000030B585B0002304460D460393AD
:1056A000FFF76AFC0246F0B923681049B3F84C20B2
:1056B00003AB0093120420460123FFF76BFB024665
:1056C00088B9236819688B899BB223F0100343F0D3
:1056D00010038B8101230193009520460449402348
:1056E000FFF780FD0246104605B030BD1A4601089E
:1056F000204601082DE9F043044697B07049FFF7B2
:10570000E5F923685A6D0546002A00F0098293F8EE
:105710005C2022B11A68928D9607F8D500E02E25FC
:105720002046FFF717FA2368586DFEF7BFFD2E2DB0
:1057300000F0F68123681A68938D9BB243F004034E
:10574000938523681A6892F8293043F0010382F8A0
:105750002930236893F85E70002F40F0E181002229
:105760000092204657491346FFF714FB8046054632
:10577000002840F0E08016AE534946F8400D4FF443
:10578000D572009620460623FFF704FB58B9069B06
:10579000DAB2AA2A0FD1C3F30323012B0BD122685B
:1057A00082F8503008E023685A7E022A04D183F838
:1057B0005080404600E0192017B130B10546B9E0ED
:1057C00019284FF00107CAD0F7E723683F49B3F81B
:1057D0004C7016AB3A4643F8480D2046009301231F
:1057E000FFF7D8FA236893F8502005460AB9122823
:1057F00002D0002D40F09F80203300932046344992
:105800003A460423FFF7C6FA1228054602D00028BC
:1058100040F0918000272368069793F85030BB42F0
:105820002C4B0CBF4FF48018984600962046274911
:1058300000220123FFF7AEFA054658BB236824492E
:1058400020330093204642460423FFF7A3FA08B111
:1058500012282AD12368012283F85C2023681E4A7B
:105860000021596544F620602346FEF7BDFC8146C1
:1058700088B123685865FEF7EBFC60B9226892F89E
:105880005C30002BFBD14846FEF7FAFC4846FEF799
:105890000DFD00E06427312F07F1010206D82368CF
:1058A0001B6A002B02DB1746BFE70546002D42D1DD
:1058B0002268637A92F8501081B943F0020314E031
:1058C00040420F00E8450108F44501081A46010866
:1058D0002646010800001040C14A0008116A48002D
:1058E0004CBF43F00C0343F0010324326372009277
:1058F00020468D4900220323FFF74CFA0546D0B914
:1059000023688A494C3300932A4620460523FFF733
:1059100041FA054678B920463146FFF78BFD05462A
:1059200048B99DF81830012B237A23F0030308BFF0
:105930002B25237215B12B2D40F0F2800023039309
:10594000049305932368267AB3F84C70784934336E
:105950003F0406F00806009320463A460323F6B2B9
:10596000FFF718FA00284ED1002E4CD131464022C4
:1059700006A805F0AEFC204606A9FFF78BFE0546FB
:10598000002840F0CD80069BC3F307421B0E53EA6C
:1059900002231EBF237A43F004032372637AD906DD
:1059A00040D42046FFF7E8FA0546002840F0B880CA
:1059B00023686049B3F84C2003AB0093204647EAC4
:1059C00002420123FFF7E6F90546002840F0A880CF
:1059D000236859491A6893899BB223F0100343F056
:1059E0001003938104AF012301932A4608230097F3
:1059F0002046FFF7F7FB2368054697E8030044338A
:105A000083E803000CE02046FFF7B6FA23681A6823
:105A100093899BB223F0100343F010030546938152
:105A2000002D7DD104AB0093204644494FF4007211
:105A30000123FFF7AFF90546002871D1002E63D18D
:105A400016AE46F8400D2046FFF796FA50BB236885
:105A500040211868FBF7C1F9236893F845205207E5
:105A60000CD423681B6893F8282002F0DD0283F829
:105A7000282093F8282042F002021EE0B3F84C20C0
:105A80002C490096204612040123FFF783F940B900
:105A9000009620462A4902220123FFF77BF90028BD
:105AA000DFD060B123681B6893F8282002F0DD0284
:105AB00083F8282093F82820D2B283F82820304693
:105AC0000021402205F005FC236893F844301B07B1
:105AD00012D02046FFF750FA70B9012301930096C7
