:020000040C00EE
:100000000088FE1F010200089902000899020008FA
:1000100099020008990200089902000800000000F7
:10002000000000000000000000000000990200082D
:10003000990200080000000099020008052100084C
:100040009902000899020008990200089902000824
:100050009902000899020008990200089902000814
:1000600099020008000000000000000000000000ED
:100070009902000800000000990200089902000897
:10008000A15A000899020008990200089902000884
:1000900099020008990200089902000899020008D4
:1000A00099020008990200089902000899020008C4
:1000B00099020008990200089902000899020008B4
:1000C00099020008990200089902000899020008A4
:1000D0009902000899020008990200089902000894
:1000E0009902000899020008990200089902000884
:1000F0009902000899020008990200089902000874
:100100009902000899020008990200089902000863
:100110009902000899020008990200089902000853
:100120009902000899020008990200089902000843
:100130009902000899020008990200089902000833
:100140009902000899020008990200089902000823
:100150009902000899020008990200089902000813
:10016000000000000000000000000000000000008F
:1001700099020008990200089902000899020008F3
:1001800099020008990200089902000899020008E3
:1001900099020008990200089902000899020008D3
:1001A00099020008990200089902000899020008C3
:1001B00099020008990200089902000899020008B3
:1001C00099020008990200089902000899020008A3
:1001D0009902000899020008990200080000000036
:1001E00099020008990200088D2A00089902000867
:1001F00099020008000000009902000800000000B9
:10020000DFF874D01D4880471D4C1E4DAC4209DA02
:1002100021686268A368043BA2BFC858D050FAE7BF
:100220000C34F3E7184B194CA34208DA19685A68E2
:100230000020043AA4BF8850FBE70833F4E71448D1
:100240008047144880470000904D010C0088FE1F35
:10025000D4070000904D010C0088FE1F0000000034
:10026000D48FFE1F081100000000002000000000D5
:1002700000000020000000000088FE1F2503000889
:1002800048020008600200086002000878020008C6
:1002900059B200083D5A0008FEE700001D4BDB681C
:1002A000D90310B525D51C4BDA6812F0010F1C4696
:1002B00002D105F091FA00E018482268164B520767
:1002C00010D59A6899689B68C2F30362C3F3064429
:1002D000531C04FB0333B0FBF3F0C1F3062303FB11
:1002E000000007E09B6803F07F030133B0FBF3F0ED
:1002F00000E00A48074AD368DBB20133B0FBF3F0F1
:10030000136903F001030133B0FBF3F0044B1860F1
:1003100010BD00BF004600501047005000366E016F
:10032000C0FF032038B5094A094D4FF00054234659
:1003300003CBAB42106051601C4602F10802F6D1BB
:1003400005F00AFA05F04CFA38BD00BFC4FF0320DF
:1003500010000020000000002DE9F04FADF5457DB4
:100360001746044630220E460EA800211D460AF00C
:10037000B4FF002168221AA80AF0AFFF34A80021B8
:100380004FF410720AF0A9FFAF4240F22E81052D02
:1003900000F22B8104EB87030793A046079B984547
:1003A0002FD058F8040B0AF0C7FBCDE9020156F82C
:1003B000040B0AF0C1FB9FED907BCDE904018DEDAC
:1003C000007B0DF1380A4FF000096B1C9945E5D20E
:1003D000DDE90023DDE904010AF002FC02460B46D8
:1003E000DAE900010AF04AFADDE90223EAE802014B
:1003F000DDE900010AF0F4FB09F10109CDE9000192
:10040000E3E738460AF076FB6B1CCDE91A0100934E
:100410005B00029303F1010B079B9C421FD054F831
:10042000040B0AF089FBCDE904011CAE8046894625
:100430004FF0010A42464B46D6E900010AF01EFA87
:10044000DDE90423E6E80201404649460AF0C8FB1C
:100450000AF1010ADA4580468946EBD3DCE7009BC6
:100460004FEA031AEB000493049A34AB9A18049BE6
:10047000002008330AF1080607930146009B9942C1
:1004800018D2CF0000231C1834AD2C440DF1680E97
:10049000DD197544D5E90089C4E90089079C083352
:1004A000A342F0D1564D0024C2E902450131324445
:1004B0005044E3E74FEACB03029A08936FF0070337
:1004C000002453430993A346254634AB5B44D3E948
:1004D000008900224046494600230AF0E9FD002831
:1004E00040F0838034AB1F190646D7E900014B4624
:1004F00042460AF09FFC029B01369E42E7E8020159
:10050000F3D1EB00002634AF0C93B046A84508D1D8
:10051000099B1E44009B08F1010898455744F5D3F8
:1005200023E00C9BFB1893ED007B8DED0A7BB94615
:100530004FF0000C09EB06032344D3E90023DDE967
:100540000A01CDF834C00AF04BFB0B460246D9E94C
:1005500000010AF091F9DDF834C0029B0CF1010CA6
:100560009C45E9E80201E5D3D2E7089B9B44009B48
:1005700001359D425444A8D3029BDDF838A3DB002B
:1005800000250293AB46049B03F108072F44002685
:1005900000244FF000084FF00009E21934AB1A4470
:1005A0000EAB2344D2E90001D3E900230AF018FB83
:1005B0000B460246494640460AF060F9079B08345C
:1005C0009C4280468946E8D10AF0ECFD009B01364A
:1005D0009E42DDD3029B4AF8040B1D44009B0BF1A5
:1005E000010B9B45CFD3002000E0FF200DF5457D9A
:1005F000BDE8F08FAFF30080000000000000F03F86
:100600000000F03FAFF3008001F0FC030344F0B5BD
:1006100001F003041E69E400F825A54026EA05055B
:100620001D61466F4F000325BD4026EA050545675D
:10063000164DA84203D005F58075A84207D1056E76
:10064000012606FA01F125EA0101016618E092F996
:100650000050002D14DA55688D404560CD0800EB40
:10066000850001F00701066C890007258D4026EA08
:1006700005050564167A056C06FA01F12943016443
:1006800012781969A2400A431A61F0BD008E02482F
:10069000184B5B68DB0710B5044629D400F080F9DD
:1006A00008B900F063F9208A00F05AFB124BD3F826
:1006B000C42012F4006F1A46F8D103F520632168B4
:1006C0001962D2F8C410C804FBD462685A620A4B9B
:1006D000D3F8C42012F4007F1A46F8D103F5206342
:1006E000A1689961D2F8C4104905FBD4E268DA61C7
:1006F000002010BD004A005000400050044BD3F8C9
:10070000C4305B04FAD4034A13691843106170477C
:1007100000400050004A005010B50446FFF7BEFDEF
:10072000064B07481B68B3FBF0F303FB04F0002300
:10073000834202D000BF0133FAE710BDC0FF03209F
:1007400040420F00020F0C235343024A20F0704036
:10075000985070471444005020F070420C23000F52
:10076000584303F1A04303F58843C3581A4214BF0A
:100770000120002070470000034B044A5B691068A9
:1007800003F00103D840704700460050C0FF03202B
:10079000034AD36823F480331843D060704700BF06
:1007A00000460050034A936923F480331843906154
:1007B000704700BF00460050034A536A23F4403399
:1007C00018435062704700BF00460050064AD36885
:1007D00020B923F4807323F0010303E043F4807312
:1007E00043F00103D360704710470050054BD3F826
:1007F000C4301B07FAD4044AD36823F040031843DB
:10080000D06070470040005000430050054BD3F8C3
:10081000C4301B07FAD4044AD36823F0800318437A
:10082000D06070470040005000430050034AD36836
:10083000013823F0FF030343D360704700460050A4
:10084000034A136A013823F001030343136270471C
:1008500000460050034A1369013823F001030343A3
:100860001361704700460050034A5369013823F072
:10087000010303435361704700460050034A9369E4
:10088000013823F00703034393617047004600508B
:10089000034AD369013823F03F030343D361704710
:1008A00000460050034A536A013823F0FF03034314
:1008B0005362704700460050014B5860704700BFBC
:1008C00000460050020F0C235343024A20F07040B0
:1008D000985070474846005020F070420C23000F9B
:1008E0005843034BC3581A4214BF012000207047DD
:1008F000404600500F4B5A6942F001025A615A6952
:1009000001380139000642F0100240EA01215A6123
:1009100059615A6942F040025A615A6922F0100244
:100920005A615A6942F480225A611A695207FCD509
:10093000704700BF1047005010B50B4C636801288A
:1009400043F4801363600AD1636823F48013636007
:100950006420FFF7E1FE636843F4002363606420D2
:10096000BDE81040FFF7D8BE104700500A4B1A6888
:10097000D20704D5094B1A68900506D470470122A6
:100980005A601A68D107FCD5F4E74FF400729A60F8
:100990001A689205FCD47047004200500044005091
:1009A000054B186810F001001EBFD3F8000280F458
:1009B0000070C0F34020704700420050034B18689D
:1009C00080F00800C0F3C000704700BF0043005033
:1009D000104B4FF40002DA600F4AD16921F0300168
:1009E000D16159680802FCD50A494FF40030C8604B
:1009F000082151605A689103FCD5064A4FF4002142
:100A0000D1600549CA6842F00802CA605A681203F8
:100A1000FCD57047744000500043005070B50C4D39
:100A20000C4E6B6823F480336B60746804F0D4FE62
:100A3000094BB0FBF3F024F47023013823F03003AA
:100A400043EA004373606B6823F400336B6070BD4E
:100A50001047005000470050A0252600044B18689E
:100A600000F46070A0F5607358425841704700BFB1
:100A700010470050034A536823F4803323F00203E5
:100A80005360704710470050034A536843F4803363
:100A900043F002035360704710470050054A9368C3
:100AA000013823F4FE0343EA004393603220FFF74A
:100AB00033BE00BF104700502DE9F0410C460546FB
:100AC00090461F46069EFFF781FE012C314C52D105
:100AD00035B904F081FE304DB0FBF5F0800501E042
:100AE0004FF0C060636843F001036360636843F0E4
:100AF00010036360A168294B08F1FF320B4043EA01
:100B000002637A1E43EA022278431823B0FBF8F509
:100B1000B5FBF3F39B0D013B42EA0343A36063681B
:100B200043F040036360636823F01003636063680D
:100B300043F4802363602368164A5907FBD5536842
:100B400023F0010353602368DA07FCD43C20B5FB93
:100B5000F0F0800D864201D2FFF7A0FF5A20B5FBCE
:100B6000F0F0800D864201D2FFF798FF3046BDE8D5
:100B7000F041FFF793BFA368013E23F07F031E43BC
:100B8000A660636843F0010363602368DB07FCD55C
:100B9000BDE8F0811047005040420F00FF8080F018
:100BA00037B504460020FFF7F3FDFFF7DFFEE379DA
:100BB0001BB9607AFFF72AFE06E0FFF709FFFFF78F
:100BC000FDFE0028FBD0F4E71B4BD3F8C430002B0C
:100BD000FAD1207AFFF7B0FE207CFFF727FE607C79
:100BE000FFF738FEA07CFFF72BFEE07CFFF73CFE12
:100BF000A37923B9E3784BB9FFF746FF10E0FFF77D
:100C00000DFFFFF72BFF0028FBD0F3E7FFF732FFC4
:100C1000A578A088E178627823780095FFF74CFFEB
:100C2000E068B0F5803F01D1FFF7B2FD03B0BDE849
:100C30003040FFF733BB00BF0040005010B5044602
:100C40001020FFF739FE124B9C4204D10420FFF71D
:100C500039FE042016E00F4B9C4204D10820FFF718
:100C600031FE08200EE00C4B9C4204D11020FFF70F
:100C700029FE102006E0094B9C4207D10848FFF7E7
:100C800021FE0748BDE81040FFF75CBD10BD00BF66
:100C900000C000400000014000400140004000480A
:100CA0000100001038B504460D46FFF7C7FF4FF4AA
:100CB0008073E360236823F4404343EA8531216075
:100CC00038BD0B6843614B79C3F340131B05436088
:100CD0000B7903F00F0343624B7903F00F030362B8
:100CE0004B79C3F3001383610B791B09C36270470F
:100CF000092930B59CBF094C094DD0F8A83099BFDF
:100D0000645C35F811104FF440510C2423EA0103C0
:100D1000A2401A43C0F8A82030BD00BF2CF3000841
:100D200036F30008436F490010B503248C4023EAD2
:100D300004034367436F8A401343436710BD0000B9
:100D4000054BD3F8C430DB05FAD4044A536843F0AA
:100D500001035360704700BF00400050004A00503C
:100D6000054BD3F8C430DB05FAD4044A53689BB270
:100D700043EA00405060704700400050004A005075
:100D8000024B1A6A02605B6A43607047004A005077
:100D900010B5044C2046FFF795FD2046BDE81040F5
:100DA000FFF7D0BC40000010838E0B439BB28386BC
:100DB000C38E9BB243EA1141C186704738B50446E1
:100DC0000D46FFF7F1FF238F2B439BB22387618FE3
:100DD00089B241EA1541618738BD038F9BB223EA8E
:100DE00001030387438F9BB223EA11414187704778
:100DF0008BB2090C038641867047B1F5803F03D260
:100E0000038E9BB20B4202E0438E13EA114314BFE0
:100E10000120002070470B888260C381002070474A
:100E20000B8883808B88C38083890A7A9BB223F0E6
:100E30002003134383812AB9838923F002031B040F
:100E40001B0C838183894A7A9BB223F00C0343EA0B
:100E5000820383817047000038B50D46044600F0D8
:100E600009F96B794BB92B7929682046022213B115
:100E700000F072F801E000F031F8084B63634FF4C2
:100E8000A263A3636B791BB9AB7943F00B03E363F4
:100E90004FF0FF33E3642B89236438BD02013F0721
:100EA000D0F80C3113F0E06F0CBF406DD0F81C018E
:100EB00080B2704708B50848FFF704FD0648FFF701
:100EC0000BFD0028FAD10448FFF73CFC0248FFF76D
:100ED00043FC0028FAD108BD8000001063292DE9E9
:100EE000F04105460C46164630D97AB3FFF744FC6C
:100EF000642140F2FF3CB0FBF1FEB4FBF1F40121B0
:100F00007443CEEB8E270A466046B7FBF4F34FEAF4
:100F10009328B8F5806F06D2C3F3090363453EBF3B
:100F20009C46414602460138CEEB0707EDD142F41C
:100F300000422A616A69074B013E134043EA862357
:100F4000013943EA01436B61BDE8F0810120BDE84E
:100F5000F08100BFEF8000FC2DE9F0410F46904684
:100F60000546FFF709FC08FB07F2904237DD90FBCE
:100F7000F2F35100012640F2FE34A34204D990FB63
:100F8000F1F301361144F6E75A1C08FB06F406FBA0
:100F900003F15443B0FBF4F43C1B002C08FB01F1BB
:100FA000B0FBF1F0A7EB0007B8BF6442002FB8BF59
:100FB0007F42BC42B8BF1346C3F5806343F480430D
:100FC0002B616A69074B08F1FF38134043EA882315
:100FD000013E43EA06436B610020BDE8F081012039
:100FE000BDE8F081EF8000FC10B5072384698B40D9
:100FF00024EA03038A401A43826110BD08B5194BE5
:10100000984214D14FF40060FFF75CFC4FF400608D
:10101000FFF762FC0028F9D14FF40060FFF792FB64
:101020004FF40060FFF798FB0028F9D108BD0E4B84
:10103000984203D1BDE80840FFF73CBF0B4B9842F4
:101040000FD10B48FFF73EFC0948FFF745FC00288D
:10105000FAD10748FFF776FB0548FFF77DFB00282C
:10106000FAD108BD080003400800024808400248C1
:1010700000010010144B984210B5044603D003F54C
:101080000073984201D1114811E0114B984203D0EE
:1010900003F50073984202D1FFF70CFF09E00D4BF6
:1010A000984203D003F50073984202D10A48FFF733
:1010B000A5FF0323E360E368DB07FCD5236C23F083
:1010C0000F03236410BD00BF00000340080003406D
:1010D00000000248004002480840024808B50120CC
:1010E000FFF7F0FB0120BDE80840FFF72BBB38B548
:1010F0000D460446FFF7F2FF6B6923606B6843F40B
:101100000043C4F88030AB68C4F8A030EB68C4F882
:10111000A4302B69C4F880322B68C4F8B83038BDCD
:10112000283312B940F21F7200E0024A0A4040F828
:101130002320704700001F07D0F8803043F00043A1
:10114000C0F880300023094A52F82320D2F88010DA
:1011500011F4403F05D0D2F88010C90001D500BF7E
:10116000F9E70133042BEED1704700BF4CF30008C0
:10117000D0F8403123F00F03C0F840310329D0F8F4
:10118000403188BF04391943C0F840117047F0B5A9
:1011900042B901F01F051F26C1F302214FF4E06E92
:1011A000082709E0C1F304454FF4F816C1F30261C2
:1011B0004FF0E06E1022182700EB8303B940D3F8FC
:1011C000A04024EA0E04214321EA06019540294368
:1011D000C3F8A010F0BDF8B500220C460546134632
:1011E0004968FFF7D4FF2846616801220023FFF712
:1011F000CEFF2846A16800220123FFF7C8FF012285
:1012000013462846A168FFF7C2FF2369E178C5F8B5
:101210008030E368C5F8B830C1F30012C1F3810330
:10122000C1F34017C1F380106188C1F3090621782A
:1012300001F0070141EA0641C5F8F011D5F8F011B7
:1012400041F0004141EA027242EA836242EA477396
:1012500043EA8073C5F8F031F8BDD0F8803023F050
:1012600003031943C0F8801070470000304AD2F8D9
:10127000843023F08063F0B5C2F88430D2F884342F
:1012800023F08063C2F88434D2F8843823F080637A
:10129000C2F88438D2F8843C23F08063C2F8843CDE
:1012A0000B7813F00305C3F381030CBF00274FF441
:1012B00000671A0200241F4B53F82460D6F88430CC
:1012C00023F44073134301343B43042CC6F88430A9
:1012D000F1D14B68164A43F4000343F40043C0F8CD
:1012E00000328B6843F00103C0F80432022D02BFC4
:1012F000D0F8043243F48033C0F80432D2F884309A
:1013000043F08063C2F88430D2F8843443F08063C1
:10131000C2F88434D2F8843843F08063C2F8843849
:10132000D2F8843C43F08063C2F8843CF0BD00BF37
:10133000004400404CF3000830B50123D0F8885039
:101340008B4025EA0304137B8B402343C0F888308D
:1013500092F90D30002B19DB012907D1D0F8B030FC
:1013600023F4F853C0F8B030082507E029B9D0F8C5
:10137000B03023F01F03C0F8B030002592F90D30D3
:10138000D0F8B040AB402343C0F8B030D0F8C840EC
:1013900053682343C0F8C830D0F8D0409368234343
:1013A000C0F8D0308031136840F8213030BD0000E3
:1013B00008B50C4B1A680AB90B4A1A601A680B492F
:1013C000C31C23F0030313448B4203D20549104688
:1013D0000B6008BD09F03AFF0C2303604FF0FF30AB
:1013E00008BD00BFD48FFE1F00000020C0FF0320F7
:1013F00070470000034B197C1A684FF480338B4010
:10140000536070476CF7000813B5084C02A901221D
:1014100001F8010D204601F073F82268936CDB0798
:1014200001D500BFFAE702B010BD00BF4888FE1F1B
:1014300010B50446C0B2FFF7E7FFC4F30720FFF77B
:10144000E3FFC4F30740FFF7DFFF200EBDE81040C5
:10145000FFF7DABF38B5074C074D2A23012228468B
:101460002146237001F0CEF8AA68D37F002BFCD16F
:10147000207838BD409BFE1F4888FE1F034B197C17
:101480001A6801238B405360704700BF6CF7000857
:1014900038B505460C46FFF7ADFF2846FFF7B4FF09
:1014A0002046FFF7B1FF0020FFF7AEFFBDE8384050
:1014B000FFF7E4BF10B50446FFF79CFFC4F30740F5
:1014C000FFF7A2FFC4F30720FFF79EFFE0B2FFF78C
:1014D0009BFF0020FFF798FFFFF7BCFF0446FFF7D4
:1014E000CDFF204610BD38B50446FFF783FFC4F397
:1014F0000740FFF789FFC4F30720FFF785FFE0B23D
:10150000FFF782FF0020FFF77FFFFFF7A3FF0446EE
:10151000FFF7A0FF0546FFF7B1FF44EA052080B2C0
:1015200038BD38B50446FFF765FFC4F30740FFF741
:101530006BFFC4F30720FFF767FFE0B2FFF764FF1C
:101540000020FFF761FFFFF785FF0546FFF782FFE9
:101550000446FFF77FFF000440EA0424FFF77AFF08
:101560002C4344EA0064FFF789FF204638BD38B5B4
:1015700004460D46FFF73EFFC4F3064040F08000EE
:10158000FFF742FFC4F30720FFF73EFFE0B2FFF78B
:101590003BFF2846FFF738FFBDE83840FFF76EBF36
:1015A00038B504460D46FFF725FFC4F3064040F06A
:1015B0008000FFF729FFC4F30720FFF725FFE0B203
:1015C000FFF722FFE8B2FFF71FFF280AFFF71CFF13
:1015D000BDE83840FFF752BF38B505460C46FFF767
:1015E00009FFC5F3064040F08000FFF70DFFC5F38B
:1015F0000720FFF709FFE8B2FFF706FFE0B2FFF7A9
:1016000003FFC4F30720FFF7FFFEC4F30740FFF713
:10161000FBFE200EFFF7F8FEBDE83840FFF72EBFB7
:1016200038B52548FFF75FFF830704463DD02348C0
:101630000AF0D0FB2248FFF756FF0121054621485A
:10164000FFF795FF20480021FFF7AAFF1F48002160
:10165000FFF7A6FF1E480021FFF7BEFF1948002133
:10166000FFF785FF29461648FFF79AFF052004F08B
:10167000ADF9FFF7BFFEB020FFF7C6FE2520FFF74C
:10168000C3FE7820FFF7C0FE6FF0B600FFF7D0FE74
:101690006FF0B500FFF7CCFEFFF7F0FE0D48072115
:1016A000FFF765FF052004F091F940F6FC70201A61
:1016B00018BF012038BD00BF742530005CF300085E
:1016C0006291300020203000F8203000FC203000F3
:1016D000002130007020300008B5FFF7A1FF00287E
:1016E000FBD108BD10B50446FFF784FEB020FFF71C
:1016F0008BFE2520FFF788FE7820FFF785FE204629
:10170000BDE81040FFF794BE70B54C42013904F0BB
:101710000304461E4518AE4204D016F8010FFFF729
:1017200073FEF8E72CB10020013CFFF76DFEE4B238
:10173000F8E770BD70B505460C46ECB1B4F5706FB6
:10174000264628BF4FF47066FFF754FEB020FFF71F
:101750005BFE2520FFF758FE7820FFF755FE284650
:10176000B1B2FFF7D1FFFFF789FE3544A41BFFF7A5
:1017700057FF0028FBD1E0E770BD70B506466FF05B
:10178000DD000C461546FFF7ADFF3046FFF750FE73
:10179000FFF774FE2CB120462946BDE87040FFF7E4
:1017A000C9BF70BD70B506466FF0E2000D46144625
:1017B000FFF798FF3046FFF73BFE2846FFF738FE5D
:1017C0002046FFF735FEFFF759FEFFF729FF0028F7
:1017D000FBD170BD38B56A4B1D7C1C684FF480335B
:1017E000AB406360062004F0F1F80123AB40636076
:1017F000152004F0EBF844200021FFF749FE61209A
:101800004621FFF745FE00200146FFF741FE282054
:1018100004F0DCF840F29114012004F0D7F85948A4
:10182000FFF748FE013CA4B201461CB956480AF035
:101830005BFA16E07C28EFD154480AF055FA40F2E2
:10184000F5145348FFF736FE10F003050BD0013CAA
:101850000120A4B204F0BAF8002CF2D14D480AF0ED
:10186000B9FA204638BD4C480AF0B4FA4B484C4906
:10187000FFF7B2FE4B482946FFF779FE4A484FF47E
:10188000F071FFF78DFE49484FF40971FFF788FEAC
:1018900047482B21FFF784FE46482946FFF780FE84
:1018A00045482921FFF77CFE44484FF48871FFF733
:1018B00077FE43484FF49271FFF772FE41480C21C6
:1018C000FFF76EFE40482946FFF76AFE3F480A21AF
:1018D000FFF766FE3E482946FFF749FE3D480121D5
:1018E000FFF745FE01213C48FFF741FE3B480AF067
:1018F00071FA3B480321FFF73AFE3A484FF49661EC
:10190000FFF74EFE38482946FFF731FE3748294693
:10191000FFF72DFE36484FF4C041FFF741FE4FF46C
:1019200040104FF00071FFF757FE32483249FFF781
:1019300053FE32482946FFF74FFE02213048FFF799
:101940004BFE30480AF046FA2F488021FFF70FFE81
:101950002E480721FFF70BFE12482021FFF707FE54
:101960000524FFF75DFE012805D1013CA4B204F077
:101970002DF8002CF5D126480AF02CFA012038BDAC
:1019800058F70008002030008AF30008B7F3000879
:1019900020203000DDF3000808F400080C2030009F
:1019A00000A24A04D4203000342030002C20300023
:1019B00030203000382030003C20300048203000FB
:1019C00040203000442030004C20300050203000B7
:1019D000642030006C203000682030002AF40008B9
:1019E0000421300018213000802030008420300095
:1019F0008820300004003000070000260800300076
:101A0000542030004AF40008942030007020300048
:101A100071F4000808B5084B2A221A70FFF7EAFC97
:101A2000B020FFF7F1FC2520FFF7EEFC7820BDE8A1
:101A30000840FFF7E9BC00BFD88FFE1F024B002211
:101A40001A70FFF71BBD00BFD88FFE1F10B50446EC
:101A5000FFF7D0FCB020FFF7D7FC2520FFF7D4FC20
:101A60007820FFF7D1FC2046BDE81040FFF7E0BC2E
:101A7000F8B5224B1B7805461BB900F1FA0706465C
:101A800025E0441E00F1F906002314F8012F5AB195
:101A90000133DBB2032B05D928682F1DFFF7C8FCE3
:101AA0003D460023B442F0D1022B286808D0032B16
:101AB00003D0012B06D1C0B205E020F07F4002E048
:101AC00080B200E00020BDE8F840FFF7B1BC741B15
:101AD00016F8010BE4B220B1FFF796FCBE42F6D136
:101AE000FA2404F00304C4F10404E4B20020013C2D
:101AF000FFF78AFC14F0FF04F8D1F8BDD88FFE1F61
:101B00002DE9F7431D46204B9DF82C901B7880460D
:101B10000F46164603F0FF0493BB6FF0F300FFF788
:101B200095FF5FFA88F0FFF76FFCC8F30720FFF717
:101B30006BFCF8B2FFF768FCC7F30720FFF764FC03
:101B4000F0B2FFF761FCC6F30720FFF75DFCE8B2D7
:101B5000FFF75AFC280AFFF757FC0A98FFF788FF9F
:101B6000EB040BD50CAB01934C4507D0019B1A1D20
:101B7000186801920134FFF75BFCF5E7FFF77EFC84
:101B800003B0BDE8F08300BFD88FFE1F2DE9F341FD
:101B9000884607466FF0F3001C4616469DF8245011
:101BA000FFF746FC07EB0840FFF742FC06EB04405A
:101BB000FFF73EFC0898FFF75BFFE3040CD50AAB88
:101BC00001930024AC4207D0019B1A1D18680192B2
:101BD0000134FFF72DFCF5E702B0BDE8F08100000D
:101BE00008B5054B1B782BB9FFF730FFBDE808405F
:101BF000FFF744BC08BD00BFD88FFE1FFFF718BC1D
:101C000038B505466FF0E1000C46FFF711FC284699
:101C1000FFF70EFC2046BDE83840FFF709BC000086
:101C200038B50E4B1B78044603F0FF05ABB96FF0D7
:101C3000F600FFF70BFFE0B2FFF7E6FBC4F3072067
:101C4000FFF7E2FBC4F30740FFF7DEFB2846FFF790
:101C5000DBFBBDE83840FFF711BC38BDD88FFE1F55
:101C600010B504466FF0F600FFF7E2FB2046BDE832
:101C70001040FFF7DDBB2DE9F0478A4681466FF043
:101C8000F20017469846BDF92050BDF824600A9C22
:101C9000FFF7CEFB09EB0A40FFF7CAFB07EB084052
:101CA000FFF7C6FB05EB0640FFF7C2FB2046BDE889
:101CB000F047FFF7DDBE000010B5084B1B7803F0BE
:101CC000FF0453B96FF0EA00FFF7C0FE2046FFF7AC
:101CD000AFFBBDE81040FFF7D1BB10BDD88FFE1F92
:101CE00038B50E4B1B78044603F0FF05ABB96FF017
:101CF000F500FFF7ABFEE0B2FFF786FBC4F3072069
:101D0000FFF782FBC4F30740FFF77EFB2846FFF78F
:101D10007BFBBDE83840FFF7B1BB38BDD88FFE1F55
:101D200010B504466FF0F500FFF782FB2046BDE8D2
:101D30001040FFF77DBB000038B50E4B1B78044602
:101D400003F0FF05ABB96FF0CB00FFF77FFEE0B209
:101D5000FFF75AFBC4F30720FFF756FBC4F3074015
:101D6000FFF752FB2846FFF74FFBBDE83840FFF76F
:101D700085BB38BDD88FFE1F10B504466FF0CB0071
:101D8000FFF756FB2046BDE81040FFF751BB2DE999
:101D9000F0478A4681466FF0F10017469846BDF934
:101DA0002050BDF824600A9CFFF742FB09EB0A4073
:101DB000FFF73EFB07EB0840FFF73AFB05EB064059
:101DC000FFF736FB2046BDE8F047FFF751BE0000A5
:101DD0002DE9F0411C46184BDDF818801B780746AA
:101DE0000E4615462BBB6FF0D100FFF72FFEF8B261
:101DF000FFF70AFBC7F30720FFF706FBF0B2FFF778
:101E000003FBC6F30720FFF7FFFAE8B2FFF7FCFA7F
:101E1000C5F30720FFF7F8FAE0B2FFF7F5FA200A5A
:101E2000FFF7F2FA4046FFF703FBBDE8F041FFF78A
:101E300025BBBDE8F08100BFD88FFE1F2DE9F04122
:101E4000884607466FF0D10015461E46069CFFF7F0
:101E5000EFFA07EB0840FFF7EBFA05EB0640FFF758
:101E6000E7FA2046BDE8F041FFF7E2BA10B5084BAB
:101E70001B78044653B96FF0C700FFF7E7FD204613
:101E8000FFF7D6FABDE81040FFF7F8BA10BD00BF63
:101E9000D88FFE1FF8B507466FF0BC000D461646FA
:101EA0001C46FFF7C5FA3846FFF7C2FA05EB0640B5
:101EB000FFF7BEFA2046BDE8F840FFF7B9BA0000C8
:101EC0002DE9F0411C46184BDDF818801B780746B9
:101ED0000E4615462BBB6FF0F300FFF7B7FDF8B2C7
:101EE000FFF792FAC7F30720FFF78EFAF0B2FFF779
:101EF0008BFAC6F30720FFF787FAE8B2FFF784FAF8
:101F0000C5F30720FFF780FAE0B2FFF77DFA200A59
:101F1000FFF77AFA4046FFF7ABFDBDE8F041FFF767
:101F2000ADBABDE8F08100BFD88FFE1F2DE9F041AA
:101F3000884607466FF0F30015461E46069CFFF7DD
:101F400077FA07EB0840FFF773FA05EB0640FFF757
:101F50006FFA2046BDE8F041FFF78ABD2DE9F04752
:101F60008A4681466FF0ED0017469846BDF820502E
:101F7000BDF824600A9CFFF75BFA09EB0A40FFF703
:101F800057FA07EB0840FFF753FA05EB0640FFF757
:101F90004FFA2046BDE8F047FFF76ABD4369428C1F
:101FA0005A630022DA630369C2689B681A6170474A
:101FB00038B50446006902F032F82369217E9A6838
:101FC00001238B40D360E16905466069FEF779FE25
:101FD0002046FFF7E3FF94F8253063B194F8202002
:101FE00060690021FEF784FE6269D2F8A43043F0F4
:101FF0000103C2F8A430636994F8241002221A6124
:10200000012284F8262001B1DA60284638BD90F814
:10201000262022B990F821300BB9FFF7C9BF002064
:1020200070470000F0B52249224C242202FB001226
:102030002368956926460BB92260F0BD1C469A6953
:10204000AD1A002D22DCD3F804E024224243BEF175
:10205000000F08D08F18CEF800708B50C7F804E03E
:1020600022465F6002E08C500A44626024244443AC
:102070000F1951F804E0DEF818402C44BC61DEF87A
:1020800018703C1BCEF81840144607E01A683AB99D
:10209000242202FB001253601A609561012200E0C5
:1020A00000221B680BB1002AC9D03460F0BD00BF0C
:1020B000449BFE1FE48FFE1F104B2422504330B57B
:1020C0001C181958626852B90D4D296001B930BD0C
:1020D0008D69A4694A602C448C611A5030BD11602E
:1020E00009B9616030BD19584A601958A2698D69F3
:1020F0002A448A6100221A50626030BD449BFE1F50
:10210000E48FFE1F214A70B5214D13682C680133FE
:102110001360002C39D0A369012B02D9013BA361C4
:1021200070BD0023A361A669002E2ED194F8203043
:102130006BB16069FFF7C0FF1649626966730123DE
:1021400003FA02F20B6823EA02030B601AE0237B16
:1021500043B9637B012B15D16069FFF7ADFF022303
:1021600063730CE0012B10D1637B012B0AD16069F2
:10217000FFF7A2FFE369A3616069FFF753FFA3685C
:10218000206998472C68002CCDD170BDDC8FFE1FD4
:10219000E48FFE1FE08FFE1F027810B532BB144B98
:1021A00014491A60144B59601449FC2481F82340E7
:1021B0009A6007221A60CB68C3F302230BB1591E41
:1021C00000E01946C3F10703062B4FF0010228BFB8
:1021D000062302FA03F3013B8B409B000749DBB265
:1021E00081F82330064B002119600270002010BDD9
:1021F000E48FFE1F7F32020010E000E000ED00E0FF
:10220000E08FFE1FB0F57A7FF0B529D3154D2C680D
:102210000026AE460127B74017EA040C06F1010577
:102220001BD13C43CEF800402427DFF83CE0774345
:102230000EEB07044EF807C02173022161734FF4BF
:102240007A71B0FBF1F0411CE0616661A161A260AE
:102250002361C4F804C02846F0BD082D2E46D9D10C
:102260000020F0BDE08FFE1F449BFE1F0A4A08B508
:102270000138242303FB002303F108015A7B022ABF
:1022800008D1DA6901329A6101234B71FFF7CAFE66
:10229000002008BD012008BD449BFE1F094A08B567
:1022A0000138242303FB002308335A7932B1012A71
:1022B00006D102225A71FFF7FFFE01E0012008BD9E
:1022C000002008BD449BFE1F0E4A242310B5441E67
:1022D00003FB042202F10801507B012378B102289C
:1022E0000CBF094982F820304FF0000001BF507345
:1022F0000A68A34022EA030308BF0B6010BD18461A
:1023000010BD00BF449BFE1FE08FFE1F024B1B68E9
:102310004FF47A7058437047DC8FFE1FF8B584681D
:10232000076800232361A3602368227F092B34BF41
:10233000012502256B1E99403B6CE1609201D2B2EF
:1023400023F0C00313433B64436893F87D30064693
:10235000002B61D04FF48043C7F818313846FEF7A0
:102360009FFD3846FEF79CFD94F82130326823B17A
:10237000237F4FF6FF71603307E0A369A168022D48
:102380000CBF595A595C237F603342F82310A3686D
:1023900030682B44A360A268E3689A4226D294F87E
:1023A000213023B1237F4FF6FF72603307E0A3692A
:1023B000A268022D0CBF9A5A9A5C237F603340F8C2
:1023C0002320D0F814311F07FBD4FEF769FD2369E1
:1023D0006269D054022D01BF236962699B18000A0B
:1023E00008BF587023692B442361D0E7D0F814311B
:1023F0001907FBD4FEF754FD23696269D054022DFE
:1024000001BF236962699B18000A08BF58703368CE
:102410000522C3F818216BE03846FEF741FD384627
:10242000FEF73EFD33689A6B1206FCD494F8212027
:1024300022B1227F4FF6FF71203207E0A269A16826
:10244000022D0CBF515A515C227F203243F82210DA
:10245000A3682B44A360A268E36830689A4231D233
:10246000836B1B06FCD494F8213023B1237F4FF6F5
:10247000FF72203307E0A369A268022D0CBF9A5AAD
:102480009A5C237F203340F82320036D13F4C04F60
:10249000FBD0FEF705FD23696269D054022D01BF10
:1024A000236962699B18000A08BF58702369326863
:1024B0002B442361A3682B44A360D36C43F44043B3
:1024C000D364C8E7036D13F4C04FFBD0FEF7E8FCFC
:1024D00023696269D054022D01BF236962699B1888
:1024E000000A08BF58703268D36C43F44043D36489
:1024F00000202061E060A060F8BD43685B68184779
:10250000F0B5476897F88440022C78D18368002999
:102510006ED0002A6CD093F8205005F0FF06002DF5
:1025200068D11C6800689961092C4FF0010583F897
:10253000205038BF01249E6028BF02241E7F651EE4
:10254000AA40056C5A60B601F6B225F0C0053543C5
:10255000056497F87C50002D35D04FF40045C0F845
:1025600018519D6895423AD2D0F81451EF04FBD42B
:1025700093F8215025B11D7F4FF6FF76603506E0B8
:102580009D68022C0CBF4E5B4E5D1D7F603540F890
:1025900025609D6825449D60E3E793F82150B5B11F
:1025A0001D7F4FF6FF76203540F825609D68254455
:1025B0009D60856C6D05FCD5C56C45F48065C56472
:1025C0009D6895420BD2856B2E06FCD4E5E79D688D
:1025D000022C0CBF4E5B4E5D1D7F2035E4E7826B05
:1025E0001206FCD4002083F820005860986002E0B6
:1025F000032000E02046012283F82220F0BD0120C4
:10260000F0BD0000436893F88530022B70B519D1F6
:102610008468C9B1C2B1E57FC5B994F8206006F0FD
:10262000FF059EB9012361610949E377A16184F83F
:102630002130114684F82250FFF770FE84F82150B3
:10264000E57770BD012070BD032070BD184670BDD8
:102650003088FE1F38B5264C2649274D2046FEF708
:10266000FBFBE36B254A23F00803E363636B43F052
:1026700001036363636B23F0706343F0E0636363A0
:10268000636B23F47C1343F4B8136363636923F02F
:10269000504343F000436361636923F4FE4343F412
:1026A000A063636128460121FDF7AEFFE369144A88
:1026B00023F0500343F01003E361E36923F00703C1
:1026C000E361236C23F00F0343F0010323642846E6
:1026D0000021FDF799FF284602210A4AFDF794FFE1
:1026E000204610210022FEF77FFC002038BD00BFED
:1026F000004002485488FE1F00850248EC8FFE1FF0
:102700003488FE1FB4F4000838B5437B04466BB927
:10271000436803B19847257B35B9204601F038FB63
:1027200010B16573012038BD01236373002038BDEB
:1027300008B5037B2BB900F0EBFF003018BF012078
:1027400008BD002008BD10B5047B1CB9BDE81040D1
:1027500001F03ABB002010BD10B5047B1CB9BDE8E8
:10276000104001F09FBB002010BD037B0BB900F0AF
:10277000F3BE00207047F0B504468BB00E461546F8
:1027800001A82222002108F0A8FD237ADA070CD440
:102790002046FFF7EAFF03070BD516F0FB0F06D024
:1027A000A6F10D03012B04D801E00320FEE0052073
:1027B000FCE0252E00F2F980DFE816F0F5002F008E
:1027C000260042003800F700F700E400F700F700A9
:1027D0004B0054005D0066006F00F700F700F70043
:1027E000F700F700F700F700F700F700F700F70031
:1027F000F700F700F700F700F70078008500870082
:10280000A200B100D300DA00237B002B40F0CB8084
:102810002046294600F02BFFB9E0237B002B40F037
:10282000C2802046294600F0E1FEB0E0237B002B69
:1028300040F0B980204695E8060001F095F9A6E041
:10284000237B002B40F0AF802046294600F014FF88
:102850009DE0237B002B40F0A6802046294600F017
:102860007FFE94E0237B002B40F09D80204629468C
:1028700000F0ABFE8BE0237B002B40F094802046E1
:10288000294600F071FE82E0237B002B40F08B8014
:102890002046294600F094FE79E0237B002B40F08F
:1028A00082802046294600F003FF70E095F8202042
:1028B0000423102A8DF8043077D88DF805200DF107
:1028C0000600294645E000231BE095F8206001231F
:1028D000102E8DF8043068D895F82170102F64D828
:1028E000BB19294632460DF106008DF8053008F077
:1028F000E9FC01AB9819023005F110013A460BE0F2
:10290000022395F820208DF80430102A4DD88DF838
:1029100005200DF10600294608F0D4FC2BE095F8BF
:1029200020600523102E8DF804303ED895F82170D4
:10293000102F3AD8BB19294632460DF106008DF802
:10294000053008F0BFFC01AB9819023005F1100109
:102950003A4608F0B7FC237B2BBB204601A9012295
:102960000DE0237BFBB92046294600F071FD0EE007
:1029700008238DF80430227BAAB9204601A900F073
:102980008BFD04E0237B73B9204601F05DF968B14B
:102990000F2806D00A2808D033280CBF04200120B5
:1029A00004E0022002E0002000E004200BB0F0BDB3
:1029B0002C4A38B5D2F89C302B4C2C4D43F00103F7
:1029C000C2F89C30D2F89C3023F0F00343F080032F
:1029D000C2F89C3020460521254AFDF715FE204609
:1029E00005210122FEF79EF920460621214AFDF726
:1029F0000BFE2046062104F580740122FEF792F9B1
:102A0000204600211C4AFDF7FFFD2046002101223F
:102A1000FEF788F928460621184AFDF7F5FD2846F5
:102A200006210122FEF77EF928460721144AFDF708
:102A3000EBFD284607210122FEF774F9204601210B
:102A4000104AFDF7E1FD01210A462046FEF76AF92A
:102A50000D4A136823F0111343F4881343F0010364
:102A6000136038BD004000500083024800810248D6
:102A7000ACF500088CF500087CF500085CF5000852
:102A80009CF500086CF50008B440005010B51048E3
:102A9000036819680F4B0A8E92B21A804A8E0E494B
:102AA00092B20A801A8812B2002A1C4603DA0988F8
:102AB00089B200F036FC2388C3F30E033BB1054B0B
:102AC00003481988BDE8104089B200F0E9BB10BD89
:102AD000E488FE1F649CFE1F669CFE1F18B10368FD
:102AE000002283F85C20704738B503680446012251
:102AF00083F85C2008460D4A00212346FFF782FB3D
:102B0000012805460CD0FFF7B1FB30B12846FFF78E
:102B1000DBFB236800225A65312023685D6538BDE0
:102B2000236800225A652F2038BD00BFDD2A000827
:102B300010B50446006800213022203008F0CDFB9B
:102B400023680022627283F85020216801234B76AB
:102B500021680B7621680B7721688B7623682272B7
:102B60001A68938D23F004031B041B0C938510BD7E
:102B700038B503685D6D04462846FFF78FFB30B11A
:102B80002846FFF7A1FB236800225A65322038BD92
:102B900070B503681A6892F82F300B43DBB2054614
:102BA00082F82F300E460C49FFF79EFF2B685C6DB4
:102BB00084B193F85C202AB11A6892F82F4034400F
:102BC000F7D100E02E242846FFF7D2FF2B68586D7E
:102BD000FFF77AFB204670BD20A1070038B50368D7
:102BE00012490122044683F85C20FFF77DFF236829
:102BF0005A6D92B193F85C2022B11A7A002AF9D06A
:102C0000002500E02E2500221A722046FFF7B0FFB3
:102C10002368586DFFF758FB00E0312523689A7E42
:102C20001F2A18BF1D7E284638BD00BF40420F0036
:102C300003685A0054BFD80F012013F0005F18BF7B
:102C4000012013F0806F18BF012013F0805F18BFC0
:102C5000012013F0006F18BF012013F4004F18BFBC
:102C6000012013F4001F18BF012013F4801F18BFA8
:102C7000012013F4002F18BF012013F0807F18BF2C
:102C8000012013F4803F18BF012013F0080F18BF74
:102C90000120704770B50368404904461868FEF784
:102CA0009CF823689A88110703D11B685B6ADA07CE
:102CB00005D520460221FFF76BFF054600E02525DC
:102CC0002268938803F070031BB913685B6A9B0743
:102CD00004D520460421FFF75BFF054623683049F1
:102CE0001868FEF785F8236893F85160012E40D1EB
:102CF00018682C490022FEF78EF823682A4983F8C9
:102D00005C602046FFF7F0FE054690B1236893F81B
:102D10005C206AB19A79012A0BD0DA79012A08D0AD
:102D200018684FF40041FEF768F80028EED100E083
:102D30002E252046FFF71CFF2368586DFFF7C4FAC5
:102D40002268002393712268D3718DB923681868B3
:102D5000438E9BB263B12946FEF74AF823681049B7
:102D60001868FEF745F820460621FFF711FF2525D4
:102D700023681A68538E9BB233B9536AC3F3035363
:102D80000F2B0CBF24252525236808491868FEF75A
:102D900015F8236828461D7770BD00BF0000FF109E
:102DA0000080FF00F6F5000840420F000080FF1091
:102DB0002DE9F743984603680A9F9146002283F85D
:102DC00051200268012353760268054613760E46A9
:102DD0006E49FFF789FE2B685A6D044692B193F84D
:102DE0005C203AB11A68516A8907F8D4526AD2074E
:102DF000F5D400E02E242846FFF7BAFE2B68586D64
:102E0000FFF762FA2A681068436ADB071ED433783A
:102E100003F0200101F0FF0449B9717801F03F018E
:102E20000D2904D003F00301032940F0A480416A76
:102E300089070AD424B903F00303032B40F09B80D5
:102E40002B7A43F020032B7295E01B24E4B2A4F10B
:102E50001A03012B40F29580106831464A46FDF76F
:102E6000DAFF28464949FFF73FFE002840F08980F5
:102E70002B6893F85C207AB94FF0000983F806902C
:102E80002846FFF775FE2B68586DFFF71DFA2A6874
:102E9000547E1C2C5DD103E09A79002AE9D0EBE73F
:102EA0007378CDF8009013F03F01CDF804904ED028
:102EB0000F294CD012681669009616F0007F03F0B7
:102EC0003F022B7A04D0032A02D043F0080301E02A
:102ED00023F008032B72B8F1060F05D8DFE808F0DD
:102EE00037060B142B2D2B0001244AE03E60684668
:102EF000FFF79EFE3DE03E606846FFF799FE30B367
:102F00002846FFF76BFE34E0214B1A6912023A6043
:102F10001A695969120E42EA01227A605A6999695E
:102F2000120E42EA0122BA609A69D969130E43EA85
:102F30000123BB600BE03E6009E002A8B3B240F899
:102F4000043DFFF775FE360C04463E6019E0002490
:102F500017E0022C04D1737803F03F03082B10D044
:102F600033789B0644BF012382F851302846FFF78F
:102F700091FE044605E02B7A43F010032B720024E7
:102F800064E7204603B0BDE8F08300BF40420F0075
:102F900000C001487FB504AD002345F8043D036837
:102FA0000C49B3F84C400095240422460123064600
:102FB000FFF7FEFE60B9039B03F4E8535B0A042BA2
:102FC00006D000953046044922460223FFF7F0FE62
:102FD00004B070BDF8F50008EEF500082DE9FF41DA
:102FE000984600230393437A044618070D4603AE20
:102FF00058BF4D021746009658BF570220462A4632
:103000001B490123FFF7D4FE054660BB009620460E
:1030100018493A460123FFF7CBFE054618BB2A465E
:103020000223154900962046FFF7C2FE13492046A9
:1030300001FB08F1FFF758FD23685A6D054692B170
:1030400093F85C203AB11A68516A8907F8D4526A39
:10305000D207F5D400E02E252046FFF789FD23682E
:10306000586DFFF731F9284604B0BDE8F08100BF84
:103070000EF6000810F6000812F6000840420F0095
:103080002DE9F0410E461E49044617469846FFF7C3
:103090002BFD054600282FD1236893F85C2012B140
:1030A000DA79002AF9D02046FFF762FD2368586DCF
:1030B000FFF70AF922680023D3712268117E1E29C6
:1030C00012D1434518D0012F05D122681268126A27
:1030D00046F8232006E0022F01BF226856F823108D
:1030E000126811620133ECE7012382F85130204667
:1030F000BDE8F041FFF7CEBD2846BDE8F08100BF36
:1031000040420F002DE9F04F9B46036887B01646FA
:1031100001229A7600230293437ADDF840809DF8DD
:10312000449004960D46190758BF2A684FF400735F
:103130005CBF52022A60039322238DF81430036887
:10314000044603AF18684FF0010A39468DF815A000
:10315000FDF766FE23684FF080711868FDF72EFEBC
:1031600002AB00932A68204659465346FFF720FEDB
:10317000054600283DD166B1204641464A46802397
:10318000FFF77EFF0546002833D1013E08F50078A1
:10319000F1E72046FFF722FD054650BB2368DA7EA3
:1031A000092A26D11A680396928FD2070BD51B7F66
:1031B000242B1ED100972046104932460123FFF7E9
:1031C000F7FD60B915E020460221FFF7E1FC80B968
:1031D0000097204609492A460123FFF7E9FD2528E3
:1031E00007D020460421FFF7D3FC10B923681B68E1
:1031F0009B8F284607B0BDE8F08F00BFF6F50008AA
:10320000F0B587B01E46002302938DF814308DF878
:1032100015300368039604460F46186803A915463F
:10322000FDF7FEFD02AB00932A46204639460123F6
:10323000FFF7BEFD054668BBF31C20460C999DF8C0
:1032400034209B08FFF71CFF054618BB2046134996
:10325000FFF74AFC0546E0B9236893F85C2012B1F9
:103260001A7A002AF9D02046FFF782FC2368586DAD
:10327000FFF72AF8236800221A7223689A7E1F2A11
:1032800008D0012283F851202046FFF703FD0546B0
:1032900000E02E25284607B0F0BD00BF40420F00D9
:1032A00038B5044688060D460AD523681E221A76CC
:1032B000236820211868FDF79BFD23680122DA713D
:1032C000E9060AD523681E221A7623681021186899
:1032D000FDF78EFD23680122DA71AA070ED5236857
:1032E0001F229A76236802211868FDF781FD237A50
:1032F00023F020032372236801221A72EB070ED5F4
:1033000023681C225A76236801211868FDF770FD96
:10331000237A23F010032372236801229A7100207C
:1033200038BD38B503680446C8070D4699800FD5E7
:10333000236802225A76237A23F01003237223682B
:103340004FF480311868FDF753FD236801229A710C
:10335000A9070FD5236803225A76237A23F0100396
:10336000237223684FF400311868FDF741FD23688C
:1033700001229A716A070FD5236804225A76237AAC
:1033800023F01003237223684FF480211868FDF79F
:103390002FFD236801229A712B070FD52368052280
:1033A0005A76237A23F01003237223684FF4002106
:1033B0001868FDF71DFD236801229A71E8060FD5F4
:1033C000236806221A76237A23F0200323722368C7
:1033D0004FF480111868FDF70BFD23680122DA71A4
:1033E000A9060FD5236807221A76237A23F0200333
:1033F000237223684FF400111868FDF7F9FC236865
:103400000122DA716A060FD5236808221A76237A18
:1034100023F02003237223684FF480011868FDF71E
:10342000E7FC23680122DA71EB050FD52368092236
:10343000DA76237A23F03003237223684FF0807109
:103440001868FDF7D5FC236801229A71012038BD68
:1034500030B585B004AB002243F8042D0268B2F801
:103460004C2000930D4612040A4901230446FFF73D
:103470009FFC68B9039B9B0145BF01232B702870FB
:10348000237A56BF237A43F0080323F008032372FC
:1034900005B030BDF8F500082DE9FF41164680461D
:1034A0000F46FFF777FD024600284DD1D8F80030CF
:1034B00027491A68938923F010031B041B0C93817E
:1034C0007C78013424F00104023403AD22460095D7
:1034D00040460123FFF76CFC0246002834D102214C
:1034E000A3B20191009740461A49FFF789FED8F828
:1034F00000301A68536A9C07FCD44FF40072012311
:10350000009540461249FFF753FCD8F800301B687D
:103510000246596A8807FCD4596AC907F9D49AB98E
:1035200040460DF10B01FFF793FF024660B99DF88D
:103530000B30012B01D1012E01E023B9002E0CBF6D
:103540000022102200E01022104604B0BDE8F081F5
:10355000FCF5000814F60008007A00F00F00704730
:10356000437A0B600020704703685B6AC3F30B0368
:103570000B800268D38C926A43EA02434B60036873
:103580005B8D0B72036893F82F304B720368DB8DF1
:103590008B720368DB6A1B0ACB720368DB6A0B73EE
:1035A000036893F82B304B7303681B6B1B0A8B73F8
:1035B00003681B6BCB7303685B8E0B740020704732
:1035C00003681B6A0B60002070470268013102F13A
:1035D0003403403253F8040B41F8040B9342F9D101
:1035E0001A880A809B788B700020704730B5437A28
:1035F00087B003F0040305460C4601A803F0FF0161
:103600006BB10021142207F068FE284601A9FFF7DC
:10361000DCFFC8B9039B9B0203F5806313E014220F
:1036200007F05BFE284601A9FFF7CFFF60B9029BB8
:10363000C3F3C2339A1C01239340BDF80C20C2F39C
:103640000B0202FB0333236007B030BD37B50D46D4
:1036500002A9002341F8043D1446FFF7C7FF20B933
:10366000019B2C449C4288BF332003B030BD4FF4F3
:1036700000730B800020704730B5437A87B003F0A9
:10368000040305460C4601A803F0FF0103B1002125
:10369000142207F022FE284601A9FFF796FFBDF885
:1036A0000830C3F3C6130133236007B030BD0000F8
:1036B00030B585B0002304460D460393FFF76AFC3E
:1036C0000246F0B923681049B3F84C2003AB0093CD
:1036D000120420460123FFF76BFB024688B92368DA
:1036E00019688B899BB223F0100343F010038B8180
:1036F000012301930095204604494023FFF780FDF4
:103700000246104605B030BD16F600081CF600084B
:103710002DE9F043044697B07049FFF7E5F92368B7
:103720005A6D0546002A00F0098293F85C2022B108
:103730001A68928D9607F8D500E02E252046FFF7EF
:1037400017FA2368586DFEF7BFFD2E2D00F0F681A5
:1037500023681A68938D9BB243F004039385236812
:103760001A6892F8293043F0010382F8293023685F
:1037700093F85E70002F40F0E18100220092204615
:1037800057491346FFF714FB80460546002840F0D2
:10379000E08016AE534946F8400D4FF4D5720096BE
:1037A00020460623FFF704FB58B9069BDAB2AA2A83
:1037B0000FD1C3F30323012B0BD1226882F85030C1
:1037C00008E023685A7E022A04D183F850804046DC
:1037D00000E0192017B130B10546B9E019284FF0C3
:1037E0000107CAD0F7E723683F49B3F84C7016AB1E
:1037F0003A4643F8480D204600930123FFF7D8FAD4
:10380000236893F8502005460AB9122802D0002DEB
:1038100040F09F8020330093204634493A460423E9
:10382000FFF7C6FA1228054602D0002840F0918022
:1038300000272368069793F85030BB422C4B0CBFEF
:103840004FF480189846009620462749002201230D
:10385000FFF7AEFA054658BB23682449203300938E
:10386000204642460423FFF7A3FA08B112282AD1C2
:103870002368012283F85C2023681E4A00215965D1
:1038800044F620602346FEF7BDFC814688B12368DC
:103890005865FEF7EBFC60B9226892F85C30002BAB
:1038A000FBD14846FEF7FAFC4846FEF70DFD00E066
:1038B0006427312F07F1010206D823681B6A002B09
:1038C00002DB1746BFE70546002D42D12268637A26
:1038D00092F8501081B943F0020314E040420F0007
:1038E000E4F50008F0F5000816F6000822F60008D6
:1038F00000001040DD2A0008116A48004CBF43F068
:103900000C0343F0010324326372009220468D4978
:1039100000220323FFF74CFA0546D0B923688A49F1
:103920004C3300932A4620460523FFF741FA05460B
:1039300078B920463146FFF78BFD054648B99DF81A
:103940001830012B237A23F0030308BF2B252372A1
:1039500015B12B2D40F0F2800023039304930593BF
:103960002368267AB3F84C70784934333F0406F064
:103970000806009320463A460323F6B2FFF718FAEA
:1039800000284ED1002E4CD13146402206A807F027
:10399000A4FC204606A9FFF78BFE0546002840F050
:1039A000CD80069BC3F307421B0E53EA02231EBFC2
:1039B000237A43F004032372637AD90640D4204665
:1039C000FFF7E8FA0546002840F0B8802368604910
:1039D000B3F84C2003AB0093204647EA0242012390
:1039E000FFF7E6F90546002840F0A880236859490A
:1039F0001A6893899BB223F0100343F0100393815C
:103A000004AF012301932A46082300972046FFF7BD
:103A1000F7FB2368054697E80300443383E8030077
:103A20000CE02046FFF7B6FA23681A6893899BB228
:103A300023F0100343F0100305469381002D7DD140
:103A400004AB0093204644494FF400720123FFF772
:103A5000AFF90546002871D1002E63D116AE46F8A5
:103A6000400D2046FFF796FA50BB236840211868A6
:103A7000FDF7B3F9236893F8452052070CD4236867
:103A80001B6893F8282002F0DD0283F8282093F8C1
:103A9000282042F002021EE0B3F84C202C49009688
:103AA000204612040123FFF783F940B9009620460F
:103AB0002A4902220123FFF77BF90028DFD060B1F9
:103AC00023681B6893F8282002F0DD0283F8282081
:103AD00093F82820D2B283F82820304600214022D3
:103AE00007F0FBFB236893F844301B0712D02046F5
:103AF000FFF750FA70B90123019300962046184948
:103B0000184A4023FFF77CFB20B90A9B03F00F0300
:103B1000012B0CD023681A6892F8283003F0FB03BD
:103B200082F828302368012283F85E2006E02368AB
:103B30001A6892F8283043F00403F1E7284617B0DA
:103B4000BDE8F083E6F50008E8F50008F2F50008A6
:103B500016F6000826F60008FCF500081AF600081C
:103B6000ECF50008010000802DE9F04F354D0646C8
:103B7000884691460FCD9BB06C460FC40FCD0FC445
:103B800095E80300402284E803000AA8002107F01A
:103B9000A4FB326801235376326813763268937639
:103BA000337A580740D409F10107C8EB07073046BC
:103BB00041463A46FFF74AFD0546B0BB30460AA9E2
:103BC000FFF776FD054680BB0D9A0C9BD1B24FEAFC
:103BD000136AC2F38524C2F3012241EA0A2AC3F31D
:103BE0000353B4FBFAF414441AAA02EB830353F808
:103BF000683C03FB0AFA57450DD308EB0A0B304625
:103C000041465A462346FFF7E9F918B9CAEB0707B8
:103C1000D846F0E7054647B1304641464A46234676
:103C2000FFF7DCF9054600E00F2533681B685A6A88
:103C30009107FCD45A6AD207F9D428461BB0BDE8D4
:103C4000F08F00BFBCF5000837B5027A02F002021F
:103C5000054602F0FF0382B902680A49B2F84C2017
:103C600000931204FFF7A4F8044638B92846FEF77B
:103C70005FFF2B6883F85E4000E00124204603B01C
:103C800030BD00BFFAF50008F7B5037A5A060446BE
:103C900001D52C2074E03B4BD9680368C1F30221A5
:103CA000C1F10707062FDA681E6928BF062709B188
:103CB000481E00E00846012101FA00F3013B03EA37
:103CC000060501FA07F3013B134083402B432E4ABC
:103CD0009B00DBB282F86A334FF48063C2F88C3108
:103CE000D360237A5B06D4D42046FEF751FF002828
:103CF00046D123681A68938D23F001031B041B0C23
:103D0000938523681A68938DDBB243F4807393859F
:103D100023681A68938D9BB243F00103938523684F
:103D20001B68F3229A8623681A684EF2FF03D38633
:103D3000226812683321118722681268538723682A
:103D40001A6892F82E3003F0F00343F00E0382F865
:103D50002E3023681A6892F8293003F0F10343F0FB
:103D60000E0382F82930237A43F043032372019033
:103D7000019A064B9A4203D8019B01330193F7E75E
:103D800003B0F0BD00ED00E000E100E09F8601001F
:103D900010B5036804461868FCF7FAFF2368986DAD
:103DA000FEF7FAF90220FCF787FD237A5B0606D5B9
:103DB0002046FEF7BDFE20460121FEF7E9FE204623
:103DC000BDE81040FFF760BF2DE9FF411F46037AB1
:103DD0001646DA0704460D4650D41B0750D4012F6F
:103DE000036821D193F85E30002B45D031463A4626
:103DF000FFF72CFC00283DD1637A28491807236877
:103E00001A6893899BB223F0100343F01003938147
:103E100058BF7602012301930095204632464FF4A5
:103E20000073FFF7EDF924E04FF0010883F81980E3
:103E30000368039683F81880036883F81A80036880
:103E400093F85E30C3B131463A46FFF7FFFB88B9BD
:103E500023681B689A8992B222F0100242F0100285
:103E60009A8120468DE8200103A93A460C4BFFF7C2
:103E700049F940B1332805D0012004E0032002E0D5
:103E8000052000E0042023681B685A6A9107FCD4CF
:103E90005A6AD207F9D404B0BDE8F081FEF50008F3
:103EA00000F60008F0B51F46037A0E46D90785B024
:103EB0000446154653D41A0753D45B0753D4012F35
:103EC000026822D192F85E30002B46D029463A464D
:103ED000FFF7BCFB00283CD1637A29491807236807
:103EE0001A68938923F010034FEA03434FEA134300
:103EF000938158BF6D0202230193009620462A4603
:103F00004FF40073FFF77CF920E001235376026839
:103F10000395137602689376036893F85E30E3B1F5
:103F200029463A46FFF792FB98B923681B689A899D
:103F300022F010021204120C9A81022301930096BF
:103F4000204603A93A460F4BFFF7DCF808B90020DA
:103F50000CE01E28FBD0332807D0012006E0032008
:103F600004E0052002E0022000E0042023681B6832
:103F70005A6A9107FCD45A6AD207F9D405B0F0BD49
:103F800002F6000804F600084268D378917810B56C
:103F900004469800537840EA41001843137940EAF8
:103FA000C300537940EA4310937950EA831002D05A
:103FB000FCF7A4FB01206368DC79012C04D14FF4E9
:103FC0008070FCF79BFB204610BD037A10B50446B9
:103FD00073B90068FCF75CFB60B92046FFF7D4FFBB
:103FE00063681B78012B01D1FCF7AAFE0123237221
:103FF000002010BD012010BD10B50446FCF7C0FE26
:10400000E378C3F30402013262F30403E3706379DB
:10401000C3F30302013262F30303637110BD437BF8
:1040200010B504464BB98068217BFCF73BFEA368C2
:104030004FF48072DA6001236373002010BDF8B57D
:10404000037E022B044629D140692169FDF74FF810
:10405000271F002657F8043F93E80300FDF7BBF83D
:104060003B6803211868FDF7F8F839680B7A4BB9FB
:10407000606906F11005D0F880200123AB4013439E
:10408000C0F8803001360023042E4B721D46E1D16A
:10409000637E13B16069FDF74FF82576207EF8BD89
:1040A0008378C27843EA02224378007843EA022305
:1040B00040EA032070470B0A017043700B0C090E95
:1040C0008370C170704730B5044614F8013B11F895
:1040D000015B5B1B151BE84201D0002BF5D0184695
:1040E00030BD0000104A136810B55BB10468A342EC
:1040F00014D1546883689C4210D1946843699C42EF
:104100000CD101E0184610BD31B99389B3F5807F19
:1041100014BF0020102010BD102010BD02290CBFBC
:104120000020122010BD00BF0490FE1F144AF0B5FD
:1041300014680568AC4213460ED157688668B742CA
:104140000AD197684669B74206D100290DDD9289E8
:104150009AB94FF480720DE07CB982685A600029E8
:1041600042691D609A609C81F3DC0029F1D19A8933
:10417000013292B29A810120F0BD0020F0BD00BF53
:104180000490FE1F01280CD1084B9A8922F48070FC
:1041900080B208B1501E80B2988120B9034B1860DC
:1041A0007047022070470020704700BF0490FE1F38
:1041B00083690239023B99423DBF4289C36A02FBCF
:1041C0000130002070470000036810B5BBB11A46EB
:1041D00012F8011B202902D93A29F9D102E0094B32
:1041E000187810BD1978A1F13004092C07D80233D2
:1041F000934204D1302902D10260002010BD4FF05B
:10420000FF3010BD0090FE1F38B50D46044678B152
:1042100003686BB11A785AB18188DA88914207D164
:10422000587801F013FA10F0010001D1236801E081
:10423000092000232B6038BD01380A4411F8013BE6
:1042400000F8013F9142F9D17047CA7E8B7E032866
:1042500043EA022301BF487D0A7D42EA002243EA85
:10426000024318467047C2F307238A76CB76037859
:10427000032B01BF120C0A75120A4A757047F8B574
:10428000054600F13407394640782A6B012301F0D6
:1042900003FA044680B92A6B6B6AEE69E870D31A98
:1042A000B3420BD2AB78022B08D16878394632443E
:1042B000012301F0F1F901E00120F8BD2046F8BD2D
:1042C00038B5036B994204460D4614D0C37873B9D0
:1042D0002A46607804F13401012301F0C9F900286D
:1042E00016BF4FF0FF3500200120256338BDFFF7D2
:1042F000C6FF08B9ECE7002038BD0000002310B568
:10430000C3704FF0FF3303630446FFF7D9FF18BBB8
:1043100094F8332294F8323243EA02234AF65522C3
:1043200093421BD194F83430EB2B03D01833DBB21B
:10433000012B15D804F16A000A490322FFF7C3FED6
:1043400078B104F1860008490522FFF7BCFE002879
:1043500014BF0220002010BD042010BD032010BD9A
:10436000022010BDB8F60008BCF600082DE9F043A5
:10437000002385B00B600F461546FFF725FF061E8C
:10438000C0F229819B4B53F82640002C00F0258178
:104390003C60237805F0FE0583B1607801F056F9A2
:1043A000C1070BD4002D00F01A8100F0040303F0C4
:1043B000FF00002B00F01B810A2018E10023F0B25F
:1043C0002370607001F030F9C20700F10A810DB16D
:1043D0004307F1D420460021FFF790FF02281FD1A8
:1043E00004F5FD76002516F8040C10B13046FFF7F1
:1043F00057FE4DF825000135042D06F11006F2D1C7
:1044000000255DF8256036B120463146FFF776FF7E
:10441000012801D80DE003200135042DF1D1E2E09F
:1044200004284FF0000600F0E180012801D90D209A
:10443000DDE094F8402094F83F3043EA0223B3F5DE
:10444000007FF4D194F84B8094F84A3053EA08285E
:1044500004D104F15800FFF723FE804694F844701D
:10446000C4F81C807B1E012BA770E0D894F8415043
:10447000ABB26381002BDAD06B1E2B42D7D194F8FC
:10448000469094F8453043EA092919F00F0FA4F833
:104490000890CCD194F8480094F8473053EA0020B3
:1044A00003D104F15400FFF7FBFD94F8433094F876
:1044B000422052EA0323BAD007FB08F103EB19129A
:1044C0000A449042B3D3801AB0FBF5F5002DAED06C
:1044D00049488542ABD84FF6F570854206D840F67C
:1044E000F577BD428CBF0227012700E00327023584
:1044F00033443244032FA56126626362E26210D125
:1045000094F85F2094F85E3053EA02238FD1B9F11A
:10451000000F8CD104F16000FFF7C2FDAD00A06276
:1045200010E0B9F1000F82D0022F4FEA450018BF0A
:1045300040190B4418BF05F00105A3620CBF0546E6
:1045400005EB500505F2FF15B8EB552FFFF46FAFE3
:104550004FF0FF332361E360032F4FF0800323719B
:104560002AD194F8652094F8643043EA0223012BA1
:1045700022D12046711CFFF7A3FEE8B994F833223C
:1045800094F83232207143EA02234AF655229342CC
:1045900012D104F13400FFF783FD184B98420BD180
:1045A00004F50670FFF77CFD154B984204D104F525
:1045B0000770FFF775FD2061124A277013880133D9
:1045C0009BB21380E380104B1A680020A242606106
:1045D0000DD118600BE00B2009E00C2007E0284605
:1045E00005E0032003E004287FF421AF012005B09B
:1045F000BDE8F0831490FE1FF5FFFF0F525261419A
:10460000727241610290FE1F0490FE1F01292DE984
:10461000F84305460C4616466DD9836999426AD21D
:104620000378022B3BD0032B4BD0012B63D101EB42
:104630005108416A01EB5821FFF742FE0746002866
:104640005AD108F10109C8F30808A84414F001047C
:1046500018BF98F83420696AF3B21EBF02F00F0247
:1046600042EA0313DBB288F834300123EB702846AA
:1046700001EB5921FFF724FE0746E8BBC9F3080305
:104680002B4414B1C6F3071606E093F83410C6F3B2
:10469000032621F00F010E4383F8346028E0416ABD
:1046A00001EB1421FFF70CFE074628BB640004F45D
:1046B000FF742B1983F83460C6F3072683F835603E
:1046C00016E0416A01EBD411FFF7FAFD074698B9ED
:1046D000A40004F4FE742C4434342046FFF7E0FCBC
:1046E00026F0704600F0704131432046FFF7E3FCAE
:1046F0000123EB7000E002273846BDE8F88301296A
:10470000F8B506460C4653D98369994250D20378CE
:10471000022B29D0032B3AD0012B49D101EB5105B3
:10472000416A01EB5521FFF7CBFD10B14FF0FF308F
:10473000F8BD6F1C716AC5F308053544304601EBBE
:10474000572195F83450FFF7BBFD0028EED1C7F391
:1047500008003044E30790F8340045EA00204CBFDD
:104760000009C0F30B00F8BD416A01EB1421FFF70B
:10477000A7FD0028DAD1600000F4FF743319344437
:1047800093F8343094F8350043EA0020F8BD416ACC
:1047900001EBD411FFF794FD0028C7D1A00000F46D
:1047A000FE7030443430FFF77BFC20F07040F8BDE1
:1047B0000120F8BDB1F5001F2DE9F04106460C4679
:1047C000076802D30220BDE8F081CA06FAD18568E5
:1047D000716165B93B78022B01D9BB6A33B93B895A
:1047E000B3EB541FEED9BB6AF3611AE01D46B7F86C
:1047F0000A8029464FEA482844450DD33068FFF720
:104800007EFF431C01461BD00128DBD9BB699842BF
:10481000D8D2C8EB0404EFE738460D46FFF7C8FCD2
:10482000F061F369B561002BCCD003EB5423C4F3E2
:1048300008043C443434F36134620020BDE8F08164
:104840000120BDE8F0812DE9F041804605680F4662
:1048500031B9EE68A6B1AB699E4228BF012610E0CF
:104860002846FFF74CFF012861D9411C03D14FF0C6
:10487000FF30BDE8F081AB69984259D33E4600E075
:1048800001262B6913B90020BDE8F081BE4217D183
:10489000AB69D8F80000741C9C4228BF0224214652
:1048A000FFF72DFF012842D0421CE0D038B1EB6861
:1048B000012B05D9AA69934238BF1E4600E0A4B96E
:1048C0003446AB6901349C4202D3012EDBD9022469
:1048D000D8F800002146FFF712FF30B1012827D099
:1048E000431C25D0B442ECD1CDE7284621464FF0F9
:1048F000FF32FFF78BFEC0B947B9AA692B69EC609C
:10490000023A93420AD8013B2B6107E02846394618
:104910002246FFF77BFE0028EFD006E02B7943F01C
:1049200001032B712046BDE8F08101289FD00120B2
:10493000BDE8F0810129F8B507460D46046801D8A5
:104940000220F8BDA3699942FAD232B1114620463D
:104950004FF0FF32FFF75AFE10BB38682946FFF7C9
:10496000CEFE064608B90020F8BD0128E8D0431C59
:1049700015D0204629460022FFF748FE80B9A269DB
:104980002369911E8B423FBF01332361237943F09A
:10499000010338BF237196423546DED3E3E7012099
:1049A000F8BDF8B5C37805460C465BB928462146E4
:1049B000FFF7FEFB05F134070646286305F50D7287
:1049C0003B4605E0FFF75BFC0028EFD00120F8BD77
:1049D000002403F8014B9342FAD16B899C4204D323
:1049E0006889201A18BF0120F8BD68783946A219D5
:1049F000012300F051FE0028F2D10134EDE72DE94A
:104A0000F843476906682037B7F5001F24BF002325
:104A1000C361C36904468946002B45D0C7F3080823
:104A2000B8F1000F39D181690133C36131B93389DC
:104A3000B3EB571F31D80023E36135E07389013BA5
:104A400013EA572329D13046FFF759FE01280546BE
:104A500002D80220BDE8F883421C02D10120BDE843
:104A6000F883B369984212D3B9F1000FE3D020461E
:104A7000A169FFF7E8FE0546C8B10128E9D0431C4B
:104A8000ECD030462946FFF78CFF0028E6D1A5611F
:104A900030462946FFF78CFBE061464434366761B7
:104AA00026620020BDE8F8830420BDE8F8830720D3
:104AB000BDE8F8832DE9F8430B7807682F2B0446EF
:104AC0000E4601D05C2B01D1324601E07B6908E043
:104AD00013782F2B164602F10102F9D05C2BF7D088
:104AE0000023A36033781F2B3ED8802384F82F3017
:104AF00020460021BDE8F843FFF75CBE04F1230027
:104B0000002113F8012F2E2A01F1010140D02F2A94
:104B100043D1212A0E4434BF2423202384F82F308C
:104B200020460021D4F80090FFF744FE054630B936
:104B30004846E169FFF7C4FB0546002877D094F8A2
:104B40002F30002D40F08B805A0700F1A580A3790B
:104B5000DB0640F1988061693878C1F30801394477
:104B60003431FFF772FBA06004F1240804F12F0236
:104B70004346202103F8011B9342FAD1334613F830
:104B800001292E2ABAD000211A46084608252CE011
:104B900003297AD000F8012FB3E75C2AB9D0202A84
:104BA00073D8B6E72F2B27D05C2B25D02E2B6ED0B9
:104BB000A9426AD213F0800F1CBF03F07F03DFF815
:104BC000E0E0DFF8E0C018BF1EF803301CF801EF8A
:104BD000BEF1000F19D1A3F1610EBEF1190F01D87A
:104BE000203BDBB208F80130013112F8013F202BE5
:104BF00000F10100D6D80BE03218901B12F8015BCF
:104C00002F2DFAD05C2DF8D002E09E45DED13CE09D
:104C100000293AD094F82420E52A04BF052284F81C
:104C20002420212B34BF04230023064476E7206A86
:104C3000037893B1C37A03F03F03A371C37A1907D2
:104C400006D441460B22FFF73EFA00283FF477AF27
:104C500020460021FFF7D3FE68E704256FE7042D07
:104C60001AD113F0200F03F0040307D0002B3FF4F8
:104C70007BAF802384F82F3000250DE0002B14BF7C
:104C80000425052508E0052506E0062504E00B2D92
:104C9000FBD008210B25A8E72846BDE8F88300BF14
:104CA000D1F60008C1F6000870B500210546066877
:104CB000FFF780FD044678B93046E969FFF700FB4D
:104CC000044648B92B6A1B78E52B09D043B1284626
:104CD0000121FFF794FEEDE7042C08BF072415E03F
:104CE0003046E969FFF7ECFA044678B92B6A03F11C
:104CF0002002002103F8011B9342FAD1286A05F132
:104D000024010B22FFF798FA0123F370204670BDAF
:104D100070B5C37804461BB92378032B3FD104E058
:104D2000FFF7ADFA002842D1F6E72379012B36D1FF
:104D300004F1340604F50D723346002503F8015BD7
:104D40009342FAD1552384F83232AA2384F83332BD
:104D500052234122722184F8343084F835306123A3
:104D600084F8363084F8372084F81A2284F81B320D
:104D700084F8181284F8191204F507702169FFF7F6
:104D80009AF904F50870E168FFF795F9226A6078EE
:104D9000013222633146012300F07EFC257100219F
:104DA00060780A4600F08CFC003018BF012070BD0E
:104DB00030B585B01446019004A8009140F8041D58
:104DC000FFF702FA002818DB0E4B53F820203AB107
:104DD0000D4D296891424FF0000108BF2960117004
:104DE000019A0AB10021117043F820203CB16846B5
:104DF00001A90022FFF7BAFA02E00B2000E02046EA
:104E000005B030BD1490FE1F0490FE1F2DE9F04147
:104E100090B0174601910446002800F0DA8002F0B5
:104E20003F0501A803A92A46FFF7A0FA002840F091
:104E3000E18010AE039B46F8303D01993046FFF704
:104E400039FE68B99DF93F30002B08DB15F03E0FA5
:104E5000304614BF01210021FFF744F900E006208D
:104E600017F01C0F4AD058B1042805D1644B1B68B9
:104E7000002B00F0B080122045F0080548B1B9E0E1
:104E80009DF8163013F0110F40F0AD807B0700F154
:104E9000A6802F073CD5039BDDF83080187841466B
:104EA000FFF7D3F9074600F01DFC014608F10E009C
:104EB000FFF701F90C9B03982022DA720C9900226B
:104EC000FFF7D1F90C9B00221A775A779A77DA7795
:104ED000039B0121D970DFB130463946D3F83080C9
:104EE000FFF728FD002840F0858003984146FFF732
:104EF000E7F9039B013FDF6050B17BE0002879D1E7
:104F00009DF81630D8066CD4BA0701D5DF076AD4ED
:104F1000039B28071B6B636248BF45F0400515F0F3
:104F2000FE0F0C9BA362304614BF01210021FFF746
:104F3000FDF8206100285AD0039F0C9E3878314636
:104F4000FFF783F9A06006F11C00FFF7A9F8FB88C2
:104F5000A38004F12C06002363752362A361E06043
:104F60002760257504F50B723346002103F8011BF9
:104F70009342FAD1AA0638D5E568002D35D07F894D
:104F8000A168A5617F02BD420ED92068FFF7B7FB7B
:104F90000128014603D9431C5842584100E0022031
:104FA000ED1B0028EFD000E00020E16110BBC5F34D
:104FB0000803D3B1039F3846FFF7FAF8B8B100EB06
:104FC0005522226278783146012300F051FB80B9E6
:104FD0000BE0092010E03046FFF766FE4CE70820A2
:104FE00008E0042006E0072004E0002004E002209E
:104FF00000E001200023236010B0BDE8F08100BF75
:105000000490FE1F2DE9F74F984600230F46C8F87D
:10501000003001A905461446FFF7F6F8002840F0D5
:105020009B80687D002840F097802B7DDA0740F157
:105030009280EB68A869181A844228BF0446002CA5
:1050400000F08780AB69C3F30802002A68D1019A97
:10505000B2F80AA00AF1FF3A1AEA532A10D10BB9A2
:10506000A86803E02868E969FFF749FB012801D82F
:10507000022002E0431C02D1012068756CE0E86167
:10508000DDF804B0E9695846FFF792F80028EFD040
:10509000660A00EB0A0923D0BBF80A309BF801002E
:1050A00006EB0A029A4288BFCAEB030639464A4613
:1050B000334600F0DDFA0028DED195F91430002BDC
:1050C0000CDA286AC9EB0000B04207D207EB402097
:1050D00005F12C014FF40072FFF7AEF876022DE0D7
:1050E0002A6A4A451AD095F91430002B05F12C068E
:1050F0000BDA9BF801003146012300F0CDFA0028BD
:10510000BAD12B7D03F07F032B75019B3146587874
:105110004A46012300F0ACFA0028ADD1C5F8209032
:10512000A969C1F30801C1F50076A64228BF264649
:10513000294438462C313246FFF77EF8D8F8003043
:105140003344C8F80030AB69A41B37441E44AE6139
:1051500075E7204600E0072003B0BDE8F08F2DE999
:10516000F74F984600230F46C8F8003001A90446BF
:105170001646FFF749F8002840F0B680607D002809
:1051800040F0B280237D9A0740F1AD80A369DE42F2
:1051900051D3DE434FE0A369C3F30802002A40F075
:1051A0008F80019AB2F80AA00AF1FF3A1AEA532A4C
:1051B00044D094F91430002B60DBDDF804B0E169D1
:1051C0005846FEF7F5FF00284BD0750A00EB0A0998
:1051D00063D0BBF80A309BF8010005EB0A029A4243
:1051E00088BFCAEB030539464A462B4600F054FAFD
:1051F00000283AD1216AC9EB0101A9420BD204F17E
:105200002C0007EB41214FF40072FFF715F8237DC6
:1052100003F07F0323756D02D8F800302B44C8F8E3
:105220000030A369761B2F441D44E368A561AB429F
:105230002CBFE360E560002EADD10AE01BB9A16888
:1052400069B9204601E0E1692046FFF7FCFA014612
:1052500028B9237D43F040032375002044E0012951
:1052600001D1022002E04B1C02D1012060753BE01D
:10527000A368E161002B9CD1A1609AE7019B226A9F
:10528000587804F12C01012300F006FA0028ECD133
:10529000237D03F07F0323758FE7236A4B450DD0F1
:1052A000A269E3689A4209D29BF8010004F12C013B
:1052B0004A46012300F0DCF90028D6D1C4F820903A
:1052C000A069C0F30800C0F50075B54228BF354697
:1052D00020442C3039462A46FEF7AEFF237D63F08A
:1052E0007F03237598E7072003B0BDE8F08FF7B57B
:1052F00001A90546FEF788FF00283FD12B7D03F06A
:10530000400202F0FF00002A38D01B060CD5019B9A
:105310002A6A587805F12C01012300F0BDF960BB21
:105320002B7D03F07F032B7500F0DCF9696A0746DB
:105330000198FEF7C5FF044600BBAE6AF37A43F05E
:105340002003F372AA6828683146FEF78CFF06F145
:105350001C00E968FEF7AFFE06F116003946FEF7BD
:10536000AAFE0198B4740123F474C370FFF7D0FC53
:105370002B7D23F040032B7500E0012003B0F0BD2E
:1053800013B50446FFF7B3FF48B9204601A9FEF75D
:105390003BFF20B92069FEF7F5FE00B9206002B09E
:1053A00010BD73B50D4601A90446FEF72DFF002878
:1053B00040F09280607D002840F08E80E3689D423E
:1053C00004D9227D12F0020F08BF1D460022A369F6
:1053D000A2610DB9002551E0019A568976026BB1A0
:1053E000013B6A1EB3FBF6F1B2FBF6F28A4205D32B
:1053F00072421340A361ED1AE16910E0A16869B936
:105400002046FFF720FA0128014601D1022002E0E0
:10541000013002D1012060755EE0A160E1610029E8
:10542000D8D0B5421CD9A3693344A361237D9A0720
:10543000A5EB060505D52046FFF705FA014620B97C
:105440000DE02068FFF75BF901464B1CE2D0012913
:10545000DCD9019B9B699942D8D2E161E1E705461D
:10546000A3692B44A361C5F30803002BB2D00198B4
:10547000FEF79EFE0028C9D000EB5525E368A06921
:10548000984282BF237DE06043F04003C0F30800F0
:1054900088BF237500B3226A95421CD094F914305A
:1054A000002B04F12C060BDA019B314658780123BE
:1054B00000F0F2F80028ADD1237D03F07F032375BF
:1054C000019B314658782A46012300F0D1F8002884
:1054D000A0D1256200E0002002B070BD2DE9F047A8
:1054E00094B014AB02A943F84C0D02221846FEF703
:1054F0003DFF044600287ED114AE029B46F8303DA5
:1055000001993046FFF7D6FA38B1042872D19DF8D8
:105510004F309A0603D506206CE008206AE014AFED
:10552000029B47F8443D21463846FFF78CF9054673
:1055300038B1012D03D06B1C5C425C4102E00224B7
:1055400000E0072400F0CEF88046002C3AD1029803
:105550002946FFF726FA0446A0BB029B03F134025A
:105560003F334FF0200902F8019B9A42F9D102988B
:105570002E244FF0100A80F8344080F83FA04146B6
:105580004A30FEF798FD02982A4600F13401FEF7F2
:105590006AFE02994A4601F154003431FEF74CFE8E
:1055A00002980A9A80F8554000F15401FEF75BFE1C
:1055B000029B4FF0010983F803903046FFF774FB1C
:1055C000044628B1384629460022FFF7B3F912E015
:1055D000109841461630FEF76EFD029810992A4643
:1055E000FEF741FE109B029883F80BA080F8039011
:1055F000FFF78EFB0446204614B0BDE8F08700009C
:10560000037910B5044653B9064B1868FDF77CF8CA
:1056100010B92068FEF7D9FC0123237110BD0120C9
:1056200010BD00BF54F7000808B538B9044A054B4F
:1056300010681B689847044B185C08BD032008BD20
:1056400054F700086089FE1F5C89FE1F08B538B951
:10565000044A054B10685B689847044B185C08BD0A
:10566000032008BD54F700086089FE1F5C89FE1FF7
:1056700010B548B943B1054884680548DBB20068F5
:10568000A047044B185C10BD042010BD6089FE1FAC
:1056900054F700087489FE1F10B548B943B1054896
:1056A000C4680548DBB20068A047044B185C10BD15
:1056B000042010BD6089FE1F54F700087489FE1F86
:1056C00008B538B9044B05481B6900689847044B76
:1056D000185C08BD042008BD6089FE1F54F700084F
:1056E0007489FE1F07B50023684600930193FEF7F7
:1056F00083FC9DF805309DF803209DF8000003F021
:105700000F0302F01F025B0543EA02419DF80230DD
:1057100003F01F0341EAC3229DF8013003F03F0369
:1057200042EA4313C0F344000343BDF80600A0F26D
:10573000BC7043EA406003B05DF804FB10B504465A
:10574000221D217C0068FAF75FFF2068217C627CC3
:10575000FBF7E8FA002010BD194B1A4AD96821F46A
:10576000E0610904090C0A43DA6072B6164A9A60CD
:10577000BFF34F8F62B6D3F88820144842F470020A
:1057800041F21401C3F88820425822F00F0242F07F
:10579000040242505A6922F010025A615A6922F0FA
:1057A00008025A615A6A22F480325A625A6A22F412
:1057B00000325A625A6A22F480225A62704700BF4D
:1057C00000ED00E00001FA0500000008001000589C
:1057D000012303700020704700487047001BB7008A
:1057E00030B5114D0FCD87B001AC0FC42B682360CD
:1057F00001A8FBF7D5F90020FAF7F8FF0020FAF727
:10580000D1FF0420FBF73AF820210120FBF772F8C2
:105810000020FAF7D1FF0120FBF744F80120FBF745
:1058200037F807B030BD00BF80F70008F8B5037E39
:10583000022B044640F08A80C068FEF700FCE26854
:10584000A36805465069196800221346FBF768FCF7
:10585000E36861685869FBF709FD23681E68B06852
:10586000717B3268FBF768FD336871689B78B268BA
:10587000096803F00F03A03342F82310E368327B7A
:105880005B69707B03EB82030122D3F880118240B5
:105890000A43C3F8802163681B7A1B0748D5236934
:1058A000002B45D02A4A1E68D1685A689B68C1F30C
:1058B0000221C1F1070CBCF1060FF7B228BF4FF06F
:1058C000060C09B1481E00E00846012101FA00FE5D
:1058D0000EF1FF3E01FA0CF10EEA030E4B1E1340CF
:1058E00083407AB2002A4EEA03034FEA8303ADBF36
:1058F00002F16042174A06F00F0602F56142B9BF95
:10590000DBB29355DBB282F80033E368617E5869FD
:10591000FBF72EFC23691A6853B2002B08DB012128
:1059200002F01F0201FA02F25B090B4941F8232041
:10593000636903B19847A37E3BB1E3685A69D2F823
:10594000043243F40073C2F804322576207EF8BD99
:1059500000ED00E014ED00E000E100E00368826883
:105960009B7803F00F03C03352F8230080B27047D6
:1059700008B50F48FFF72CFFC0B90E48FCF7BDFD76
:10598000A0B90D48FFF7DAFE80B90C48FFF7D6FE44
:1059900060B90B48FFF74AFF40B90A48FCF737FBEC
:1059A00020B90948BDE80840FFF72ABE08BD00BF7E
:1059B0001890FE1F4888FE1F58F700086CF7000873
:1059C0008489FE1F0088FE1F7C89FE1F10B50446D7
:1059D000FCF79CFC4FF47A7303FB0404FCF796FC81
:1059E000844201D900BFF9E710BD0000F8B52DEDE4
:1059F000028B9FED118A06460F4615460023D9B249
:105A00008D4203F1010412DB07EE901AF8EE677A7B
:105A100007EB8103304617EE901AD3ED008A03F0AE
:105A20007BF807EE900A2346A8EEA78AE7E718EE70
:105A3000100ABDEC028BF8BD0000000010B5FFF7A6
:105A400097FF00B1FEE7124B197C1A6801238B40C7
:105A5000536002F023FB02F05BFBFCF757FC0446AB
:105A6000FCF754FC04F5C333A03398420BD200BFBB
:105A7000F6E700221A7002F0F1FB064B1B689B0749
:105A800001D102F0DDFC044B1A78002AFBD0F0E7CC
:105A90006CF700082490FE1F7D9AFE1F0000000096
:105AA000F8B5474C474D2388474E01339BB2B3F5B9
:105AB000DC7F238021BF454B01221A70002328BFC1
:105AC0002380434B1B78032B4DD8DFE803F00207FC
:105AD000162A40482488FFF741FF41E022885821D8
